:10000000B8220020294D0000214E0000214E0000A2
:1000100000000000000000000000000000000000E0
:10002000000000000000000000000000214E000061
:100030000000000000000000214E0000214E0000E2
:10004000214E0000214E0000214E0000E10A000078
:10005000DD0E0000214E0000214E0000214E000068
:10006000214E0000D93E0000F13E0000093F000093
:10007000213F0000393F0000513F0000ED2B000000
:10008000012C0000152C0000A52C0000B92C00004C
:10009000CD2C00000000000000000000214E0000F8
:1000A000214E0000214E0000214E0000214E000094
:1000B0000000000010B5064C2378002B07D1054B3B
:1000C000002B02D0044800E000BF0123237010BDC4
:1000D000100000200000000004900000084B10B544
:1000E000002B03D00749084800E000BF0748036819
:1000F000002B00D110BD064B002BFBD09847F9E731
:100100000000000014000020049000000490000093
:100110000000000080B582B000AF78607B680022EC
:100120001A70C046BD4602B080BDC04680B582B0E0
:1001300000AF02003960FB1D1A70FB1D1B78012BFC
:100140000AD0022B0FD0002B14D10E4B0D4A91690F
:100150003A680A439A610FE00A4B0A4AD1693A6841
:100160000A43DA6108E0074B064A116A3A680A4313
:100170001A6201E0172300E000231800BD4602B018
:1001800080BDC0460004004080B582B000AF7860FA
:100190007B6880221A707B6800225A707B6801227B
:1001A0009A707B680022DA70C046BD4602B080BDFE
:1001B00080B582B000AF0200FB1D1A70064BFA1D1D
:1001C000127811001F220A40012191400A001A6092
:1001D000C046BD4602B080BD00E100E080B584B0FD
:1001E00000AF0200FB1D1A700F23FB18FA1D1278D6
:1001F00052091A700F23FB181B78002B0CD1094BE6
:10020000BB600F23FB181B789B0010229446BC4454
:100210006344083B1B6800E000231800BD4604B09F
:1002200080BDC0460018004080B582B000AF0F4BC3
:100230003B6000237B6011E07B689B0008229446B2
:10024000BC446344083B1B685B78DBB25BB2002BA9
:1002500001DA012306E07B6801337B607B68002BB9
:10026000EAD000231800BD4602B080BD001800404F
:1002700080B584B000AF2D4B7B60402100202C4B1B
:1002800098473B0018002B4B98473B0000221A7000
:100290003B0019000520284B98470520274B98471D
:1002A0000023FB6018E0FB689B0010229446BC44CE
:1002B00063440C3B1A68FB689B0010218C46BC44CD
:1002C00063440C3B1B681B78DBB201210B43DBB2A0
:1002D0001370FB680133FB60FB68002BE3D0C04662
:1002E000174B9847031EFBD10B23FB1800221A70F3
:1002F0000DE00B23FB181A78124B92000021D1500D
:100300000B23FB181A780B23FB1801321A700B23EE
:10031000FB181B780F2BECD904200B4B98470B4B89
:100320009847C046BD4604B080BDC0460018004096
:100330002D01000015010000B5490000F949000039
:10034000290200008C000020B101000051030000D0
:1003500080B582B000AF154B3B6000237B6018E096
:100360007B689B0008229446BC446344083B1A689F
:100370007B689B0008218C46BC446344083B1B6897
:100380001B78DBB202210B43DBB213707B680133B5
:100390007B607B68002BE3D0C046054B9847031E6B
:1003A000FBD1C046BD4602B080BDC046001800402B
:1003B0002902000080B582B000AF78607B6800221F
:1003C0001A607B6800225A607B6801221A727B687F
:1003D00001225A727B6800229A727B680222DA72CA
:1003E000C046BD4602B080BD80B586B000AF0200F9
:1003F0003960FB1D1A700823FB181800364B98470C
:100400003B685B68DAB20823FB181A700823FB18F4
:1004100000225A703B681A7A0823FB189A703B68CE
:100420001B68DBB20822BA18110018002B4B984742
:10043000FB1D1B7818002A4B984703003B61FB1DEE
:100440001B78072213409B00FB603B68DB7A7B61D3
:100450003B689B7A002B03D07B69082213437B61A6
:10046000FB1D1B78DB08DBB21800FB1D1B78DB08CB
:10047000DBB21A003B6906329200D3580F21FA68AA
:1004800091400A00D2431A407969FB6899400B00F9
:100490001A4311003B69821D9200D1503B685B7A80
:1004A000002B0AD03B695A69FB1D1B78012199403A
:1004B0000B001A433B695A610AE03B695B69FA1D0C
:1004C0001278012191400A00D2431A403B695A61D7
:1004D000C046BD4606B080BD89010000A14C0000A9
:1004E000DD01000080B582B000AF78607B6800223B
:1004F0001A70C046BD4602B080BDC04680B582B00D
:1005000000AF02003960FB1D1A70FB1D1B78012B28
:100510000AD0022B0FD0002B14D10E4B0D4A91693B
:100520003A680A439A610FE00A4B0A4AD1693A686D
:100530000A43DA6108E0074B064A116A3A680A433F
:100540001A6201E0172300E000231800BD4602B044
:1005500080BDC0460004004080B582B000AF0200FC
:10056000FB1D1A70064BFA1D127811001F220A405B
:10057000012191400A001A60C046BD4602B080BD0C
:1005800000E100E080B582B000AF0200FB1D1A70F0
:10059000074AFB1D1B7819001F230B4001219940BE
:1005A0000B0019008023D150C046BD4602B080BD6B
:1005B00000E100E080B584B000AF78607B681B6824
:1005C000FB60FB689B7ADBB25BB2002B01DA012394
:1005D00000E000231800BD4604B080BD80B584B0A3
:1005E00000AF78607B681B68FB6003200A4B98476C
:1005F000C0467B681800094B9847031EF9D1FB6879
:100600001B889BB2022213439AB2FB681A80C04631
:10061000BD4604B080BDC04659050000B5050000C8
:1006200080B584B000AF78607B681B68FB600320F6
:100630000A4B9847C0467B681800094B9847031E31
:10064000F9D1FB681B889BB2022293439AB2FB68E4
:100650001A80C046BD4604B080BDC0468505000076
:10066000B505000080B584B000AF78607B681B687A
:10067000FB607B6818000D4B98477B6800229A82CC
:100680007B680022DA82C0467B681800084B9847D6
:10069000031EF9D1FB681B889BB2012213439AB257
:1006A000FB681A80C046BD4604B080BD210600002C
:1006B000B505000080B584B000AF786039607B6814
:1006C0001B68BB603B681A88BB681A803B689B78D4
:1006D000002B3AD0012B00D06CE0BB681B889AB28B
:1006E000BB681A803B68DB78002B07D0BB681B888F
:1006F0009BB2802213439AB2BB681A800F23FB1867
:1007000000221A701BE0C0467B681800334B9847E4
:10071000031EF9D10F23FB181A783B6802329200AE
:10072000D1580F23FB181A787B6818002C4B984778
:100730000F23FB181A780F23FB1801321A700F23AE
:10074000FB181B78002BDED036E0BB681B889BB201
:10075000042213439AB2BB681A803B68DB78002BF3
:1007600001D0172336E00E23FB1800221A701BE07D
:10077000C0467B681800194B9847031EF9D10E2319
:10078000FB181A783B6802329200D1580E23FB18EE
:100790001A787B681800124B98470E23FB181A78BA
:1007A0000E23FB1801321A700E23FB181B78012B45
:1007B000DED901E017230DE03B681B79002B08D040
:1007C000BB685B889BB28022D20113439AB2BB689C
:1007D0005A8000231800BD4604B080BDB505000056
:1007E0003D09000080B586B000AFF860B9607A605E
:1007F000FB68BA681A6020210020174B9847142321
:10080000FB181800154B98471423FB1802221A7086
:100810001423FB1819000420114B98470420114B96
:100820009847FB681800104B98477B689A78FB68DC
:100830001A717B681A79FB685A710C4BFA681A6056
:100840007A68FB6811001800094B984703001800EC
:10085000BD4606B080BDC046FD040000E5040000B2
:10086000B5490000F949000065060000CC000020F1
:10087000B506000080B584B000AF786039607B6851
:100880001B68FB60C0467B681800104B9847031E2E
:10089000F9D17B681B79002B05D0012B0ED1FB68A9
:1008A0003A681A610CE03B68094A934201D9172360
:1008B00007E03B689AB2FB681A8201E0172300E068
:1008C00000231800BD4604B080BDC046B505000039
:1008D000FFFF000080B584B000AF78607B681B68C4
:1008E000BB607B685B7901225340DBB2002B09D0EF
:1008F000BB68104A5A80C0467B6818000E4B984768
:10090000031EF9D17B681B79002B05D0012B08D180
:10091000BB681B69FB6007E0BB681B8A9BB2FB607E
:1009200002E00023FB60C046FB681800BD4604B02F
:1009300080BDC0460080FFFFB505000080B586B0D1
:1009400000AFF860B960FB1D1A70FB681B687B6123
:10095000C046FB6818001A4B9847031EF9D1FB6884
:100960001B79002B0FD0012B22D1FB1D1B78012BF3
:1009700001D917231FE0FB1D1A787B69063292000C
:10098000B968D15016E0FB1D1B78022B01D9172343
:1009900011E0BB680B4A934201D917230BE0FB1D02
:1009A0001A78BB6899B27B690C325200D15201E0CF
:1009B0001A2300E000231800BD4606B080BDC046E3
:1009C000B5050000FFFF000080B584B000AF78607F
:1009D0000A00BB1C1A807B681B68FB607B681B7964
:1009E000002B01D015230BE0C0467B681800064B96
:1009F0009847031EF9D1FB68BA1C12889A8200231B
:100A00001800BD4604B080BDB505000080B586B0B5
:100A100000AF7860314B7A689200D3587B617B6974
:100A20001B683B610E23FB187A69D28A1A807B69A6
:100A30009B8A9AB20E23FB180E21791809880A4066
:100A40001A803B691B7ADAB20C23FB181A803B69C7
:100A5000DB79DBB29AB20C23FB180C2179180988D8
:100A60000A401A800C23FB181B88802213400CD0EC
:100A70000E23FB181B880422134002D07B691B69DC
:100A800098473B6980221A7224E00C23FB181B88CC
:100A9000012213400CD00E23FB181B8801221340A7
:100AA00002D07B699B6898473B6901221A7211E06A
:100AB0000C23FB181B88022213400BD00E23FB18BB
:100AC0001B880222134002D07B69DB6898473B6990
:100AD00002221A72C046BD4606B080BDCC0000207E
:100AE00080B500AF0020024B9847C046BD4680BD90
:100AF0000D0A000080B584B000AF0200FB1D1A7023
:100B00000F23FB18FA1D1278D2091A700E23FB1856
:100B1000FA1D127852091A700D4BBB600F23FB1897
:100B20001B78002B0FD10F23FB181B789B00102282
:100B30009446BC446344083B1A680E23FB181B7898
:100B4000DB01D31800E000231800BD4604B080BDCF
:100B50000044004180B582B000AF0200FB1D1A7056
:100B6000FB1D1B781800034B984703001800BD4677
:100B700002B080BDF50A000080B584B000AF02006D
:100B8000FB1D1A70FB1D1B7818000B4B98470300C8
:100B9000FB60FB1D1B781F22134001229A401300AB
:100BA000BB60FB681B6ABA6813405A1E9341DBB2F4
:100BB0001800BD4604B080BD550B000080B500AFE5
:100BC000104B00221A700F4B00225A700D4B00225E
:100BD0009A700C4B0022DA700A4B00221A71094BF2
:100BE00000225A71074B00229A71064B0022DA71DB
:100BF000044B00221A81034B00225A81C046BD4695
:100C000080BDC046D0000020B0B500AF00201B4B17
:100C1000984703001A001A4B9A700120174B984707
:100C200003001A00164BDA700220144B9847030099
:100C30001A00134B1A700320104B984703001A0038
:100C40000F4B5A700F4A104910480023104CA04710
:100C50000C4A1049104801230D4CA0470F4A104977
:100C6000074801230A4CA0470C4A0E490E480023AE
:100C7000074CA047C046BD46B0BDC046090D0000A8
:100C8000D0000020D8000020D4000020D200002096
:100C9000AD0C0000D5000020D3000020DA000020B9
:100CA000D6000020D7000020D100002080B584B0FD
:100CB00000AFF860B9607A601A00FB1C1A70FB681C
:100CC0001A78BB681B789A421AD0FB1C1B78002B41
:100CD00009D07B6800229B5E9BB201339BB21AB2A3
:100CE0007B681A8008E07B6800229B5E9BB2013B18
:100CF0009BB21AB27B681A80FB681A78BB681A70BC
:100D0000C046BD4604B080BD80B582B000AF0200D1
:100D1000FB1D1A70FB1D1B78012B0DD002DC002B74
:100D200005D018E0022B0CD0032B0FD013E00A20C3
:100D30000B4B984703000EE00B20094B984703002C
:100D400009E00620064B9847030004E00920044B05
:100D500098470300FFE71800BD4602B080BDC046BB
:100D6000790B000080B584B000AF0200FB1D1A7043
:100D70000F23FB18FA1D127852091A700F23FB1863
:100D80001B78002B0CD1094BBB600F23FB181B7881
:100D90009B0010229446BC446344083B1B6800E05F
:100DA00000231800BD4604B080BDC04600180040B6
:100DB00080B584B000AF0200FB1D1A70FB1D1B78CC
:100DC00018000B4B98470300FB60FB1D1B781F228C
:100DD000134001229A401300BB60FB681B69BA688C
:100DE00013405A1E9341DBB21800BD4604B080BDCB
:100DF000650D000080B584B000AF0200FB1D1A70C5
:100E0000FB1D1B781800094B98470300FB60FB1D76
:100E10001B781F22134001229A401300BB60FB681D
:100E2000BA681A61C046BD4604B080BD650D0000B9
:100E300080B582B000AF786008001100FB1C021C76
:100E40001A70BB1C0A1C1A70BB1C1B78002B01D02B
:100E5000172319E0FB1C1A780D4B9200D358002B76
:100E600007D1FB1C1A780A4B92007968D1500023F5
:100E70000AE0FB1C1A78064B9200D2587B689A4213
:100E800001D1002300E01D231800BD4602B080BD43
:100E90008C00002080B584B000AF0200FB1D1A70EA
:100EA000BB1D0A1C1A70BB1D1B78002B0ED1FB1D2D
:100EB0001B781800084B98470300FB60FB1D1B784C
:100EC00001229A40FB68DA60002300E01723180033
:100ED000BD4604B080BDC046650D000080B500AFC2
:100EE000154B00221A7020E0134B1B781800134B8F
:100EF0009847031E13D0104B1B781800104B9847CF
:100F00000D4B1B781A000F4B9200D358002B06D0C4
:100F1000094B1B781A000B4B9200D3589847064B8D
:100F20001B780133DAB2044B1A70034B1B780F2B7A
:100F3000DAD9C046BD4680BDDC000020B10D0000FE
:100F4000F50D00008C00002080B582B000AF786005
:100F50007B6800221A70C046BD4602B080BDC04604
:100F600080B582B000AF02003960FB1D1A70FB1D16
:100F70001B78012B0AD0022B0FD0002B14D10E4B63
:100F80000D4A91693A680A439A610FE00A4B0A4A8E
:100F9000D1693A680A43DA6108E0074B064A116AE8
:100FA0003A680A431A6201E0172300E000231800A0
:100FB000BD4602B080BDC0460004004080B582B08E
:100FC00000AF78607B6880221A707B6800225A70BC
:100FD0007B6801229A707B680022DA70C046BD46A9
:100FE00002B080BD80B500AF054B9B78DBB21A0024
:100FF000022313405A1E9341DBB21800BD4680BD48
:101000000020004180B584B000AF78607B681B6829
:10101000FB60FB68DB69072213405A1E9341DBB279
:101020001800BD4604B080BD80B582B000AF7860C6
:10103000C0467B681800044B9847031EF9D1C04690
:10104000BD4602B080BDC04605100000F0B595B0A9
:1010500000AFF860B96000237B630023BB6400230A
:101060007B643B2308229446BC44634400221A70EC
:10107000FB681B683B63FB681B68FB622323082239
:10108000BA18D418FB6A1800DB4B9847030023708A
:101090000C2308229446BC4463441800D74B98475D
:1010A000BB68DB69FB63BB681B6ABB63FB6B002B24
:1010B00006D1FB6A00211800D14B98470300FB635F
:1010C000FB6BDAB20C2308218C46BC4463441A70D3
:1010D0000C2308229446BC44634402225A70FB6BE2
:1010E0001B0CDBB20C2208218C46BC44624411006C
:1010F0001800C44B9847BB6B002B06D1FB6A01213B
:101100001800BF4B98470300BB63BB6BDAB20C23DC
:1011100008218C46BC4463441A700C230822944670
:10112000BC44634402225A70BB6B1B0CDBB20C2222
:1011300008218C46BC44624411001800B14B98470A
:10114000BB689A8AFB68DA80BB68DA8AFB681A8116
:10115000BB681B7E002B03D1AB4B9847031E02D00C
:101160008023FB6401E00023FB64BB681B69002B48
:1011700004D0BB681B69FA6C1343FB64BB689B68B3
:10118000FA6C1343FB64BB6824229B5C002B04D0E5
:10119000FB6C8022D2051343FB64BB689B6A002B67
:1011A00004D0BB689B6AFA6C1343FB64BB682C22B7
:1011B0009B5C002B05D1BB689A6880239B049A42F4
:1011C00004D1FB6C802212051343FB64BB682D2203
:1011D0009B5C002B04D0FB6C802212041343FB6445
:1011E000BB682E229B5C002B04D0FB6C8022D203B8
:1011F0001343FB643B6B1A68FB6C1A433B6B1A602E
:101200003B6B802252005A60232308229446BC4440
:1012100063441B781433DBB218007C4B98470300FF
:101220007B62BB681B68FA22920053433B62BB6837
:101230005B68FA2292005343FB61BB681B8EBB6163
:10124000734B786A984705000E00714B386A9847CF
:10125000386079607B6ABA695A436D4B10009847D1
:101260006C4C6D4A6D4BA04703000C001800210028
:101270006B4C00226B4BA04703000C001A002300AC
:10128000644C38687968A04703000C001A002300FA
:10129000654C28003100A04703000C001D0026000B
:1012A0003B6A5A005A4B1000984702000B005C4CF6
:1012B00028003100A04703000C00180021005A4C00
:1012C00000225A4BA04703000C001D0026003B6A79
:1012D0005A004F4B1000984702000B00544C280056
:1012E0003100A04703000C0019002200514B0800F8
:1012F0001100984703007B63BB689A6880239B04B6
:101300009A4245D1424B786A9847454C02000B00FF
:10131000A04703000C001D0026003D4BF8699847CC
:101320003C4C0022444BA04703000C001A00230051
:101330003F4C28003100A04703000C00180021009A
:10134000394C0022394BA04703000C001900220041
:10135000384B08001100984703007B647B6C002B1E
:1013600009D0364BF969786A984703009A1E7B6C5E
:10137000D31ABB640CE0FB695A007B6AD3185A1E6F
:10138000FB6959002D4B100098470300013BBB64DB
:101390007B6BFF2B08DC7B6B002B05DBBB6CFF2B17
:1013A00002DCBB6C002B06DA3B2308229446BC44CB
:1013B000634440221A703B2308229446BC44634491
:1013C0001B78402B0ED07B6BFF221A40BB6C1B049A
:1013D0001900FF231B040B4013437A6C12061A43B7
:1013E0003B6BDA603B2308229446BC4463441B7881
:1013F0001800BD4615B0F0BDBD3D0000BD0F00009A
:10140000013C0000A14C0000E50F0000D94A00009B
:10141000598D00005181000095D626E80B2E113E13
:10142000CD74000000002440458600000000F03F1D
:10143000257B0000ED8C000000000840B573000023
:1014400090B58BB000AFF860B9607A60FB68BA689D
:101450001A60FB681B687B62FB681B6818003B4BCB
:10146000984703003B623B6A0233FB613B6A1433DB
:10147000BB610122FB699A40130019000220344B22
:1014800098471423FB181800324B98477B681A7B47
:101490001423FB181A70BB69DBB21422BA181100AE
:1014A00018002D4B9847BB69DBB218002B4B9847AF
:1014B0007B681B7B00211800294B98477B6A1B68BF
:1014C0000222134001D01C233BE07B6A1B680122EF
:1014D000134001D0052334E0FB681B681722BC18B9
:1014E00018001A4B9847030023701E4A1723FB1855
:1014F0001B78110018001C4B98471723FB181A780B
:101500001A4B9200F968D150FB6800221A76FB68EA
:1015100000225A76FB6800225A83FB6800229A83D5
:10152000FB68252200219954FB6800221A627B6A1D
:1015300014221A607A68FB68110018000C4B984757
:1015400003001800BD460BB090BDC046BD3D000075
:10155000610F0000490F0000B5490000F949000083
:10156000753B0000651D0000213E0000FC000020CE
:101570004D10000080B584B000AF78607B681B68B8
:10158000FB60FB681B7EDBB21A00022313400BD00A
:10159000FB6802221A76FB685B8B9BB21A0002235F
:1015A000134011D0412310E0FB685B8B9BB21A0003
:1015B0000423134008D0FB685B68C02292021A43E0
:1015C000FB685A60182300E000231800BD4604B0F1
:1015D00080BDC04680B584B000AF78607B681B6872
:1015E000BB600E23FB1800221A800FE00E23FB18AD
:1015F0000E22BA18128801321A807B681B890E22CB
:10160000BA1812889A4201D312230EE0BB681B7EDF
:10161000DBB21A000123134006D1BB681B7EDBB28C
:101620001A0002231340E1D000231800BD4604B085
:1016300080BDC04690B585B000AF78600A00FB1C45
:101640001A707B681B68FB60FB685B688022D202B3
:101650001A43FB685A60FB1C1A78FB685A620B231A
:10166000FC187B681800074B984703002370FB6841
:1016700001221A760B23FB181B781800BD4605B013
:1016800090BDC046D515000090B587B000AF78601A
:1016900039607B681B68FB601423FB183A6852882A
:1016A0001A801223FB1800221A80FB681B681B019A
:1016B000DB0FDBB21A000B23FB18511E8A411A7094
:1016C0003B685B7A002B06D03B689A7A7B681100F6
:1016D0001800854B9847FB685B68844A1A40FB6892
:1016E0005A603B681B7A002B42D03B681B885A002B
:1016F0003B685B7A9B0313431A0080231B021A4347
:10170000FB685A621723FC187B681800784B9847CF
:1017100003002370FB685B68744A1A40FB685A60D8
:101720001723FB181B78002B07D11723FC187B68A5
:101730001800704B9847030023701723FB181B7881
:10174000002B11D13B681B881B0A9BB278221343E4
:101750009BB25A003B685B7A9B03134301221343FD
:101760001A00FB685A620FE01723FB181B78B6E0DB
:101770003B681B885B0001221A433B685B7A9B0332
:1017800013431A00FB685A621723FC187B68180081
:10179000574B9847030023700B23FB181B78002B33
:1017A0000BD03B685B88012B07D1FB685B6880220C
:1017B000D2021A43FB685A6005E0FB685B684B4A3B
:1017C0001A40FB685A601723FB181B78002B07D1BF
:1017D0001723FC187B681800464B984703002370BA
:1017E0001723FB181B78002B00D075E04BE0FB683B
:1017F0005B8B9BB21A002023134001D141236EE082
:101800007B68DB7A002B1ED00B23FB181B78012290
:101810005340DBB2002B04D01423FB181B88002B91
:1018200009D00B23FB181B78002B0CD01423FB18BA
:101830001B88012B07D1FB685B688022D2021A4308
:10184000FB685A601AE07B6818002B4B98473B688E
:101850005A681223FB181B8812217918581C08801B
:10186000D318FA682821525CD2B21A701723FC18D8
:101870007B6818001E4B9847030023701723FB1842
:101880001B78002B09D11423FB181B881422BA18CB
:10189000591E1180002BAAD100E0C0467B689B7ABC
:1018A000002B0AD07B681800134B9847FB685B68D5
:1018B000C02292021A43FB685A607B6818000E4BE4
:1018C00098473B685A681223FB181B88D318FA689C
:1018D0002821525CD2B21A701723FB181B7818000B
:1018E000BD4607B090BDC04635160000FFFFFBFFA8
:1018F000D5150000751500002910000080B582B0D4
:1019000000AF786039607B689B8B9BB2002B01D065
:1019100005230CE07B6801229A727B680122DA724F
:101920003A687B6811001800034B984703001800C1
:10193000BD4602B080BDC0468916000090B587B094
:1019400000AF786039607B681B68FB601423FB186C
:101950003A6852881A807B681800514B98473B6858
:101960005B7A002B06D03B689A7A7B6811001800DE
:101970004C4B9847FB685B684B4A1A40FB685A60BF
:101980003B681B7A002B0DD03B681B885A003B68D4
:101990005B7A9B0313431A0080231B021A43FB68E4
:1019A0005A6209E03B681B885A003B685B7A9B03DC
:1019B00013431A00FB685A621723FC187B6818004F
:1019C0003A4B9847030023701723FB181B78002B12
:1019D00007D11723FC187B681800354B9847030084
:1019E00023701723FB181B78002B52D11223FB18EE
:1019F00000221A8033E0FB685B8B9BB21A00202325
:101A0000134001D1412347E07B681800244B9847DD
:101A10003B685A681223FB181B8812217918581C3E
:101A20000880D3181978FB68282299541723FC18CA
:101A30007B6818001D4B9847030023701723FB1881
:101A40001B78002B15D1FB685B8B9BB21A0004231B
:101A5000134004D01723FB181E221A700AE0142327
:101A6000FB181B881422BA18591E1180002BC2D1F2
:101A700000E0C0467B689B7A002B0AD07B68180088
:101A8000074B9847FB685B68C02292021A43FB68C9
:101A90005A601723FB181B781800BD4607B090BD8D
:101AA0002910000035160000FFFFFBFFD5150000D0
:101AB0007515000080B582B000AF786039607B6832
:101AC0009B8B9BB2002B01D005230CE07B6801228D
:101AD0009A727B680122DA723A687B6811001800FA
:101AE000034B984703001800BD4602B080BDC046B6
:101AF0003D19000080B584B000AF78607B681B683A
:101B0000FB60FB68DB69072213405A1E9341DBB27E
:101B10001800BD4604B080BD80B582B000AF7860CB
:101B2000C0467B681800044B9847031EF9D1C04695
:101B3000BD4602B080BDC046F51A000080B584B035
:101B400000AF78607B681B68FB60FB681B681B014B
:101B5000DB0FDBB21A000B23FB18511E8A411A70EF
:101B60000823FB187A68528B1A807B689B8B9AB289
:101B70000823FB180821791809888A1A1A807B68BB
:101B80009B8B9BB2013B9AB27B689A830B23FB1819
:101B90001B78002B10D07B68DB7A002B1CD07B6875
:101BA0009B8B9BB2012B17D1FB685B688022D20212
:101BB0001A43FB685A600FE07B68DB7A002B0BD07E
:101BC0007B689B8B9BB2002B06D1FB685B688022F5
:101BD000D2021A43FB685A607B689B8B9BB2002B36
:101BE0000ED17B689B7A002B0AD07B6818000E4BC5
:101BF0009847FB685B68C02292021A43FB685A60F0
:101C00007B681800084B98477B681A6A0823FB1802
:101C10001B88D318FA682821525CD2B21A70C046C9
:101C2000BD4604B080BDC046191B000080B584B01D
:101C300000AF78607B681B68FB60FB685B8B9BB2C6
:101C40001A000423134004D07B6825221E219954D6
:101C500024E00A23FB187A68528B1A807B689B8BDE
:101C60009AB20A23FB180A21791809888A1A1A805D
:101C70007B689B8B9BB2013B9AB27B689A837B68A3
:101C80001800084B98477B681A6A0A23FB181B88C0
:101C9000D3181B78D9B2FB6828229954BD4604B0EA
:101CA00080BDC046191B000080B584B000AF7860CD
:101CB0007B681B68FB60FB681B7EDBB21A0001239C
:101CC00013402BD0FB6801221A76FB685B8B9BB21A
:101CD0001A000223134004D07B6825224121995425
:101CE0001CE0FB685B8B9BB21A000423134015D0E9
:101CF0007B682522182199547B6800229A837B688F
:101D00009B7A002B0AD07B681800134B9847FB681E
:101D10005B68C02292021A43FB685A607B689B8B07
:101D20009AB27B685A837B6825229B5CDBB2052BC9
:101D30000ED17B6824229B5CDBB2002B04D17B6834
:101D40001800064B984703E07B681800044B98473F
:101D5000C046BD4604B080BD191B00002D1C00000C
:101D60003D1B000080B586B000AF0200FB1D1A705D
:101D7000FB1D1A78934B9200D3587B617B691B68DB
:101D80003B613B691B681B01DB0FDBB21A000F23B1
:101D9000FB18511E8A411A700E23FB187A69527E75
:101DA0001A707B691B7EDAB20E23FB180E2179189C
:101DB00009780A401A707B695B8B9BB2002B09D1B2
:101DC0007B699B8B9BB2002B04D07B6918007E4BF8
:101DD000984770E07B695B8B9BB2002B39D07B69A5
:101DE0009B8B9BB2002B34D17B6925229B5CDBB2A1
:101DF000052B2ED17B6924229B5CDBB2002B28D1E2
:101E00003B6903221A757B6900225A837B6925226C
:101E1000002199547B699B7A002B0BD07B691800B9
:101E20006A4B98473B695B68C02292021A433B6940
:101E30005A6002E03B6901221A760E23FB181B78D8
:101E40000122134037D07B69DB687A69100098471C
:101E500031E07B695B8B9BB2002B2CD07B699B8B29
:101E60009BB2002B27D03B695B8B9BB21A002023CF
:101E7000134011D10F23FB181B7801225340DBB212
:101E8000002B04D17B699B8B9BB2012B04D07B6917
:101E90002522412199540EE07B6924229B5CDBB210
:101EA000002B04D17B691800494B984703E07B69FC
:101EB0001800484B98477B695B8B9BB2002B47D03F
:101EC0007B699B8B9BB2002B42D17B6925229B5C5B
:101ED000DBB2052B3CD17B6924229B5CDBB2012B5E
:101EE00036D13B691B7EDBB21A000223134002D0BD
:101EF0003B6902221A763B6903221A757B6900222C
:101F00005A837B692522002199540E23FB181B78E4
:101F1000022213400BD07B6924229B5CDBB2012B95
:101F200005D17B691B697A691000984710E00E2380
:101F3000FB181B78012213400AD07B6924229B5C8A
:101F4000DBB2002B04D17B69DB687A69100098470B
:101F50007B6925229B5CDBB2052B2ED07B69252279
:101F60009B5CDBB2002B28D03B6903221A757B698E
:101F700000225A837B6900229A837B6925229B5C1D
:101F8000DBB2412B0ED07B699B7A002B0AD07B6998
:101F900018000E4B98473B695B68E022D2021A4357
:101FA0003B695A600E23FB181B780422134004D0AF
:101FB0007B695B697A6910009847C046BD4606B0E8
:101FC00080BDC046FC000020A91C0000191B0000B9
:101FD0002D1C00003D1B000080B582B000AF786072
:101FE0007B6800221A70C046BD4602B080BDC04664
:101FF00080B582B000AF02003960FB1D1A70FB1D76
:102000001B78012B0AD0022B0FD0002B14D10E4BC2
:102010000D4A91693A680A439A610FE00A4B0A4AED
:10202000D1693A680A43DA6108E0074B064A116A47
:102030003A680A431A6201E0172300E000231800FF
:10204000BD4602B080BDC0460004004080B582B0ED
:1020500000AF78607B6880221A707B6800225A701B
:102060007B6801229A707B680022DA70C046BD4608
:1020700002B080BD80B584B000AF78600023FB6003
:102080000CE00A4BFA689200D2587B689A4202D15F
:10209000FB68DBB206E0FB680133FB60FB68022BE8
:1020A000EFD900231800BD4604B080BD748E000037
:1020B00090B585B000AF786039600F23FC183B689D
:1020C0001800AD4B9847030023707B6800221A600C
:1020D0000F23FB181A78A94B9200D2587B685A60DC
:1020E0007B6800229A727B680022DA727B68002289
:1020F0001A737B6800225A727B6800221A727B680E
:102100000022DA617B6800221A627B6800225A6230
:102110007B6800229A627B6800221A757B68002225
:102120005A757B6800229A757B680022DA757B6895
:1021300000221A767B6800225A767B6800221A7485
:102140007B6800225A747B6800229A747B680022A4
:10215000DA747B682C22002199547B682D2200219F
:1021600099547B682E22002199547B682F220021EC
:1021700099547B683022002199547B6831220021D8
:1021800099547B683222002199547B6833220021C4
:1021900099547B683422002199547B6835220021B0
:1021A00099547B683622002199547B68372200219C
:1021B00099547B683822002199547B683922002188
:1021C00099547B683A22002199547B683B22002174
:1021D00099547B683C22002199547B683D22002160
:1021E00099547B683E22002199547B683F2200214C
:1021F00099547B684022002199547B684122002138
:1022000099547B684222002199547B684322002123
:1022100099547B684422002199547B68452200210F
:1022200099547B684622002199547B6847220021FB
:1022300099547B684822002199547B6849220021E7
:1022400099547B684A22002199547B684B220021D3
:1022500099547B684C22002199547B684D220021BF
:1022600099547B684E22002199547B684F220021AB
:1022700099547B685022002199547B685122002197
:1022800099547B685222002199547B685322002183
:1022900099547B685422002199547B68552200216F
:1022A00099547B685622002199547B68572200215B
:1022B00099547B689822002199547B6800229A6582
:1022C0007B6800229A677B689922002199547B6879
:1022D0000022DA657B680022DA677B689A22002197
:1022E00099547B6800221A667B68802200219950ED
:1022F0007B689B22002199547B6800225A667B6888
:102300008422002199507B689C22002199547B688B
:1023100000229A667B688822002199507B689D2262
:10232000002199547B680022DA667B688C220021A8
:1023300099507B689E22002199547B6800221A677D
:102340007B689022002199507B689F22002199543C
:102350007B6800225A677B689422002199507B6831
:10236000A022012199547B68A12200219954C046E2
:10237000BD4605B090BDC04675200000908E00009F
:1023800080B586B000AFB9607A600F23FB18021CDD
:102390001A7000237B6100233B611DE0BA683B6932
:1023A000D31810331B78012B13D10F23FB181B7884
:1023B0001B4AD35C1A1E3B699A4201DA17232AE0B2
:1023C00080235A043B699A4013001A007B69134327
:1023D0007B613B6901333B613B69032BDEDDBB68FD
:1023E000A1229B5C002B04D07B6980221201134345
:1023F0007B61BB681B7B1B031A007B6913437B61FA
:10240000BB68DB7A1B021A007B6913437B617B6824
:102410007A691A6000231800BD4606B080BDC04628
:102420009C8E000080B586B000AFB9607A600F2343
:10243000FB18021C1A701723FB1800221A70BB68C5
:102440001B7A002B07D01723FB181722BA18127813
:1024500004210A431A70BB685B7A012B07D117234A
:10246000FB181722BA18127801210A431A707B68E8
:102470001722BA1812781A70C046BD4606B080BD41
:1024800080B588B000AFB9607A600F23FB18021CDA
:102490001A700F23FB181A781B23FB183E498A5C1D
:1024A0001A700023FB616EE0FA6913009B009B1811
:1024B0005B002833BA68D31804337B617B695B7A8D
:1024C0001B22BA1812789A4201D817235FE07B6961
:1024D0001B780F2B01D9172359E07B691B781B064A
:1024E0001A00F0231B051A407B695B781B04190056
:1024F000FF231B040B401A437B699B78002B01D000
:10250000802300E000231A437B69DB78002B01D095
:10251000082300E000231A437B691B79002B01D0BC
:10252000102300E000231A437B695B791900032321
:102530000B401A437B699B795B01190060230B40B8
:102540001A437B69DB791B021900C0239B000B40F7
:102550001A437B691B7A1B031900E023DB010B4044
:102560001A437B695B7A9B021900C0231B010B4055
:1025700013433B61FB699B007A68D3183A691A6080
:10258000FB690133FB61FB69012B8DDD0023180022
:10259000BD4608B080BDC0469C8E000080B588B0A6
:1025A00000AFB9607A600F23FB18021C1A700F236A
:1025B000FB181A781723FB182D498A5C1A70002320
:1025C000BB610023FB6148E0BA685021FB69D31866
:1025D0005B181B78002B10D01723FB181A78FB69A7
:1025E0009A4201D817233FE080235A02FB699A40A0
:1025F00013001A00BB691343BB61BA68FB691C3343
:102600005B00D31809331B78002B23D01723FB184A
:102610001A78FB699A4201D8172325E0BA68FB694A
:102620001C335B00D31809331B78022B0AD1022319
:10263000FF331A00FB699A4013001A00BB69134369
:10264000BB6107E00122FB699A4013001A00BB69D5
:102650001343BB61FB690133FB61FB69072BB3D9F2
:102660007B68BA691A6000231800BD4608B080BDB7
:10267000A08E000080B588B000AFB9607A600F23EB
:10268000FB18021C1A700F23FB181A781723FB186B
:102690001D498A5C1A70BB6810333B613B695B7AE9
:1026A0001B011A0030231A403B691B7A19000723CB
:1026B0000B401343BB610023FB611AE03A69FB69DD
:1026C000D31804331B78002B10D01723FB181A786B
:1026D000FB699A4201DC172312E080235A02FB694E
:1026E0009A4013001A00BB691343BB61FB690133B5
:1026F000FB61FB69032BE1DD7B68BA691A6000238B
:102700001800BD4608B080BD9C8E000090B591B009
:1027100000AFF860B9607A603B23FC18BB68180012
:10272000C44B9847030023703B23FB181A78C24B15
:102730009200D35819000220C04B9847BB681B6811
:102740000222134001D01C23BEE1BB681B6801229A
:10275000134001D01C23B7E13B23FB181A78B84B78
:102760009200D3587B637B681A687B6B9A4204D8CB
:102770007B685A687B6B9A4201D91723A4E1002336
:10278000FB630EE07A68FB6B06339B00D3180433BF
:102790001A687B6B9A4201D9172395E1FB6B0133D1
:1027A000FB63FB6B032BEDDD0023FB6319E07A6811
:1027B0009821FB6BD3185B181B7801225340DBB2C6
:1027C000002B0AD13B23FB181B789E4AD35C1A1EB0
:1027D000FB6B9A4202DC172376E1C046FB6B0133A8
:1027E000FB63FB6B072BE2DD0023FB623323FC184A
:1027F0002C23FA1879683B23FB181B781800924B9E
:102800009847030023703323FB181B78002B03D059
:102810003323FB181B7857E12B23FA1879683B23E5
:10282000FB181B781800894B98473323FC1820238A
:10283000FA1879683B23FB181B781800844B9847DB
:10284000030023703323FB181B78002B03D03323A2
:10285000FB181B7838E10023FB613323FC181C2391
:10286000FA1879683B23FB181B781800794B9847B6
:10287000030023703323FB181B78002B03D0332372
:10288000FB181B7820E13323FC181823FA18796809
:102890003B23FB181B7818006F4B984703002370ED
:1028A0003323FB181B78002B03D03323FB181B7832
:1028B0000AE10023FB6309E0FA68FB6B9B00D31875
:1028C000043300221A60FB6B0133FB63FB6B0B2BA1
:1028D000F2DDFB6800225A63FB6800229A633B2307
:1028E000FB181A785D4B9200F968D150FB68BA6802
:1028F0001A607B68A022995CFB683C2299541423DF
:10290000FB181800564B98477B689A7A1423FB18DB
:102910001A703B23FB181B78524AD35C1422BA1856
:1029200011001800504B98473B23FB181B784D4A69
:10293000D35C18004D4B98470023FB632DE07A6869
:102940009821FB6BD3185B181B7801225340DBB234
:10295000002B1ED11023FB181800454B98477B68AD
:10296000FA6B1E329200D358DAB21023FB181A7099
:102970001023FB1801225A707B68FA6B1632920002
:10298000D358DBB21022BA1811001800394B9847FF
:1029900000E0C046FB6B0133FB633B23FB181B7855
:1029A000284AD35C1A1EFB6B9A42C8DCFA6ABB68E1
:1029B0001A60C046BB689B6804221340FAD1BB680A
:1029C000FF221A71C046BB689B6804221340FAD1EB
:1029D0002B23FB181A78BB685A712023FB181A683E
:1029E000BB68DA602023FB185A68BB681A61FA6971
:1029F000BB689A61C046BB689B681F4A1340FAD106
:102A0000BA69BB68DA63C046BB689B681022134092
:102A1000FAD17B681A68BB685A63C046BB689B687A
:102A2000164A1340FAD17B685A68BB681A640023BF
:102A3000FB633FE075200000848E0000F11F000062
:102A4000908E0000A08E000081230000252400004D
:102A5000812400009D25000075260000E000002074
:102A6000D91F0000808E0000B5490000F949000020
:102A70004D200000A14C0000400002008000040036
:102A8000C046BB689B681249FA6B91400A0013402C
:102A9000F7D17A68FB6B06339B00D31804331A68AE
:102AA000B968FB6B10339B00CB1804331A60FB6BC7
:102AB0000133FB633B23FB181B78064AD35C1A1EC9
:102AC000FB6B9A42DCDC00231800BD4611B090BDC0
:102AD000000108009C8E000090B589B000AFF8603E
:102AE00008007A6019000B23FB18021C1A700A23D5
:102AF000FB180A1C1A70FB681B68FB611B23FC187F
:102B0000FB691800284B9847030023701B23FB1810
:102B10001B78264AD35C0B22BA1812789A4201D34A
:102B200017233DE01B23FB181A78214B9200D35842
:102B30007B617A687B699A4201D9172330E00A23C6
:102B4000FB181B78002B14D0C046FB699B680B2236
:102B5000BA1812788021090391400A001340F4D179
:102B60000B23FB181A78FB691C3292007968D1504C
:102B700015E0C046FB699B680B22BA1812788021C9
:102B8000490091400A001340F4D10B23FB181B7835
:102B9000FA6910339B00D31804337A681A60002353
:102BA0001800BD4609B090BD752000009C8E000045
:102BB000908E000090B585B000AFF8607A600B236E
:102BC000FB180A1C1A70FB683C229C5C7A680B2379
:102BD000FB181978F8682300034CA047030018007D
:102BE000BD4605B090BDC046D92A000080B500AFF3
:102BF0000020024B9847C046BD4680BD292C0000EE
:102C000080B500AF0120024B9847C046BD4680BD4D
:102C1000292C000080B500AF0220024B9847C04627
:102C2000BD4680BD292C000080B586B000AF0200F3
:102C3000FB1D1A70FB1D1A78184B9200D3583B618C
:102C40003B691B68DA6A3B695B6B1A403B699B6BAB
:102C50001340FB6000237B6119E0114B7A699200FD
:102C6000D358FA6813400FD03A697B699B00D31898
:102C700004331B683A69100098473B691B68084A8F
:102C8000796989008A58DA627B6901337B617B69E3
:102C90000B2BE2DDC046BD4606B080BDE000002043
:102CA000A48E000080B500AF0020024B9847C046BC
:102CB000BD4680BDE12C000080B500AF0120024B75
:102CC0009847C046BD4680BDE12C000080B500AFEE
:102CD0000220024B9847C046BD4680BDE12C000053
:102CE00080B584B000AF0200FB1D1A70FB1D1A787E
:102CF000284B9200D358FB60FB681B689B7BDBB2C0
:102D0000FA68127E1340DAB2FB68597E0B23FB1877
:102D10000A401A700B23FB181B780122134008D0BD
:102D2000FB689B68FA6810009847FB681B680122E3
:102D30009A730B23FB181B780222134008D0FB6800
:102D4000DB68FA6810009847FB681B6802229A73D8
:102D50000B23FB181B781022134008D0FB681B695B
:102D6000FA6810009847FB681B6810229A730B23BF
:102D7000FB181B782022134008D0FB685B69FA68B7
:102D800010009847FB681B6820229A73C046BD4616
:102D900004B080BDEC00002080B582B000AF786048
:102DA0007B6880221A707B6800225A707B6801223F
:102DB0009A707B680022DA70C046BD4602B080BDC2
:102DC00080B584B000AF0200FB1D1A700F23FB1802
:102DD000FA1D1278D2091A700E23FB18FA1D127808
:102DE00052091A700D4BBB600F23FB181B78002B88
:102DF0000FD10F23FB181B789B0010229446BC4474
:102E00006344083B1A680E23FB181B78DB01D318B8
:102E100000E000231800BD4604B080BD004400411E
:102E200080B582B000AF0200FB1D1A70FB1D1B783D
:102E30001800034B984703001800BD4602B080BD40
:102E4000C12D000080B584B000AF0200FB1D1A70D8
:102E5000BB1D0A1C1A70FB1D1B7818000D4B9847F0
:102E60000300FB60FB1D1B781F22134001229A40C8
:102E70001300BB60BB1D1B78002B03D0FB68BA6836
:102E80009A6102E0FB68BA685A61C046BD4604B068
:102E900080BDC046212E000080B582B000AF7860B2
:102EA0007B6800221A70C046BD4602B080BDC04695
:102EB00080B582B000AF02003960FB1D1A70FB1DA7
:102EC0001B78012B0AD0022B0FD0002B14D10E4BF4
:102ED0000D4A91693A680A439A610FE00A4B0A4A1F
:102EE000D1693A680A43DA6108E0074B064A116A79
:102EF0003A680A431A6201E0172300E00023180031
:102F0000BD4602B080BDC0460004004080B500AFA1
:102F1000054B9B78DBB21A00022313405A1E9341E3
:102F2000DBB21800BD4680BD0020004180B584B0F2
:102F300000AF78607B681B68FB60FB681B7EDBB2C0
:102F40001A00012313405A1E9341DBB21800BD46FC
:102F500004B080BD80B584B000AF78607B681B682A
:102F6000FB60FB681B7EDBB21A00042313405A1E71
:102F70009341DBB21800BD4604B080BD80B584B07B
:102F800000AF78600A00BB1C1A807B681B68FB607E
:102F90007B6818000A4B984703001A00012353402E
:102FA000DBB2002B01D0052306E0BB1C1B88DB0530
:102FB000DA0DFB689A6200231800BD4604B080BD9C
:102FC0002D2F000080B584B000AF786039607B6839
:102FD0001B68BB607B6818001B4B984703001A00F6
:102FE00001235340DBB2002B01D0102327E00F2335
:102FF000FB1800221A70BB685B8B9BB21A0004237B
:10300000134006D00F23FB181E221A70BB6804223F
:103010005A837B689B79012B08D1BB689B6A9BB262
:10302000DB05DB0D9AB23B681A8005E0BB689B6A42
:10303000DBB29AB23B681A800F23FB181B7818008A
:10304000BD4604B080BDC046552F000090B593B07A
:1030500000AF786039607B681B687B637B681B68A6
:103060003B631C23FB181800854B98471C23FB1857
:1030700000225A703B681B78002B03D11C23FB18DD
:1030800000229A703B689A6A0C23FB181A603B680E
:10309000DA6A0C23FB185A603B681A6B0C23FB1886
:1030A0009A603B685A6B0C23FB18DA604723FB18C5
:1030B00000221A702CE04723FB181A780C23FB1807
:1030C0009200D3583B643B6C002B09D14723FB187B
:1030D0001A783B6B110018006A4B984703003B6459
:1030E0003B6C01330DD03B6CDAB21C23FB181A7019
:1030F0003B6C1B0CDBB21C22BA1811001800624B8F
:1031000098474723FB181A784723FB1801321A7097
:103110004723FB181B78032BCDD93B681A787B68B3
:103120005A713B681A7C7B689A713B689A7C7B6811
:10313000DA713B681A7D7B681A720A23FB18002239
:103140001A800023FB630023BB633B681B78012BC1
:1031500029D17B681B6818004C4B98470300FB6221
:10316000FB6A1433BB62BB6ADBB21800484B98475A
:1031700003007B623B689B692322BC180A22BA18B1
:10318000796A1800434B9847030023702323FB18E8
:103190001B78002B01D017236DE00A23FB181B8836
:1031A000DAB27B6B1A733B681B78002B1AD13B6831
:1031B0009B69FB633B689B8BBB637B6B5B6A3A6879
:1031C000927F11003A68D27F12040A431A437B6B44
:1031D0005A623B6820229B5C002B03D0BB6B4022D1
:1031E0001343BB633B685B68FA6B1343FB633B6849
:1031F0009B68FA6B1343FB633B68DB68FA6B134312
:10320000FB633B681B7C1A00BB6B1343BB633B68CF
:103210005B7C002B03D1204B9847031E03D0FB6B34
:1032200080221343FB633B689B7C002B04D0BB6B69
:10323000802292021343BB633B68DB7C002B04D0EB
:10324000BB6B802292001343BB633B681B7D002B4A
:1032500004D0BB6B802292011343BB637B6B1A6863
:10326000FB6B1A437B6B1A607B6B5A68BB6B1A4310
:103270007B6B5A6000231800BD4613B090BDC0465A
:10328000992D0000013C0000A14C0000BD3D000054
:10329000D94A0000F93A00000D2F000090B58BB01C
:1032A00000AFF860B9607A60FB68BA681A60FB68C2
:1032B0001B683B623B6A1B680222134001D01C233F
:1032C000A6E03B6A1B680122134001D005239FE062
:1032D000FB681B681800504B98470300FB61FB69B3
:1032E0000233BB61FB6914337B610122BB699A40E5
:1032F000130019000220494B98471023FB181800AF
:10330000474B98477B6824229A5C1023FB181A705D
:103310007B69DBB21022BA1811001800414B9847A4
:103320007B69DBB21800404B98477B6824229B5C8A
:10333000002118003D4B98477B681B78012B05D175
:103340003B6A1B680C221A433B6A1A607B681B7835
:10335000002B05D13B6A1B6808221A433B6A1A609E
:103360002723FB1800221A7010E02723FB181B7874
:10337000FA6802339B00D318043300221A60272313
:10338000FB181A782723FB1801321A702723FB1821
:103390001B78062BE9D9FB680022DA62FB68002261
:1033A0009A62FB6800229A86FB6800221A86FB68F4
:1033B000362200219954FB68372200219954FB687A
:1033C000382200219954FB6803225A72FB680022BC
:1033D0001A71FB681B681322BC1818000E4B984723
:1033E00003002370124A1323FB181B7811001800E6
:1033F000104B98471323FB181A780F4B9200F9686B
:10340000D1507A68FB68110018000C4B98470300F4
:103410001800BD460BB090BDBD3D0000B12E0000B0
:10342000992E0000B5490000F9490000753B0000E5
:10343000D5370000213E0000FC0000204D30000088
:1034400090B587B000AFF8607A600A23FB180A1CB9
:103450001A80FB68DB7901225340DBB2002B01D0DC
:103460001C2384E0FB6838229B5CDBB2052B01D176
:1034700005237CE01523FB1800221A70FB685B799A
:10348000002B21D11623FB1800221A8014E0FB68C0
:103490001800394B9847031E15D11623FB181B88BB
:1034A000364A934201D1122361E01623FB181A8891
:1034B0001623FB1801321A801623FB181B882F4A8B
:1034C0009342E4D900E0C046C046FB6818002A4B8E
:1034D000984703001A0001235340DBB2002BF4D1BC
:1034E0000A23FB181A88FB6811001800244B984720
:1034F000FB685B79002B21D11623FB1800221A8070
:1035000014E0FB6818001F4B9847031E15D11623C3
:10351000FB181B88194A934201D1122327E0162376
:10352000FB181A881623FB1801321A801623FB1881
:103530001B88124A9342E4D900E0C046C046FB68AB
:103540001800104B984703001A0001235340DBB2C8
:10355000002BF4D11523FC187A68FB6811001800C1
:10356000094B9847030023701523FB181B7818009C
:10357000BD4607B090BDC0462D2F000010270000AB
:103580007D2F0000552F0000C52F000080B586B0AC
:1035900000AFF860B960FB1D1A70FB685B79012B06
:1035A00001D015235CE0FB681B7A01225340DBB29B
:1035B000002B54D0FB1D1B78002B4AD0BB685B78D6
:1035C000002B3FD0FB681800274B984703001A00D8
:1035D00001235340DBB2002B07D0BB681B780121CD
:1035E0001800224B984705233AE0BB681B7800215E
:1035F00018001E4B9847BB689B789AB2FB68110075
:1036000018001B4B9847FB68DB7901225340DBB263
:10361000002B24D0C046FB681800164B98470300C7
:103620001A0001235340DBB2002BF4D11623FB1800
:1036300000221A801623FA18FB68110018000E4B9E
:1036400098470CE0BB681B7800211800074B98478F
:1036500005E0BB681B7801211800044B9847002344
:103660001800BD4606B080BD2D2F0000452E00007D
:103670007D2F0000552F0000C52F000080B584B0BD
:1036800000AF78607B681B68BB607B68DB6A1B7877
:10369000DAB20E23FB181A807B68DB6A5A1C7B683F
:1036A000DA627B689B79012B13D17B68DB6A1B781C
:1036B000DBB21B021AB20E23FB1800215B5E134320
:1036C0001AB20E23FB181A807B68DB6A5A1C7B68CF
:1036D000DA620E23FB181B88DB05DA0DBB689A62E1
:1036E0007B689B8E9BB2013B9AB27B689A86C046F0
:1036F000BD4604B080BDC04680B584B000AF7860E0
:103700007B681B68FB60084B1B881A00FB689A6289
:103710007B685B8E9BB2013B9AB27B685A86C0463F
:10372000BD4604B080BDC046F800002080B584B01E
:1037300000AF78607B681B68FB600A23FB180022DF
:103740001A80FB689A6A0A23FB181A807B685B8ED2
:103750009BB2013B9AB27B685A86C046BD4604B014
:1037600080BDC04680B584B000AF78607B681B68C0
:10377000FB60FB689B6A9AB20A23FB18D205D20D44
:103780001A807B689B6A0A22BA181288D2B21A7011
:103790007B689B6A5A1C7B689A627B689B79012BC9
:1037A0000DD17B689B6A0A22BA181288120A92B25B
:1037B000D2B21A707B689B6A5A1C7B689A627B68DB
:1037C0001B8E9BB2013B9AB27B681A86C046BD46EF
:1037D00004B080BD80B586B000AF0200FB1D1A703A
:1037E000FB1D1A78B94B9200D3587B617B691B682B
:1037F0003B617B6937229A5C7B693621595C0F23D8
:10380000FB180A401A703B691B7EDAB20C23FB18C6
:103810001A803B699B7DDBB29AB20C23FB180C210A
:10382000791809880A401A800C23FB181B8801228A
:10383000134041D07B695B79012B10D17B695B7AA6
:10384000DBB2002B0BD17B691800A14B98477B6939
:103850005B8E9BB2002B02D13B6901221A757B69FA
:103860005B79012B04D17B695B7ADBB2002B08D139
:103870007B695B79002B1FD17B695B7ADBB2002B04
:103880001AD07B691800934B98477B699B8E9BB23B
:10389000002B11D13B6901221A757B695B7ADBB27F
:1038A000012B09D17B69DB7901225340DBB2002B6C
:1038B00002D03B6902229A750C23FB181B88042254
:1038C000134000D17EE03B695B8B9BB21A0004235E
:1038D000134022D07B695B7ADBB2012B14D07B6969
:1038E00038221E2199547B6903225A723B690522B2
:1038F0001A750F23FB181B780822134004D07B692C
:103900009B697A69100098473B699A6A0A23FB18F9
:103910001A803B6904225A8354E07B695B7ADBB2EC
:10392000012B1ED17B6918006B4B98477B695B8E1E
:103930009BB2002B46D13B6904221A757B69382261
:10394000002199547B6903225A720F23FB181B78BC
:103950000122134036D07B69DB687A6910009847F2
:1039600030E07B6918005D4B98477B691B8E9BB2EA
:10397000002B27D17B693822002199543B6904220E
:103980001A757B695B7ADBB2022B0BD10F23FB1814
:103990001B780422134015D07B695B697A6910009B
:1039A00098470FE07B695B7ADBB2002B0AD10F23CB
:1039B000FB181B780222134004D07B691B697A69CB
:1039C000100098470C23FB181B880222134046D096
:1039D0007B695B79002B1DD13B6907221A753B6916
:1039E00002221A767B6903225A727B6900229A8628
:1039F0007B6900221A867B693822002199540F23A3
:103A0000FB181B781022134004D07B69DB697A69AC
:103A1000100098477B695B79012B20D17B695B7A29
:103A2000DBB2012B1BD17B69DB7901225340DBB276
:103A3000002B14D03B6902221A757B6903225A724B
:103A40007B693822002199540F23FB181B7801222F
:103A5000134004D07B69DB687A69100098470C2317
:103A6000FB181B880822134014D07B695B79002B5C
:103A700010D13B6908221A753B6908221A760F2378
:103A8000FB181B782022134004D07B691B6A7A69DB
:103A9000100098470C23FB181B888022134010D07D
:103AA0003B6980221A753B6980221A760F23FB1826
:103AB0001B784022134004D07B695B6A7A6910004E
:103AC0009847C046BD4606B080BDC046FC000020F9
:103AD000F93600007D3600002D3700006537000004
:103AE00080B582B000AF78607B6800221A70C04653
:103AF000BD4602B080BDC04680B586B000AFF8605C
:103B0000B9607A601623FB1800221A80BB683B61FB
:103B1000BB685A08FB689A4201D2402326E0BB6882
:103B20005B083B610AE03A69FB68D31A3B611623E4
:103B3000FB181A881623FB1801321A803A69FB68B1
:103B40009A42F0D21623FB181622BA181288013AAC
:103B50001A801623FB181B88FF2B01D9402305E090
:103B60007B681622BA1812881A8000231800BD46F6
:103B700006B080BD80B584B000AF0200FB1D1A7096
:103B8000BB1D0A1C1A701A4B1B7801225340DBB272
:103B9000002B03D1BB1D1B78002B1BD00C23FB1863
:103BA0001800144B98470C23FB18FA1D12781A7052
:103BB0000C23FB18190013200F4B984713200F4BB1
:103BC00098470B4BFA1D12785A70094B01221A7054
:103BD000002308E0064B5B78FA1D12789A4201D167
:103BE000002300E01D231800BD4604B080BDC04680
:103BF0002C000020E13A0000B5490000F94900001E
:103C000080B582B000AF78600A00FB1C1A707B6838
:103C10004D4A93423FD04C4A934206D84B4A934276
:103C20000FD04B4A934221D089E04A4A934200D1B7
:103C30005BE0494A934200D16CE0484A93423FD04E
:103C40007DE0FB1C1B78012B0AD002DC002B05D089
:103C500075E0022B06D0032B06D070E0404B6FE0DE
:103C6000404B6DE0404B6BE0404B69E0FB1C1B7828
:103C7000012B0AD002DC002B05D060E0022B06D01D
:103C8000032B06D05BE003235AE0394B58E0394B55
:103C900056E0394B54E0FB1C1B78012B0AD002DCA8
:103CA000002B05D04BE0022B06D0032B06D046E0BC
:103CB000324B45E0324B43E0324B41E0324B3FE088
:103CC000FB1C1B78012B0AD002DC002B05D036E050
:103CD000022B06D0032B06D031E02C4B30E02C4BCE
:103CE0002EE02C4B2CE02C4B2AE0FB1C1B78012BEC
:103CF0000AD002DC002B05D021E0022B06D0032BDA
:103D000006D01CE0254B1BE0254B19E0254B17E0A6
:103D1000254B15E0FB1C1B78012B0AD002DC002B85
:103D200005D00CE0022B06D0032B06D007E01F4B7A
:103D300006E01F4B04E01F4B02E01F4B00E0002396
:103D40001800BD4602B080BD0010004200080042CD
:103D5000000C004200180042001C00420014004207
:103D60000300040003000500030006000300070031
:103D70000300010003001E0003001F0003000800F1
:103D80000300090003000A0003000B0003001000F9
:103D900003001100030012000300130003000C00D5
:103DA00003000D0003000E0003000F0003001600C7
:103DB00003001700030018000300190090B58BB032
:103DC00000AF78600C23FB180F4A13CA13C313CA41
:103DD00013C300237B620EE00C23FB187A6A920067
:103DE000D3581A1E7B689A4202D17B6ADBB206E086
:103DF0007B6A01337B627B6A052BEDD900231800B7
:103E0000BD460BB090BDC046D48E000080B582B0D8
:103E100000AF0200FB1D1A70C046BD4602B080BD57
:103E200080B584B000AF02003960FB1D1A70134BDF
:103E30001B7801225340DBB2002B15D00023FB601E
:103E40000CE00F4BFA6892000E49D1500E4BFA6805
:103E500092000021D150FB680133FB60FB68052B09
:103E6000EFD9064B01221A70FB1D1A78044B920001
:103E70003968D150C046BD4604B080BD2E00002038
:103E8000300000200D3E0000FC00002090B585B001
:103E900000AF78600823FA180C4B100019000623B5
:103EA0001A000B4B98470F23FC187B681800094B2E
:103EB0009847030023700F23FB181B780822BA18B9
:103EC000D35C5BB21800BD4605B090BDEC8E00001F
:103ED000518E0000BD3D000080B500AF034B1B6854
:103EE00000209847C046BD4680BDC0463000002037
:103EF00080B500AF034B5B6801209847C046BD46C4
:103F000080BDC0463000002080B500AF034B9B68E9
:103F100002209847C046BD4680BDC0463000002004
:103F200080B500AF034BDB6803209847C046BD4611
:103F300080BDC0463000002080B500AF034B1B6938
:103F400004209847C046BD4680BDC04630000020D2
:103F500080B500AF034B5B6905209847C046BD465E
:103F600080BDC0463000002080B582B000AF7860D0
:103F70007B6880221A707B6800225A707B6801225D
:103F80009A707B680022DA70C046BD4602B080BDE0
:103F900080B584B000AF02003960FB1D1A700C239D
:103FA000FB181800104B98470C23FB1880221A703E
:103FB0003B681A780C23FB185A703B685A780C231C
:103FC000FB189A703B689A780C23FB18DA700C2364
:103FD000FA18FB1D1B7811001800044B9847C046C7
:103FE000BD4604B080BDC046693F0000A14C000042
:103FF00080B500AFC046BD4680BDC04680B582B02A
:1040000000AF104B1B68002B12D1EFF310837B60C5
:104010007B68002B09D172B6BFF35F8F0A4B002279
:104020001A700A4B01221A7002E0084B00221A7023
:10403000044B1B685A1C034B1A60C046BD4602B0B5
:1040400080BDC04648000020000000204C00002039
:1040500080B500AF0B4B1B685A1E0A4B1A60094B08
:104060001B68002B0AD1084B1B78DBB2002B05D054
:10407000064B01221A70BFF35F8F62B6C046BD4681
:1040800080BDC046480000204C00002000000020F9
:1040900080B582B000AF78607B6801225A607B688F
:1040A00000225A707B6806221A707B6800221A72FE
:1040B0007B6800225A72C046BD4602B080BDC04631
:1040C00080B582B000AF78607B6801225A707B684F
:1040D00001229A707B680022DA707B6801221A71D3
:1040E0007B6807221A707B6800225A71C046BD4661
:1040F00002B080BD80B582B000AF78607B680322DB
:104100001A707B6800225A707B6801229A70C04640
:10411000BD4602B080BDC04680B582B000AF02008F
:10412000FB1D1A70034AFB1D1B781372C046BD4667
:1041300002B080BD0004004080B582B000AF020034
:10414000FB1D1A70BB1D0A1C1A70FB1D1B78012B6E
:1041500008D0022B0BD0002B0ED10B4ABB1D1B78B5
:1041600053720BE0084ABB1D1B78937206E0064AA7
:10417000BB1D1B78D37201E0172300E00023180059
:10418000BD4602B080BDC0460004004080B582B08C
:1041900000AF0200FB1D1A70084AFB1D1B780F219F
:1041A0000B40D9B253680F20014049001E208343C1
:1041B0000B435360C046BD4602B080BD0040004185
:1041C00080B500AFC046044BDB6810221340FAD024
:1041D000C046BD4680BDC0460008004080B500AF67
:1041E0000C4B02229A840C4B98470A4A0B4B9B6853
:1041F000D362084A094B5B689362064B00229A849B
:10420000054B9847034A054B1B689BB29384C046F5
:10421000BD4680BD00080040C141000050000020A4
:1042200080B582B000AF0200FB1D1A70FB1D1B7829
:10423000082B40D89A00224BD3181B689F46214B6D
:104240001B6939E0204B1B6A9B059B0FDBB21A00F0
:104250001E4BD34030E080231B022DE080231B0245
:104260002AE0184B5B6927E0164B1B6802221340BB
:1042700001D1002320E0164B9847124B1B68042203
:10428000134009D00020134B984702000D4B9B6848
:104290001B041B0C53430FE00F4B0DE00A4A502345
:1042A000D35CDBB21A000423134001D1002303E0E6
:1042B000044BDB6800E000231800BD4602B080BD5F
:1042C000F48E0000500000200008004000127A0028
:1042D000C1410000D94A0000006CDC0280B584B006
:1042E00000AF78601A4B1B6AFB607B681B781A1C56
:1042F00003231340DAB20D23FB1803210A401000F8
:104300001A7803218A43111C021C0A431A707B6825
:104310009A780C23FB18D0011A787F210A40111CCF
:10432000021C0A431A707B685A780C23FB1801217F
:104330000A4090011A7840218A43111C021C0A434A
:104340001A70034BFA681A62C046BD4604B080BDBD
:104350000008004080B584B000AF78602F4B9B69A7
:10436000FB607B685A780C23FB1801210A40D000BF
:104370001A7808218A43111C021C0A431A707B68B0
:104380009A780C23FB1801210A4090001A78042126
:104390008A43111C021C0A431A707B681B781A1C82
:1043A00007231340DAB20D23FB1807210A4010003F
:1043B0001A7807218A43111C021C0A431A707B6871
:1043C0001A790C23FB18D0011A787F210A40111C9E
:1043D000021C0A431A707B68DA780C23FB1801214F
:1043E0000A4090011A7840218A43111C021C0A439A
:1043F0001A707B685A790D23FB1801210A401001BD
:104400001A7810218A43111C021C0A431A70034BAC
:10441000FA689A61C046BD4604B080BD00080040FD
:1044200080B582B000AF0200FB1D1A70FB1D1B7827
:10443000082B3BD89A00214BD3181B689F46204B72
:104440001F4A126A02210A431A62002331E01C4B00
:104450001B4A926902210A439A6129E0184A184BC3
:104460001B8A9BB202210B439BB2138220E0144AA9
:10447000134B9B8A9BB202210B439BB2938217E0A2
:10448000104B1B6802221A430E4B1A600E4B9847C2
:104490000EE00B4A0A494423CB5CDBB202210B43FA
:1044A000D9B24423D15403E0002302E0172300E0F3
:1044B00000231800BD4602B080BDC046188F000022
:1044C0000008004050000020DD41000080B582B0AF
:1044D00000AF3B0001221A7000237B6009E07B687B
:1044E000DBB23A0011001800054B98477B68013396
:1044F0007B607B68242BF2D9C046BD4602B080BDEC
:10450000B549000080B5A2B000AF4F4BC222D20027
:104510009A6000204D4B98474D4B98474A4A4D4B67
:104520001B689B09DBB2191C7F230B40D9B293692E
:104530007F2001400904484803400B4393618023D6
:10454000FB181800454B98478023FB1807221A7068
:104550008023FB1801225A708023FB1801229A70D5
:104560008023FB1801221A718023FB180022DA70C5
:104570008023FB1818003A4B98470420394B984782
:104580007C23FB181800384B98477C23FB1800222B
:104590001A707C23FB1801229A707C23FB180022DE
:1045A0005A707C23FB181800304B984706202D4B7F
:1045B00098472F4B98475823FB1818002D4B9847C6
:1045C0005823FB1804221A705823FB1820225A6023
:1045D0005823FB1800221A725823FB1800225A7223
:1045E0005823FB1819000220234B98470220234B25
:1045F00098470020224B984700210020214B9847E4
:10460000002101201F4B9847002102201D4B984795
:104610003B1D1800174B98473B1D06221A703B1D87
:1046200001225A603B1D00221A723B1D00225A7261
:104630003B1D19000020104B984700200F4B984756
:10464000C046BD4622B080BD000800408D4100003C
:10465000CD44000024608000FFFF80FFC1400000C7
:104660005543000021440000F5400000DD420000F9
:104670002D470000914000005D4700008148000088
:10468000194100003941000080B582B000AF02003E
:104690003960FB1D1A70FB1D1B78012B0AD0022B01
:1046A0000FD0002B14D10E4B0D4A91693A680A4382
:1046B0009A610FE00A4B0A4AD1693A680A43DA6103
:1046C00008E0074B064A116A3A680A431A6201E099
:1046D000172300E000231800BD4602B080BDC0468D
:1046E0000004004080B500AF024B9847C046BD466D
:1046F00080BDC046FD3F000080B500AF024B98472B
:10470000C046BD4680BDC0465140000080B500AFE8
:10471000054B5B78DBB25BB2002B01DA012300E0D2
:1047200000231800BD4680BD000C004080B500AFDE
:1047300008210020074B9847074B01221A70C046FA
:10474000054B1B78DBB21A0001231340F8D1C04699
:10475000BD4680BD89460000000C004080B586B093
:1047600000AF02003960FB1D1A70FB1D1B787B61D6
:10477000FB1D1B783B613B681B781B021A007B69A1
:1047800013437B613B685B78002B04D07B698022FC
:10479000D20213437B613B685B7A002B04D07B69B8
:1047A0008022120313437B613B685B68012B2CD989
:1047B0003B685A683B685B68013B13401AD1002391
:1047C000FB600223BB6005E0FB680133FB60BB6854
:1047D0005B00BB603B685A68BB689A42F4D8FB68D0
:1047E0001B023A6913433B617B69802252031343E6
:1047F0007B610AE03B685B681B023A6913433B61DB
:104800007B698022920213437B613B681B7A002BF9
:1048100004D07B698022920313437B61C046134B13
:104820009847031EFBD1124B9847124AFB1D1B7879
:104830001370C0460D4B9847031EFBD10E4B3A69CF
:104840009A60C046094B9847031EFBD10A4B0A4A9F
:1048500051688022520211407A690A435A60074B1C
:104860009847C046BD4606B080BDC0460D47000013
:10487000E5460000080C0040000C0040F94600002E
:1048800080B582B000AF0200FB1D1A70C0460E4B0F
:104890009847031EFBD10D4B98470D4AFB1D1B7813
:1048A0001370C046084B9847031EFBD1094B094AB9
:1048B0005268802149020A435A60074B9847C04614
:1048C000BD4602B080BDC0460D470000E546000071
:1048D000040C0040000C0040F946000080B586B092
:1048E00000AF0200FB1D1A70C0462A4B9847031EFA
:1048F000FBD1294B9847294AFB1D1B781370C046F2
:10490000244B9847031EFBD1254B5B68DB04DB0E71
:10491000DBB21800234B984703007B611F4AFB1D45
:104920001B7813701E4B5B68DB02DB0FDAB21323BC
:10493000FB181A701C4AFB1D1B781370C046154BE0
:104940009847031EFBD1164B9B681B021B0C9BB2A6
:10495000FB60164B98471323FB181B78002B09D1DB
:10496000FB68012B06D9124BF96878699847030058
:104970007B610AE01323FB181B78002B05D0FB6832
:1049800001337A69DA4013007B617B691800BD4608
:1049900006B080BD0D470000E5460000040C004055
:1049A000000C004021420000080C0040F9460000C5
:1049B000B573000080B584B000AF02003960FB1D04
:1049C0001A70FB1D1B78FB603B681B781B021A00EA
:1049D000FB681343FB60FB1D1B781800044B9847D2
:1049E000044BFA6892B25A80C046BD4604B080BDFE
:1049F000414A0000000C004080B582B000AF0200C8
:104A0000FB1D1A700A4B98470A4AFB1D1B7813704E
:104A10000949094B5B889BB28022D20113439BB2A8
:104A20004B80064B9847C046BD4602B080BDC0468D
:104A3000E5460000020C0040000C0040F946000072
:104A400080B584B000AF0200FB1D1A701C4B984764
:104A50001C4AFB1D1B7813701B4B5B881B051B0F2F
:104A6000DBB2FB60184A538818490B405380164A42
:104A7000154B5B889BB216490B409BB25380C046D6
:104A8000114B5B889BB21A008023DB011340F7D1E6
:104A90000D4AFB68DBB2191C0F230B40D9B25388B7
:104AA000081C0F210140080208490B40191C031C77
:104AB0000B435380074B9847C046BD4604B080BDAA
:104AC000E5460000020C0040000C0040FFF0FFFF34
:104AD000FFBFFFFFF946000080B584B000AF0200C1
:104AE000FB1D1A700D4B98470D4AFB1D1B78137068
:104AF0000C4B5B881B051B0FDAB20F23FB181A70D7
:104B0000094B98470F23FB181B781800074B984751
:104B100003001800BD4604B080BDC046E546000055
:104B2000020C0040000C0040F9460000DD48000087
:104B300080B584B000AF0200FB1D1A700F23FB1874
:104B4000FA1D1278D2091A700E23FB18FA1D12787A
:104B500052091A700D4BBB600F23FB181B78002BFA
:104B60000FD10F23FB181B789B0010229446BC44E6
:104B70006344083B1A680E23FB181B78DB01D3182B
:104B800000E000231800BD4604B080BD0044004191
:104B900080B588B000AFF860B9607A600023FB612F
:104BA0007B68DB7801225340DBB2002B35D07B6879
:104BB0001B78802B0BD0FB69802252021343FB61D0
:104BC0007B681B781B061A00FB691343FB617B683B
:104BD0005B78002B03D07B685B78022B10D1FB69DC
:104BE000802292021343FB617B689B78002B04D0E8
:104BF000FB698022D2021343FB61FB68BA685A60EA
:104C00007B685B78012B03D07B685B78022B07D134
:104C1000FB69224A1340FB6102E0FB68BA685A60F4
:104C2000BB681B041B0CBB61BB681B0C7B61BA69B6
:104C3000FB691343A022D2051A43FB689A627A6982
:104C4000FB691343D02212061A43FB689A627B6801
:104C5000DB7801225340DBB2002B1AD0FA698023A3
:104C6000DB0213400AD07B689B78012B03D1FB68E1
:104C7000BA689A6102E0FB68BA685A617B685B783F
:104C8000012B03D07B685B78022B02D1FB68BA68EA
:104C90009A60C046BD4608B080BDC046FFFFFBFF1E
:104CA00080B584B000AF02003960FB1D1A70FB1D97
:104CB0001B7818000A4B98470300FB60FB1D1B780C
:104CC0001F22134001229A401300BB603A68B96862
:104CD000FB681800034B9847C046BD4604B080BD32
:104CE000314B0000914B000080B500AFC046BD467F
:104CF00080BDC04680B500AF064B9847064B98472D
:104D0000064B9847064B9847064B9847C046BD460A
:104D100080BDC04605450000F13F0000E94C0000A1
:104D200071020000E94C000080B582B000AF2F4B4B
:104D30007B602F4B3B607A683B689A420CD007E05F
:104D40003B681A1D3A607A68111D796012681A6012
:104D50003A68284B9A42F3D3274B3B6004E03B6808
:104D60001A1D3A6000221A603A68244B9A42F6D320
:104D7000234B7B60234B7A68FF218A439A60224A47
:104D800090235B000221D150204AD37803218B432A
:104D9000191C02230B43D3701C4AD3780C218B437C
:104DA000191C08230B43D370194A937B30218B4382
:104DB000191C20230B439373154A937B0C218B43BF
:104DC000191C08230B439373114A937B03218B43D4
:104DD000191C02230B4393730E4A536880210B4323
:104DE00053600D4B98470D4B9847FEE70490000029
:104DF000000000201000002010000020B802002059
:104E00000000000000ED00E0007000410050004193
:104E10000048004100400041058E0000856D000003
:104E200080B500AFFEE7C04680B584B000AF020099
:104E3000FB1D1A700F23FB18FA1D1278D2091A7085
:104E40000E23FB18FA1D127852091A700D4BBB6025
:104E50000F23FB181B78002B0FD10F23FB181B7897
:104E60009B0010229446BC446344083B1A680E23FE
:104E7000FB181B78DB01D31800E000231800BD46A7
:104E800004B080BD0044004180B582B000AF020094
:104E9000FB1D1A70FB1D1B781800034B984703007D
:104EA0001800BD4602B080BD294E000080B582B01A
:104EB00000AF78607B6800221A707B6801225A700C
:104EC0007B6800229A70C046BD4602B080BDC046D5
:104ED00080B584B000AF0200FB1D1A70FB1D1B786B
:104EE00018000B4B98470300FB60FB1D1B781F222B
:104EF000134001229A401300BB60FB681B6ABA682A
:104F000013405A1E9341DBB21800BD4604B080BD69
:104F1000894E000080B584B000AF0200FB1D1A70FE
:104F2000BB1D0A1C1A70FB1D1B7818000D4B9847FF
:104F30000300FB60FB1D1B781F22134001229A40D7
:104F40001300BB60BB1D1B78002B03D0FB68BA6845
:104F50009A6102E0FB68BA685A61C046BD4604B077
:104F600080BDC046894E000080B500AF044B0122D1
:104F70001A70BFF35F8F62B6C046BD4680BDC046A3
:104F80000000002080B500AF72B6BFF35F8F034B07
:104F900000221A70C046BD4680BDC04600000020F9
:104FA00080B582B000AF0200FB1D1A70064BFA1DDF
:104FB000127811001F220A40012191400A001A6054
:104FC000C046BD4602B080BD00E100E080B584B0BF
:104FD00000AF78607B68A02212011A807B680122F2
:104FE0009A707B680022DA707B6800221A710F23A6
:104FF000FB1800221A700EE00F23FB181A787B684A
:10500000023292000021D1500F23FB181A780F238F
:10501000FB1801321A700F23FB181B78012BEBD9F8
:10502000C046BD4604B080BD80B584B000AF786096
:105030007B681B68FB60FB68DB69072213405A1E14
:105040009341DBB21800BD4604B080BD80B582B08C
:1050500000AF7860C0467B681800044B9847031E79
:10506000F9D1C046BD4602B080BDC04629500000FF
:1050700080B582B000AF78607B6864221A607B687C
:105080001B4A5A607B6800229A607B6800221A7370
:105090007B6800221A767B68802292031A617B6803
:1050A00001225242DA827B68012252429A827B6854
:1050B0000022DA617B6800221A627B6824220021C8
:1050C00099547B6800229A627B682C2200219954B3
:1050D0007B682D22002199547B682E22002199544F
:1050E0007B68D7221A86C046BD4602B080BDC04646
:1050F000480D000080B584B000AF78607B681B6805
:10510000BB600023FB607B681800144B9847BB68AA
:105110001B6802221A43BB681A607B681B68180070
:105120000F4B9847030018000E4B98470CE0FB68A4
:105130000133FB607B68DB881A1EFB689A4203D848
:10514000BB6810225A8306E0BB685B8B9BB21A00D7
:1051500010231340EBD0BD4604B080BD4D5000007D
:105160008D3E0000A14F000080B584B000AF786094
:105170007B681B68FB60FB68DB695A1E9341DBB2EE
:105180001800BD4604B080BD80B582B000AF786025
:105190007B6801221A707B6800225A607B680022BB
:1051A0009A607B68C0229203DA607B6800221A74DE
:1051B0007B6800225A747B6801229A747B68012202
:1051C000DA747B6800221A757B68242200219954C6
:1051D0007B6818330C22002118000A4B98477B6823
:1051E000094A9A617B6800229A627B680022DA622F
:1051F0007B6800221A637B6800225A63C046BD4662
:1052000002B080BD638E0000A086010080B582B030
:1052100000AF78607B680A221A707B6800225A709F
:105220007B6800229A70C046BD4602B080BDC04671
:1052300080B584B000AF786039603B681A787B68CD
:105240001A703B685A787B685A703B689A787B681A
:105250009A700C23FB1818000B4B98470C23FB1873
:1052600001221A707B681B780C22BA1811001800F2
:10527000064B98477B681B7801211800044B984720
:10528000C046BD4604B080BDAD4E0000913F000059
:10529000154F000080B584B000AF78607B681B6854
:1052A000FB607B681B6818000B4B984703001800D5
:1052B0000A4B9847C0467B681800094B9847031E65
:1052C000F9D1FB681B6802221A43FB681A60C046CA
:1052D000BD4604B080BDC0468D3E0000A14F000019
:1052E0006951000080B584B000AF78607B681B68AE
:1052F000FB60C046FB689B6802221340FAD1FB6842
:105300001B6802221A43FB681A60C046BD4604B0FF
:1053100080BDC04680B582B000AF3B1D1800074B72
:1053200098473B1D00221A703B1D19000320044BB7
:105330009847C046BD4602B080BDC046AD4E000095
:10534000913F000080B584B000AF3B1D18000B4BAF
:1053500098473B1D03221A603B1D00225A603B1DEB
:1053600001221A723B1D0122DA723B1D1900032033
:10537000034B9847C046BD4604B080BDB50300004E
:10538000E903000080B500AF064B0022032118009E
:10539000054B984700210320044B9847C046BD4663
:1053A00080BDC046A95E0000310E0000950E0000D1
:1053B00080B590B000AF3B1D1800214B98473B1DB6
:1053C00012221A703A1D1F4B110018001E4B9847ED
:1053D0000823FB1818001D4B98470823FB18C02210
:1053E0009203DA600823FB18194A9A620823FB1813
:1053F000184ADA620823FB18012252421A63082372
:10540000FB18154A5A630823FB1800225A60082328
:10541000FB1800229A600823FA181049104B180054
:10542000104B98470E4B18000F4B984705490C4BF3
:10543000002218000D4B9847C046BD4610B080BDF5
:105440000D520000B40200203152000089510000CA
:10545000020010000200110002001300000C0042C4
:10546000340200209D320000955200008D3500006E
:1054700080B584B000AF3B0018000F4B98473B004D
:1054800000221A803B0000229A703B0001221A7110
:105490003A000A490A4B18000A4B9847084B180073
:1054A000094B9847094A064B11001800084B9847CA
:1054B000C046BD4604B080BDCD4F00000014004082
:1054C00018010020E5070000DD050000102700009E
:1054D000C909000080B500AF054B00211800054B3D
:1054E0009847034B1800044B9847C046BD4680BD03
:1054F0001801002075080000DD05000080B582B0AD
:1055000000AF00237B60054B1800054B9847030054
:105510007B607B681800BD4602B080BD180100208A
:10552000D508000090B585B000AF040039601000C8
:105530001900FB1D221C1A70BB1D021C1A707B1D5A
:105540000A1C1A7001204B4B9847C04627204A4B33
:10555000984703005BB2002BF8DA00212520474B67
:105560009847BB1D1B783D2B02D9BB1D3D221A70ED
:105570000E23FB1800221A702023FB181B78002B27
:1055800004D00E23FB1880221A7007E07B1D1B78C5
:10559000002B03D00E23FB1840221A70384B98477B
:1055A000384A394B80211800384B9847BB1D1B786F
:1055B0009BB2033399B2334A334B1800334B9847AD
:1055C000FB1D1B7899B22F4A2F4B18002F4B984781
:1055D0002F4B1B78DBB299B22A4A2B4B18002B4B6E
:1055E00098470E23FB181B78DBB299B2254A264B4D
:1055F0001800264B98470F23FB1800221A7012E060
:105600000F23FB181B783A68D3181B7899B21D4AF0
:105610001D4B18001D4B98470F23FB181A780F23BA
:10562000FB1801321A700F23FA18BB1D12781B7871
:105630009A42E5D3174B984704200E4B9847164BD8
:105640009847C0460320154B984703001A000123D2
:105650005340DBB2002B05D0114B9847021E114B73
:105660009A42EFD90120034B9847C046BD4605B08A
:1056700090BDC046C55A0000B1600000196100002D
:1056800079610000680000203402002041340000ED
:1056900074010020A5610000D5540000D14E000027
:1056A000FD540000E703000080B582B000AF0200A7
:1056B000FB1D1A70194BFA1D12781A70174B1B78C4
:1056C000DBB2002B01D00F2300E01A2319001320B6
:1056D000134B9847114B1B78DBB2002B10D01120D5
:1056E000104B984703005BB21F2213405BB260224D
:1056F00013435BB2DBB219001120094B984709E054
:10570000094B1B78802252421343DBB2190011204F
:10571000034B9847C046BD4602B080BD3002002012
:1057200019610000B16000003001002080B500AFB9
:10573000074B01221A80074B00221A70064B1F22CA
:105740001A70064B00221A70C046BD4680BDC04686
:105750002E0200207C0100203001002030020020B9
:1057600090B591B000AF040008001100FB1D221C91
:105770001A70BB1D021C1A707B1D0A1C1A70C14BCB
:1057800098471023FB1801221A701023FB180422DB
:105790005A701023FB1802229A701023FB18002263
:1057A000DA701023FB1803221A711023FB1802224F
:1057B0005A711023FB1804229A711023FB184022FF
:1057C000DA711023FB1805221A721023FB1803222A
:1057D0005A721023FB1806229A721023FB183322E8
:1057E000DA721023FB1807221A73FB1D1B781F2B7C
:1057F0000DD0FB1D1B782B2B07D0FB1D1B78562BC8
:1058000001D1D92304E0E42302E06C2300E04E231D
:105810001022BA1853731023FB1808229A73FB1D29
:105820001B781F2B0DD0FB1D1B782B2B07D0FB1DCE
:105830001B78562B01D1002304E0C02302E0402353
:1058400000E0C0231022BA18D3731023FB180922DA
:105850001A741023FB1800225A741023FB18192203
:105860009A741023FB184222DA741023FB182522A5
:105870001A751023FB1840225A751023FB18262294
:105880009A751023FB180722DA751023FB182822BB
:105890001A761023FB1810225A761023FB1829229F
:1058A0009A761023FB18DC22DA761023FB182E22BE
:1058B0001A771023FB1888225A771023FB182F22FF
:1058C0009A771023FB182D22DA771023FB18202259
:1058D000302199541023FB187A1D212112785A5433
:1058E0001023FB182222372199541023FB1823225E
:1058F000902199541023FB18242238219954102305
:10590000FB182522422199541023FB1826223C2102
:1059100099541023FB1827228F2199541023FB1828
:1059200028223D2199541023FB1829221221995431
:105930001023FB182A226F2199541023FB182B22C5
:10594000302199541023FB182C22FF219954102345
:10595000FB182D22002199544B4B98474B4B9847ED
:105960004B4B98474B4B98474B4B98470F23FB1893
:1059700032221A70AA212F20484B98472F20484BDB
:105980009847031EAA2B08D0464B984702000F23C6
:10599000FB181B78DBB29A42ECD33F4B984755215A
:1059A0002F203E4B98472F203D4B9847031E552BE9
:1059B00008D03C4B984702000F23FB181B78DBB242
:1059C0009A42ECD33F23FB1800221A7019E03F23C0
:1059D000FB181A781023FB185200D05C3F23FB18E9
:1059E0001B781022BA185B00D31801331B781900FA
:1059F0002A4B98473F23FB181A783F23FB180132A4
:105A00001A703F23FB181A781023FB185200D35C3E
:105A1000FF2BDCD10020244B9847244B1B78DBB2B2
:105A20001800234B98470120224B98471A4B984760
:105A3000C04627201A4B984703005BB2002B08DBB7
:105A4000184B984702000F23FB181B78DBB29A42D1
:105A5000EFD3144B984702000F23FB181B78DBB2DF
:105A60009A4201D3002309E0134B00221A70134B12
:105A70009847134BBA1D12781A7001231800BD46BF
:105A800011B090BD2D570000B153000071540000BB
:105A90001553000045530000D55400001961000063
:105AA000B1600000FD540000BD5F00003002002026
:105AB000A9560000C55A000031010020855300009E
:105AC0007401002080B582B000AF0200FB1D1A7087
:105AD000FB1D1B789AB2474B1B889BB29A4200D1A0
