:10000000B8220020A54D00009D4E00009D4E00002E
:1000100000000000000000000000000000000000E0
:100020000000000000000000000000009D4E0000E5
:1000300000000000000000009D4E00009D4E0000EA
:100040009D4E00009D4E00009D4E0000D90A00000C
:100050007D0F00009D4E00009D4E00009D4E000053
:100060009D4E0000813F0000953F0000A93F000029
:10007000BD3F0000D13F0000E53F0000B12C000073
:10008000C52C0000D92C0000652D0000792D000042
:100090008D2D000000000000000000009D4E0000BB
:1000A0009D4E00009D4E00009D4E00009D4E0000A4
:1000B0000000000010B5064C2378002B07D1054B3B
:1000C000002B02D0044800E000BF0123237010BDC4
:1000D00010000020000000006491000008B5084BEB
:1000E000002B03D00748084900E000BF0748036819
:1000F000002B00D108BD064B002BFBD09847F9E739
:1001000000000000649100001400002064910000D1
:100110000000000080B582B000AF78607B680022EC
:100120001A70BD4602B080BD80B582B000AF021C1F
:100130003960FB1D1A70FB1D1B78012B0AD0022BA6
:100140000FD0002B14D10E4B0D4A91693A680A4327
:100150009A610FE00A4B0A4AD1693A680A43DA61A8
:1001600008E0074B064A116A3A680A431A6201E03E
:10017000172300E00023181CBD4602B080BDC04616
:100180000004004080B582B000AF78607B688022B8
:100190001A707B6800225A707B6801229A707B6813
:1001A0000022DA70BD4602B080BDC04680B582B084
:1001B00000AF021CFB1D1A70064BFA1D1278111CB1
:1001C0001F220A40012191400A1C1A60BD4602B05C
:1001D00080BDC04600E100E080B584B000AF021CE5
:1001E000FB1D1A700F23FB18FA1D127852091A70A2
:1001F0000F23FB181B78002B0CD1094BBB600F237E
:10020000FB181B789B0010229446BC446344083BB7
:100210001B6800E00023181CBD4604B080BDC0462A
:100220000018004080B582B000AF104B3B60002347
:100230007B6012E07B689B0008229446BC446344C8
:10024000083B1B685B78DBB2DBB25BB2002B01DAE8
:10025000012306E07B6801337B607B68002BE9D0DB
:100260000023181CBD4602B080BDC04600180040E7
:1002700080B584B000AF2C4B7B60002040212B4B1D
:1002800098473B1C181C2A4B98473B1C00221A70AD
:100290003B1C0520191C274B98470520264B9847E7
:1002A0000023FB6018E0FB689B0010229446BC44CE
:1002B00063440C3B1A68FB689B0010218C46BC44CD
:1002C00063440C3B1B681B78DBB201210B43DBB2A0
:1002D0001370FB680133FB60FB68002BE3D0C04662
:1002E000164B9847031EFBD10B23FB1800221A70F4
:1002F0000DE00B23FB181A78114B92000021D1500E
:100300000B23FB181A780B23FB1801321A700B23EE
:10031000FB181B780F2BECD904200A4B98470A4B8B
:100320009847BD4604B080BD001800402901000078
:1003300015010000314A0000754A00002502000046
:100340008C000020AD0100004D03000080B582B09C
:1003500000AF144B3B6000237B6018E07B689B0080
:1003600008229446BC446344083B1A687B689B009F
:1003700008218C46BC446344083B1B681B78DBB2F5
:1003800002210B43DBB213707B6801337B607B6817
:10039000002BE3D0C046044B9847031EFBD1BD465B
:1003A00002B080BD001800402502000080B582B078
:1003B00000AF78607B6800221A607B6800225A6078
:1003C0007B6801221A727B6801225A727B680022C4
:1003D0009A727B680222DA72BD4602B080BDC046C6
:1003E00080B586B000AF021C3960FB1D1A7008236F
:1003F000FB18181C364B98473B685B68DAB2082339
:10040000FB181A700823FB1800225A703B681A7AEE
:100410000823FB189A703B681B68DAB20823FB18A4
:10042000101C191C2B4B9847FB1D1B78181C2A4BC2
:100430009847031C3B61FB1D1B78072213409B0060
:10044000FB603B68DB7A7B613B689B7A002B03D0C7
:100450007B69082213437B61FB1D1B78DB08DBB241
:10046000181CFB1D1B78DB08DBB21A1C3B6906322B
:100470009200D358FA680F2191400A1CD2431A40C7
:10048000FB68796999400B1C1A43111C3B69821D5A
:100490009200D1503B685B7A002B0AD03B695A69C5
:1004A000FB1D1B78012199400B1C1A433B695A61C3
:1004B0000AE03B695B69FA1D1278012191400A1C30
:1004C000D2431A403B695A61BD4606B080BDC04662
:1004D000850100001D4D0000D901000080B582B0EB
:1004E00000AF78607B6800221A70BD4602B080BD04
:1004F00080B582B000AF021C3960FB1D1A70FB1D75
:100500001B78012B0AD0022B0FD0002B14D10E4BDD
:100510000D4A91693A680A439A610FE00A4B0A4A08
:10052000D1693A680A43DA6108E0074B064A116A62
:100530003A680A431A6201E0172300E00023181CFE
:10054000BD4602B080BDC0460004004080B582B008
:1005500000AF021CFB1D1A70064BFA1D1278111C0D
:100560001F220A40012191400A1C1A60BD4602B0B8
:1005700080BDC04600E100E080B582B000AF021C43
:10058000FB1D1A70074AFB1D1B78191C1F230B400B
:10059000012199400B1C191C8023D150BD4602B08B
:1005A00080BDC04600E100E080B584B000AF786057
:1005B0007B681B68FB60FB689B7ADBB2DBB25BB2DB
:1005C000002B01DA012300E00023181CBD4604B013
:1005D00080BDC04680B584B000AF78607B681B6882
:1005E000FB600320094B9847C0467B68181C084BEA
:1005F0009847031EF9D1FB681B889BB20222134364
:100600009AB2FB681A80BD4604B080BD4D0500005B
:10061000A905000080B584B000AF78607B681B68D6
:10062000FB600320094B9847C0467B68181C084BA9
:100630009847031EF9D1FB681B889BB202229343A3
:100640009AB2FB681A80BD4604B080BD79050000EF
:10065000A905000080B584B000AF78607B681B6896
:10066000FB607B68181C0D4B98477B6800229A82C0
:100670007B680022DA82C0467B68181C084B9847CA
:10068000031EF9D1FB681B889BB2012213439AB267
:10069000FB681A80BD4604B080BDC0461506000048
:1006A000A905000080B584B000AF786039607B6830
:1006B0001B68BB603B681A88BB681A803B689B78E4
:1006C000002B3CD0012B00D070E0BB681B889AB295
:1006D000BB681A803B68DB78002B07D0BB681B889F
:1006E0009BB2802213439AB2BB681A800F23FB1877
:1006F00000221A701DE0C0467B68181C354B9847D5
:10070000031EF9D10F23FB181A783B6802329200BE
:10071000D25879680F23FB181B78081C111C1A1C6F
:100720002D4B98470F23FB181A780F23FB18013223
:100730001A700F23FB181B78002BDCD038E0BB6845
:100740001B889BB2042213439AB2BB681A803B6891
:10075000DB78002B01D0172338E00E23FB18002292
:100760001A701DE0C0467B68181C1A4B9847031E80
:10077000F9D10E23FB181A783B6802329200D25846
:1007800079680E23FB181B78081C111C1A1C124BCD
:1007900098470E23FB181A780E23FB1801321A70A3
:1007A0000E23FB181B78012BDCD901E017230DE089
:1007B0003B681B79002B08D0BB685B889BB280220A
:1007C000D20113439AB2BB685A800023181CBD465D
:1007D00004B080BDA90500003509000080B586B0D1
:1007E00000AFF860B9607A60FB68BA681A600020F0
:1007F0002021174B98471423FB18181C154B9847BA
:100800001423FB1802221A701423FB180420191C4D
:10081000114B98470420114B9847FB68181C104B4C
:1008200098477B689A78FB681A717B681A79FB682D
:100830005A710C4BFA681A60FA687B68101C191C14
:10084000094B9847031C181CBD4606B080BDC04626
:10085000F1040000DD040000314A0000754A000088
:1008600055060000CC000020A506000080B584B02D
:1008700000AF786039607B681B68FB60C0467B68AE
:10088000181C104B9847031EF9D17B681B79002B6D
:1008900005D0012B0ED1FB683A681A610CE03B6869
:1008A000094A934201D9172307E03B689AB2FB68D3
:1008B0001A8201E0172300E00023181CBD4604B093
:1008C00080BDC046A9050000FFFF000080B584B0D0
:1008D00000AF78607B681B68BB607B685B79012236
:1008E0005340DBB2002B09D0BB68104A5A80C04687
:1008F0007B68181C0E4B9847031EF9D17B681B7947
:10090000002B05D0012B08D1BB681B69FB6007E0F9
:10091000BB681B8A9BB2FB6002E00023FB60C04601
:10092000FB68181CBD4604B080BDC0460080FFFFB8
:10093000A905000080B586B000AFF860B960FB1D66
:100940001A70FB681B687B61C046FB68181C1A4B59
:100950009847031EF9D1FB681B79002B0FD0012BA0
:1009600022D1FB1D1B78012B01D917231FE0FB1D92
:100970001A787B6906329200B968D15016E0FB1DE7
:100980001B78022B01D9172311E0BB680B4A934255
:1009900001D917230BE0FB1D1A78BB6899B27B695C
:1009A0000C325200D15201E01A2300E00023181C3F
:1009B000BD4606B080BDC046A9050000FFFF00008F
:1009C00080B584B000AF78600A1CBB1C1A807B68BD
:1009D0001B68FB607B681B79002B01D015230BE0A3
:1009E000C0467B68181C064B9847031EF9D1FB686C
:1009F000BA1C12889A820023181CBD4604B080BD20
:100A0000A905000080B586B000AF7860314B7A68E8
:100A10009200D3587B617B691B683B610E23FB18F6
:100A20007A69D28A1A807B699B8A9AB20E23FB1854
:100A30000E21791809880A401A803B691B7ADAB2BC
:100A40000C23FB181A803B69DB79DBB29AB20C23CA
:100A5000FB180C21791809880A401A800C23FB180E
:100A60001B88802213400CD00E23FB181B88042205
:100A7000134002D07B691B6998473B6980221A7238
:100A800024E00C23FB181B88012213400CD00E23FA
:100A9000FB181B880122134002D07B699B68984792
:100AA0003B6901221A7211E00C23FB181B880222F9
:100AB00013400BD00E23FB181B880222134002D0D8
:100AC0007B69DB6898473B6902221A72BD4606B013
:100AD00080BDC046CC00002080B500AF0020024B96
:100AE0009847BD4680BDC046050A000080B584B069
:100AF00000AF021CFB1D1A700F23FB18FA1D1278A1
:100B0000D2091A700E23FB18FA1D127852091A70B6
:100B10000D4BBB600F23FB181B78002B0FD10F234D
:100B2000FB181B789B0010229446BC446344083B8E
:100B30001A680E23FB181B78DB01D31800E0002392
:100B4000181CBD4604B080BD0044004180B582B091
:100B500000AF021CFB1D1A70FB1D1B78181C034BF9
:100B60009847031C181CBD4602B080BDED0A00006A
:100B700080B584B000AF021CFB1D1A70FB1D1B78F2
:100B8000181C0B4B9847031CFB60FB1D1B781F2296
:100B9000134001229A40131CBB60FB681B6ABA68B1
:100BA00013405A1E9341DBB2181CBD4604B080BDF1
:100BB0004D0B000080B500AF0F4B00221A700E4B9A
:100BC00000225A700C4B00229A700B4B0022DA70F4
:100BD000094B00221A71084B00225A71064B002261
:100BE0009A71054B0022DA71034B00221A81024BE5
:100BF00000225A81BD4680BDD000002098B500AFCC
:100C00000020204B9847031C1A1C1F4B9A70012090
:100C10001C4B9847031C1A1C1B4BDA700220194B03
:100C20009847031C1A1C184B1A700320154B984741
:100C3000031C1A1C144B5A701449154A154B081CF6
:100C4000111C1A1C0023144CA0471449144A114BC0
:100C5000081C111C1A1C01230F4CA0470A49114AF9
:100C6000114B081C111C1A1C01230B4CA0470F49E7
:100C70000F4A0D4B081C111C1A1C0023064CA047E0
:100C8000BD4698BD110D0000D0000020D20000200C
:100C9000D4000020D8000020B50C0000D3000020B4
:100CA000D5000020D6000020DA000020D10000206E
:100CB000D700002080B584B000AFF860B9607A60DA
:100CC0001A1CFB1C1A70FB681A78BB681B789A42C6
:100CD0001AD0FB1C1B78002B09D07B681B889BB2A9
:100CE0009BB201339BB29AB27B681A8008E07B68A2
:100CF0001B889BB29BB2013B9BB29AB27B681A8065
:100D0000FB681A78BB681A70BD4604B080BDC04647
:100D100080B582B000AF021CFB1D1A70FB1D1B7852
:100D2000012B0DD002DC002B05D018E0022B0CD0DB
:100D3000032B0FD013E00A200B4B9847031C0EE047
:100D40000B20094B9847031C09E00620064B9847E7
:100D5000031C04E00920044B9847031CFFE7181C00
:100D6000BD4602B080BDC046710B000080B584B0A6
:100D700000AF78603960224B1A890F23FB181A7074
:100D80001F4B5A890E23FB181A700F23FB181B7870
:100D90005BB2642B03DD0F23FB1864221A700F2350
:100DA000FB181B785BB2643303DA0F23FB189C2219
:100DB0001A700E23FB181B785BB2642B03DD0E2325
:100DC000FB1864221A700E23FB181B785BB2643385
:100DD00003DA0E23FB189C221A70094B00221A8199
:100DE000074B00225A817B680F22BA1812781A70BA
:100DF0003B680E22BA1812781A70BD4604B080BD46
:100E0000D000002080B584B000AF021CFB1D1A701A
:100E10000F23FB18FA1D127852091A700F23FB18C2
:100E20001B78002B0CD1094BBB600F23FB181B78E0
:100E30009B0010229446BC446344083B1B6800E0BE
:100E40000023181CBD4604B080BDC04600180040F9
:100E500080B584B000AF021CFB1D1A70FB1D1B780F
:100E6000181C0B4B9847031CFB60FB1D1B781F22B3
:100E7000134001229A40131CBB60FB681B69BA68CF
:100E800013405A1E9341DBB2181CBD4604B080BD0E
:100E9000050E000080B584B000AF021CFB1D1A7067
:100EA000FB1D1B78181C094B9847031CFB60FB1D9E
:100EB0001B781F22134001229A40131CBB60FB6861
:100EC000BA681A61BD4604B080BDC046050E000078
:100ED00080B582B000AF7860081C111CFB1C021C9E
:100EE0001A70BB1C0A1C1A70BB1C1B78002B01D08B
:100EF000172319E0FB1C1A780D4B9200D358002BD6
:100F000007D1FB1C1A780A4B92007968D150002354
:100F10000AE0FB1C1A78064B9200D2587B689A4272
:100F200001D1002300E01D23181CBD4602B080BD86
:100F30008C00002080B584B000AF021CFB1D1A702D
:100F4000BB1D0A1C1A70BB1D1B78002B0ED1FB1D8C
:100F50001B78181C084B9847031CFB60FB1D1B7873
:100F600001229A40FB68DA60002300E01723181C76
:100F7000BD4604B080BDC046050E000080B500AF80
:100F8000154B00221A7020E0134B1B78181C134BD2
:100F90009847031E13D0104B1B78181C104B984712
:100FA0000D4B1B781A1C0F4B9200D358002B06D008
:100FB000094B1B781A1C0B4B9200D3589847064BD1
:100FC0001B780133DAB2044B1A70034B1B780F2BDA
:100FD000DAD9BD4680BDC046DC000020510E0000BD
:100FE000950E00008C00002080B582B000AF7860C4
:100FF0007B6800221A70BD4602B080BD80B582B009
:1010000000AF021C3960FB1D1A70FB1D1B78012B01
:101010000AD0022B0FD0002B14D10E4B0D4A916930
:101020003A680A439A610FE00A4B0A4AD1693A6862
:101030000A43DA6108E0074B064A116A3A680A4334
:101040001A6201E0172300E00023181CBD4602B01D
:1010500080BDC0460004004080B582B000AF78601B
:101060007B6880221A707B6800225A707B6801229C
:101070009A707B680022DA70BD4602B080BDC0461F
:1010800080B500AF054B9B78DBB21A1C02231340DE
:101090005A1E9341DBB2181CBD4680BD00200041A2
:1010A00080B584B000AF78607B681B68FB60FB682C
:1010B000DB69072213405A1E9341DBB2181CBD4660
:1010C00004B080BD80B582B000AF7860C0467B6858
:1010D000181C034B9847031EF9D1BD4602B080BDD2
:1010E000A1100000F0B595B000AFF860B960002322
:1010F0007B630023BB6400237B643B23082294466C
:10110000BC44634400221A70FB681B683B63FB68A5
:101110001B68FB6223230822BA18D418FB6A181C28
:10112000C34B9847031C23700C2308229446BC44ED
:101130006344181CBF4B9847BB68DB69FB63BB6803
:101140001B6ABB63FB6B002B06D1FB6A181C0021DA
:10115000B94B9847031CFB63FB6BDAB20C230821E5
:101160008C46BC4463441A700C2308229446BC4449
:10117000634402225A70FB6B1B0CDAB20C23082169
:101180008C46BC446344101C191CAC4B9847BB6B89
:10119000002B06D1FB6A181C0121A74B9847031CA2
:1011A000BB63BB6BDAB20C2308218C46BC4463449E
:1011B0001A700C2308229446BC44634402225A70DD
:1011C000BB6B1B0CDAB20C2308218C46BC44634475
:1011D000101C191C994B9847BB689A8AFB68DA80E7
:1011E000BB68DA8AFB681A81BB681B7E002B03D1BF
:1011F000934B9847031E02D08023FB6401E0002339
:10120000FB64BB681B69002B04D0BB681B69FA6CCC
:101210001343FB64BB689B68FA6C1343FB64BB68B5
:1012200024229B5C002B04D0FB6C8022D20513434C
:10123000FB64BB689B6A002B04D0BB689B6AFA6C9A
:101240001343FB64BB682C229B5C002B05D1BB685D
:101250009A6880239B049A4204D1FB6C8022120579
:101260001343FB64BB682D229B5C002B04D0FB6CFA
:10127000802212041343FB64BB682E229B5C002B6C
:1012800004D0FB6C8022D2031343FB643B6B1A68CF
:10129000FB6C1A433B6B1A603B6B802252005A6016
:1012A000232308229446BC4463441B781433DBB2E6
:1012B000181C644B9847031C7B62BB681B68FA22AE
:1012C000920053433B62BB685B68FA22920053432F
:1012D000FB61BB681B8EBB615B4B786A9847051C42
:1012E0000E1C594B386A9847386079607B6ABA6936
:1012F0005A43554B101C9847021C0B1C534C101C96
:10130000191C534A534BA047031C0C1C1A1C231CCA
:10131000514C101C191C0022504BA047031C0C1CE4
:101320001A1C231C494C38687968A047031C0C1C04
:101330001A1C231C4A4C281C311CA047031C0C1CE3
:101340001D1C261C3B6A5A003F4B101C9847021C70
:101350000B1C414C281C311CA047031C0C1C1A1CE4
:10136000231C3F4C101C191C00223E4BA047031CA1
:101370000C1C1D1C261C3B6A5A00334B101C984742
:10138000021C0B1C384C281C311CA047031C0C1CD5
:10139000191C221C354B081C111C9847031C7B632D
:1013A000BB689A6880239B049A4273D1264B786A63
:1013B0009847021C0B1C284C101C191CA047031C2E
:1013C0000C1C1D1C261C204BF8699847021C0B1C8A
:1013D0001E4C101C191C0022254BA047031C0C1C82
:1013E0001A1C231C204C281C311CA047031C0C1C5D
:1013F0001A1C231C1A4C101C191C0022194BA04744
:10140000031C0C1C191C221C184B081C111C98478F
:10141000031C7B647B6C002B2ED0164B786AF96919
:101420009847031C9A1E7B6CD31ABB6432E0C046FB
:10143000613E000059100000A53C00001D4D000059
:1014400081100000554B0000C58E00003182000065
:1014500095D626E80B2E113E997500000000244019
:10146000658700000000F03FE97B0000598E000016
:101470000000084075740000FB695A007B6AD318AD
:10148000591EFB695A001D4B081C111C9847031C70
:10149000013BBB647B6BFF2B08DC7B6B002B05DB0C
:1014A000BB6CFF2B02DCBB6C002B06DA3B23082253
:1014B0009446BC44634440221A703B23082294465D
:1014C000BC4463441B78402B0ED07B6BFF221A4038
:1014D000BB6C1B04191CFF231B040B4013437A6CC9
:1014E00012061A433B6BDA603B2308229446BC4445
:1014F00063441B78181CBD4615B0F0BD7574000020
:1015000090B58BB000AFF860B9607A60FB68BA68DC
:101510001A60FB681B687B62FB681B68181C3B4BEE
:101520009847031C3B623B6A0233FB613B6A1433FE
:10153000BB61FB6901229A40131C0220191C344B29
:1015400098471423FB18181C324B98477B681A7B6A
:101550001423FB181A70BB69DAB21423FB18101C91
:10156000191C2D4B9847BB69DBB2181C2B4B9847B5
:101570007B681B7B181C0021294B98477B6A1B68E2
:101580000222134001D01C233BE07B6A1B6801222E
:10159000134001D0052334E0FB681B681722BC18F8
:1015A000181C1A4B9847031C23701723FB181A7832
:1015B0001C4B101C191C1C4B98471723FB181A783E
:1015C0001A4B9200F968D150FB6800221A76FB682A
:1015D00000225A76FB6800225A83FB6800229A8315
:1015E000FB68252200219954FB6800221A627B6A5D
:1015F00014221A60FA687B68101C191C0C4B98475F
:10160000031C181CBD460BB090BDC046613E0000D7
:10161000FD0F0000E90F0000314A0000754A00008C
:10162000193C0000211E0000C13E0000FC0000200B
:10163000E510000080B584B000AF78607B681B685F
:10164000FB60FB681B7EDBB21A1C022313400BD02D
:10165000FB6802221A76FB685B8B9BB21A1C022382
:10166000134011D0412310E0FB685B8B9BB21A1C26
:101670000423134008D0FB685B68C02292021A431F
:10168000FB685A60182300E00023181CBD4604B014
:1016900080BDC04680B584B000AF78607B681B68B1
:1016A000BB600E23FB1800221A800FE00E23FB18EC
:1016B0000E22BA18128801321A807B681B890E220A
:1016C000BA1812889A4201D312230EE0BB681B7E1F
:1016D000DBB21A1C0123134006D1BB681B7EDBB2B0
:1016E0001A1C02231340E1D00023181CBD4604B08D
:1016F00080BDC04690B585B000AF78600A1CFB1C69
:101700001A707B681B68FB60FB685B688022D202F2
:101710001A43FB685A60FB1C1A78FB685A620B2359
:10172000FC187B68181C074B9847031C2370FB6848
:1017300001221A760B23FB181B78181CBD4605B036
:1017400090BDC0469516000090B587B000AF786098
:1017500039607B681B68FB601423FB183A68528869
:101760001A801223FB1800221A80FB681B68DB0E0C
:101770001A1C01231340DBB21A1C0B23FB18511E49
:101780008A411A703B685B7A002B06D03B689B7AD3
:101790007A68101C191C844B9847FB685B68834A65
:1017A0001A40FB685A603B681B7A002B42D03B68AA
:1017B0001B885A003B685B7A9B0313431A1C8023E7
:1017C0001B021A43FB685A621723FC187B68181C1B
:1017D000774B9847031C2370FB685B68734A1A4079
:1017E000FB685A601723FB181B78002B07D11723BF
:1017F000FC187B68181C6F4B9847031C2370172339
:10180000FB181B78002B11D13B681B881B0A9BB26D
:10181000782213439BB25A003B685B7A9B031343C5
:10182000012213431A1CFB685A620FE01723FB18AE
:101830001B78B5E03B681B885B0001221A433B68BC
:101840005B7A9B0313431A1CFB685A621723FC182C
:101850007B68181C564B9847031C23700B23FB18FE
:101860001B78002B0BD03B685B88012B07D1FB68F2
:101870005B688022D2021A43FB685A6005E0FB686D
:101880005B684A4A1A40FB685A601723FB181B78AA
:10189000002B07D11723FC187B68181C454B984771
:1018A000031C23701723FB181B78002B00D074E057
:1018B0004CE0FB685B8B9BB21A1C2023134001D1C8
:1018C00041236DE07B68DB7A002B1ED00B23FB18D5
:1018D0001B7801225340DBB2002B04D01423FB18E9
:1018E0001B88002B09D00B23FB181B78002B0CD076
:1018F0001423FB181B88012B07D1FB685B6880222F
:10190000D2021A43FB685A601AE07B68181C2A4B03
:1019100098473B685A681223FB181B8812217918D4
:10192000581C0880D318FA682821525CD2B21A7069
:101930001723FC187B68181C1D4B9847031C237049
:101940001723FB181B78002B00D008E01423FB188A
:101950001B881422BA18591E1180002BA9D17B684C
:101960009B7A002B0AD07B68181C134B9847FB68A6
:101970005B68C02292021A43FB685A607B68181C9D
:101980000D4B98473B685A681223FB181B88D318E5
:10199000FA682821525CD2B21A701723FB181B7800
:1019A000181CBD4607B090BDF5160000FFFFFBFFF9
:1019B0009516000035160000C510000080B582B0F5
:1019C00000AF786039607B689B8B9BB2002B01D0A5
:1019D00005230CE07B6801229A727B680122DA728F
:1019E0007A683B68101C191C034B9847031C181C91
:1019F000BD4602B080BDC0464917000090B587B013
:101A000000AF786039607B681B68FB601423FB18AB
:101A10003A6852881A807B68181C514B98473B687B
:101A20005B7A002B06D03B689B7A7A68101C191CE5
:101A30004C4B9847FB685B684B4A1A40FB685A60FE
:101A40003B681B7A002B0DD03B681B885A003B6813
:101A50005B7A9B0313431A1C80231B021A43FB6807
:101A60005A6209E03B681B885A003B685B7A9B031B
:101A700013431A1CFB685A621723FC187B68181C56
:101A80003A4B9847031C23701723FB181B78002B35
:101A900007D11723FC187B68181C354B9847031C8B
:101AA00023701723FB181B78002B51D11223FB182E
:101AB00000221A8034E0FB685B8B9BB21A1C202347
:101AC000134001D1412346E07B68181C244B984702
:101AD0003B685A681223FB181B8812217918581C7E
:101AE0000880D3181978FB68282299541723FC180A
:101AF0007B68181C1D4B9847031C23701723FB1889
:101B00001B78002B00D014E0FB685B8B9BB21A1C87
:101B10000423134004D01723FB181E221A7008E078
:101B20001423FB181B881422BA18591E1180002B8D
:101B3000C1D17B689B7A002B0AD07B68181C084BAC
:101B40009847FB685B68C02292021A43FB685A60A0
:101B50001723FB181B78181CBD4607B090BDC04664
:101B6000C5100000F5160000FFFFFBFF95160000F2
:101B70003516000080B582B000AF786039607B68B0
:101B80009B8B9BB2002B01D005230CE07B680122CC
:101B90009A727B680122DA727A683B68101C191C01
:101BA000034B9847031C181CBD4602B080BDC046BD
:101BB000FD19000080B584B000AF78607B681B68B9
:101BC000FB60FB68DB69072213405A1E9341DBB2BE
:101BD000181CBD4604B080BD80B582B000AF7860EF
:101BE000C0467B68181C034B9847031EF9D1BD46BD
:101BF00002B080BDB51B000080B584B000AF786036
:101C00007B681B68FB60FB681B68DB0E1A1C0123EA
:101C10001340DBB21A1C0B23FB18511E8A411A70A9
:101C20000823FB187A68528B1A807B689B8B9AB2C8
:101C30000823FB180821791809888A1A1A807B68FA
:101C40009B8B9BB2013B9AB27B689A830B23FB1858
:101C50001B78002B10D07B68DB7A002B1CD07B68B4
:101C60009B8B9BB2012B17D1FB685B688022D20251
:101C70001A43FB685A600FE07B68DB7A002B0BD0BD
:101C80007B689B8B9BB2002B06D1FB685B68802234
:101C9000D2021A43FB685A607B689B8B9BB2002B75
:101CA0000ED17B689B7A002B0AD07B68181C0D4BE9
:101CB0009847FB685B68C02292021A43FB685A602F
:101CC0007B68181C074B98477B681A6A0823FB1827
:101CD0001B88D318FA682821525CD2B21A70BD460C
:101CE00004B080BDD91B000080B584B000AF78601F
:101CF0007B681B68FB60FB685B8B9BB21A1C042330
:101D0000134004D07B6825221E21995424E00A2325
:101D1000FB187A68528B1A807B689B8B9AB20A23D5
:101D2000FB180A21791809888A1A1A807B689B8B0C
:101D30009BB2013B9AB27B689A837B68181C084B64
:101D400098477B681A6A0A23FB181B88D3181B78EC
:101D5000D9B2FB6828229954BD4604B080BDC04664
:101D6000D91B000080B584B000AF78607B681B6829
:101D7000FB60FB681B7EDBB21A1C012313402BD0D7
:101D8000FB6801221A76FB685B8B9BB21A1C02234C
:101D9000134004D07B682522412199541CE0FB6844
:101DA0005B8B9BB21A1C0423134015D07B68252241
:101DB000182199547B6800229A837B689B7A002BB8
:101DC0000AD07B68181C134B9847FB685B68C022DD
:101DD00092021A43FB685A607B689B8B9AB27B68BD
:101DE0005A837B6825229B5CDBB2052B0ED17B6876
:101DF00024229B5CDBB2002B04D17B68181C064BB1
:101E0000984703E07B68181C044B9847BD4604B014
:101E100080BDC046D91B0000E91C0000F91B000072
:101E200080B586B000AF021CFB1D1A70FB1D1A782E
:101E3000944B9200D3587B617B691B683B613B6983
:101E40001B68DB0E1A1C01231340DBB21A1C0F2384
:101E5000FB18511E8A411A700E23FB187A69527EB4
:101E60001A707B691B7EDAB20E23FB180E217918DB
:101E700009780A401A707B695B8B9BB2002B09D1F1
:101E80007B699B8B9BB2002B04D07B69181C7E4B1B
:101E9000984771E07B695B8B9BB2002B3AD07B69E2
:101EA0009B8B9BB2002B35D17B6925229B5CDBB2DF
:101EB000052B2FD17B6924229B5CDBB2002B29D11F
:101EC0003B6903221A757B6900225A837B692522AC
:101ED000002199547B699B7A002B0BD07B69181CDD
:101EE0006A4B98473B695B68C02292021A433B6980
:101EF0005A6002E03B6901221A760E23FB181B7818
:101F00000122134005D07B69DB687A69101C984771
:101F100032E031E07B695B8B9BB2002B2CD07B697C
:101F20009B8B9BB2002B27D03B695B8B9BB21A1C0F
:101F30002023134011D10F23FB181B78012253409B
:101F4000DBB2002B04D17B699B8B9BB2012B04D0AD
:101F50007B692522412199540EE07B6924229B5CF8
:101F6000DBB2002B04D17B69181C494B984703E076
:101F70007B69181C474B98477B695B8B9BB2002B96
:101F800047D07B699B8B9BB2002B42D17B6925227A
:101F90009B5CDBB2052B3CD17B6924229B5CDBB2D2
:101FA000012B36D13B691B7EDBB21A1C0223134086
:101FB00002D03B6902221A763B6903221A757B69BB
:101FC00000225A837B692522002199540E23FB1895
:101FD0001B78022213400BD07B6924229B5CDBB26E
:101FE000012B05D17B691B697A69101C984710E0A9
:101FF0000E23FB181B78012213400AD07B69242290
:102000009B5CDBB2002B04D17B69DB687A69101C16
:1020100098477B6925229B5CDBB2052B2ED07B6920
:1020200025229B5CDBB2002B28D03B6903221A756A
:102030007B6900225A837B6900229A837B6925226F
:102040009B5CDBB2412B0ED07B699B7A002B0AD0C4
:102050007B69181C0D4B98473B695B68E022D202F4
:102060001A433B695A600E23FB181B780422134065
:1020700004D07B695B697A69101C9847BD4606B03D
:1020800080BDC046FC000020651D0000D91B00007B
:10209000E91C0000F91B000080B582B000AF786039
:1020A0007B6800221A70BD4602B080BD80B582B048
:1020B00000AF021C3960FB1D1A70FB1D1B78012B41
:1020C0000AD0022B0FD0002B14D10E4B0D4A916970
:1020D0003A680A439A610FE00A4B0A4AD1693A68A2
:1020E0000A43DA6108E0074B064A116A3A680A4374
:1020F0001A6201E0172300E00023181CBD4602B05D
:1021000080BDC0460004004080B582B000AF78605A
:102110007B6880221A707B6800225A707B680122DB
:102120009A707B680022DA70BD4602B080BDC0465E
:1021300080B584B000AF78600023FB600CE00A4BF0
:10214000FA689200D2587B689A4202D1FB68DBB2EF
:1021500006E0FB680133FB60FB68022BEFD900232C
:10216000181CBD4604B080BDD48F000090B585B06A
:1021700000AF786039600F23FC183B68181CAC4B2B
:102180009847031C23707B6800221A600F23FB18FA
:102190001A78A84B9200D2587B685A607B6800225C
:1021A0009A727B680022DA727B6800221A737B685D
:1021B00000225A727B6800221A727B680022DA6160
:1021C0007B6800221A627B6800225A627B680022C8
:1021D0009A627B6800221A757B6800225A757B68B8
:1021E00000229A757B680022DA757B6800221A76D5
:1021F0007B6800225A767B6800221A747B68002272
:102200005A747B6800229A747B680022DA747B68B7
:102210002C22002199547B682D22002199547B683F
:102220002E22002199547B682F22002199547B682B
:102230003022002199547B683122002199547B6817
:102240003222002199547B683322002199547B6803
:102250003422002199547B683522002199547B68EF
:102260003622002199547B683722002199547B68DB
:102270003822002199547B683922002199547B68C7
:102280003A22002199547B683B22002199547B68B3
:102290003C22002199547B683D22002199547B689F
:1022A0003E22002199547B683F22002199547B688B
:1022B0004022002199547B684122002199547B6877
:1022C0004222002199547B684322002199547B6863
:1022D0004422002199547B684522002199547B684F
:1022E0004622002199547B684722002199547B683B
:1022F0004822002199547B684922002199547B6827
:102300004A22002199547B684B22002199547B6812
:102310004C22002199547B684D22002199547B68FE
:102320004E22002199547B684F22002199547B68EA
:102330005022002199547B685122002199547B68D6
:102340005222002199547B685322002199547B68C2
:102350005422002199547B685522002199547B68AE
:102360005622002199547B685722002199547B689A
:102370009822002199547B6800229A657B6800228C
:102380009A677B689922002199547B680022DA655C
:102390007B680022DA677B689A22002199547B6867
:1023A00000221A667B688022002199507B689B225C
:1023B000002199547B6800225A667B6884220021A0
:1023C00099507B689C22002199547B6800229A6670
:1023D0007B688822002199507B689D2200219954B6
:1023E0007B680022DA667B688C22002199507B682A
:1023F0009E22002199547B6800221A677B689022F4
:10240000002199507B689F22002199547B6800220B
:102410005A677B689422002199507B68A022012191
:1024200099547B68A12200219954BD4605B090BD06
:1024300031210000F08F000080B586B000AFB96098
:102440007A600F23FB18021C1A7000237B610023A3
:102450003B611DE0BA683B69D31810331B78012B30
:1024600013D10F23FB181B781B4AD35C1A1E3B6940
:102470009A4201DA17232AE080235A043B699A40E2
:10248000131C1A1C7B6913437B613B6901333B615D
:102490003B69032BDEDDBB68A1229B5C002B04D0D3
:1024A0007B698022120113437B61BB681B7B1B038A
:1024B0001A1C7B6913437B61BB68DB7A1B021A1C05
:1024C0007B6913437B617B687A691A600023181C5F
:1024D000BD4606B080BDC046FC8F000080B586B00A
:1024E00000AFB9607A600F23FB18021C1A70172323
:1024F000FB1800221A70BB681B7A002B07D0172329
:10250000FB181722BA18127804210A431A70BB6804
:102510005B7A012B07D11723FB181722BA18127800
:1025200001210A431A707B681722BA1812781A70B0
:10253000BD4606B080BDC04680B588B000AFB9606A
:102540007A600F23FB18021C1A700F23FB181A78ED
:102550001B23FB183E498A5C1A700023FB616EE066
:10256000FA69131C9B009B185B002833BA68D318C8
:1025700004337B617B695B7A1B22BA1812789A421A
:1025800001D817235FE07B691B780F2B01D9172334
:1025900059E07B691B781B061A1CF0231B051A40A7
:1025A0007B695B781B04191CFF231B040B401A4337
:1025B0007B699B78002B01D0802300E000231A4325
:1025C0007B69DB78002B01D0082300E000231A434D
:1025D0007B691B79002B01D0102300E000231A43F4
:1025E0007B695B79191C03230B401A437B699B7938
:1025F0005B01191C60230B401A437B69DB791B02CA
:10260000191CC0239B000B401A437B691B7A1B03D8
:10261000191CE023DB010B401A437B695B7A9B02A8
:10262000191CC0231B010B4013433B61FB699B003A
:102630007A68D3183A691A60FB690133FB61FB6958
:10264000012B8DDD0023181CBD4608B080BDC0469F
:10265000FC8F000080B588B000AFB9607A600F23AE
:10266000FB18021C1A700F23FB181A781723FB188B
:102670002C498A5C1A700023BB610023FB6145E092
:10268000BA684821FB69D3185B181B7A002B10D05D
:102690001723FB181A78FB699A4201D817233CE0EC
:1026A000FB69802252029A40131C1A1CBB69134317
:1026B000BB61BA68FB691C335B00D3185B7A002BE3
:1026C00021D01723FB181A78FB699A4201D81723E7
:1026D00023E0BA68FB691C335B00D3185B7A022BDA
:1026E00009D1FB690222FF329A40131C1A1CBB69F4
:1026F0001343BB6107E0FB6901229A40131C1A1CBB
:10270000BB691343BB61FB690133FB61FB69072BA9
:10271000B6D97B68BA691A600023181CBD4608B098
:1027200080BDC0460090000080B588B000AFB960A1
:102730007A600F23FB18021C1A700F23FB181A78FB
:102740001723FB181D498A5C1A70BB6810333B6164
:102750003B695B7A1B011A1C30231A403B691B7AC8
:10276000191C07230B401343BB610023FB6119E0D5
:102770003A69FB69D3181B79002B10D01723FB187B
:102780001A78FB699A4201DC172312E080235A026F
:10279000FB699A40131C1A1CBB691343BB61FB699C
:1027A0000133FB61FB69032BE2DD7B68BA691A60C8
:1027B0000023181CBD4608B080BDC046FC8F000039
:1027C00090B591B000AFF860B9607A603B23FC1817
:1027D000BB68181CC84B9847031C23703B23FB188D
:1027E0001A78C64B9200D3580220191CC44B984744
:1027F000BB681B680222134001D01C23C4E1BB68E4
:102800001B680122134001D01C23BDE13B23FB18B0
:102810001A78BC4B9200D3587B637B681A687B6B39
:102820009A4204D87B685A687B6B9A4201D9172375
:10283000AAE10023FB630DE07A68FB6B06339B0083
:10284000D3185A687B6B9A4201D917239CE1FB6B22
:102850000133FB63FB6B032BEEDD0023FB6319E00D
:102860007A689821FB6BD3185B181B7801225340C0
:10287000DBB2002B00D00AE03B23FB181B78A24AF6
:10288000D35C1A1EFB6B9A4201DC17237CE1FB6BC5
:102890000133FB63FB6B072BE2DD0023FB62332379
:1028A000FC183B23FB1819787A682C23FB18081CAA
:1028B000111C1A1C954B9847031C23703323FB18DB
:1028C0001B78002B03D03323FB181B785CE13B23E0
:1028D000FB1819787A682B23FB18081C111C1A1C8A
:1028E0008B4B98473323FC183B23FB1819787A68E5
:1028F0002023FB18081C111C1A1C864B9847031C2C
:1029000023703323FB181B78002B03D03323FB18D1
:102910001B7839E10023FB613323FC183B23FB18B0
:1029200019787A681C23FB18081C111C1A1C7A4B96
:102930009847031C23703323FB181B78002B03D00C
:102940003323FB181B781FE13323FC183B23FB18B0
:1029500019787A681823FB18081C111C1A1C6F4B75
:102960009847031C23703323FB181B78002B03D0DC
:102970003323FB181B7807E10023FB6308E0FA68A8
:10298000FB6B9B00D31800225A60FB6B0133FB6387
:10299000FB6B0B2BF3DDFB6800225A63FB68002204
:1029A0009A633B23FB181A785D4B9200F968D1506B
:1029B000FB68BA681A607B68A022995CFB683C22BD
:1029C00099541423FB18181C564B98477B689A7A25
:1029D0001423FB181A703B23FB181B78524AD25C55
:1029E0001423FB18101C191C504B98473B23FB1851
:1029F0001B784D4AD35C181C4D4B98470023FB6352
:102A00002CE07A689821FB6BD3185B181B780122A5
:102A10005340DBB2002B00D01DE01023FB18181C24
:102A2000444B98477B68FA6B1E329200D358DAB257
:102A30001023FB181A701023FB1801225A707B68B0
:102A4000FA6B16329200D358DAB21023FB18101C1E
:102A5000191C394B9847FB6B0133FB633B23FB1875
:102A60001B78294AD35C1A1EFB6B9A42C9DCFA6AAE
:102A7000BB681A60C046BB689B6804221340FAD149
:102A8000BB68FF221A71C046BB689B6804221340D2
:102A9000FAD12B23FB181A78BB685A712023FB1834
:102AA0001A68BB68DA602023FB185A68BB681A6191
:102AB000FA69BB689A61C046BB689B681F4A1340AD
:102AC000FAD1BA69BB68DA63C046BB689B6810225A
:102AD0001340FAD17B681A68BB685A63C046BB686A
:102AE0009B68174A1340FAD17B685A68BB681A641E
:102AF0000023FB633EE0C04631210000E48F00006C
:102B0000AD200000F08F000000900000392400008C
:102B1000DD2400003925000055260000292700008B
:102B2000E000002099200000E08F0000314A000002
:102B3000754A0000092100001D4D00004000020000
:102B400080000400C046BB689B681149FA6B914045
:102B50000A1C1340F7D17A68FB6B06339B00D3182D
:102B60005A68B968FB6B10339B00CB185A60FB6B3B
:102B70000133FB633B23FB181B78064AD35C1A1E08
:102B8000FB6B9A42DEDC0023181CBD4611B090BDE1
:102B900000010800FC8F000090B589B000AFF8601C
:102BA000081C7A60191C0B23FB18021C1A700A23DC
:102BB000FB180A1C1A70FB681B68FB611B23FC18BE
:102BC000FB69181C284B9847031C23701B23FB1818
:102BD0001B78264AD35C0B22BA1812789A4201D38A
:102BE00017233CE01B23FB181A78214B9200D35883
:102BF0007B617A687B699A4201D917232FE00A2307
:102C0000FB181B78002B14D0C046FB699B680B2275
:102C1000BA1812788021090391400A1C1340F4D19C
:102C20000B23FB181A78FB691C3292007968D1508B
:102C300014E0C046FB699B680B22BA181278802109
:102C4000490091400A1C1340F4D10B23FB181B7858
:102C5000FA6910339B00D3187A685A600023181C55
:102C6000BD4609B090BDC04631210000FC8F000078
:102C7000F08F000090B585B000AFF8607A600B234C
:102C8000FB180A1C1A70FB683C229C5CF9680B2339
:102C9000FB181A787B68081C111C1A1C231C034C97
:102CA000A047031C181CBD4605B090BD992B000021
:102CB00080B500AF0020024B9847BD4680BDC0469E
:102CC000ED2C000080B500AF0120024B9847BD46B7
:102CD00080BDC046ED2C000080B500AF0220024B45
:102CE0009847BD4680BDC046ED2C000080B586B03B
:102CF00000AF021CFB1D1A70FB1D1A78174B9200C7
:102D0000D3583B613B691B68DA6A3B695B6B1A40CD
:102D10003B699B6B1340FB6000237B6118E0104B09
:102D20007A699200D358FA6813400ED03A697B69E9
:102D30009B00D3185B683A69101C98473B691B6875
:102D4000074A796989008A58DA627B6901337B61B5
:102D50007B690B2BE3DDBD4606B080BDE0000020A3
:102D60000490000080B500AF0020024B9847BD469C
:102D700080BDC046A12D000080B500AF0120024BF0
:102D80009847BD4680BDC046A12D000080B500AF6C
:102D90000220024B9847BD4680BDC046A12D0000D1
:102DA00080B584B000AF021CFB1D1A70FB1D1A78A1
:102DB000284B9200D358FB60FB681B689B7BDBB2FF
:102DC000FA68127E1340DAB2FB68597E0B23FB18B7
:102DD0000A401A700B23FB181B780122134008D0FD
:102DE000FB689B68FA68101C9847FB681B68012207
:102DF0009A730B23FB181B780222134008D0FB6840
:102E0000DB68FA68101C9847FB681B6802229A73FB
:102E10000B23FB181B781022134008D0FB681B699A
:102E2000FA68101C9847FB681B6810229A730B23E2
:102E3000FB181B782022134008D0FB685B69FA68F6
:102E4000101C9847FB681B6820229A73BD4604B08B
:102E500080BDC046EC00002080B582B000AF786035
:102E60007B6880221A707B6800225A707B6801227E
:102E70009A707B680022DA70BD4602B080BDC04601
:102E800080B584B000AF021CFB1D1A700F23FB1825
:102E9000FA1D1278D2091A700E23FB18FA1D127847
:102EA00052091A700D4BBB600F23FB181B78002BC7
:102EB0000FD10F23FB181B789B0010229446BC44B3
:102EC0006344083B1A680E23FB181B78DB01D318F8
:102ED00000E00023181CBD4604B080BD0044004142
:102EE00080B582B000AF021CFB1D1A70FB1D1B7861
:102EF000181C034B9847031C181CBD4602B080BD2C
:102F0000812E000080B584B000AF021CFB1D1A703A
:102F1000BB1D0A1C1A70FB1D1B78181C0C4B984714
:102F2000031CFB60FB1D1B781F22134001229A40EB
:102F3000131CBB60BB1D1B78002B03D0FB68BA6859
:102F40009A6102E0FB68BA685A61BD4604B080BD70
:102F5000E12E000080B582B000AF78607B6800226F
:102F60001A70BD4602B080BD80B582B000AF021CB1
:102F70003960FB1D1A70FB1D1B78012B0AD0022B38
:102F80000FD0002B14D10E4B0D4A91693A680A43B9
:102F90009A610FE00A4B0A4AD1693A680A43DA613A
:102FA00008E0074B064A116A3A680A431A6201E0D0
:102FB000172300E00023181CBD4602B080BDC046A8
:102FC0000004004080B500AF054B9B78DBB21A1CB3
:102FD000022313405A1E9341DBB2181CBD4680BD2C
:102FE0000020004180B584B000AF78607B681B682A
:102FF000FB60FB681B7EDBB21A1C012313405A1EC8
:103000009341DBB2181CBD4604B080BD80B584B0CE
:1030100000AF78607B681B68FB60FB681B7EDBB2DF
:103020001A1C042313405A1E9341DBB2181CBD46E0
:1030300004B080BD80B584B000AF78600A1CBB1CB2
:103040001A807B681B68FB607B68181C0A4B9847DA
:10305000031C1A1C01235340DBB2002B01D00523B3
:1030600006E0BB1C1B88DB05DA0DFB689A620023B7
:10307000181CBD4604B080BDE52F000080B584B0AB
:1030800000AF786039607B681B68BB607B68181C88
:103090001B4B9847031C1A1C01235340DBB2002B27
:1030A00001D0102327E00F23FB1800221A70BB6801
:1030B0005B8B9BB21A1C0423134006D00F23FB1812
:1030C0001E221A70BB6804225A837B689B79012BED
:1030D00008D1BB689B6A9BB2DB05DB0D9AB23B68EB
:1030E0001A8005E0BB689B6ADBB29AB23B681A8023
:1030F0000F23FB181B78181CBD4604B080BDC046CA
:103100000D30000090B593B000AF786039607B68F7
:103110001B687B637B681B683B631C23FB18181CC4
:10312000864B98471C23FB1800225A703B681B787B
:10313000002B03D11C23FB1800229A703B689A6A6B
:103140000C23FB181A603B68DA6A0C23FB185A60E0
:103150003B681A6B0C23FB189A603B685A6B0C2374
:10316000FB18DA604723FB1800221A702CE0472373
:10317000FB181A780C23FB189200D3583B643B6C65
:10318000002B09D13A6B4723FB181B78101C191C24
:103190006B4B9847031C3B643B6C01330DD03B6C7D
:1031A000DAB21C23FB181A703B6C1B0CDAB21C231E
:1031B000FB18101C191C634B98474723FB181A78FF
:1031C0004723FB1801321A704723FB181B78032B87
:1031D000CDD93B681A787B685A713B681A7C7B684A
:1031E0009A713B689A7C7B68DA713B681A7D7B68D0
:1031F0001A720A23FB1800221A800023FB630023A3
:10320000BB633B681B78012B2BD17B681B68181CA8
:103210004D4B9847031CFB62FB6A1433BB62BB6ACD
:10322000DBB2181C494B9847031C7B623B689969C9
:103230002323FC187A6A0A23FB18081C111C1A1C89
:10324000434B9847031C23702323FB181B78002B48
:1032500001D017236DE00A23FB181B88DAB27B6BC1
:103260001A733B681B78002B1AD13B689B69FB6380
:103270003B689B8BBB637B6B5B6A3A68927F111CDC
:103280003A68D27F12040A431A437B6B5A623B6846
:1032900020229B5C002B03D0BB6B40221343BB63FB
:1032A0003B685B68FA6B1343FB633B689B68FA6B94
:1032B0001343FB633B68DB68FA6B1343FB633B68B8
:1032C0001B7C1A1CBB6B1343BB633B685B7C002BF2
:1032D00003D1204B9847031E03D0FB6B802213437E
:1032E000FB633B689B7C002B04D0BB6B802292026B
:1032F0001343BB633B68DB7C002B04D0BB6B802299
:1033000092001343BB633B681B7D002B04D0BB6B57
:10331000802292011343BB637B6B1A68FB6B1A43D9
:103320007B6B1A607B6B5A68BB6B1A437B6B5A6072
:103330000023181CBD4613B090BDC046592E000096
:10334000A53C00001D4D0000613E0000554B0000F3
:103350009D3B0000C52F000090B58BB000AFF8601A
:10336000B9607A60FB68BA681A60FB681B683B62E8
:103370003B6A1B680222134001D01C23A5E03B6A74
:103380001B680122134001D005239EE0FB681B68E7
:10339000181C504B9847031CFB61FB690233BB614F
:1033A000FB6914337B61BB6901229A40131C022024
:1033B000191C494B98471023FB18181C474B98477A
:1033C0007B6824229A5C1023FB181A707B69DAB29E
:1033D0001023FB18101C191C414B98477B69DBB26A
:1033E000181C404B98477B6824229B5C181C0021CA
:1033F0003D4B98477B681B78012B05D13B6A1B68C6
:103400000C221A433B6A1A607B681B78002B05D19B
:103410003B6A1B6808221A433B6A1A602723FB1881
:1034200000221A700FE02723FB181B78FA6802337A
:103430009B00D31800225A602723FB181A782723F1
:10344000FB1801321A702723FB181B78062BEAD9C8
:10345000FB680022DA62FB6800229A62FB680022A5
:103460009A86FB6800221A86FB683622002199544E
:10347000FB68372200219954FB68382200219954B7
:10348000FB6803225A72FB6800221A71FB681B68F2
:103490001322BC18181C0F4B9847031C23701323CE
:1034A000FB181A78114B101C191C114B9847132349
:1034B000FB181A780F4B9200F968D150FA687B68B4
:1034C000101C191C0C4B9847031C181CBD460BB054
:1034D00090BDC046613E0000692F0000552F0000DE
:1034E000314A0000754A0000193C00008138000094
:1034F000C13E0000FC0000200531000090B587B0FF
:1035000000AFF8607A600A23FB180A1C1A80FB6877
:10351000DB7901225340DBB2002B01D01C2382E077
:10352000FB6838229B5CDBB2052B01D105237AE0D6
:103530001523FB1800221A70FB685B79002B20D141
:103540001623FB1800221A8015E0FB68181C384B64
:103550009847031E00D014E01623FB181B88354A39
:10356000934201D112235EE01623FB181A8816231A
:10357000FB1801321A801623FB181B882D4A934230
:10358000E3D9C046FB68181C294B9847031C1A1C3A
:1035900001235340DBB2002BF4D1FA680A23FB1855
:1035A0001B88101C191C244B9847FB685B79002B67
:1035B00020D11623FB1800221A8015E0FB68181C86
:1035C0001E4B9847031E00D014E01623FB181B88DF
:1035D000184A934201D1122325E01623FB181A88BA
:1035E0001623FB1801321A801623FB181B88114A78
:1035F0009342E3D9C046FB68181C104B9847031C44
:103600001A1C01235340DBB2002BF4D11523FC1804
:10361000FA687B68101C191C094B9847031C23701F
:103620001523FB181B78181CBD4607B090BDC0467B
:10363000E52F000010270000353000000D3000009D
:103640007D30000080B586B000AFF860B960FB1D2A
:103650001A70FB685B79012B01D015235CE0FB68D5
:103660001B7A01225340DBB2002B54D0FB1D1B7888
:10367000002B4AD0BB685B78002B3FD0FB68181C3E
:10368000274B9847031C1A1C01235340DBB2002B25
:1036900007D0BB681B78181C0121224B98470523D3
:1036A0003AE0BB681B78181C00211E4B9847BB688A
:1036B0009B789BB2FA68101C191C1B4B9847FB683F
:1036C000DB7901225340DBB2002B24D0C046FB68DB
:1036D000181C164B9847031C1A1C01235340DBB2DD
:1036E000002BF4D11623FB1800221A80FA68162347
:1036F000FB18101C191C0E4B98470CE0BB681B787C
:10370000181C0021074B984705E0BB681B78181C64
:103710000121044B98470023181CBD4606B080BD0C
:10372000E52F0000052F0000353000000D300000AF
:103730007D30000080B584B000AF78607B681B6886
:10374000BB607B68DB6A1B78DAB20E23FB181A8039
:103750007B68DB6A5A1C7B68DA627B689B79012B89
:1037600012D17B68DB6A1B78DBB21B029AB20E2394
:10377000FB181B8813439AB20E23FB181A807B6830
:10378000DB6A5A1C7B68DA620E23FB181B88DB0598
:10379000DA0DBB689A627B689B8E9BB2013B9AB242
:1037A0007B689A86BD4604B080BDC04680B584B0B3
:1037B00000AF78607B681B68FB60074B1B881A1C96
:1037C000FB689A627B685B8E9BB2013B9AB27B6816
:1037D0005A86BD4604B080BDF800002080B584B094
:1037E00000AF78607B681B68FB600A23FB1800222F
:1037F0001A80FB689A6A0A23FB181A807B685B8E22
:103800009BB2013B9AB27B685A86BD4604B080BD2C
:1038100080B584B000AF78607B681B68FB60FB6894
:103820009B6A9AB20A23FB18D205D20D1A807B68D4
:103830009B6A0A22BA181288D2B21A707B689B6AF5
:103840005A1C7B689A627B689B79012B0DD17B683F
:103850009B6A0A22BA181288120A92B2D2B21A705D
:103860007B689B6A5A1C7B689A627B681B8E9BB242
:10387000013B9AB27B681A86BD4604B080BDC04643
:1038800080B586B000AF021CFB1D1A70FB1D1A78B4
:10389000B84B9200D3587B617B691B683B617B69A5
:1038A00037229A5C7B693621595C0F23FB180A404A
:1038B0001A703B691B7EDAB20C23FB181A803B6935
:1038C0009B7DDBB29AB20C23FB180C217918098876
:1038D0000A401A800C23FB181B880122134041D098
:1038E0007B695B79012B10D17B695B7ADBB2002BA2
:1038F0000BD17B69181CA04B98477B695B8E9BB2F0
:10390000002B02D13B6901221A757B695B79012B7F
:1039100004D17B695B7ADBB2002B08D17B695B79D0
:10392000002B1FD17B695B7ADBB2002B1AD07B693D
:10393000181C924B98477B699B8E9BB2002B11D130
:103940003B6901221A757B695B7ADBB2012B09D1D5
:103950007B69DB7901225340DBB2002B02D03B694B
:1039600002229A750C23FB181B880422134000D1F5
:103970007EE03B695B8B9BB21A1C0423134022D070
:103980007B695B7ADBB2012B14D07B6938221E2164
:1039900099547B6903225A723B6905221A750F23D9
:1039A000FB181B780822134004D07B699B697A6955
:1039B000101C98473B699A6A0A23FB181A803B69D6
:1039C00004225A8354E07B695B7ADBB2012B1ED15F
:1039D0007B69181C6A4B98477B695B8E9BB2002BF6
:1039E00046D13B6904221A757B693822002199541B
:1039F0007B6903225A720F23FB181B7801221340A4
:103A000036D07B69DB687A69101C984730E07B69A7
:103A1000181C5C4B98477B691B8E9BB2002B27D1EF
:103A20007B693822002199543B6904221A757B690D
:103A30005B7ADBB2022B0BD10F23FB181B7804221D
:103A4000134015D07B695B697A69101C98470FE0B9
:103A50007B695B7ADBB2002B0AD10F23FB181B7842
:103A60000222134004D07B691B697A69101C9847B5
:103A70000C23FB181B880222134046D07B695B791C
:103A8000002B1DD13B6907221A753B6902221A7669
:103A90007B6903225A727B6900229A867B69002225
:103AA0001A867B693822002199540F23FB181B7852
:103AB0001022134004D07B69DB697A69101C984797
:103AC0007B695B79012B20D17B695B7ADBB2012BAF
:103AD0001BD17B69DB7901225340DBB2002B14D070
:103AE0003B6902221A757B6903225A727B6938226C
:103AF000002199540F23FB181B780122134004D096
:103B00007B69DB687A69101C98470C23FB181B88BB
:103B10000822134014D07B695B79002B10D13B69DC
:103B200008221A753B6908221A760F23FB181B78A6
:103B30002022134004D07B691B6A7A69101C9847C5
:103B40000C23FB181B888022134010D03B69802275
:103B50001A753B6980221A760F23FB181B784022C6
:103B6000134004D07B695B6A7A69101C9847BD4694
:103B700006B080BDFC000020AD37000035370000E6
:103B8000DD3700001138000080B582B000AF7860EA
:103B90007B6800221A70BD4602B080BD80B586B039
:103BA00000AFF860B9607A601623FB1800221A8013
:103BB000BB683B61BB685A08FB689A4201D240234C
:103BC00026E0BB685B083B610AE03A69FB68D31AF0
:103BD0003B611623FB181A881623FB1801321A8042
:103BE0003A69FB689A42F0D21623FB181622BA18DB
:103BF0001288013A1A801623FB181B88FF2B01D963
:103C0000402305E07B681622BA1812881A80002328
:103C1000181CBD4606B080BD80B584B000AF021C44
:103C2000FB1D1A70BB1D0A1C1A701A4B1B7801224F
:103C30005340DBB2002B03D1BB1D1B78002B1BD0E4
:103C40000C23FB18181C144B98470C23FB18FA1D67
:103C500012781A700C23FB181320191C0F4B98476D
:103C600013200F4B98470B4BFA1D12785A70094BD3
:103C700001221A70002308E0064B5B78FA1D1278C7
:103C80009A4201D1002300E01D23181CBD4604B058
:103C900080BDC0462C000020893B0000314A000056
:103CA000754A000080B582B000AF78600A1CFB1C2A
:103CB0001A707B684D4A93423FD04C4A934206D8D3
:103CC0004B4A93420FD04B4A934221D089E04A4A53
:103CD000934200D15BE0494A934200D16CE0484AEC
:103CE00093423FD07DE0FB1C1B78012B0AD002DC05
:103CF000002B05D075E0022B06D0032B06D070E018
:103D0000404B6FE0404B6DE0404B6BE0404B69E057
:103D1000FB1C1B78012B0AD002DC002B05D060E0D5
:103D2000022B06D0032B06D05BE003235AE0394B6D
:103D300058E0394B56E0394B54E0FB1C1B78012B03
:103D40000AD002DC002B05D04BE0022B06D0032B5F
:103D500006D046E0324B45E0324B43E0324B41E087
:103D6000324B3FE0FB1C1B78012B0AD002DC002BFE
:103D700005D036E0022B06D0032B06D031E02C4BC9
:103D800030E02C4B2EE02C4B2CE02C4B2AE0FB1C83
:103D90001B78012B0AD002DC002B05D021E0022B7E
:103DA00006D0032B06D01CE0254B1BE0254B19E069
:103DB000254B17E0254B15E0FB1C1B78012B0AD087
:103DC00002DC002B05D00CE0022B06D0032B06D022
:103DD00007E01F4B06E01F4B04E01F4B02E01F4BA8
:103DE00000E00023181CBD4602B080BD0010004258
:103DF00000080042000C004200180042001C004273
:103E00000014004203000400030005000300060044
:103E1000030007000300010003001E0003001F0051
:103E2000030008000300090003000A0003000B0060
:103E30000300100003001100030012000300130030
:103E400003000C0003000D0003000E0003000F0030
:103E500003001600030017000300180003001900F8
:103E600090B58BB000AF78600C23FB180E4A13CAD4
:103E700013C313CA13C300237B620DE07B680C22BB
:103E8000BA18796A89008A58934202D17B6ADBB2F8
:103E900006E07B6A01337B627B6A052BEED9002347
:103EA000181CBD460BB090BD3490000080B582B0A8
:103EB00000AF021CFB1D1A70BD4602B080BDC0469B
:103EC00080B584B000AF021C3960FB1D1A70134B23
:103ED0001B7801225340DBB2002B15D00023FB607E
:103EE0000CE00F4BFA6892000E49D1500E4BFA6865
:103EF00092000021D150FB680133FB60FB68052B69
:103F0000EFD9064B01221A70FB1D1A78044B920060
:103F10003968D150BD4604B080BDC0462E00002097
:103F200030000020AD3E0000FC00002090B585B0C0
:103F300000AF78600823FA180E4B111C1A1C0623D8
:103F4000081C111C1A1C0C4B98470F23FC187B688B
:103F5000181C0A4B9847031C23700F23FB181B786F
:103F60000822BA18D35CDBB25BB2181CBD4605B0A0
:103F700090BDC0464C900000B18F0000613E000033
:103F800080B500AF024B1B6800209847BD4680BD3E
:103F90003000002080B500AF024B5B6801209847DD
:103FA000BD4680BD3000002080B500AF024B9B684D
:103FB00002209847BD4680BD3000002080B500AF8C
:103FC000024BDB6803209847BD4680BD30000020CF
:103FD00080B500AF024B1B6904209847BD4680BDE9
:103FE0003000002080B500AF024B5B690520984788
:103FF000BD4680BD3000002080B582B000AF786043
:104000007B6880221A707B6800225A707B680122CC
:104010009A707B680022DA70BD4602B080BDC0464F
:1040200080B584B000AF021C3960FB1D1A700C23F0
:10403000FB18181C0F4B98470C23FB1880221A7092
:104040003B681A780C23FB185A703B685A780C238B
:10405000FB189A703B689A780C23FB18DA70FB1DEA
:104060001A780C23FB18101C191C034B9847BD46EB
:1040700004B080BDF93F00001D4D000080B500AFC9
:10408000BD4680BD80B582B000AF0F4B1B68002BD2
:1040900012D1EFF310837B607B68002B09D172B6DD
:1040A000BFF35F8F094B00221A70094B01221A706F
:1040B00002E0074B00221A70034B1B685A1C024B8C
:1040C0001A60BD4602B080BD4800002000000020FC
:1040D0004C00002080B500AF0A4B1B685A1E094BEC
:1040E0001A60084B1B68002B0AD1074B1B78DBB208
:1040F000002B05D0054B01221A70BFF35F8F62B60B
:10410000BD4680BD480000204C000020000000207B
:1041100080B582B000AF78607B6801225A607B680E
:1041200000225A707B6806221A707B6800221A727D
:104130007B6800225A72BD4602B080BD80B582B055
:1041400000AF78607B6801225A707B6801229A7008
:104150007B680022DA707B6801221A717B68072273
:104160001A707B6800225A71BD4602B080BDC046FD
:1041700080B582B000AF78607B6803221A707B68DC
:1041800000225A707B6801229A70BD4602B080BD41
:1041900080B582B000AF021CFB1D1A70034AFB1DE4
:1041A0001B781372BD4602B080BDC04600040040BB
:1041B00080B582B000AF021CFB1D1A70BB1D0A1C2B
:1041C0001A70FB1D1B78012B08D0022B0BD0002B83
:1041D0000ED10B4ABB1D1B7853720BE0084ABB1D66
:1041E0001B78937206E0064ABB1D1B78D37201E070
:1041F000172300E00023181CBD4602B080BDC04656
:104200000004004080B582B000AF021CFB1D1A7094
:10421000084BFA1D12780F210A40D2B20F210A4032
:10422000520059681E2081430A435A60BD4602B0BD
:1042300080BDC0460040004180B500AFC046034B82
:10424000DB6810221340FAD0BD4680BD0008004054
:1042500080B500AF0C4B02229A840C4B98470A4A57
:104260000B4B9B68D362084A094B5B689362064B11
:1042700000229A84054B9847034A054B1B689BB262
:104280009384BD4680BDC04600080040394200000E
:104290005000002080B582B000AF021CFB1D1A70D8
:1042A000FB1D1B78082B42D89A00234BD3181B68A0
:1042B0009F46224B1B693BE0214B1B6A1B0A1A1CC1
:1042C00003231340DBB21A1C1E4BD34030E0802383
:1042D0001B022DE080231B022AE0184B5B6927E0BC
:1042E000164B1B680222134001D1002320E0164B1D
:1042F0009847124B1B680422134009D00020134B2F
:104300009847021C0D4B9B681B041B0C53430FE08A
:104310000F4B0DE00A4A5023D35CDBB21A1C042376
:10432000134001D1002303E0044BDB6800E00023CD
:10433000181CBD4602B080BD549000005000002003
:104340000008004000127A0039420000554B00007E
:10435000006CDC0280B584B000AF78601A4B1B6A39
:10436000FB607B681B781A1C03231340DAB20D2311
:10437000FB1803210A40101C1A7803218A43111CE0
:10438000021C0A431A707B689A780C23FB18D00130
:104390001A787F210A40111C021C0A431A707B689C
:1043A0005A780C23FB1801210A4090011A78402109
:1043B0008A43111C021C0A431A70034BFA681A62E2
:1043C000BD4604B080BDC0460008004080B584B042
:1043D00000AF78602F4B9B69FB607B685A780C2399
:1043E000FB1801210A40D0001A7808218A43111CC9
:1043F000021C0A431A707B689A780C23FB1801216F
:104400000A4090001A7804218A43111C021C0A43B6
:104410001A707B681B781A1C07231340DAB20D232D
:10442000FB1807210A40101C1A7807218A43111C27
:10443000021C0A431A707B681A790C23FB18D001FE
:104440001A787F210A40111C021C0A431A707B68EB
:10445000DA780C23FB1801210A4090011A784021D8
:104460008A43111C021C0A431A707B685A790D2377
:10447000FB1801210A4010011A7810218A43111CEF
:10448000021C0A431A70034BFA689A61BD4604B0D5
:1044900080BDC0460008004080B582B000AF021C5D
:1044A000FB1D1A70FB1D1B78082B3BD89A00214B73
:1044B000D3181B689F46204B1F4A126A02210A43E9
:1044C0001A62002331E01C4B1B4A926902210A4305
:1044D0009A6129E0184A184B1B8A9BB202210B43B0
:1044E0009BB2138220E0144A134B9B8A9BB2022199
:1044F0000B439BB2938217E0104B1B6802221A43B6
:104500000E4B1A600E4B98470EE00B4A0A494423A3
:10451000CB5CDBB202210B43D9B24423D15403E07C
:10452000002302E0172300E00023181CBD4602B060
:1045300080BDC04678900000000800405000002078
:104540005142000080B582B000AF3B1C01221A70BE
:1045500000237B6009E07B68DAB23B1C101C191C4D
:10456000054B98477B6801337B607B68242BF2D92D
:10457000BD4602B080BDC046314A000080B5A2B041
:1045800000AF4F4BC222D2009A6000204D4B98479B
:104590004D4B98474A4B4D4A12689209D2B2111CB2
:1045A0007F220A40D2B27F210A401204996948480A
:1045B00001400A439A618023FB18181C454B984719
:1045C0008023FB1807221A708023FB1801225A70DF
:1045D0008023FB1801229A708023FB1801221A7194
:1045E0008023FB180022DA708023FB18181C3A4B3A
:1045F00098470420394B98477C23FB18181C384BEC
:1046000098477C23FB1800221A707C23FB18012298
:104610009A707C23FB1800225A707C23FB18181C0C
:10462000304B984706202D4B98472F4B98475823DF
:10463000FB18181C2D4B98475823FB1804221A709E
:104640005823FB1820225A605823FB1800221A72A4
:104650005823FB1800225A725823FB180220191CF9
:10466000234B98470220234B98470020224B984722
:1046700000200021214B9847012000211F4B984723
:10468000022000211D4B98473B1D181C174B9847D3
:104690003B1D06221A703B1D01225A603B1D002261
:1046A0001A723B1D00225A723B1D0020191C104B30
:1046B000984700200F4B9847BD4622B080BDC046AA
:1046C00000080040054200004545000024608000CD
:1046D000FFFF80FF3D410000CD43000099440000F2
:1046E0007141000055430000A14700001141000046
:1046F000D1470000F148000091410000B1410000A5
:1047000080B582B000AF021C3960FB1D1A70FB1D22
:104710001B78012B0AD0022B0FD0002B14D10E4B8B
:104720000D4A91693A680A439A610FE00A4B0A4AB6
:10473000D1693A680A43DA6108E0074B064A116A10
:104740003A680A431A6201E0172300E00023181CAC
:10475000BD4602B080BDC0460004004080B500AF39
:10476000014B9847BD4680BD8540000080B500AF35
:10477000014B9847BD4680BDD540000080B500AFD5
:10478000064B5B78DBB2DBB25BB2002B01DA0123B4
:1047900000E00023181CBD4680BDC046000C004050
:1047A00080B500AF00200821074B9847074B012236
:1047B0001A70C046054B1B78DBB21A1C012313404C
:1047C000F8D1BD4680BDC04601470000000C004046
:1047D00080B586B000AF021C3960FB1D1A70FB1D4E
:1047E0001B787B61FB1D1B783B613B681B781B02C0
:1047F0001A1C7B6913437B613B685B78002B04D0F8
:104800007B698022D20213437B613B685B7A002B79
:1048100004D07B698022120313437B613B685B6891
:10482000012B2CD93B685A683B685B68013B1340FD
:104830001AD10023FB600223BB6005E0FB68013353
:10484000FB60BB685B00BB603B685A68BB689A4210
:10485000F4D8FB681B023A6913433B617B698022F1
:10486000520313437B610AE03B685B681B023A69B1
:1048700013433B617B698022920213437B613B6857
:104880001B7A002B04D07B698022920313437B6147
:10489000C046124B9847031EFBD1114B9847114A53
:1048A000FB1D1B781370C0460C4B9847031EFBD1B1
:1048B0000D4B3A699A60C046084B9847031EFBD1DE
:1048C000094B094A51688022520211407A690A4311
:1048D0005A60064B9847BD4606B080BD7D47000034
:1048E0005D470000080C0040000C00406D470000D0
:1048F00080B582B000AF021CFB1D1A70C0460D4B84
:104900009847031EFBD10C4B98470C4AFB1D1B78A4
:104910001370C046074B9847031EFBD1084B084A4B
:104920005268802149020A435A60064B9847BD46A7
:1049300002B080BD7D4700005D470000040C0040D0
:10494000000C00406D47000080B586B000AF021C2F
:10495000FB1D1A70C0462E4B9847031EFBD12D4BF2
:1049600098472D4AFB1D1B781370C046284B98476B
:10497000031EFBD1294B5B681B0A1A1C1F23134023
:10498000DBB2181C264B9847031C7B61224AFB1D97
:104990001B781370214B5B681B0D1A1C01231340FD
:1049A000DAB21323FB181A701E4AFB1D1B78137012
:1049B000C046174B9847031EFBD1184B9B681B0A38
:1049C0001A1C00239A43131C9BB2FB60164B98479A
:1049D0001323FB181B78002B09D1FB68012B06D988
:1049E000124B7869F9689847031C7B610AE013232E
:1049F000FB181B78002B05D0FB6801331A1C7B6960
:104A0000D3407B617B69181CBD4606B080BDC046A3
:104A10007D4700005D470000040C0040000C004092
:104A200095420000080C00406D47000075740000BE
:104A300080B584B000AF021C3960FB1D1A70FB1DED
:104A40001B78FB603B681B781B021A1CFB68134336
:104A5000FB60FB1D1B78181C044B9847044BFA683D
:104A600092B25A80BD4604B080BDC046B94A00002B
:104A7000000C004080B582B000AF021CFB1D1A7014
:104A8000094B9847094AFB1D1B7813700849084BCE
:104A90005B889BB28022D20113439BB24B80054BB3
:104AA0009847BD4602B080BD5D470000020C004043
:104AB000000C00406D47000080B584B000AF021CC0
:104AC000FB1D1A701D4B98471D4AFB1D1B78137068
:104AD0001C4B5B889BB21B0A1A1C0F231340DBB2D2
:104AE000FB60184B5A8818490A405A80154A154BE2
:104AF0005B889BB215490B409BB25380C046114B5B
:104B00005B889BB21A1C8023DB011340F7D10D4B4D
:104B1000FA68D2B2111C0F220A40D2B2111C0F2225
:104B20000A4010025A8808490A40111C021C0A4314
:104B30005A80074B9847BD4604B080BD5D470000D2
:104B4000020C0040000C0040FFF0FFFFFFBFFFFF22
:104B50006D47000080B584B000AF021CFB1D1A70C9
:104B60000E4B98470E4AFB1D1B7813700D4B5B884C
:104B70009BB21B0A1A1C0F231340DAB20F23FB1837
:104B80001A70094B98470F23FB181B78181C074B0A
:104B90009847031C181CBD4604B080BD5D4700004B
:104BA000020C0040000C00406D4700004949000025
:104BB00080B584B000AF021CFB1D1A700F23FB18D8
:104BC000FA1D1278D2091A700E23FB18FA1D1278FA
:104BD00052091A700D4BBB600F23FB181B78002B7A
:104BE0000FD10F23FB181B789B0010229446BC4466
:104BF0006344083B1A680E23FB181B78DB01D318AB
:104C000000E00023181CBD4604B080BD00440041F4
:104C100080B588B000AFF860B9607A600023FB61AE
:104C20007B68DB7801225340DBB2002B35D07B68F8
:104C30001B78802B0BD0FB69802252021343FB614F
:104C40007B681B781B061A1CFB691343FB617B689E
:104C50005B78002B03D07B685B78022B10D1FB695B
:104C6000802292021343FB617B689B78002B04D067
:104C7000FB698022D2021343FB61FB68BA685A6069
:104C80007B685B78012B03D07B685B78022B07D1B4
:104C9000FB69214A1340FB6102E0FB68BA685A6075
:104CA000BB681B041B0CBB61BB681B0C7B61BA6936
:104CB000FB691343A022D2051A43FB689A627A6902
:104CC000FB691343D02212061A43FB689A627B6881
:104CD000DB7801225340DBB2002B1AD0FA69802323
:104CE000DB0213400AD07B689B78012B03D1FB6861
:104CF000BA689A6102E0FB68BA685A617B685B78BF
:104D0000012B03D07B685B78022B02D1FB68BA6869
:104D10009A60BD4608B080BDFFFFFBFF80B584B040
:104D200000AF021C3960FB1D1A70FB1D1B78181C9C
:104D30000B4B9847031CFB60FB1D1B781F22134085
:104D400001229A40131CBB60F968BA683B68081CD2
:104D5000111C1A1C034B9847BD4604B080BDC046C9
:104D6000B14B0000114C000080B500AFC046BD46FD
:104D700080BDC04680B500AF054B9847054B9847AE
:104D8000054B9847054B9847054B9847BD4680BD56
:104D90007D4500007D400000694D0000710200006B
:104DA000694D000080B582B000AF2F4B7B602F4B68
:104DB0003B607A683B689A420CD007E03B681A1D5A
:104DC0003A607A68111D796012681A603A68284B57
:104DD0009A42F3D3274B3B6004E03B681A1D3A60CC
:104DE00000221A603A68244B9A42F6D3234B7B6028
:104DF000234B7A68FF218A439A60224A90235B0002
:104E00000221D150204BDA7803218A43111C02225F
:104E10000A43DA701C4BDA780C218A43111C0822F1
:104E20000A43DA70194B9A7B30218A43111C2022E5
:104E30000A439A73154B9A7B0C218A43111C082252
:104E40000A439A73114B9A7B03218A43111C022255
:104E50000A439A730E4B5A6880210A435A600D4BDD
:104E600098470D4B9847FEE7649100000000002032
:104E70001000002010000020B802002000000000F8
:104E800000ED00E00070004100500041004800418A
:104E900000400041658F0000156E000080B500AF36
:104EA000FEE7C04680B584B000AF021CFB1D1A703F
:104EB0000F23FB18FA1D1278D2091A700E23FB1863
:104EC000FA1D127852091A700D4BBB600F23FB18A4
:104ED0001B78002B0FD10F23FB181B789B0010228F
:104EE0009446BC446344083B1A680E23FB181B78A5
:104EF000DB01D31800E00023181CBD4604B080BDC0
:104F00000044004180B582B000AF021CFB1D1A7046
:104F1000FB1D1B78181C034B9847031C181CBD462F
:104F200002B080BDA54E000080B582B000AF7860B1
:104F30007B6800221A707B6801225A707B6800220D
:104F40009A70BD4602B080BD80B584B000AF021C2F
:104F5000FB1D1A70FB1D1B78181C0B4B9847031C7C
:104F6000FB60FB1D1B781F22134001229A40131C7B
:104F7000BB60FB681B6ABA6813405A1E9341DBB2E0
:104F8000181CBD4604B080BD054F000080B584B03C
:104F900000AF021CFB1D1A70BB1D0A1C1A70FB1D02
:104FA0001B78181C0C4B9847031CFB60FB1D1B78DF
:104FB0001F22134001229A40131CBB60BB1D1B78AB
:104FC000002B03D0FB68BA689A6102E0FB68BA68FC
:104FD0005A61BD4604B080BD054F000080B500AFEA
:104FE000034B01221A70BFF35F8F62B6BD4680BDCE
:104FF0000000002080B500AF72B6BFF35F8F024B98
:1050000000221A70BD4680BD0000002080B582B02D
:1050100000AF021CFB1D1A70064BFA1D1278111C02
:105020001F220A40012191400A1C1A60BD4602B0AD
:1050300080BDC04600E100E080B584B000AF78607C
:105040007B68A02212011A807B6801229A707B681B
:105050000022DA707B6800221A710F23FB180022ED
:105060001A700EE00F23FB181A787B680232920048
:105070000021D1500F23FB181A780F23FB1801329F
:105080001A700F23FB181B78012BEBD9BD4604B017
:1050900080BDC04680B584B000AF78607B681B6877
:1050A000FB60FB68DB69072213405A1E9341DBB2A9
:1050B000181CBD4604B080BD80B582B000AF7860DA
:1050C000C0467B68181C034B9847031EF9D1BD46A8
:1050D00002B080BD9550000080B582B000AF78600E
:1050E0007B6864221A607B681A4A5A607B680022D7
:1050F0009A607B6800221A737B6800221A767B68AC
:10510000802292031A617B6801225242DA827B6814
:10511000012252429A827B680022DA617B68002277
:105120001A627B682422002199547B6800229A62CB
:105130007B682C22002199547B682D2200219954F0
:105140007B682E22002199547B68D7221A86BD469F
:1051500002B080BD480D000080B584B000AF78601B
:105160007B681B68BB600023FB607B68181C144BCA
:105170009847BB681B6802221A43BB681A607B68A9
:105180001B68181C0F4B9847031C181C0E4B9847A4
:105190000CE0FB680133FB607B68DB881A1EFB6850
:1051A0009A4203D8BB6810225A8306E0BB685B8B27
:1051B0009BB21A1C10231340EBD0BD4604B080BD37
:1051C000B95000002D3F00000D50000080B584B0A4
:1051D00000AF78607B681B68FB60FB68DB695A1E68
:1051E0009341DBB2181CBD4604B080BD80B582B0CF
:1051F00000AF78607B6801221A707B6800225A60D9
:105200007B6800229A607B68C0229203DA607B6828
:1052100000221A747B6800225A747B6801229A74F7
:105220007B680122DA747B6800221A757B6824226D
:10523000002199547B681833181C00210C220A4B5A
:1052400098477B68094A9A617B6800229A627B686A
:105250000022DA627B6800221A637B6800225A63AC
:10526000BD4602B080BDC046C38F0000A0860100CD
:1052700080B582B000AF78607B680A221A707B68C4
:1052800000225A707B6800229A70BD4602B080BD31
:1052900080B584B000AF786039603B681A787B686D
:1052A0001A703B685A787B685A703B689A787B68BA
:1052B0009A700C23FB18181C0B4B98470C23FB18F7
:1052C00001221A707B681A780C23FB18101C191C19
:1052D000064B98477B681B78181C0121044B9847A4
:1052E000BD4604B080BDC046294F000021400000EB
:1052F0008D4F000080B584B000AF78607B681B687C
:10530000FB607B681B68181C0A4B9847031C181C21
:10531000094B9847C0467B68181C084B9847031EEA
:10532000F9D1FB681B6802221A43FB681A60BD466C
:1053300004B080BD2D3F00000D500000CD51000095
:1053400080B584B000AF78607B681B68FB60C046A6
:10535000FB689B6802221340FAD1FB681B6802229B
:105360001A43FB681A60BD4604B080BD80B582B0A8
:1053700000AF3B1D181C064B98473B1D00221A70BE
:105380003B1D0320191C034B9847BD4602B080BD4E
:10539000294F00002140000080B584B000AF3B1DC4
:1053A000181C0B4B98473B1D03221A603B1D002223
:1053B0005A603B1D01221A723B1D0122DA723B1D0D
:1053C0000320191C034B9847BD4604B080BDC0465E
:1053D000AD030000E103000080B500AF054B181CD1
:1053E00003210022044B984703200021034B9847D8
:1053F000BD4680BD355F0000D10E0000350F0000B6
:1054000080B590B000AF3B1D181C224B98473B1D48
:1054100012221A70204A3B1D101C191C1F4B984762
:105420000823FB18181C1E4B98470823FB18C022A2
:105430009203DA600823FB181A4A9A620823FB18C1
:10544000194ADA620823FB18012252421A63082320
:10545000FB18164A5A630823FB1800225A600823D7
:10546000FB1800229A60124A12490823FB18101CEC
:105470001A1C114B98470E4B181C104B98470C4A9E
:10548000054B101C191C00220D4B9847BD4610B04F
:1054900080BDC04671520000B4020020915200004D
:1054A000ED51000002001000020011000200130084
:1054B00034020020000C004259330000F552000075
:1054C0004536000080B584B000AF3B1C181C0F4B64
:1054D00098473B1C00221A803B1C00229A703B1C00
:1054E00001221A710A4A0B493B1C101C1A1C0A4B58
:1054F0009847074B181C094B9847054B084A181C3E
:10550000111C084B9847BD4604B080BD39500000BF
:105510001801002000140040DD070000D505000040
:1055200010270000C109000080B500AF054B181C12
:105530000021054B9847034B181C044B9847BD4668
:1055400080BDC046180100206D080000D505000090
:1055500080B582B000AF00237B60054B181C054B63
:105560009847031C7B607B68181CBD4602B080BD59
:1055700018010020CD08000090B585B000AF041CD4
:105580003960101C191CFB1D221C1A70BB1D021C4B
:105590001A707B1D0A1C1A700120504B9847C04698
:1055A00027204F4B9847031CDBB25BB2002BF7DA86
:1055B000252000214B4B9847BB1D1B783D2B02D962
:1055C000BB1D3D221A700E23FB1800221A702023E7
:1055D000FB181B78002B04D00E23FB1880221A70B6
:1055E00007E07B1D1B78002B03D00E23FB18402205
:1055F0001A703D4B98473D4A3D4B101C80211A1CA8
:105600003C4B9847BB1D1B789BB203339AB237497A
:10561000374B081C111C1A1C364B9847FB1D1B7876
:105620009AB23249324B081C111C1A1C314B984754
:10563000314B1B78DBB29AB22C492D4B081C111C44
:105640001A1C2C4B98470E23FB181B78DBB29AB21E
:105650002649274B081C111C1A1C264B98470F2360
:10566000FB1800221A7014E00F23FB181B783A680D
:10567000D3181B789AB21D491D4B081C111C1A1C0B
:105680001C4B98470F23FB181A780F23FB18013285
:105690001A700F23FA18BB1D12781B789A42E3D3B5
:1056A000164B984704200D4B9847154B9847C0461A
:1056B0000320144B9847031C1A1C01235340DBB2F0
:1056C000002B05D0104B9847021E104B9A42EFD981
:1056D0000120024B9847BD4605B090BD315B0000EC
:1056E00041610000AD610000116200003402002041
:1056F00068000020FD340000740100203D620000BD
:1057000029550000494F000051550000E7030000F3
:1057100080B582B000AF021CFB1D1A701A4BFA1D37
:1057200012781A70184B1B78DBB2002B01D00F23B4
:1057300000E01A231320191C144B9847124B1B78B6
:10574000DBB2002B12D01120114B9847031CDBB2A7
:105750001A1C1F231340DBB21A1C60231343DBB255
:10576000DBB21120191C094B984709E0094B1B7843
:10577000802252421343DBB21120191C034B98477D
:10578000BD4602B080BDC04630020020AD610000C1
:10579000416100003001002080B500AF064B0122BE
:1057A0001A80064B00221A70054B1F221A70054BF7
:1057B00000221A70BD4680BD2E0200207C01002010
:1057C000300100203002002090B591B000AF041CE1
:1057D000081C111CFB1D221C1A70BB1D021C1A7018
:1057E0007B1D0A1C1A70C24B98471023FB1801221C
:1057F0001A701023FB1804225A701023FB1802227F
:105800009A701023FB180022DA701023FB18032271
:105810001A711023FB1802225A711023FB1804225C
:105820009A711023FB184022DA711023FB1805220D
:105830001A721023FB1803225A721023FB18062237
:105840009A721023FB183322DA721023FB180722F6
:105850001A73FB1D1B781F2B0DD0FB1D1B782B2BE8
:1058600007D0FB1D1B78562B01D1D92304E0E4237C
:1058700002E06C2300E04E231022BA185373102369
:10588000FB1808229A73FB1D1B781F2B0DD0FB1DE4
:105890001B782B2B07D0FB1D1B78562B01D1002327
:1058A00004E0C02302E0402300E0C0231022BA1825
:1058B000D3731023FB1809221A741023FB1800223B
:1058C0005A741023FB1819229A741023FB184222D1
:1058D000DA741023FB1825221A751023FB184022B6
:1058E0005A751023FB1826229A751023FB180722DD
:1058F000DA751023FB1828221A761023FB181022C1
:105900005A761023FB1829229A761023FB18DC22E2
:10591000DA761023FB182E221A771023FB18882220
:105920005A771023FB182F229A771023FB182D2269
:10593000DA771023FB182022302199541023FB180A
:105940007A1D212112785A541023FB182222372164
:1059500099541023FB182322902199541023FB18EB
:105960002422382199541023FB18252242219954CE
:105970001023FB1826223C2199541023FB182722C0
:105980008F2199541023FB1828223D21995410236C
:10599000FB182922122199541023FB182A226F2167
:1059A00099541023FB182B22302199541023FB18F3
:1059B0002C22FF2199541023FB182D2200219954E9
:1059C0004C4B98474C4B98474C4B98474C4B9847FF
:1059D0004C4B98470F23FB1832221A702F20AA2114
:1059E000494B98472F20494B9847031EAA2B08D0B4
:1059F000474B9847021C0F23FB181B78DBB29A42D7
:105A0000ECD3404B98472F2055213F4B98472F20F0
:105A10003E4B9847031E552B08D03D4B9847021C20
:105A20000F23FB181B78DBB29A42ECD33F23FB1801
:105A300000221A701AE03F23FB181A781023FB1873
:105A40005200D15C3F23FB181B781022BA185B0070
:105A5000D31801331B78081C191C2B4B98473F2384
:105A6000FB181A783F23FB1801321A703F23FB18EA
:105A70001A781023FB185200D35CFF2BDBD10020D7
:105A8000244B9847244B1B78DBB2181C234B9847B8
:105A90000120234B98471B4B9847C04627201B4BA0
:105AA0009847031CDBB25BB2002B08DB184B98470E
:105AB000021C0F23FB181B78DBB29A42EED3144B67
:105AC0009847021C0F23FB181B78DBB29A4201D3C4
:105AD000002309E0134B00221A70134B9847134B15
