:1000000098220020C13C0000B93D0000B93D00002D
:1000100000000000000000000000000000000000E0
:10002000000000000000000000000000B93D0000DA
:100030000000000000000000B93D0000B93D0000D4
:10004000B93D0000B93D0000B93D0000E10A0000E3
:10005000050F0000B93D0000B93D0000B93D0000AA
:10006000B93D0000712E0000892E0000A12E000075
:10007000B92E0000D12E0000E92E0000851B0000E3
:10008000991B0000AD1B00003D1C0000511C00002E
:10009000651C00000000000000000000B93D0000E9
:1000A000B93D0000B93D0000B93D0000B93D000078
:1000B0000000000010B5064C2378002B07D1054B3B
:1000C000002B02D0044800E000BF0123237010BDC4
:1000D000080000200000000034580000084B10B554
:1000E000002B03D00749084800E000BF0748036819
:1000F000002B00D110BD064B002BFBD09847F9E731
:10010000000000000C0000203458000034580000AB
:100110000000000080B582B000AF78607B680022EC
:100120001A70C046BD4602B080BDC04680B582B0E0
:1001300000AF02003960FB1D1A70FB1D1B78012BFC
:100140000AD0022B0FD0002B14D10E4B0D4A91690F
:100150003A680A439A610FE00A4B0A4AD1693A6841
:100160000A43DA6108E0074B064A116A3A680A4313
:100170001A6201E0172300E000231800BD4602B018
:1001800080BDC0460004004080B582B000AF7860FA
:100190007B6880221A707B6800225A707B6801227B
:1001A0009A707B680022DA70C046BD4602B080BDFE
:1001B00080B582B000AF0200FB1D1A70064BFA1D1D
:1001C000127811001F220A40012191400A001A6092
:1001D000C046BD4602B080BD00E100E080B584B0FD
:1001E00000AF0200FB1D1A700F23FB18FA1D1278D6
:1001F00052091A700F23FB181B78002B0CD1094BE6
:10020000BB600F23FB181B789B0010229446BC4454
:100210006344083B1B6800E000231800BD4604B09F
:1002200080BDC0460018004080B582B000AF0F4BC3
:100230003B6000237B6011E07B689B0008229446B2
:10024000BC446344083B1B685B78DBB25BB2002BA9
:1002500001DA012306E07B6801337B607B68002BB9
:10026000EAD000231800BD4602B080BD001800404F
:1002700080B584B000AF2D4B7B60402100202C4B1B
:1002800098473B0018002B4B98473B0000221A7000
:100290003B0019000520284B98470520274B98471D
:1002A0000023FB6018E0FB689B0010229446BC44CE
:1002B00063440C3B1A68FB689B0010218C46BC44CD
:1002C00063440C3B1B681B78DBB201210B43DBB2A0
:1002D0001370FB680133FB60FB68002BE3D0C04662
:1002E000174B9847031EFBD10B23FB1800221A70F3
:1002F0000DE00B23FB181A78124B92000021D1500D
:100300000B23FB181A780B23FB1801321A700B23EE
:10031000FB181B780F2BECD904200B4B98470B4B89
:100320009847C046BD4604B080BDC0460018004096
:100330002D010000150100004D3900009139000029
:100340002902000070000020B101000051030000EC
:1003500080B582B000AF154B3B6000237B6018E096
:100360007B689B0008229446BC446344083B1A689F
:100370007B689B0008218C46BC446344083B1B6897
:100380001B78DBB202210B43DBB213707B680133B5
:100390007B607B68002BE3D0C046054B9847031E6B
:1003A000FBD1C046BD4602B080BDC046001800402B
:1003B0002902000080B582B000AF78607B6800221F
:1003C0001A607B6800225A607B6801221A727B687F
:1003D00001225A727B6800229A727B680222DA72CA
:1003E000C046BD4602B080BD80B586B000AF0200F9
:1003F0003960FB1D1A700823FB181800364B98470C
:100400003B685B68DAB20823FB181A700823FB18F4
:1004100000225A703B681A7A0823FB189A703B68CE
:100420001B68DBB20822BA18110018002B4B984742
:10043000FB1D1B7818002A4B984703003B61FB1DEE
:100440001B78072213409B00FB603B68DB7A7B61D3
:100450003B689B7A002B03D07B69082213437B61A6
:10046000FB1D1B78DB08DBB21800FB1D1B78DB08CB
:10047000DBB21A003B6906329200D3580F21FA68AA
:1004800091400A00D2431A407969FB6899400B00F9
:100490001A4311003B69821D9200D1503B685B7A80
:1004A000002B0AD03B695A69FB1D1B78012199403A
:1004B0000B001A433B695A610AE03B695B69FA1D0C
:1004C0001278012191400A00D2431A403B695A61D7
:1004D000C046BD4606B080BD89010000393C000021
:1004E000DD01000080B582B000AF78607B6800223B
:1004F0001A70C046BD4602B080BDC04680B582B00D
:1005000000AF02003960FB1D1A70FB1D1B78012B28
:100510000AD0022B0FD0002B14D10E4B0D4A91693B
:100520003A680A439A610FE00A4B0A4AD1693A686D
:100530000A43DA6108E0074B064A116A3A680A433F
:100540001A6201E0172300E000231800BD4602B044
:1005500080BDC0460004004080B582B000AF0200FC
:10056000FB1D1A70064BFA1D127811001F220A405B
:10057000012191400A001A60C046BD4602B080BD0C
:1005800000E100E080B582B000AF0200FB1D1A70F0
:10059000074AFB1D1B7819001F230B4001219940BE
:1005A0000B0019008023D150C046BD4602B080BD6B
:1005B00000E100E080B584B000AF78607B681B6824
:1005C000FB60FB689B7ADBB25BB2002B01DA012394
:1005D00000E000231800BD4604B080BD80B584B0A3
:1005E00000AF78607B681B68FB6003200A4B98476C
:1005F000C0467B681800094B9847031EF9D1FB6879
:100600001B889BB2022213439AB2FB681A80C04631
:10061000BD4604B080BDC04659050000B5050000C8
:1006200080B584B000AF78607B681B68FB600320F6
:100630000A4B9847C0467B681800094B9847031E31
:10064000F9D1FB681B889BB2022293439AB2FB68E4
:100650001A80C046BD4604B080BDC0468505000076
:10066000B505000080B584B000AF78607B681B687A
:10067000FB607B6818000D4B98477B6800229A82CC
:100680007B680022DA82C0467B681800084B9847D6
:10069000031EF9D1FB681B889BB2012213439AB257
:1006A000FB681A80C046BD4604B080BD210600002C
:1006B000B505000080B584B000AF786039607B6814
:1006C0001B68BB603B681A88BB681A803B689B78D4
:1006D000002B3AD0012B00D06CE0BB681B889AB28B
:1006E000BB681A803B68DB78002B07D0BB681B888F
:1006F0009BB2802213439AB2BB681A800F23FB1867
:1007000000221A701BE0C0467B681800334B9847E4
:10071000031EF9D10F23FB181A783B6802329200AE
:10072000D1580F23FB181A787B6818002C4B984778
:100730000F23FB181A780F23FB1801321A700F23AE
:10074000FB181B78002BDED036E0BB681B889BB201
:10075000042213439AB2BB681A803B68DB78002BF3
:1007600001D0172336E00E23FB1800221A701BE07D
:10077000C0467B681800194B9847031EF9D10E2319
:10078000FB181A783B6802329200D1580E23FB18EE
:100790001A787B681800124B98470E23FB181A78BA
:1007A0000E23FB1801321A700E23FB181B78012B45
:1007B000DED901E017230DE03B681B79002B08D040
:1007C000BB685B889BB28022D20113439AB2BB689C
:1007D0005A8000231800BD4604B080BDB505000056
:1007E0003D09000080B586B000AFF860B9607A605E
:1007F000FB68BA681A6020210020174B9847142321
:10080000FB181800154B98471423FB1802221A7086
:100810001423FB1819000420114B98470420114B96
:100820009847FB681800104B98477B689A78FB68DC
:100830001A717B681A79FB685A710C4BFA681A6056
:100840007A68FB6811001800094B984703001800EC
:10085000BD4606B080BDC046FD040000E5040000B2
:100860004D3900009139000065060000B0000020FD
:10087000B506000080B584B000AF786039607B6851
:100880001B68FB60C0467B681800104B9847031E2E
:10089000F9D17B681B79002B05D0012B0ED1FB68A9
:1008A0003A681A610CE03B68094A934201D9172360
:1008B00007E03B689AB2FB681A8201E0172300E068
:1008C00000231800BD4604B080BDC046B505000039
:1008D000FFFF000080B584B000AF78607B681B68C4
:1008E000BB607B685B7901225340DBB2002B09D0EF
:1008F000BB68104A5A80C0467B6818000E4B984768
:10090000031EF9D17B681B79002B05D0012B08D180
:10091000BB681B69FB6007E0BB681B8A9BB2FB607E
:1009200002E00023FB60C046FB681800BD4604B02F
:1009300080BDC0460080FFFFB505000080B586B0D1
:1009400000AFF860B960FB1D1A70FB681B687B6123
:10095000C046FB6818001A4B9847031EF9D1FB6884
:100960001B79002B0FD0012B22D1FB1D1B78012BF3
:1009700001D917231FE0FB1D1A787B69063292000C
:10098000B968D15016E0FB1D1B78022B01D9172343
:1009900011E0BB680B4A934201D917230BE0FB1D02
:1009A0001A78BB6899B27B690C325200D15201E0CF
:1009B0001A2300E000231800BD4606B080BDC046E3
:1009C000B5050000FFFF000080B584B000AF78607F
:1009D0000A00BB1C1A807B681B68FB607B681B7964
:1009E000002B01D015230BE0C0467B681800064B96
:1009F0009847031EF9D1FB68BA1C12889A8200231B
:100A00001800BD4604B080BDB505000080B586B0B5
:100A100000AF7860314B7A689200D3587B617B6974
:100A20001B683B610E23FB187A69D28A1A807B69A6
:100A30009B8A9AB20E23FB180E21791809880A4066
:100A40001A803B691B7ADAB20C23FB181A803B69C7
:100A5000DB79DBB29AB20C23FB180C2179180988D8
:100A60000A401A800C23FB181B88802213400CD0EC
:100A70000E23FB181B880422134002D07B691B69DC
:100A800098473B6980221A7224E00C23FB181B88CC
:100A9000012213400CD00E23FB181B8801221340A7
:100AA00002D07B699B6898473B6901221A7211E06A
:100AB0000C23FB181B88022213400BD00E23FB18BB
:100AC0001B880222134002D07B69DB6898473B6990
:100AD00002221A72C046BD4606B080BDB00000209A
:100AE00080B500AF0020024B9847C046BD4680BD90
:100AF0000D0A000080B584B000AF0200FB1D1A7023
:100B00000F23FB18FA1D1278D2091A700E23FB1856
:100B1000FA1D127852091A700D4BBB600F23FB1897
:100B20001B78002B0FD10F23FB181B789B00102282
:100B30009446BC446344083B1A680E23FB181B7898
:100B4000DB01D31800E000231800BD4604B080BDCF
:100B50000044004180B582B000AF0200FB1D1A7056
:100B6000FB1D1B781800034B984703001800BD4677
:100B700002B080BDF50A000080B584B000AF02006D
:100B8000FB1D1A70FB1D1B7818000B4B98470300C8
:100B9000FB60FB1D1B781F22134001229A401300AB
:100BA000BB60FB681B6ABA6813405A1E9341DBB2F4
:100BB0001800BD4604B080BD550B000080B500AFE5
:100BC000104B00221A700F4B00225A700D4B00225E
:100BD0009A700C4B0022DA700A4B00221A71094BF2
:100BE00000225A71074B00229A71064B0022DA71DB
:100BF000044B00221A72034B00225A72C046BD46B3
:100C000080BDC046B4000020B0B500AF0A201B4B29
:100C1000984703001A001A4B9A700B20174B9847FD
:100C200003001A00164BDA700620144B9847030095
:100C30001A00134B1A700920104B984703001A0032
:100C40000F4B5A700F4A104910480023104CA04710
:100C50000C4A1049104801230D4CA0470F4A104977
:100C6000074801230A4CA0470C4A0E490E480023AE
:100C7000074CA047C046BD46B0BDC046790B00003A
:100C8000B4000020BC000020B8000020B600002006
:100C9000AD0C0000B9000020B7000020BD0000200E
:100CA000BA000020BB000020B500002080B584B051
:100CB00000AFF860B9607A601A00FB1C1A70FB681C
:100CC0001A78BB681B789A420ED0FB1C1B78002B4D
:100CD00003D07B6801337B6002E07B68013B7B6073
:100CE000FB681A78BB681A70C046BD4604B080BD68
:100CF00080B584B000AF786039600F23FB18224ABA
:100D0000127A1A700E23FB181F4A527A1A700F2398
:100D1000FB181B785BB2642B03DD0F23FB186422E6
:100D20001A700F23FB181B785BB2643303DA0F23AE
:100D3000FB189C221A700E23FB181B785BB2642BE5
:100D400003DD0E23FB1864221A700E23FB181B7898
:100D50005BB2643303DA0E23FB189C221A700A4B31
:100D600000221A72084B00225A727B680F22BA18AE
:100D700012781A703B680E22BA1812781A70C046A0
:100D8000BD4604B080BDC046B400002080B584B02C
:100D900000AF0200FB1D1A700F23FB18FA1D12781A
:100DA00052091A700F23FB181B78002B0CD1094B2A
:100DB000BB600F23FB181B789B0010229446BC4499
:100DC0006344083B1B6800E000231800BD4604B0E4
:100DD00080BDC0460018004080B584B000AF02005E
:100DE000FB1D1A70FB1D1B7818000B4B9847030066
:100DF000FB60FB1D1B781F22134001229A40130049
:100E0000BB60FB681B69BA6813405A1E9341DBB292
:100E10001800BD4604B080BD8D0D000080B584B0C3
:100E200000AF0200FB1D1A70FB1D1B781800094B58
:100E300098470300FB60FB1D1B781F221340012213
:100E40009A401300BB60FB68BA681A61C046BD4691
:100E500004B080BD8D0D000080B582B000AF786019
:100E600008001100FB1C021C1A70BB1C0A1C1A7023
:100E7000BB1C1B78002B01D0172319E0FB1C1A7830
:100E80000D4B9200D358002B07D1FB1C1A780A4B4C
:100E900092007968D15000230AE0FB1C1A78064BB7
:100EA0009200D2587B689A4201D1002300E01D23B2
:100EB0001800BD4602B080BD7000002080B584B02F
:100EC00000AF0200FB1D1A70BB1D0A1C1A70BB1D6F
:100ED0001B78002B0ED1FB1D1B781800084B984780
:100EE0000300FB60FB1D1B7801229A40FB68DA605F
:100EF000002300E017231800BD4604B080BDC046A3
:100F00008D0D000080B500AF154B00221A7020E057
:100F1000134B1B781800134B9847031E13D0104B2C
:100F20001B781800104B98470D4B1B781A000F4B7D
:100F30009200D358002B06D0094B1B781A000B4B9C
:100F40009200D3589847064B1B780133DAB2044B12
:100F50001A70034B1B780F2BDAD9C046BD4680BDF3
:100F6000BE000020D90D00001D0E00007000002002
:100F700080B582B000AF78607B6800221A70C046EE
:100F8000BD4602B080BDC04680B582B000AF020051
:100F90003960FB1D1A70FB1D1B78012B0AD0022B38
:100FA0000FD0002B14D10E4B0D4A91693A680A43B9
:100FB0009A610FE00A4B0A4AD1693A680A43DA613A
:100FC00008E0074B064A116A3A680A431A6201E0D0
:100FD000172300E000231800BD4602B080BDC046C4
:100FE0000004004080B582B000AF78607B6880224A
:100FF0001A707B6800225A707B6801229A707B68A5
:101000000022DA70C046BD4602B080BD80B584B013
:1010100000AF78600023FB600CE00A4BFA68920096
:10102000D2587B689A4202D1FB68DBB206E0FB68CB
:101030000133FB60FB68022BEFD900231800BD468B
:1010400004B080BD2457000090B585B000AF786033
:1010500039600F23FC183B681800AD4B984703001C
:1010600023707B6800221A600F23FB181A78A94BA3
:101070009200D2587B685A607B6800229A727B6823
:101080000022DA727B6800221A737B6800225A728F
:101090007B6800221A727B680022DA617B6800227A
:1010A0001A627B6800225A627B6800229A627B681F
:1010B00000221A757B6800225A757B6800229A7597
:1010C0007B680022DA757B6800221A767B68002232
:1010D0005A767B6800221A747B6800225A747B68F7
:1010E00000229A747B680022DA747B682C2200212B
:1010F00099547B682D22002199547B682E2200216F
:1011000099547B682F22002199547B68302200215A
:1011100099547B683122002199547B683222002146
:1011200099547B683322002199547B683422002132
:1011300099547B683522002199547B68362200211E
:1011400099547B683722002199547B68382200210A
:1011500099547B683922002199547B683A220021F6
:1011600099547B683B22002199547B683C220021E2
:1011700099547B683D22002199547B683E220021CE
:1011800099547B683F22002199547B6840220021BA
:1011900099547B684122002199547B6842220021A6
:1011A00099547B684322002199547B684422002192
:1011B00099547B684522002199547B68462200217E
:1011C00099547B684722002199547B68482200216A
:1011D00099547B684922002199547B684A22002156
:1011E00099547B684B22002199547B684C22002142
:1011F00099547B684D22002199547B684E2200212E
:1012000099547B684F22002199547B685022002119
:1012100099547B685122002199547B685222002105
:1012200099547B685322002199547B6854220021F1
:1012300099547B685522002199547B6856220021DD
:1012400099547B685722002199547B689822002189
:1012500099547B6800229A657B6800229A677B68B4
:101260009922002199547B680022DA657B6800226C
:10127000DA677B689A22002199547B6800221A66FB
:101280007B688022002199507B689B220021995421
:101290007B6800225A667B688422002199507B6813
:1012A0009C22002199547B6800229A667B688822E0
:1012B000002199507B689D22002199547B6800226F
:1012C000DA667B688C22002199507B689E2200217F
:1012D00099547B6800221A677B68902200219950FC
:1012E0007B689F22002199547B6800225A677B68A3
:1012F0009422002199507B68A022012199547B6897
:10130000A12200219954C046BD4605B090BDC046FB
:101310000D1000004057000080B586B000AFB960E6
:101320007A600F23FB18021C1A7000237B610023D4
:101330003B611DE0BA683B69D31810331B78012B61
:1013400013D10F23FB181B781B4AD35C1A1E3B6971
:101350009A4201DA17232AE080235A043B699A4013
:1013600013001A007B6913437B613B6901333B61C6
:101370003B69032BDEDDBB68A1229B5C002B04D004
:101380007B698022120113437B61BB681B7B1B03BB
:101390001A007B6913437B61BB68DB7A1B021A006E
:1013A0007B6913437B617B687A691A6000231800AC
:1013B000BD4606B080BDC0464C57000080B586B023
:1013C00000AFB9607A600F23FB18021C1A70172354
:1013D000FB1800221A70BB681B7A002B07D017235A
:1013E000FB181722BA18127804210A431A70BB6836
:1013F0005B7A012B07D11723FB181722BA18127832
:1014000001210A431A707B681722BA1812781A70E1
:10141000C046BD4606B080BD80B588B000AFB9609B
:101420007A600F23FB18021C1A700F23FB181A781E
:101430001B23FB183E498A5C1A700023FB616EE097
:10144000FA6913009B009B185B002833BA68D31815
:1014500004337B617B695B7A1B22BA1812789A424B
:1014600001D817235FE07B691B780F2B01D9172365
:1014700059E07B691B781B061A00F0231B051A40F4
:101480007B695B781B041900FF231B040B401A4384
:101490007B699B78002B01D0802300E000231A4356
:1014A0007B69DB78002B01D0082300E000231A437E
:1014B0007B691B79002B01D0102300E000231A4325
:1014C0007B695B79190003230B401A437B699B7985
:1014D0005B01190060230B401A437B69DB791B0217
:1014E0001900C0239B000B401A437B691B7A1B0326
:1014F0001900E023DB010B401A437B695B7A9B02F6
:101500001900C0231B010B4013433B61FB699B0087
:101510007A68D3183A691A60FB690133FB61FB6989
:10152000012B8DDD00231800BD4608B080BDC046EC
:101530004C57000080B588B000AFB9607A600F23C7
:10154000FB18021C1A700F23FB181A781723FB18BC
:101550002D498A5C1A700023BB610023FB6148E0BF
:10156000BA685021FB69D3185B181B78002B10D088
:101570001723FB181A78FB699A4201D817233FE01A
:1015800080235A02FB699A4013001A00BB69134377
:10159000BB61BA68FB691C335B00D31809331B7845
:1015A000002B23D01723FB181A78FB699A4201D825
:1015B000172325E0BA68FB691C335B00D318093395
:1015C0001B78022B0AD10223FF331A00FB699A40D1
:1015D00013001A00BB691343BB6107E00122FB69DA
:1015E0009A4013001A00BB691343BB61FB690133C6
:1015F000FB61FB69072BB3D97B68BA691A600023CA
:101600001800BD4608B080BD5057000080B588B0B6
:1016100000AFB9607A600F23FB18021C1A700F2309
:10162000FB181A781723FB181D498A5C1A70BB68CF
:1016300010333B613B695B7A1B011A0030231A406F
:101640003B691B7A190007230B401343BB6100233E
:10165000FB611AE03A69FB69D31804331B78002B4D
:1016600010D01723FB181A78FB699A4201DC172364
:1016700012E080235A02FB699A4013001A00BB69EA
:101680001343BB61FB690133FB61FB69032BE1DDA4
:101690007B68BA691A6000231800BD4608B080BD97
:1016A0004C57000090B591B000AFF860B9607A6017
:1016B0003B23FC18BB681800C44B984703002370F9
:1016C0003B23FB181A78C24B9200D3581900022012
:1016D000C04B9847BB681B680222134001D01C23F3
:1016E000BEE1BB681B680122134001D01C23B7E197
:1016F0003B23FB181A78B84B9200D3587B637B6866
:101700001A687B6B9A4204D87B685A687B6B9A4252
:1017100001D91723A4E10023FB630EE07A68FB6B79
:1017200006339B00D31804331A687B6B9A4201D9A5
:10173000172395E1FB6B0133FB63FB6B032BEDDDA3
:101740000023FB6319E07A689821FB6BD3185B18C0
:101750001B7801225340DBB2002B0AD13B23FB183C
:101760001B789E4AD35C1A1EFB6B9A4202DC17233D
:1017700076E1C046FB6B0133FB63FB6B072BE2DDBD
:101780000023FB623323FC182C23FA1879683B23CF
:10179000FB181B781800924B9847030023703323E3
:1017A000FB181B78002B03D03323FB181B7857E161
:1017B0002B23FA1879683B23FB181B781800894BF8
:1017C00098473323FC182023FA1879683B23FB1829
:1017D0001B781800844B9847030023703323FB18B1
:1017E0001B78002B03D03323FB181B7838E1002330
:1017F000FB613323FC181C23FA1879683B23FB1880
:101800001B781800794B9847030023703323FB188B
:101810001B78002B03D03323FB181B7820E13323E4
:10182000FC181823FA1879683B23FB181B7818005A
:101830006F4B9847030023703323FB181B78002B52
:1018400003D03323FB181B780AE10023FB6309E074
:10185000FA68FB6B9B00D318043300221A60FB6B01
:101860000133FB63FB6B0B2BF2DDFB6800225A6339
:10187000FB6800229A633B23FB181A785D4B9200A9
:10188000F968D150FB68BA681A607B68A022995C3D
:10189000FB683C2299541423FB181800564B9847B8
:1018A0007B689A7A1423FB181A703B23FB181B7869
:1018B000524AD35C1422BA1811001800504B9847B2
:1018C0003B23FB181B784D4AD35C18004D4B9847BF
:1018D0000023FB632DE07A689821FB6BD3185B181B
:1018E0001B7801225340DBB2002B1ED11023FB18C2
:1018F0001800454B98477B68FA6B1E329200D3580C
:10190000DAB21023FB181A701023FB1801225A7048
:101910007B68FA6B16329200D358DBB21022BA18E9
:1019200011001800394B984700E0C046FB6B0133AB
:10193000FB633B23FB181B78284AD35C1A1EFB6B06
:101940009A42C8DCFA6ABB681A60C046BB689B68EA
:1019500004221340FAD1BB68FF221A71C046BB684B
:101960009B6804221340FAD12B23FB181A78BB681A
:101970005A712023FB181A68BB68DA602023FB1811
:101980005A68BB681A61FA69BB689A61C046BB684D
:101990009B681F4A1340FAD1BA69BB68DA63C04634
:1019A000BB689B6810221340FAD17B681A68BB6839
:1019B0005A63C046BB689B68164A1340FAD17B68DD
:1019C0005A68BB681A640023FB633FE00D100000F7
:1019D00034570000890F00004057000050570000A6
:1019E00019130000BD130000191400003515000084
:1019F0000D160000C0000020710F000030570000DD
:101A00004D39000091390000E50F0000393C00001D
:101A10004000020080000400C046BB689B68124979
:101A2000FA6B91400A001340F7D17A68FB6B0633DA
:101A30009B00D31804331A68B968FB6B10339B0002
:101A4000CB1804331A60FB6B0133FB633B23FB1899
:101A50001B78064AD35C1A1EFB6B9A42DCDC00231F
:101A60001800BD4611B090BD000108004C570000A1
:101A700090B589B000AFF86008007A6019000B23B8
:101A8000FB18021C1A700A23FB180A1C1A70FB6848
:101A90001B68FB611B23FC18FB691800284B984747
:101AA000030023701B23FB181B78264AD35C0B22F0
:101AB000BA1812789A4201D317233DE01B23FB1872
:101AC0001A78214B9200D3587B617A687B699A42DD
:101AD00001D9172330E00A23FB181B78002B14D000
:101AE000C046FB699B680B22BA1812788021090353
:101AF00091400A001340F4D10B23FB181A78FB69BC
:101B00001C3292007968D15015E0C046FB699B6891
:101B10000B22BA1812788021490091400A00134024
:101B2000F4D10B23FB181B78FA6910339B00D318F0
:101B300004337A681A6000231800BD4609B090BDCE
:101B40000D1000004C5700004057000090B585B0C4
:101B500000AFF8607A600B23FB180A1C1A70FB6850
:101B60003C229C5C7A680B23FB181978F8682300E8
:101B7000034CA04703001800BD4605B090BDC04609
:101B8000711A000080B500AF0020024B9847C04694
:101B9000BD4680BDC11B000080B500AF0120024BD7
:101BA0009847C046BD4680BDC11B000080B500AF50
:101BB0000220024B9847C046BD4680BDC11B0000B5
:101BC00080B586B000AF0200FB1D1A70FB1D1A78AD
:101BD000184B9200D3583B613B691B68DA6A3B693A
:101BE0005B6B1A403B699B6B1340FB6000237B617E
:101BF00019E0114B7A699200D358FA6813400FD05C
:101C00003A697B699B00D31804331B683A6910005A
:101C100098473B691B68084A796989008A58DA62E3
:101C20007B6901337B617B690B2BE2DDC046BD46DE
:101C300006B080BDC00000205457000080B500AF42
:101C40000020024B9847C046BD4680BD791C00006D
:101C500080B500AF0120024B9847C046BD4680BD0D
:101C6000791C000080B500AF0220024B9847C046A7
:101C7000BD4680BD791C000080B584B000AF020075
:101C8000FB1D1A70FB1D1A78284B9200D358FB607D
:101C9000FB681B689B7BDBB2FA68127E1340DAB2EA
:101CA000FB68597E0B23FB180A401A700B23FB18A4
:101CB0001B780122134008D0FB689B68FA6810006B
:101CC0009847FB681B6801229A730B23FB181B784B
:101CD0000222134008D0FB68DB68FA6810009847BE
:101CE000FB681B6802229A730B23FB181B781022D7
:101CF000134008D0FB681B69FA6810009847FB681E
:101D00001B6810229A730B23FB181B7820221340A8
:101D100008D0FB685B69FA6810009847FB681B688D
:101D200020229A73C046BD4604B080BDCC0000207E
:101D300080B582B000AF78607B6880221A707B68C3
:101D400000225A707B6801229A707B680022DA7048
:101D5000C046BD4602B080BD80B584B000AF020071
:101D6000FB1D1A700F23FB18FA1D1278D2091A7086
:101D70000E23FB18FA1D127852091A700D4BBB6026
:101D80000F23FB181B78002B0FD10F23FB181B7898
:101D90009B0010229446BC446344083B1A680E23FF
:101DA000FB181B78DB01D31800E000231800BD46A8
:101DB00004B080BD0044004180B582B000AF020095
:101DC000FB1D1A70FB1D1B781800034B984703007E
:101DD0001800BD4602B080BD591D000080B584B01A
:101DE00000AF0200FB1D1A70BB1D0A1C1A70FB1D00
:101DF0001B7818000D4B98470300FB60FB1D1B78F8
:101E00001F22134001229A401300BB60BB1D1B78A8
:101E1000002B03D0FB68BA689A6102E0FB68BA68DD
:101E20005A61C046BD4604B080BDC046B91D000021
:101E300080B582B000AF78607B6800221A70C0461F
:101E4000BD4602B080BDC04680B582B000AF020082
:101E50003960FB1D1A70FB1D1B78012B0AD0022B69
:101E60000FD0002B14D10E4B0D4A91693A680A43EA
:101E70009A610FE00A4B0A4AD1693A680A43DA616B
:101E800008E0074B064A116A3A680A431A6201E001
:101E9000172300E000231800BD4602B080BDC046F5
:101EA0000004004080B500AF054B9B78DBB21A0000
:101EB000022313405A1E9341DBB21800BD4680BD79
:101EC0000020004180B584B000AF78607B681B685B
:101ED000FB60FB681B7EDBB21A00012313405A1E15
:101EE0009341DBB21800BD4604B080BD80B584B01C
:101EF00000AF78607B681B68FB60FB681B7EDBB211
:101F00001A00042313405A1E9341DBB21800BD4649
:101F100004B080BD80B584B000AF78600A00BB1CFF
:101F20001A807B681B68FB607B6818000A4B984727
:101F300003001A0001235340DBB2002B01D005231C
:101F400006E0BB1C1B88DB05DA0DFB689A620023E8
:101F50001800BD4604B080BDC51E000080B584B029
:101F600000AF786039607B681B68BB607B681800D5
:101F70001B4B984703001A0001235340DBB2002B90
:101F800001D0102327E00F23FB1800221A70BB6832
:101F90005B8B9BB21A000423134006D00F23FB185F
:101FA0001E221A70BB6804225A837B689B79012B1E
:101FB00008D1BB689B6A9BB2DB05DB0D9AB23B681C
:101FC0001A8005E0BB689B6ADBB29AB23B681A8054
:101FD0000F23FB181B781800BD4604B080BDC04617
:101FE000ED1E000090B593B000AF786039607B685B
:101FF0001B687B637B681B683B631C23FB18180012
:10200000854B98471C23FB1800225A703B681B78AD
:10201000002B03D11C23FB1800229A703B689A6A9C
:102020000C23FB181A603B68DA6A0C23FB185A6011
:102030003B681A6B0C23FB189A603B685A6B0C23A5
:10204000FB18DA604723FB1800221A702CE04723A4
:10205000FB181A780C23FB189200D3583B643B6C96
:10206000002B09D14723FB181A783B6B110018008D
:102070006A4B984703003B643B6C01330DD03B6CCB
:10208000DAB21C23FB181A703B6C1B0CDBB21C224F
:10209000BA1811001800624B98474723FB181A78AA
:1020A0004723FB1801321A704723FB181B78032BB8
:1020B000CDD93B681A787B685A713B681A7C7B687B
:1020C0009A713B689A7C7B68DA713B681A7D7B6801
:1020D0001A720A23FB1800221A800023FB630023D4
:1020E000BB633B681B78012B29D17B681B681800F8
:1020F0004C4B98470300FB62FB6A1433BB62BB6A1C
:10210000DBB21800484B984703007B623B689B6931
:102110002322BC180A22BA18796A1800434B984740
:10212000030023702323FB181B78002B01D01723F7
:102130006DE00A23FB181B88DAB27B6B1A733B68CD
:102140001B78002B1AD13B689B69FB633B689B8B18
:10215000BB637B6B5B6A3A68927F11003A68D27FFF
:1021600012040A431A437B6B5A623B6820229B5C31
:10217000002B03D0BB6B40221343BB633B685B68FF
:10218000FA6B1343FB633B689B68FA6B1343FB6377
:102190003B68DB68FA6B1343FB633B681B7C1A00EC
:1021A000BB6B1343BB633B685B7C002B03D1204BB1
:1021B0009847031E03D0FB6B80221343FB633B68ED
:1021C0009B7C002B04D0BB6B802292021343BB6329
:1021D0003B68DB7C002B04D0BB6B80229200134356
:1021E000BB633B681B7D002B04D0BB6B802292013C
:1021F0001343BB637B6B1A68FB6B1A437B6B1A60E0
:102200007B6B5A68BB6B1A437B6B5A6000231800C8
:10221000BD4613B090BDC046311D0000992B000093
:10222000393C0000552D0000713A0000912A000051
:10223000A51E000090B58BB000AFF860B9607A6061
:10224000FB68BA681A60FB681B683B623B6A1B68E4
:102250000222134001D01C23A6E03B6A1B68012226
:10226000134001D005239FE0FB681B681800504B0A
:1022700098470300FB61FB690233BB61FB691433C0
:102280007B610122BB699A40130019000220494B6F
:1022900098471023FB181800474B98477B68242267
:1022A0009A5C1023FB181A707B69DBB21022BA18F3
:1022B00011001800414B98477B69DBB21800404B76
:1022C00098477B6824229B5C002118003D4B98476F
:1022D0007B681B78012B05D13B6A1B680C221A43D3
:1022E0003B6A1A607B681B78002B05D13B6A1B6830
:1022F00008221A433B6A1A602723FB1800221A702F
:1023000010E02723FB181B78FA6802339B00D318D0
:10231000043300221A602723FB181A782723FB189E
:1023200001321A702723FB181B78062BE9D9FB68AA
:102330000022DA62FB6800229A62FB6800229A8619
:10234000FB6800221A86FB68362200219954FB683C
:10235000372200219954FB68382200219954FB68E8
:1023600003225A72FB6800221A71FB681B68132251
:10237000BC1818000E4B984703002370124A132311
:10238000FB181B7811001800104B98471323FB18FB
:102390001A780F4B9200F968D1507A68FB681100E7
:1023A00018000C4B984703001800BD460BB090BDB9
:1023B000552D0000491E0000311E00004D3900005F
:1023C000913900000D2B00006D270000B92D000091
:1023D000DC000020E51F000090B587B000AFF8607A
:1023E0007A600A23FB180A1C1A80FB68DB79012239
:1023F0005340DBB2002B01D01C2384E0FB68382261
:102400009B5CDBB2052B01D105237CE01523FB1877
:1024100000221A70FB685B79002B21D11623FB1870
:1024200000221A8014E0FB681800394B9847031EFD
:1024300015D11623FB181B88364A934201D112236B
:1024400061E01623FB181A881623FB1801321A8044
:102450001623FB181B882F4A9342E4D900E0C0469C
:10246000C046FB6818002A4B984703001A00012356
:102470005340DBB2002BF4D10A23FB181A88FB6807
:1024800011001800244B9847FB685B79002B21D181
:102490001623FB1800221A8014E0FB6818001F4B5B
:1024A0009847031E15D11623FB181B88194A93421F
:1024B00001D1122327E01623FB181A881623FB18D4
:1024C00001321A801623FB181B88124A9342E4D962
:1024D00000E0C046C046FB681800104B9847030058
:1024E0001A0001235340DBB2002BF4D11523FC1852
:1024F0007A68FB6811001800094B984703002370A5
:102500001523FB181B781800BD4607B090BDC046C8
:10251000C51E000010270000151F0000ED1E000062
:102520005D1F000080B586B000AFF860B960FB1D8C
:102530001A70FB685B79012B01D015235CE0FB6806
:102540001B7A01225340DBB2002B54D0FB1D1B78B9
:10255000002B4AD0BB685B78002B3FD0FB6818008B
:10256000274B984703001A0001235340DBB2002B8E
:1025700007D0BB681B7801211800224B9847052320
:102580003AE0BB681B78002118001E4B9847BB68D7
:102590009B789AB2FB68110018001B4B9847FB68A8
:1025A000DB7901225340DBB2002B24D0C046FB680C
:1025B0001800164B984703001A0001235340DBB262
:1025C000002BF4D11623FB1800221A801623FA18C8
:1025D000FB68110018000E4B98470CE0BB681B7895
:1025E00000211800074B984705E0BB681B780121C4
:1025F0001800044B984700231800BD4606B080BD64
:10260000C51E0000DD1D0000151F0000ED1E0000AE
:102610005D1F000080B584B000AF78607B681B68E8
:10262000BB607B68DB6A1B78DAB20E23FB181A806A
:102630007B68DB6A5A1C7B68DA627B689B79012BBA
:1026400013D17B68DB6A1B78DBB21B021AB20E2344
:10265000FB1800215B5E13431AB20E23FB181A808D
:102660007B68DB6A5A1C7B68DA620E23FB181B88C6
:10267000DB05DA0DBB689A627B689B8E9BB2013BDF
:102680009AB27B689A86C046BD4604B080BDC046FB
:1026900080B584B000AF78607B681B68FB60084B36
:1026A0001B881A00FB689A627B685B8E9BB2013BB9
:1026B0009AB27B685A86C046BD4604B080BDC0460B
:1026C000D800002080B584B000AF78607B681B68BC
:1026D000FB600A23FB1800221A80FB689A6A0A230F
:1026E000FB181A807B685B8E9BB2013B9AB27B68B9
:1026F0005A86C046BD4604B080BDC04680B584B091
:1027000000AF78607B681B68FB60FB689B6A9AB2CD
:102710000A23FB18D205D20D1A807B689B6A0A2215
:10272000BA181288D2B21A707B689B6A5A1C7B68EE
:102730009A627B689B79012B0DD17B689B6A0A2288
:10274000BA181288120A92B2D2B21A707B689B6AC7
:102750005A1C7B689A627B681B8E9BB2013B9AB2C3
:102760007B681A86C046BD4604B080BD80B586B081
:1027700000AF0200FB1D1A70FB1D1A78B94B9200C6
:10278000D3587B617B691B683B617B6937229A5C0C
:102790007B693621595C0F23FB180A401A703B698C
:1027A0001B7EDAB20C23FB181A803B699B7DDBB2DF
:1027B0009AB20C23FB180C21791809880A401A8058
:1027C0000C23FB181B880122134041D07B695B79E5
:1027D000012B10D17B695B7ADBB2002B0BD17B69BB
:1027E0001800A14B98477B695B8E9BB2002B02D1EE
:1027F0003B6901221A757B695B79012B04D17B69E6
:102800005B7ADBB2002B08D17B695B79002B1FD18F
:102810007B695B7ADBB2002B1AD07B691800934B83
:1028200098477B699B8E9BB2002B11D13B6901229B
:102830001A757B695B7ADBB2012B09D17B69DB7985
:1028400001225340DBB2002B02D03B6902229A7571
:102850000C23FB181B880422134000D17EE03B6947
:102860005B8B9BB21A000423134022D07B695B7AF6
:10287000DBB2012B14D07B6938221E2199547B696D
:1028800003225A723B6905221A750F23FB181B7825
:102890000822134004D07B699B697A69100098472D
:1028A0003B699A6A0A23FB181A803B6904225A83FF
:1028B00054E07B695B7ADBB2012B1ED17B69180087
:1028C0006B4B98477B695B8E9BB2002B46D13B6973
:1028D00004221A757B693822002199547B690322EE
:1028E0005A720F23FB181B780122134036D07B69E4
:1028F000DB687A691000984730E07B6918005D4B0F
:1029000098477B691B8E9BB2002B27D17B693822AD
:10291000002199543B6904221A757B695B7ADBB20A
:10292000022B0BD10F23FB181B780422134015D068
:102930007B695B697A69100098470FE07B695B7A75
:10294000DBB2002B0AD10F23FB181B7802221340A5
:1029500004D07B691B697A69100098470C23FB1827
:102960001B880222134046D07B695B79002B1DD166
:102970003B6907221A753B6902221A767B6903229A
:102980005A727B6900229A867B6900221A867B69CB
:102990003822002199540F23FB181B781022134072
:1029A00004D07B69DB697A69100098477B695B79A1
:1029B000012B20D17B695B7ADBB2012B1BD17B69B8
:1029C000DB7901225340DBB2002B14D03B69022299
:1029D0001A757B6903225A727B6938220021995447
:1029E0000F23FB181B780122134004D07B69DB689E
:1029F0007A69100098470C23FB181B8808221340A3
:102A000014D07B695B79002B10D13B6908221A75C1
:102A10003B6908221A760F23FB181B7820221340EB
:102A200004D07B691B6A7A69100098470C23FB1855
:102A30001B888022134010D03B6980221A753B69A5
:102A400080221A760F23FB181B784022134004D0F3
:102A50007B695B6A7A6910009847C046BD4606B03C
:102A600080BDC046DC000020912600001526000035
:102A7000C5260000FD26000080B582B000AF78605A
:102A80007B6800221A70C046BD4602B080BDC046B9
:102A900080B586B000AFF860B9607A601623FB1885
:102AA00000221A80BB683B61BB685A08FB689A42E7
:102AB00001D2402326E0BB685B083B610AE03A692B
:102AC000FB68D31A3B611623FB181A881623FB18E0
:102AD00001321A803A69FB689A42F0D21623FB1839
:102AE0001622BA181288013A1A801623FB181B887E
:102AF000FF2B01D9402305E07B681622BA18128803
:102B00001A8000231800BD4606B080BD80B584B091
:102B100000AF0200FB1D1A70BB1D0A1C1A701A4B75
:102B20001B7801225340DBB2002B03D1BB1D1B7865
:102B3000002B1BD00C23FB181800144B98470C23B8
:102B4000FB18FA1D12781A700C23FB1819001320B9
:102B50000F4B984713200F4B98470B4BFA1D1278D9
:102B60005A70094B01221A70002308E0064B5B786B
:102B7000FA1D12789A4201D1002300E01D231800AB
:102B8000BD4604B080BDC04624000020792A000064
:102B90004D3900009139000080B582B000AF7860F7
:102BA0000A00FB1C1A707B684D4A93423FD04C4A86
:102BB000934206D84B4A93420FD04B4A934221D0BE
:102BC00089E04A4A934200D15BE0494A934200D1EE
:102BD0006CE0484A93423FD07DE0FB1C1B78012B00
:102BE0000AD002DC002B05D075E0022B06D0032BA7
:102BF00006D070E0404B6FE0404B6DE0404B6BE027
:102C0000404B69E0FB1C1B78012B0AD002DC002B37
:102C100005D060E0022B06D0032B06D05BE0032337
:102C20005AE0394B58E0394B56E0394B54E0FB1C25
:102C30001B78012B0AD002DC002B05D04BE0022BC5
:102C400006D0032B06D046E0324B45E0324B43E042
:102C5000324B41E0324B3FE0FB1C1B78012B0AD08A
:102C600002DC002B05D036E0022B06D0032B06D069
:102C700031E02C4B30E02C4B2EE02C4B2CE02C4B3D
:102C80002AE0FB1C1B78012B0AD002DC002B05D0AC
:102C900021E0022B06D0032B06D01CE0254B1BE0C5
:102CA000254B19E0254B17E0254B15E0FB1C1B7845
:102CB000012B0AD002DC002B05D00CE0022B06D041
:102CC000032B06D007E01F4B06E01F4B04E01F4B11
:102CD00002E01F4B00E000231800BD4602B080BD9B
:102CE0000010004200080042000C004200180042A0
:102CF000001C004200140042030004000300050011
:102D000003000600030007000300010003001E008B
:102D100003001F00030008000300090003000A006D
:102D200003000B0003001000030011000300120059
:102D30000300130003000C0003000D0003000E004D
:102D400003000F0003001600030017000300180023
:102D50000300190090B58BB000AF78600C23FB180E
:102D60000F4A13CA13C313CA13C300237B620EE0B6
:102D70000C23FB187A6A9200D3581A1E7B689A4279
:102D800002D17B6ADBB206E07B6A01337B627B6A3D
:102D9000052BEDD900231800BD460BB090BDC046F1
:102DA0008457000080B582B000AF0200FB1D1A708E
:102DB000C046BD4602B080BD80B584B000AF020001
:102DC0003960FB1D1A70134B1B7801225340DBB294
:102DD000002B15D00023FB600CE00F4BFA6892002B
:102DE0000E49D1500E4BFA6892000021D150FB6879
:102DF0000133FB60FB68052BEFD9064B01221A70EB
:102E0000FB1D1A78044B92003968D150C046BD466C
:102E100004B080BD2600002028000020A52D000061
:102E2000DC00002090B585B000AF78600823FA1868
:102E30000C4B1000190006231A000B4B98470F2368
:102E4000FC187B681800094B9847030023700F2378
:102E5000FB181B780822BA18D35C5BB21800BD4679
:102E600005B090BD9C57000001570000552D000093
:102E700080B500AF034B1B6800209847C046BD4695
:102E800080BDC0462800002080B500AF034B5B68C2
:102E900001209847C046BD4680BDC046280000209E
:102EA00080B500AF034B9B6802209847C046BD46E3
:102EB00080BDC0462800002080B500AF034BDB6812
:102EC00003209847C046BD4680BDC046280000206C
:102ED00080B500AF034B1B6904209847C046BD4630
:102EE00080BDC0462800002080B500AF034B5B6961
:102EF00005209847C046BD4680BDC046280000203A
:102F000080B582B000AF78607B6880221A707B68E1
:102F100000225A707B6801229A707B680022DA7066
:102F2000C046BD4602B080BD80B584B000AF02008F
:102F30003960FB1D1A700C23FB181800104B9847C2
:102F40000C23FB1880221A703B681A780C23FB189C
:102F50005A703B685A780C23FB189A703B689A7831
:102F60000C23FB18DA700C23FA18FB1D1B781100D8
:102F70001800044B9847C046BD4604B080BDC0460B
:102F8000012F0000393C000080B500AFC046BD46AF
:102F900080BDC04680B582B000AF104B1B68002BCF
:102FA00012D1EFF310837B607B68002B09D172B6DE
:102FB000BFF35F8F0A4B00221A700A4B01221A706E
:102FC00002E0084B00221A70044B1B685A1C034B8A
:102FD0001A60C046BD4602B080BDC0464000002019
:102FE000000000204400002080B500AF0B4B1B68A0
:102FF0005A1E0A4B1A60094B1B68002B0AD1084B5A
:103000001B78DBB2002B05D0064B01221A70BFF3F0
:103010005F8F62B6C046BD4680BDC04640000020FE
:10302000440000200000002080B582B000AF78602E
:103030007B6801225A607B6800225A707B680622F6
:103040001A707B6800221A727B6800225A72C0468E
:10305000BD4602B080BDC04680B582B000AF78608A
:103060007B6801225A707B6801229A707B6800227B
:10307000DA707B6801221A717B6807221A707B68FC
:1030800000225A71C046BD4602B080BD80B582B0F4
:1030900000AF78607B6803221A707B6800225A7048
:1030A0007B6801229A70C046BD4602B080BDC04612
:1030B00080B582B000AF0200FB1D1A70034AFB1DF1
:1030C0001B781372C046BD4602B080BD00040040AC
:1030D00080B582B000AF0200FB1D1A70BB1D0A1C38
:1030E0001A70FB1D1B78012B08D0022B0BD0002B74
:1030F0000ED10B4ABB1D1B7853720BE0084ABB1D57
:103100001B78937206E0064ABB1D1B78D37201E060
:10311000172300E000231800BD4602B080BDC04662
:103120000004004080B582B000AF0200FB1D1A70A1
:10313000084AFB1D1B780F210B40D9B253680F20A2
:10314000014049001E2083430B435360C046BD46E7
:1031500002B080BD0040004180B500AFC046044BC6
:10316000DB6810221340FAD0C046BD4680BDC04681
:103170000008004080B500AF0C4B02229A840C4B33
:1031800098470A4A0B4B9B68D362084A094B5B6815
:103190009362064B00229A84054B9847034A054BDD
:1031A0001B689BB29384C046BD4680BD00080040AA
:1031B000593100004800002080B582B000AF020005
:1031C000FB1D1A70FB1D1B78082B40D89A00224B60
:1031D000D3181B689F46214B1B6939E0204B1B6AA3
:1031E0009B059B0FDBB21A001E4BD34030E08023BF
:1031F0001B022DE080231B022AE0184B5B6927E0AD
:10320000164B1B680222134001D1002320E0164B0D
:103210009847124B1B680422134009D00020134B1F
:10322000984702000D4B9B681B041B0C53430FE097
:103230000F4B0DE00A4A5023D35CDBB21A00042383
:10324000134001D1002303E0044BDB6800E00023BE
:103250001800BD4602B080BDA45700004800002001
:103260000008004000127A0059310000713A000055
:10327000006CDC0280B584B000AF78601A4B1B6A2A
:10328000FB607B681B781A1C03231340DAB20D2302
:10329000FB1803210A4010001A7803218A43111CED
:1032A000021C0A431A707B689A780C23FB18D00121
:1032B0001A787F210A40111C021C0A431A707B688D
:1032C0005A780C23FB1801210A4090011A784021FA
:1032D0008A43111C021C0A431A70034BFA681A62D3
:1032E000C046BD4604B080BD0008004080B584B033
:1032F00000AF78602F4B9B69FB607B685A780C238A
:10330000FB1801210A40D0001A7808218A43111CB9
:10331000021C0A431A707B689A780C23FB1801215F
:103320000A4090001A7804218A43111C021C0A43A7
:103330001A707B681B781A1C07231340DAB20D231E
:10334000FB1807210A4010001A7807218A43111C34
:10335000021C0A431A707B681A790C23FB18D001EF
:103360001A787F210A40111C021C0A431A707B68DC
:10337000DA780C23FB1801210A4090011A784021C9
:103380008A43111C021C0A431A707B685A790D2368
:10339000FB1801210A4010011A7810218A43111CE0
:1033A000021C0A431A70034BFA689A61C046BD4674
:1033B00004B080BD0008004080B582B000AF0200BC
:1033C000FB1D1A70FB1D1B78082B3BD89A00214B64
:1033D000D3181B689F46204B1F4A126A02210A43DA
:1033E0001A62002331E01C4B1B4A926902210A43F6
:1033F0009A6129E0184A184B1B8A9BB202210B43A1
:103400009BB2138220E0144A134B9B8A9BB2022189
:103410000B439BB2938217E0104B1B6802221A43A6
:103420000E4B1A600E4B98470EE00B4A0A49442394
:10343000CB5CDBB202210B43D9B24423D15403E06D
:10344000002302E0172300E000231800BD4602B06D
:1034500080BDC046C857000000080040480000205A
:103460007531000080B582B000AF3B0001221A70B8
:1034700000237B6009E07B68DBB23A001100180092
:10348000054B98477B6801337B607B68242BF2D91E
:10349000C046BD4602B080BD4D39000080B5A2B027
:1034A00000AF4F4BC222D2009A6000204D4B98478C
:1034B0004D4B98474A4A4D4B1B689B09DBB2191C80
:1034C0007F230B40D9B293697F200140090448480B
:1034D00003400B4393618023FB181800454B98472A
:1034E0008023FB1807221A708023FB1801225A70D0
:1034F0008023FB1801229A708023FB1801221A7185
:103500008023FB180022DA708023FB1818003A4B46
:1035100098470420394B98477C23FB181800384BF8
:1035200098477C23FB1800221A707C23FB18012289
:103530009A707C23FB1800225A707C23FB18180019
:10354000304B984706202D4B98472F4B98475823D0
:10355000FB1818002D4B98475823FB1804221A70AB
:103560005823FB1820225A605823FB1800221A7295
:103570005823FB1800225A725823FB181900022006
:10358000234B98470220234B98470020224B984713
:1035900000210020214B9847002101201F4B984714
:1035A000002102201D4B98473B1D1800174B9847E0
:1035B0003B1D06221A703B1D01225A603B1D002252
:1035C0001A723B1D00225A723B1D19000020104B3D
:1035D000984700200F4B9847C046BD4622B080BD9B
:1035E00000080040253100006534000024608000A0
:1035F000FFFF80FF59300000ED320000B9330000BA
:103600008D30000075320000C53600002930000002
:10361000F536000019380000B1300000D13000004C
:1036200080B582B000AF02003960FB1D1A70FB1D2F
:103630001B78012B0AD0022B0FD0002B14D10E4B7C
:103640000D4A91693A680A439A610FE00A4B0A4AA7
:10365000D1693A680A43DA6108E0074B064A116A01
:103660003A680A431A6201E0172300E000231800B9
:10367000BD4602B080BDC0460004004080B500AF2A
:10368000024B9847C046BD4680BDC046952F0000FE
:1036900080B500AF024B9847C046BD4680BDC046CE
:1036A000E92F000080B500AF054B5B78DBB25BB261
:1036B000002B01DA012300E000231800BD4680BD85
:1036C000000C004080B500AF08210020074B984750
:1036D000074B01221A70C046054B1B78DBB21A005B
:1036E00001231340F8D1C046BD4680BD21360000FD
:1036F000000C004080B586B000AF02003960FB1DB1
:103700001A70FB1D1B787B61FB1D1B783B613B68BE
:103710001B781B021A007B6913437B613B685B7853
:10372000002B04D07B698022D20213437B613B686B
:103730005B7A002B04D07B698022120313437B61E8
:103740003B685B68012B2CD93B685A683B685B6817
:10375000013B13401AD10023FB600223BB6005E04C
:10376000FB680133FB60BB685B00BB603B685A6869
:10377000BB689A42F4D8FB681B023A6913433B6169
:103780007B698022520313437B610AE03B685B68DC
:103790001B023A6913433B617B6980229202134307
:1037A0007B613B681B7A002B04D07B6980229203EB
:1037B00013437B61C046134B9847031EFBD1124B4A
:1037C0009847124AFB1D1B781370C0460D4B984753
:1037D000031EFBD10E4B3A699A60C046094B9847CD
:1037E000031EFBD10A4B0A4A516880225202114043
:1037F0007A690A435A60074B9847C046BD4606B0EF
:1038000080BDC046A53600007D360000080C004093
:10381000000C00409136000080B582B000AF02007D
:10382000FB1D1A70C0460E4B9847031EFBD10D4B73
:1038300098470D4AFB1D1B781370C046084B9847EC
:10384000031EFBD1094B094A5268802149020A43F1
:103850005A60074B9847C046BD4602B080BDC0467F
:10386000A53600007D360000040C0040000C00402E
:103870009136000080B586B000AF0200FB1D1A70C3
:10388000C0462A4B9847031EFBD1294B9847294A2B
:10389000FB1D1B781370C046244B9847031EFBD1B9
:1038A000254B5B68DB04DB0EDBB21800234B98472B
:1038B00003007B611F4AFB1D1B7813701E4B5B6866
:1038C000DB02DB0FDAB21323FB181A701C4AFB1D54
:1038D0001B781370C046154B9847031EFBD1164B3F
:1038E0009B681B021B0C9BB2FB60164B9847132373
:1038F000FB181B78002B09D1FB68012B06D9124B52
:10390000F9687869984703007B610AE01323FB1884
:103910001B78002B05D0FB6801337A69DA4013006D
:103920007B617B691800BD4606B080BDA5360000EE
:103930007D360000040C0040000C0040B93100004E
:10394000080C0040913600009D55000080B584B001
:1039500000AF02003960FB1D1A70FB1D1B78FB6075
:103960003B681B781B021A00FB681343FB60FB1DBE
:103970001B781800044B9847044BFA6892B25A809F
:10398000C046BD4604B080BDD9390000000C0040DF
:1039900080B582B000AF0200FB1D1A700A4B984739
:1039A0000A4AFB1D1B7813700949094B5B889BB2BF
:1039B0008022D20113439BB24B80064B9847C046EE
:1039C000BD4602B080BDC0467D360000020C0040FE
:1039D000000C00409136000080B584B000AF0200BA
:1039E000FB1D1A701C4B98471C4AFB1D1B7813705B
:1039F0001B4B5B881B051B0FDBB2FB60184A53880F
:103A000018490B405380164A154B5B889BB21649E8
:103A10000B409BB25380C046114B5B889BB21A008F
:103A20008023DB011340F7D10D4AFB68DBB2191C80
:103A30000F230B40D9B25388081C0F210140080204
:103A400008490B40191C031C0B435380074B984734
:103A5000C046BD4604B080BD7D360000020C00406B
:103A6000000C0040FFF0FFFFFFBFFFFF913600009A
:103A700080B584B000AF0200FB1D1A700D4B984753
:103A80000D4AFB1D1B7813700C4B5B881B051B0F2D
:103A9000DAB20F23FB181A70094B98470F23FB1853
:103AA0001B781800074B984703001800BD4604B068
:103AB00080BDC0467D360000020C0040000C004076
:103AC000913600007538000080B584B000AF020068
:103AD000FB1D1A700F23FB18FA1D1278D2091A70F9
:103AE0000E23FB18FA1D127852091A700D4BBB6099
:103AF0000F23FB181B78002B0FD10F23FB181B780B
:103B00009B0010229446BC446344083B1A680E2371
:103B1000FB181B78DB01D31800E000231800BD461A
:103B200004B080BD0044004180B588B000AFF860AB
:103B3000B9607A600023FB617B68DB780122534027
:103B4000DBB2002B35D07B681B78802B0BD0FB6958
:103B5000802252021343FB617B681B781B061A000C
:103B6000FB691343FB617B685B78002B03D07B68A8
:103B70005B78022B10D1FB69802292021343FB6118
:103B80007B689B78002B04D0FB698022D202134310
:103B9000FB61FB68BA685A607B685B78012B03D0D5
:103BA0007B685B78022B07D1FB69224A1340FB61DB
:103BB00002E0FB68BA685A60BB681B041B0CBB615F
:103BC000BB681B0C7B61BA69FB691343A022D20559
:103BD0001A43FB689A627A69FB691343D022120682
:103BE0001A43FB689A627B68DB7801225340DBB2A0
:103BF000002B1AD0FA698023DB0213400AD07B68BD
:103C00009B78012B03D1FB68BA689A6102E0FB68DC
:103C1000BA685A617B685B78012B03D07B685B785C
:103C2000022B02D1FB68BA689A60C046BD4608B054
:103C300080BDC046FFFFFBFF80B584B000AF02002F
:103C40003960FB1D1A70FB1D1B7818000A4B984742
:103C50000300FB60FB1D1B781F22134001229A40CA
:103C60001300BB603A68B968FB681800034B9847BB
:103C7000C046BD4604B080BDC93A0000293B0000E3
:103C800080B500AFC046BD4680BDC04680B500AF20
:103C9000064B9847064B9847064B9847064B984764
:103CA000064B9847C046BD4680BDC0469D340000C7
:103CB000892F0000813C000071020000813C00005F
:103CC00080B582B000AF2F4B7B602F4B3B607A6892
:103CD0003B689A420CD007E03B681A1D3A607A684C
:103CE000111D796012681A603A68284B9A42F3D322
:103CF000274B3B6004E03B681A1D3A6000221A60C3
:103D00003A68244B9A42F6D3234B7B60234B7A6864
:103D1000FF218A439A60224A90235B000221D150FE
:103D2000204AD37803218B43191C02230B43D37001
:103D30001C4AD3780C218B43191C08230B43D370E6
:103D4000194A937B30218B43191C20230B43937317
:103D5000154A937B0C218B43191C08230B43937347
:103D6000114A937B03218B43191C02230B4393734A
:103D70000E4A536880210B4353600D4B98470D4BFF
:103D80009847FEE73458000000000020080000209B
:103D900008000020980200200000000000ED00E074
:103DA00000700041005000410048004100400041C7
:103DB000B55600003152000080B500AFFEE7C046A6
:103DC00080B584B000AF0200FB1D1A700F23FB18F2
:103DD000FA1D1278D2091A700E23FB18FA1D1278F8
:103DE00052091A700D4BBB600F23FB181B78002B78
:103DF0000FD10F23FB181B789B0010229446BC4464
:103E00006344083B1A680E23FB181B78DB01D318A8
:103E100000E000231800BD4604B080BD004400410E
:103E200080B582B000AF0200FB1D1A70FB1D1B782D
:103E30001800034B984703001800BD4602B080BD30
:103E4000C13D000080B582B000AF78607B68002281
:103E50001A707B6801225A707B6800229A70C046F3
:103E6000BD4602B080BDC04680B584B000AF020040
:103E7000FB1D1A70FB1D1B7818000B4B98470300A5
:103E8000FB60FB1D1B781F22134001229A40130088
:103E9000BB60FB681B6ABA6813405A1E9341DBB2D1
:103EA0001800BD4604B080BD213E000080B584B03E
:103EB00000AF0200FB1D1A70BB1D0A1C1A70FB1D0F
:103EC0001B7818000D4B98470300FB60FB1D1B7807
:103ED0001F22134001229A401300BB60BB1D1B78B8
:103EE000002B03D0FB68BA689A6102E0FB68BA68ED
:103EF0005A61C046BD4604B080BDC046213E0000A8
:103F000080B500AF044B01221A70BFF35F8F62B619
:103F1000C046BD4680BDC0460000002080B500AF51
:103F200072B6BFF35F8F034B00221A70C046BD46C6
:103F300080BDC0460000002080B582B000AF020006
:103F4000FB1D1A70064BFA1D127811001F220A4041
:103F5000012191400A001A60C046BD4602B080BDF2
:103F600000E100E080B584B000AF78607B68A022FB
:103F700012011A807B6801229A707B680022DA7035
:103F80007B6800221A710F23FB1800221A700EE0C2
:103F90000F23FB181A787B68023292000021D1505F
:103FA0000F23FB181A780F23FB1801321A700F2306
:103FB000FB181B78012BEBD9C046BD4604B080BD71
:103FC00080B584B000AF78607B681B68FB60FB68DD
:103FD000DB695A1E9341DBB21800BD4604B080BDB8
:103FE00080B582B000AF78607B6801221A707B6870
:103FF00000225A607B6800229A607B68C02292038C
:10400000DA607B6800221A747B6800225A747B682D
:1040100001229A747B680122DA747B6800221A7587
:104020007B682422002199547B6818330C220021DC
:1040300018000A4B98477B68094A9A617B680022FE
:104040009A627B680022DA627B6800221A637B68CE
:1040500000225A63C046BD4602B080BD135700001F
:10406000A086010080B582B000AF78607B680A222C
:104070001A707B6800225A707B6800229A70C046D2
:10408000BD4602B080BDC04680B584B000AF786048
:1040900039603B681A787B681A703B685A787B688D
:1040A0005A703B689A787B689A700C23FB1818004A
:1040B0000B4B98470C23FB1801221A707B681B7866
:1040C0000C22BA1811001800064B98477B681B7821
:1040D00001211800044B9847C046BD4604B080BD7E
:1040E000453E0000292F0000AD3E000080B584B0A1
:1040F00000AF78607B681B68FB607B681B681800FA
:104100000B4B9847030018000A4B9847C0467B6842
:104110001800094B9847031EF9D1FB681B6802225F
:104120001A43FB681A60C046BD4604B080BDC04655
:10413000252E0000393F0000C13F000080B584B04B
:1041400000AF78607B681B68FB60C046FB689B68BB
:1041500002221340FAD1FB681B6802221A43FB6853
:104160001A60C046BD4604B080BDC04680B582B06E
:1041700000AF3B1D1800074B98473B1D00221A70EB
:104180003B1D19000320044B9847C046BD4602B0B2
:1041900080BDC046453E0000292F000080B584B098
:1041A00000AF3B1D18000B4B98473B1D03221A60C4
:1041B0003B1D00225A603B1D01221A723B1D012249
:1041C000DA723B1D19000320034B9847C046BD46D9
:1041D00004B080BDB5030000E903000080B500AF66
:1041E000064B002203211800054B984700210320AD
:1041F000044B9847C046BD4680BDC046014D0000F7
:10420000590E0000BD0E000080B590B000AF3B1D00
:104210001800214B98473B1D12221A703A1D1F4B64
:10422000110018001E4B98470823FB1818001D4B5F
:1042300098470823FB18C0229203DA600823FB1872
:10424000194A9A620823FB18184ADA620823FB18F5
:10425000012252421A630823FB18154A5A630823A5
:10426000FB1800225A600823FB1800229A600823DA
:10427000FA181049104B1800104B98470E4B1800B5
:104280000F4B984705490C4B002218000D4B9847DF
:10429000C046BD4610B080BD6540000094020020BD
:1042A00089400000E13F0000020010000200110000
:1042B00002001300000C004214020020352200000E
:1042C000ED4000002525000080B584B000AF3B0024
:1042D00018000F4B98473B0000221A803B00002239
:1042E0009A703B0001221A713A000A490A4B1800E1
:1042F0000A4B9847084B1800094B9847094A064B48
:1043000011001800084B9847C046BD4604B080BD58
:10431000653F000000140040F8000020E5070000A1
:10432000DD05000010270000C909000080B500AFBE
:10433000054B00211800054B9847034B1800044B10
:104340009847C046BD4680BDF800002075080000B3
:10435000DD05000080B582B000AF00237B60054B17
:104360001800054B984703007B607B681800BD462A
:1043700002B080BDF8000020D508000090B585B0DF
:1043800000AF0400396010001900FB1D221C1A70D8
:10439000BB1D021C1A707B1D0A1C1A7001204B4B9E
:1043A0009847C04627204A4B984703005BB2002B32
:1043B000F8DA00212520474B9847BB1D1B783D2B81
:1043C00002D9BB1D3D221A700E23FB1800221A7061
:1043D0002023FB181B78002B04D00E23FB1880220F
:1043E0001A7007E07B1D1B78002B03D00E23FB18EF
:1043F00040221A70384B9847384A394B80211800B0
:10440000384B9847BB1D1B789BB2033399B2334A94
:10441000334B1800334B9847FB1D1B7899B22F4A3A
:104420002F4B18002F4B98472F4B1B78DBB299B2BC
:104430002A4A2B4B18002B4B98470E23FB181B784E
:10444000DBB299B2254A264B1800264B98470F231A
:10445000FB1800221A7012E00F23FB181B783A6831
:10446000D3181B7899B21D4A1D4B18001D4B984755
:104470000F23FB181A780F23FB1801321A700F2331
:10448000FA18BB1D12781B789A42E5D3174B984750
:1044900004200E4B9847164B9847C0460320154BF7
:1044A000984703001A0001235340DBB2002B05D0CC
:1044B000114B9847021E114B9A42EFD90120034B32
:1044C0009847C046BD4605B090BDC0461D49000096
:1044D000094F0000714F0000D14F00006000002024
:1044E00014020020D923000054010020FD4F0000D9
:1044F0002D430000693E000055430000E703000023
:1045000080B582B000AF0200FB1D1A70194BFA1D76
:1045100012781A70174B1B78DBB2002B01D00F23D7
:1045200000E01A2319001320134B9847114B1B78F6
:10453000DBB2002B10D01120104B984703005BB268
:104540001F2213405BB2602213435BB2DBB219003F
:104550001120094B984709E0094B1B7880225242F1
:104560001343DBB219001120034B9847C046BD46E8
:1045700002B080BD10020020714F0000094F000002
:104580001001002080B500AF074B01221A80074BB5
:1045900000221A70064B1F221A70064B00221A7056
:1045A000C046BD4680BDC0460E0200205C01002012
:1045B000100100201002002090B591B000AF04005F
:1045C00008001100FB1D221C1A70BB1D021C1A7072
:1045D0007B1D0A1C1A70C14B98471023FB1801223F
:1045E0001A701023FB1804225A701023FB180222A1
:1045F0009A701023FB180022DA701023FB18032294
:104600001A711023FB1802225A711023FB1804227E
:104610009A711023FB184022DA711023FB1805222F
:104620001A721023FB1803225A721023FB18062259
:104630009A721023FB183322DA721023FB18072218
:104640001A73FB1D1B781F2B0DD0FB1D1B782B2B0A
:1046500007D0FB1D1B78562B01D1D92304E0E4239E
:1046600002E06C2300E04E231022BA18537310238B
:10467000FB1808229A73FB1D1B781F2B0DD0FB1D06
:104680001B782B2B07D0FB1D1B78562B01D1002349
:1046900004E0C02302E0402300E0C0231022BA1847
:1046A000D3731023FB1809221A741023FB1800225D
:1046B0005A741023FB1819229A741023FB184222F3
:1046C000DA741023FB1825221A751023FB184022D8
:1046D0005A751023FB1826229A751023FB180722FF
:1046E000DA751023FB1828221A761023FB181022E3
:1046F0005A761023FB1829229A761023FB18DC2205
:10470000DA761023FB182E221A771023FB18882242
:104710005A771023FB182F229A771023FB182D228B
:10472000DA771023FB182022302199541023FB182C
:104730007A1D212112785A541023FB182222372186
:1047400099541023FB182322902199541023FB180D
:104750002422382199541023FB18252242219954F0
:104760001023FB1826223C2199541023FB182722E2
:104770008F2199541023FB1828223D21995410238E
:10478000FB182922122199541023FB182A226F2189
:1047900099541023FB182B22302199541023FB1815
:1047A0002C22FF2199541023FB182D22002199540B
:1047B0004B4B98474B4B98474B4B98474B4B984725
:1047C0004B4B98470F23FB1832221A70AA212F2037
:1047D000484B98472F20484B9847031EAA2B08D0D8
:1047E000464B984702000F23FB181B78DBB29A4216
:1047F000ECD33F4B984755212F203E4B98472F2015
:104800003D4B9847031E552B08D03C4B9847020060
:104810000F23FB181B78DBB29A42ECD33F23FB1823
:1048200000221A7019E03F23FB181A781023FB1896
:104830005200D05C3F23FB181B781022BA185B0093
:10484000D31801331B7819002A4B98473F23FB18D4
:104850001A783F23FB1801321A703F23FB181A788D
:104860001023FB185200D35CFF2BDCD10020244B1B
:104870009847244B1B78DBB21800234B9847012044
:10488000224B98471A4B9847C04627201A4B984707
:1048900003005BB2002B08DB184B984702000F2384
:1048A000FB181B78DBB29A42EFD3144B98470200F7
:1048B0000F23FB181B78DBB29A4201D3002309E0D7
:1048C000134B00221A70134B9847134BBA1D1278E2
:1048D0001A7001231800BD4611B090BD8545000037
:1048E00009420000C94200006D4100009D410000E6
:1048F0002D430000714F0000094F00005543000098
:10490000154E000010020020014500001D49000066
:1049100011010020DD4100005401002080B582B06B
:1049200000AF0200FB1D1A70FB1D1B789AB2474BAB
:104930001B889BB29A4200D181E0FB1D1B78042B9F
:1049400000D97EE09A00424BD3181B689F46012095
:10495000404B984703005BB21C2293435BB20C228E
:1049600013435BB2DBB2190001203B4B98473B4B32
:104970001B78DBB2002B4CD00120394B984748E024
:104980000120344B984703005BB21C2293435BB277
:10499000102213435BB2DBB2190001202E4B984763
:1049A0002E4B1B78DBB2002B35D000202C4B9847C8
:1049B00031E00120274B984703005BB21C22934350
:1049C0005BB2082213435BB2DBB219000120224B19
:1049D000984721E001201F4B984703005BB21C223F
:1049E00093435BB2042213435BB2DBB21900012094
:1049F000194B984710E00120164B984703001A0006
:104A00001C239A431300DBB219000120124B984774
:104A100002E0C04600E0C046C0460C4B1B889BB27B
:104A2000002B06D127200B4B984703005BB2002BCD
:104A3000F3DAFB1D1B789AB2044B1A8002E0C046E1
:104A400000E0C046BD4602B080BDC0460E02002058
:104A5000EC570000094F0000714F000010020020C9
:104A60002950000080B500AF0B4B1B889BB2032B75
:104A70000ED10A4B1B889BB2002B09D1084B9847DB
:104A800003005A3304DA0120064B9847012300E063
:104A900000231800BD4680BD0E020020DC0100206E
:104AA000C94E00001D49000090B585B002AF04005A
:104AB000396010001900FB1D221C1A70BB1D021C5E
:104AC0001A707B1D0A1C1A703D20174B9847030073
:104AD0001A0004231343DBB219003D20134B9847FF
:104AE000134B984701E0134B9847134B984703002B
:104AF0001A0001235340DBB2002B05D00F4B98471F
:104B0000021E0F4B9A42EED97B1D1C78BB1D1A78F2
:104B10003968FB1D1878002300932300094CA04737
:104B2000C046BD4603B090BD094F0000714F000064
:104B30002D430000B94D0000654A000055430000B8
:104B4000E70300007D43000080B582B000AF584B02
:104B50001B889BB2032B00D0A1E02820554B98471F
:104B600003001A000423134000D198E00120524BA7
:104B70009847524B9847524A524B00211800524BCB
:104B80009847524A4F4B002118004F4B98474F4BC4
:104B90001B889BB2422B03D84C4B1B889AB200E077
:104BA00042224A4B1A804A4A464B00211800464B83
:104BB0009847484B1B78DBB201225340DBB2002BF5
:104BC0000DD0454B1B78DBB29AB2414B1B889BB290
:104BD0009A4204D03E4B1B889BB2FF2B04D13B4B27
:104BE0001B889BB2022B07D8384B00221A803B4B04
:104BF00098473B4B984758E0344B1B889BB2033B8C
:104C00009AB2384B1A80384A2E4B002118002E4B8E
:104C10009847BB1D00221A70BA1D2A4B00211800AC
:104C2000294B9847BB1D1B789BB2802213409AB238
:104C30002E4B1A80BB1D1B789BB2402213409AB2A8
:104C40002B4B1A80FB1D00221A700EE0FB1D1B78F7
:104C50005A00284BD2181B4B002118001A4B9847BA
:104C6000FB1D1A78FB1D01321A70FB1D1B789AB2CE
:104C70001C4B1B889BB29A42E8D31A4B1B889BB2F1
:104C80003C2B07D8174B1B889BB21A00194B5200BC
:104C90000021D152114B98470320074B9847164BE0
:104CA000984703001A00154B1A80BD4602B080BD1C
:104CB0000E020020094F00001D490000D14F0000E6
:104CC0006000002014020020D9230000DC01002035
:104CD0000C0200205C01002054010020FD4F000068
:104CE000254D00005A010020F60000205801002048
:104CF0000A02002060010020C94E0000500200207E
:104D000080B500AF054B01221A70054B9847034B45
:104D100000221A70C046BD4680BDC0461101002069
:104D2000494B000080B500AF194B00221A80194B87
:104D300000221A80184B00221A80184B00221A8079
:104D4000174B00221A80174B00221A80164B0022A4
:104D50001A802820154B984703001A00042313409B
:104D60000BD03D20114B984703001A000423134336
:104D7000DBB219003D200E4B9847402125200C4BFB
:104D8000984703200B4B9847C046BD4680BDC046A0
:104D90005A010020F60000200C020020DC01002057
:104DA0000A0200205801002050020020094F000094
:104DB000714F00001D49000080B500AF0F4B9847B0
:104DC0000F4B1B889BB2032B09D10E4B1B889BB248
:104DD000002B04D001200C4B984701230BE0084B1B
:104DE0001B889BB2032B03D1084B9847002302E09A
:104DF000074B984700231800BD4680BD1D3F0000AB
:104E00000E020020DC0100201D490000013F0000CF
:104E1000254D000080B584B000AF78600120224BA2
:104E200098477B68002B26D0204B9847204A214B7F
:104E3000BE211800204B98470F23FB1800221A7040
:104E400012E00F23FB181B787A68D3181B7899B2ED
:104E5000174A184B1800184B98470F23FB181A785D
:104E60000F23FB1801321A700F23FB181B780F2B2E
:104E7000E7D9124B98473D20114B984703005BB28E
:104E8000012293435AB27B68591E8B41DBB25BB25D
:104E900013435BB2DBB219003D200A4B9847C04672
:104EA000BD4604B080BDC0461D490000D14F000082
:104EB0006000002014020020D9230000FD4F0000F4
:104EC000094F0000714F000080B582B000AFBB1DDC
:104ED00000221A8024200B4B984703009BB25B42B0
:104EE0009BB21AB2BB1D1A80BB1D1B881BB25B1084
:104EF0001AB2BB1D1A80BB1D1B881BB21800BD4611
:104F000002B080BD094F000080B584B000AF020040
:104F1000BB1D1A80114B9847BB1D1B889BB27F227B
:104F2000134099B20E4A0F4B18000F4B98470E23AF
:104F3000FB1800221A800E23FA180A4B00211800D1
:104F4000094B9847094B98470E23FB181B889BB2C7
:104F5000DBB21800BD4604B080BDC046D14F000092
:104F60006000002014020020D9230000FD4F000043
:104F700080B582B000AF0200FB1D1A70BB1D0A1C79
:104F80001A700E4B9847FB1D1B7880225242134328
:104F9000DBB299B20A4A0B4B18000B4B9847BB1D6A
:104FA0001B7899B2064A074B1800074B9847074BE6
:104FB0009847C046BD4602B080BDC046D14F0000F4
:104FC0006000002014020020D9230000FD4F0000E3
:104FD00080B500AF054B98470549064B01221800E4
:104FE000054B9847C046BD4680BDC0461D3F0000EA
:104FF00094020020140200202525000080B500AF97
:105000000549064B00221800054B9847054B984769
:10501000C046BD4680BDC046940200201402002058
:10502000252500006D50000080B582B000AF020061
:10503000FB1D1A70FB1D1B78002B01D05D2300E0C7
:10504000552319005A20084B9847FB1D1B78002B4D
:1050500001D07C2300E0702319005C20024B9847AC
:10506000C046BD4602B080BD714F000080B500AFA4
:10507000064B1B78DBB201225340DBB2002B01D080
:10508000034B9847C046BD4680BDC0461101002075
:10509000013F000080B5AAB000AF324A3B1D1100AD
:1050A0001800314B98473B1D304A5A603B1D022285
:1050B0001A763B1D0022DA613B1D00221A623B1D5D
:1050C0009822012199543B1D9922012199543B1D9D
:1050D00015229A653B1D0E22DA653B1D05229A6753
:1050E0003B1D0522DA673A1D1E49214B1800214B52
:1050F00098471F4B1800204B9847204A3B1D110032
:105100001800194B98473B1D184A5A603B1D022254
:105110001A763B1D0022DA613B1D00221A623B1DFC
:105120009822012199543B1D9922012199543B1D3C
:1051300008229A653B1D0722DA653B1D05229A6706
:105140003B1D0422DA673A1D0C490D4B1800094B30
:1051500098470B4B1800084B9847C046BD462AB0ED
:1051600080BDC0460020004249100000FFFF000043
:1051700014010020A51600003D410000002400425B
:105180005402002080B582B000AF3B1D1800264BB2
:1051900098473B1D00221A703B1D19000420234B29
:1051A00098473B1D19000620204B98473B1D1900CE
:1051B00009201E4B98473B1D19000A201B4B98479E
:1051C0003B1D19000B20194B98473B1D19000C2063
:1051D000164B98473B1D19000D20144B98473B1D5B
:1051E00019000F20114B98473B1D190014200F4B3D
:1051F00098473B1D190022200C4B98473B1D190076
:1052000023200A4B98473B1D19002920074B98473C
:105210003B1D01221A703B1D19002820034B9847A3
:10522000C046BD4602B080BD453E0000292F0000AB
:1052300090B589B000AF0023BB611F23FB1800228B
:105240001A70754B9847754B9847754B98470022D5
:1052500003215B20734B98470120734B9847734B96
:105260001800734B984703237B6100233B61714B0C
:1052700098471F23FB181B78002B02D06E4B9847D2
:1052800005E06E4B0022002100206D4CA04723203A
:105290006C4B984703001A006B4B1A706A4B1B78D3
:1052A000002B1AD0694B1B7801225340DBB2002B34
:1052B00013D0674B1B785A1E9341DBB20122534037
:1052C000DBB21A1C01231340DAB2614B1A70604B37
:1052D0001B78190028205F4B98475F4B98473B008D
:1052E0005A1C3B00110018005C4B9847564B1A782B
:1052F000564B1A705A4B9847031EBAD0594B1B880D
:105300009BB2BB61584B1B889BB2592B03D11F2307
:10531000FB1801221A70544B1B889BB24E2B03D1F1
:105320001F23FB1800221A703B005A1C3B0011007F
:1053300018004A4B98473B0000229A701420414BBA
:1053400098470300D9013B0002229A564BB21343FF
:105350005AB23B009A700C203A4B984703009901CF
:105360003B0002229A564BB213435AB23B009A704A
:105370002920344B9847030059013B0002229A56DA
:105380004BB213435AB23B009A700F202D4B9847F3
:10539000030019013B0002229A564BB213435AB242
:1053A0003B009A702220274B98470300D9003B000E
:1053B00002229A564BB213435AB23B009A700F2006
:1053C000204B9847030099003B0002229A564BB2AB
:1053D00013435AB23B009A700D201A4B98470300B2
:1053E00059003B0002229A564BB213435AB23B007B
:1053F0009A703B0002229A56154B1B785BB21343FE
:105400005AB23B009A70BB69D8B27B69DAB23900F4
:105410000023164CA0472CE78D3C0000955000005F
:1054200085510000B945000001450000005800000A
:10543000154E0000BD0B0000E5540000FFFF00000A
:1054400071540000693E00006200002063000020EB
:1054500064000020AD3E0000090C0000F10C0000CB
:10546000B94D0000F600002060010020A94A0000AC
:10547000B0B582B000AF05000C0010001900BB1DD4
:105480002A1C1A803B1D221C1A80BB1C021C1A807D
:105490003B000A1C1A803B001A880F4B00211800A1
:1054A0000E4B98473B1D1A880B4B032118000B4BE2
:1054B0009847BB1C1A880A4B00211800074B9847D5
:1054C000BB1D1A88064B01211800044B9847C046A3
:1054D000BD4602B0B0BDC046140100204D1B000007
:1054E00054020020B0B500AF274B1B68002B0CD135
:1054F000264B1B689BB2DB4398B2244B1B6899B2C6
:1055000000230022224CA04720E01F4B1B68012BE8
:105510000CD11E4B1B689BB2DB4399B21B4B1B6823
:105520009AB2002300201A4CA0470FE0164B1B68CC
:10553000022B0BD1154B1B6898B2144B1B689BB206
:10554000DB439AB200230021114CA0470F4B1A688D
:10555000104B1B68D2180D4B1A600C4B1B680E4A7F
:1055600093420EDD094B00221A60074B1B685A1C40
:10557000054B1A60044B1B68022B02DD024B002214
:105580001A60C046BD46B0BD680000206C00002017
:105590007154000004000020FEFF000000224308B8
:1055A0008B4274D303098B425FD3030A8B4244D3EB
:1055B000030B8B4228D3030C8B420DD3FF2209022D
:1055C00012BA030C8B4202D31212090265D0030BEC
:1055D0008B4219D300E0090AC30B8B4201D3CB03E2
:1055E000C01A5241830B8B4201D38B03C01A524124
:1055F000430B8B4201D34B03C01A5241030B8B4226
:1056000001D30B03C01A5241C30A8B4201D3CB0210
:10561000C01A5241830A8B4201D38B02C01A5241F5
:10562000430A8B4201D34B02C01A5241030A8B42F8
:1056300001D30B02C01A5241CDD2C3098B4201D310
:10564000CB01C01A524183098B4201D38B01C01A8E
:10565000524143098B4201D34B01C01A5241030905
:105660008B4201D30B01C01A5241C3088B4201D3B4
:10567000CB00C01A524183088B4201D38B00C01A61
:10568000524143088B4201D34B00C01A5241411A88
:1056900000D20146524110467047FFE701B5002095
:1056A00000F006F802BDC0460029F7D076E7704743
:1056B0007047C0460E4B70B500251E000D4CE41A15
:1056C000A410A54204D0AB00F35898470135F8E781
:1056D00000F0A0F8084B00251E00084CE41AA410A6
:1056E000A54204D0AB00F35898470135F8E770BDE8
:1056F00020580000205800002058000024580000C6
:10570000002310B59A4203D0CC5CC4540133F9E7AE
:1057100010BD03008218934202D019700133FAE7DA
:105720007047000000200042002400420028004290
:105730001A1A1B0000010000000200000004000013
:10574000FFFFFF00FFFFFF00FFFF00000402020059
:105750000804020001000000020000000400000034
:1057600008000000001000000020000000400000C1
:1057700000800000000001000000020000000400A2
:105780000000080000080042000C00420010004227
:105790000014004200180042001C0042090A0B0CD1
:1057A0000D0E0000D63100004E3200004E320000D7
:1057B000F4310000EE310000FA310000DC3100006D
:1057C0000032000034320000F433000044340000A2
:1057D0004434000040340000E6330000063400008A
:1057E000D6330000183400002A340000F6490000C7
:1057F000D4490000B2490000804900004E49000031
:10580000544F5053454352455450415353575244BB
:1058100000000000F8B5C046F8BC08BC9E467047C2
:10582000DD000000F8B5C046F8BC08BC9E467047D5
:04583000B5000000BF
:08583400010000006400000007
:0400000300003CC1FC
:00000001FF
