:1000000010220020C52D0000BD2E0000BD2E0000D6
:1000100000000000000000000000000000000000E0
:10002000000000000000000000000000BD2E0000E5
:100030000000000000000000BD2E0000BD2E0000EA
:10004000BD2E0000BD2E0000BD2E0000D90A00000C
:10005000650C0000BD2E0000BD2E0000BD2E00006E
:10006000BD2E0000A11F0000B51F0000C91F000029
:10007000DD1F0000F11F000005200000D10C000072
:10008000E50C0000F90C0000850D0000990D000042
:10009000AD0D00000000000000000000BD2E0000BB
:1000A000BD2E0000BD2E0000BD2E0000BD2E0000A4
:1000B0000000000010B5064C2378002B07D1054B3B
:1000C000002B02D0044800E000BF0123237010BDC4
:1000D00004000020000000001449000008B5084B8F
:1000E000002B03D00748084900E000BF0748036819
:1000F000002B00D108BD064B002BFBD09847F9E739
:10010000000000001449000008000020144900000D
:100110000000000080B582B000AF78607B680022EC
:100120001A70BD4602B080BD80B582B000AF021C1F
:100130003960FB1D1A70FB1D1B78012B0AD0022BA6
:100140000FD0002B14D10E4B0D4A91693A680A4327
:100150009A610FE00A4B0A4AD1693A680A43DA61A8
:1001600008E0074B064A116A3A680A431A6201E03E
:10017000172300E00023181CBD4602B080BDC04616
:100180000004004080B582B000AF78607B688022B8
:100190001A707B6800225A707B6801229A707B6813
:1001A0000022DA70BD4602B080BDC04680B582B084
:1001B00000AF021CFB1D1A70064BFA1D1278111CB1
:1001C0001F220A40012191400A1C1A60BD4602B05C
:1001D00080BDC04600E100E080B584B000AF021CE5
:1001E000FB1D1A700F23FB18FA1D127852091A70A2
:1001F0000F23FB181B78002B0CD1094BBB600F237E
:10020000FB181B789B0010229446BC446344083BB7
:100210001B6800E00023181CBD4604B080BDC0462A
:100220000018004080B582B000AF104B3B60002347
:100230007B6012E07B689B0008229446BC446344C8
:10024000083B1B685B78DBB2DBB25BB2002B01DAE8
:10025000012306E07B6801337B607B68002BE9D0DB
:100260000023181CBD4602B080BDC04600180040E7
:1002700080B584B000AF2C4B7B60002040212B4B1D
:1002800098473B1C181C2A4B98473B1C00221A70AD
:100290003B1C0520191C274B98470520264B9847E7
:1002A0000023FB6018E0FB689B0010229446BC44CE
:1002B00063440C3B1A68FB689B0010218C46BC44CD
:1002C00063440C3B1B681B78DBB201210B43DBB2A0
:1002D0001370FB680133FB60FB68002BE3D0C04662
:1002E000164B9847031EFBD10B23FB1800221A70F4
:1002F0000DE00B23FB181A78114B92000021D1500E
:100300000B23FB181A780B23FB1801321A700B23EE
:10031000FB181B780F2BECD904200A4B98470A4B8B
:100320009847BD4604B080BD001800402901000078
:1003300015010000512A0000952A00002502000046
:1003400060000020AD0100004D03000080B582B0C8
:1003500000AF144B3B6000237B6018E07B689B0080
:1003600008229446BC446344083B1A687B689B009F
:1003700008218C46BC446344083B1B681B78DBB2F5
:1003800002210B43DBB213707B6801337B607B6817
:10039000002BE3D0C046044B9847031EFBD1BD465B
:1003A00002B080BD001800402502000080B582B078
:1003B00000AF78607B6800221A607B6800225A6078
:1003C0007B6801221A727B6801225A727B680022C4
:1003D0009A727B680222DA72BD4602B080BDC046C6
:1003E00080B586B000AF021C3960FB1D1A7008236F
:1003F000FB18181C364B98473B685B68DAB2082339
:10040000FB181A700823FB1800225A703B681A7AEE
:100410000823FB189A703B681B68DAB20823FB18A4
:10042000101C191C2B4B9847FB1D1B78181C2A4BC2
:100430009847031C3B61FB1D1B78072213409B0060
:10044000FB603B68DB7A7B613B689B7A002B03D0C7
:100450007B69082213437B61FB1D1B78DB08DBB241
:10046000181CFB1D1B78DB08DBB21A1C3B6906322B
:100470009200D358FA680F2191400A1CD2431A40C7
:10048000FB68796999400B1C1A43111C3B69821D5A
:100490009200D1503B685B7A002B0AD03B695A69C5
:1004A000FB1D1B78012199400B1C1A433B695A61C3
:1004B0000AE03B695B69FA1D1278012191400A1C30
:1004C000D2431A403B695A61BD4606B080BDC04662
:1004D000850100003D2D0000D901000080B582B0EB
:1004E00000AF78607B6800221A70BD4602B080BD04
:1004F00080B582B000AF021C3960FB1D1A70FB1D75
:100500001B78012B0AD0022B0FD0002B14D10E4BDD
:100510000D4A91693A680A439A610FE00A4B0A4A08
:10052000D1693A680A43DA6108E0074B064A116A62
:100530003A680A431A6201E0172300E00023181CFE
:10054000BD4602B080BDC0460004004080B582B008
:1005500000AF021CFB1D1A70064BFA1D1278111C0D
:100560001F220A40012191400A1C1A60BD4602B0B8
:1005700080BDC04600E100E080B582B000AF021C43
:10058000FB1D1A70074AFB1D1B78191C1F230B400B
:10059000012199400B1C191C8023D150BD4602B08B
:1005A00080BDC04600E100E080B584B000AF786057
:1005B0007B681B68FB60FB689B7ADBB2DBB25BB2DB
:1005C000002B01DA012300E00023181CBD4604B013
:1005D00080BDC04680B584B000AF78607B681B6882
:1005E000FB600320094B9847C0467B68181C084BEA
:1005F0009847031EF9D1FB681B889BB20222134364
:100600009AB2FB681A80BD4604B080BD4D0500005B
:10061000A905000080B584B000AF78607B681B68D6
:10062000FB600320094B9847C0467B68181C084BA9
:100630009847031EF9D1FB681B889BB202229343A3
:100640009AB2FB681A80BD4604B080BD79050000EF
:10065000A905000080B584B000AF78607B681B6896
:10066000FB607B68181C0D4B98477B6800229A82C0
:100670007B680022DA82C0467B68181C084B9847CA
:10068000031EF9D1FB681B889BB2012213439AB267
:10069000FB681A80BD4604B080BDC0461506000048
:1006A000A905000080B584B000AF786039607B6830
:1006B0001B68BB603B681A88BB681A803B689B78E4
:1006C000002B3CD0012B00D070E0BB681B889AB295
:1006D000BB681A803B68DB78002B07D0BB681B889F
:1006E0009BB2802213439AB2BB681A800F23FB1877
:1006F00000221A701DE0C0467B68181C354B9847D5
:10070000031EF9D10F23FB181A783B6802329200BE
:10071000D25879680F23FB181B78081C111C1A1C6F
:100720002D4B98470F23FB181A780F23FB18013223
:100730001A700F23FB181B78002BDCD038E0BB6845
:100740001B889BB2042213439AB2BB681A803B6891
:10075000DB78002B01D0172338E00E23FB18002292
:100760001A701DE0C0467B68181C1A4B9847031E80
:10077000F9D10E23FB181A783B6802329200D25846
:1007800079680E23FB181B78081C111C1A1C124BCD
:1007900098470E23FB181A780E23FB1801321A70A3
:1007A0000E23FB181B78012BDCD901E017230DE089
:1007B0003B681B79002B08D0BB685B889BB280220A
:1007C000D20113439AB2BB685A800023181CBD465D
:1007D00004B080BDA90500003509000080B586B0D1
:1007E00000AFF860B9607A60FB68BA681A600020F0
:1007F0002021174B98471423FB18181C154B9847BA
:100800001423FB1802221A701423FB180420191C4D
:10081000114B98470420114B9847FB68181C104B4C
:1008200098477B689A78FB681A717B681A79FB682D
:100830005A710C4BFA681A60FA687B68101C191C14
:10084000094B9847031C181CBD4606B080BDC04626
:10085000F1040000DD040000512A0000952A000088
:1008600055060000A0000020A506000080B584B059
:1008700000AF786039607B681B68FB60C0467B68AE
:10088000181C104B9847031EF9D17B681B79002B6D
:1008900005D0012B0ED1FB683A681A610CE03B6869
:1008A000094A934201D9172307E03B689AB2FB68D3
:1008B0001A8201E0172300E00023181CBD4604B093
:1008C00080BDC046A9050000FFFF000080B584B0D0
:1008D00000AF78607B681B68BB607B685B79012236
:1008E0005340DBB2002B09D0BB68104A5A80C04687
:1008F0007B68181C0E4B9847031EF9D17B681B7947
:10090000002B05D0012B08D1BB681B69FB6007E0F9
:10091000BB681B8A9BB2FB6002E00023FB60C04601
:10092000FB68181CBD4604B080BDC0460080FFFFB8
:10093000A905000080B586B000AFF860B960FB1D66
:100940001A70FB681B687B61C046FB68181C1A4B59
:100950009847031EF9D1FB681B79002B0FD0012BA0
:1009600022D1FB1D1B78012B01D917231FE0FB1D92
:100970001A787B6906329200B968D15016E0FB1DE7
:100980001B78022B01D9172311E0BB680B4A934255
:1009900001D917230BE0FB1D1A78BB6899B27B695C
:1009A0000C325200D15201E01A2300E00023181C3F
:1009B000BD4606B080BDC046A9050000FFFF00008F
:1009C00080B584B000AF78600A1CBB1C1A807B68BD
:1009D0001B68FB607B681B79002B01D015230BE0A3
:1009E000C0467B68181C064B9847031EF9D1FB686C
:1009F000BA1C12889A820023181CBD4604B080BD20
:100A0000A905000080B586B000AF7860314B7A68E8
:100A10009200D3587B617B691B683B610E23FB18F6
:100A20007A69D28A1A807B699B8A9AB20E23FB1854
:100A30000E21791809880A401A803B691B7ADAB2BC
:100A40000C23FB181A803B69DB79DBB29AB20C23CA
:100A5000FB180C21791809880A401A800C23FB180E
:100A60001B88802213400CD00E23FB181B88042205
:100A7000134002D07B691B6998473B6980221A7238
:100A800024E00C23FB181B88012213400CD00E23FA
:100A9000FB181B880122134002D07B699B68984792
:100AA0003B6901221A7211E00C23FB181B880222F9
:100AB00013400BD00E23FB181B880222134002D0D8
:100AC0007B69DB6898473B6902221A72BD4606B013
:100AD00080BDC046A000002080B500AF0020024BC2
:100AE0009847BD4680BDC046050A000080B584B069
:100AF00000AF021CFB1D1A700F23FB18FA1D1278A1
:100B000052091A700F23FB181B78002B0CD1094BCC
:100B1000BB600F23FB181B789B0010229446BC443B
:100B20006344083B1B6800E00023181CBD4604B06A
:100B300080BDC0460018004080B584B000AF021CE4
:100B4000FB1D1A70FB1D1B78181C0B4B9847031CD0
:100B5000FB60FB1D1B781F22134001229A40131CCF
:100B6000BB60FB681B69BA6813405A1E9341DBB235
:100B7000181CBD4604B080BDED0A000080B584B0ED
:100B800000AF021CFB1D1A70FB1D1B78181C094BC3
:100B90009847031CFB60FB1D1B781F22134001229A
:100BA0009A40131CBB60FB68BA681A61BD4604B06A
:100BB00080BDC046ED0A000080B582B000AF78600D
:100BC000081C111CFB1C021C1A70BB1C0A1C1A708E
:100BD000BB1C1B78002B01D0172319E0FB1C1A78D3
:100BE0000D4B9200D358002B07D1FB1C1A780A4BEF
:100BF00092007968D15000230AE0FB1C1A78064B5A
:100C00009200D2587B689A4201D1002300E01D2354
:100C1000181CBD4602B080BD6000002080B584B0C5
:100C200000AF021CFB1D1A70BB1D0A1C1A70BB1DF5
:100C30001B78002B0ED1FB1D1B78181C084B984706
:100C4000031CFB60FB1D1B7801229A40FB68DA60E5
:100C5000002300E01723181CBD4604B080BDC04629
:100C6000ED0A000080B500AF154B00221A7020E09D
:100C7000134B1B78181C134B9847031E13D0104BB3
:100C80001B78181C104B98470D4B1B781A1C0F4BE8
:100C90009200D358002B06D0094B1B781A1C0B4B23
:100CA0009200D3589847064B1B780133DAB2044BB5
:100CB0001A70034B1B780F2BDAD9BD4680BDC04696
:100CC000A4000020390B00007D0B00006000002014
:100CD00080B500AF0020024B9847BD4680BDC0469E
:100CE0000D0D000080B500AF0120024B9847BD46B6
:100CF00080BDC0460D0D000080B500AF0220024B44
:100D00009847BD4680BDC0460D0D000080B586B039
:100D100000AF021CFB1D1A70FB1D1A78174B9200C6
:100D2000D3583B613B691B68DA6A3B695B6B1A40CD
:100D30003B699B6B1340FB6000237B6118E0104B09
:100D40007A699200D358FA6813400ED03A697B69E9
:100D50009B00D3185B683A69101C98473B691B6875
:100D6000074A796989008A58DA627B6901337B61B5
:100D70007B690B2BE3DDBD4606B080BDA8000020DB
:100D80002048000080B500AF0020024B9847BD46C8
:100D900080BDC046C10D000080B500AF0120024BF0
:100DA0009847BD4680BDC046C10D000080B500AF6C
:100DB0000220024B9847BD4680BDC046C10D0000D1
:100DC00080B584B000AF021CFB1D1A70FB1D1A78A1
:100DD000284B9200D358FB60FB681B689B7BDBB2FF
:100DE000FA68127E1340DAB2FB68597E0B23FB18B7
:100DF0000A401A700B23FB181B780122134008D0FD
:100E0000FB689B68FA68101C9847FB681B68012206
:100E10009A730B23FB181B780222134008D0FB683F
:100E2000DB68FA68101C9847FB681B6802229A73FB
:100E30000B23FB181B781022134008D0FB681B699A
:100E4000FA68101C9847FB681B6810229A730B23E2
:100E5000FB181B782022134008D0FB685B69FA68F6
:100E6000101C9847FB681B6820229A73BD4604B08B
:100E700080BDC046B400002080B582B000AF78606D
:100E80007B6880221A707B6800225A707B6801227E
:100E90009A707B680022DA70BD4602B080BDC04601
:100EA00080B584B000AF021CFB1D1A700F23FB1825
:100EB000FA1D1278D2091A700E23FB18FA1D127847
:100EC00052091A700D4BBB600F23FB181B78002BC7
:100ED0000FD10F23FB181B789B0010229446BC44B3
:100EE0006344083B1A680E23FB181B78DB01D318F8
:100EF00000E00023181CBD4604B080BD0044004142
:100F000080B582B000AF021CFB1D1A70FB1D1B7860
:100F1000181C034B9847031C181CBD4602B080BD2B
:100F2000A10E000080B584B000AF021CFB1D1A703A
:100F3000BB1D0A1C1A70FB1D1B78181C0C4B984714
:100F4000031CFB60FB1D1B781F22134001229A40EB
:100F5000131CBB60BB1D1B78002B03D0FB68BA6859
:100F60009A6102E0FB68BA685A61BD4604B080BD70
:100F7000010F000080B582B000AF78607B6800226E
:100F80001A70BD4602B080BD80B582B000AF021CB1
:100F90003960FB1D1A70FB1D1B78012B0AD0022B38
:100FA0000FD0002B14D10E4B0D4A91693A680A43B9
:100FB0009A610FE00A4B0A4AD1693A680A43DA613A
:100FC00008E0074B064A116A3A680A431A6201E0D0
:100FD000172300E00023181CBD4602B080BDC046A8
:100FE0000004004080B500AF054B9B78DBB21A1CB3
:100FF000022313405A1E9341DBB2181CBD4680BD2C
:101000000020004180B584B000AF78607B681B6829
:10101000FB60FB681B7EDBB21A1C012313405A1EC7
:101020009341DBB2181CBD4604B080BD80B584B0CE
:1010300000AF78607B681B68FB60FB681B7EDBB2DF
:101040001A1C042313405A1E9341DBB2181CBD46E0
:1010500004B080BD80B584B000AF78600A1CBB1CB2
:101060001A807B681B68FB607B68181C0A4B9847DA
:10107000031C1A1C01235340DBB2002B01D00523B3
:1010800006E0BB1C1B88DB05DA0DFB689A620023B7
:10109000181CBD4604B080BD0510000080B584B0AA
:1010A00000AF786039607B681B68BB607B68181C88
:1010B0001B4B9847031C1A1C01235340DBB2002B27
:1010C00001D0102327E00F23FB1800221A70BB6801
:1010D0005B8B9BB21A1C0423134006D00F23FB1812
:1010E0001E221A70BB6804225A837B689B79012BED
:1010F00008D1BB689B6A9BB2DB05DB0D9AB23B68EB
:101100001A8005E0BB689B6ADBB29AB23B681A8022
:101110000F23FB181B78181CBD4604B080BDC046C9
:101120002D10000090B593B000AF786039607B68F7
:101130001B687B637B681B683B631C23FB18181CC4
:10114000864B98471C23FB1800225A703B681B787B
:10115000002B03D11C23FB1800229A703B689A6A6B
:101160000C23FB181A603B68DA6A0C23FB185A60E0
:101170003B681A6B0C23FB189A603B685A6B0C2374
:10118000FB18DA604723FB1800221A702CE0472373
:10119000FB181A780C23FB189200D3583B643B6C65
:1011A000002B09D13A6B4723FB181B78101C191C24
:1011B0006B4B9847031C3B643B6C01330DD03B6C7D
:1011C000DAB21C23FB181A703B6C1B0CDAB21C231E
:1011D000FB18101C191C634B98474723FB181A78FF
:1011E0004723FB1801321A704723FB181B78032B87
:1011F000CDD93B681A787B685A713B681A7C7B684A
:101200009A713B689A7C7B68DA713B681A7D7B68CF
:101210001A720A23FB1800221A800023FB630023A2
:10122000BB633B681B78012B2BD17B681B68181CA8
:101230004D4B9847031CFB62FB6A1433BB62BB6ACD
:10124000DBB2181C494B9847031C7B623B689969C9
:101250002323FC187A6A0A23FB18081C111C1A1C89
:10126000434B9847031C23702323FB181B78002B48
:1012700001D017236DE00A23FB181B88DAB27B6BC1
:101280001A733B681B78002B1AD13B689B69FB6380
:101290003B689B8BBB637B6B5B6A3A68927F111CDC
:1012A0003A68D27F12040A431A437B6B5A623B6846
:1012B00020229B5C002B03D0BB6B40221343BB63FB
:1012C0003B685B68FA6B1343FB633B689B68FA6B94
:1012D0001343FB633B68DB68FA6B1343FB633B68B8
:1012E0001B7C1A1CBB6B1343BB633B685B7C002BF2
:1012F00003D1204B9847031E03D0FB6B802213437E
:10130000FB633B689B7C002B04D0BB6B802292026A
:101310001343BB633B68DB7C002B04D0BB6B802298
:1013200092001343BB633B681B7D002B04D0BB6B57
:10133000802292011343BB637B6B1A68FB6B1A43D9
:101340007B6B1A607B6B5A68BB6B1A437B6B5A6072
:101350000023181CBD4613B090BDC046790E000096
:10136000C51C00003D2D0000811E0000752B0000F3
:10137000BD1B0000E50F000090B58BB000AFF8601A
:10138000B9607A60FB68BA681A60FB681B683B62E8
:101390003B6A1B680222134001D01C23A5E03B6A74
:1013A0001B680122134001D005239EE0FB681B68E7
:1013B000181C504B9847031CFB61FB690233BB614F
:1013C000FB6914337B61BB6901229A40131C022024
:1013D000191C494B98471023FB18181C474B98477A
:1013E0007B6824229A5C1023FB181A707B69DAB29E
:1013F0001023FB18101C191C414B98477B69DBB26A
:10140000181C404B98477B6824229B5C181C0021C9
:101410003D4B98477B681B78012B05D13B6A1B68C5
:101420000C221A433B6A1A607B681B78002B05D19B
:101430003B6A1B6808221A433B6A1A602723FB1881
:1014400000221A700FE02723FB181B78FA6802337A
:101450009B00D31800225A602723FB181A782723F1
:10146000FB1801321A702723FB181B78062BEAD9C8
:10147000FB680022DA62FB6800229A62FB680022A5
:101480009A86FB6800221A86FB683622002199544E
:10149000FB68372200219954FB68382200219954B7
:1014A000FB6803225A72FB6800221A71FB681B68F2
:1014B0001322BC18181C0F4B9847031C23701323CE
:1014C000FB181A78114B101C191C114B9847132349
:1014D000FB181A780F4B9200F968D150FA687B68B4
:1014E000101C191C0C4B9847031C181CBD460BB054
:1014F00090BDC046811E0000890F0000750F0000DE
:10150000512A0000952A0000391C0000A118000093
:10151000E11E0000C40000202511000090B587B036
:1015200000AFF8607A600A23FB180A1C1A80FB6877
:10153000DB7901225340DBB2002B01D01C2382E077
:10154000FB6838229B5CDBB2052B01D105237AE0D6
:101550001523FB1800221A70FB685B79002B20D141
:101560001623FB1800221A8015E0FB68181C384B64
:101570009847031E00D014E01623FB181B88354A39
:10158000934201D112235EE01623FB181A8816231A
:10159000FB1801321A801623FB181B882D4A934230
:1015A000E3D9C046FB68181C294B9847031C1A1C3A
:1015B00001235340DBB2002BF4D1FA680A23FB1855
:1015C0001B88101C191C244B9847FB685B79002B67
:1015D00020D11623FB1800221A8015E0FB68181C86
:1015E0001E4B9847031E00D014E01623FB181B88DF
:1015F000184A934201D1122325E01623FB181A88BA
:101600001623FB1801321A801623FB181B88114A77
:101610009342E3D9C046FB68181C104B9847031C43
:101620001A1C01235340DBB2002BF4D11523FC1804
:10163000FA687B68101C191C094B9847031C23701F
:101640001523FB181B78181CBD4607B090BDC0467B
:101650000510000010270000551000002D1000009C
:101660009D10000080B586B000AFF860B960FB1D2A
:101670001A70FB685B79012B01D015235CE0FB68D5
:101680001B7A01225340DBB2002B54D0FB1D1B7888
:10169000002B4AD0BB685B78002B3FD0FB68181C3E
:1016A000274B9847031C1A1C01235340DBB2002B25
:1016B00007D0BB681B78181C0121224B98470523D3
:1016C0003AE0BB681B78181C00211E4B9847BB688A
:1016D0009B789BB2FA68101C191C1B4B9847FB683F
:1016E000DB7901225340DBB2002B24D0C046FB68DB
:1016F000181C164B9847031C1A1C01235340DBB2DD
:10170000002BF4D11623FB1800221A80FA68162346
:10171000FB18101C191C0E4B98470CE0BB681B787B
:10172000181C0021074B984705E0BB681B78181C64
:101730000121044B98470023181CBD4606B080BD0C
:1017400005100000250F0000551000002D100000AE
:101750009D10000080B584B000AF78607B681B6886
:10176000BB607B68DB6A1B78DAB20E23FB181A8039
:101770007B68DB6A5A1C7B68DA627B689B79012B89
:1017800012D17B68DB6A1B78DBB21B029AB20E2394
:10179000FB181B8813439AB20E23FB181A807B6830
:1017A000DB6A5A1C7B68DA620E23FB181B88DB0598
:1017B000DA0DBB689A627B689B8E9BB2013B9AB242
:1017C0007B689A86BD4604B080BDC04680B584B0B3
:1017D00000AF78607B681B68FB60074B1B881A1C96
:1017E000FB689A627B685B8E9BB2013B9AB27B6816
:1017F0005A86BD4604B080BDC000002080B584B0CC
:1018000000AF78607B681B68FB600A23FB1800222E
:101810001A80FB689A6A0A23FB181A807B685B8E21
:101820009BB2013B9AB27B685A86BD4604B080BD2C
:1018300080B584B000AF78607B681B68FB60FB6894
:101840009B6A9AB20A23FB18D205D20D1A807B68D4
:101850009B6A0A22BA181288D2B21A707B689B6AF5
:101860005A1C7B689A627B689B79012B0DD17B683F
:101870009B6A0A22BA181288120A92B2D2B21A705D
:101880007B689B6A5A1C7B689A627B681B8E9BB242
:10189000013B9AB27B681A86BD4604B080BDC04643
:1018A00080B586B000AF021CFB1D1A70FB1D1A78B4
:1018B000B84B9200D3587B617B691B683B617B69A5
:1018C00037229A5C7B693621595C0F23FB180A404A
:1018D0001A703B691B7EDAB20C23FB181A803B6935
:1018E0009B7DDBB29AB20C23FB180C217918098876
:1018F0000A401A800C23FB181B880122134041D098
:101900007B695B79012B10D17B695B7ADBB2002BA1
:101910000BD17B69181CA04B98477B695B8E9BB2EF
:10192000002B02D13B6901221A757B695B79012B7F
:1019300004D17B695B7ADBB2002B08D17B695B79D0
:10194000002B1FD17B695B7ADBB2002B1AD07B693D
:10195000181C924B98477B699B8E9BB2002B11D130
:101960003B6901221A757B695B7ADBB2012B09D1D5
:101970007B69DB7901225340DBB2002B02D03B694B
:1019800002229A750C23FB181B880422134000D1F5
:101990007EE03B695B8B9BB21A1C0423134022D070
:1019A0007B695B7ADBB2012B14D07B6938221E2164
:1019B00099547B6903225A723B6905221A750F23D9
:1019C000FB181B780822134004D07B699B697A6955
:1019D000101C98473B699A6A0A23FB181A803B69D6
:1019E00004225A8354E07B695B7ADBB2012B1ED15F
:1019F0007B69181C6A4B98477B695B8E9BB2002BF6
:101A000046D13B6904221A757B693822002199541A
:101A10007B6903225A720F23FB181B7801221340A3
:101A200036D07B69DB687A69101C984730E07B69A7
:101A3000181C5C4B98477B691B8E9BB2002B27D1EF
:101A40007B693822002199543B6904221A757B690D
:101A50005B7ADBB2022B0BD10F23FB181B7804221D
:101A6000134015D07B695B697A69101C98470FE0B9
:101A70007B695B7ADBB2002B0AD10F23FB181B7842
:101A80000222134004D07B691B697A69101C9847B5
:101A90000C23FB181B880222134046D07B695B791C
:101AA000002B1DD13B6907221A753B6902221A7669
:101AB0007B6903225A727B6900229A867B69002225
:101AC0001A867B693822002199540F23FB181B7852
:101AD0001022134004D07B69DB697A69101C984797
:101AE0007B695B79012B20D17B695B7ADBB2012BAF
:101AF0001BD17B69DB7901225340DBB2002B14D070
:101B00003B6902221A757B6903225A727B6938226B
:101B1000002199540F23FB181B780122134004D095
:101B20007B69DB687A69101C98470C23FB181B88BB
:101B30000822134014D07B695B79002B10D13B69DC
:101B400008221A753B6908221A760F23FB181B78A6
:101B50002022134004D07B691B6A7A69101C9847C5
:101B60000C23FB181B888022134010D03B69802275
:101B70001A753B6980221A760F23FB181B784022C6
:101B8000134004D07B695B6A7A69101C9847BD4694
:101B900006B080BDC4000020CD170000551700001E
:101BA000FD1700003118000080B582B000AF7860EA
:101BB0007B6800221A70BD4602B080BD80B586B039
:101BC00000AFF860B9607A601623FB1800221A8013
:101BD000BB683B61BB685A08FB689A4201D240234C
:101BE00026E0BB685B083B610AE03A69FB68D31AF0
:101BF0003B611623FB181A881623FB1801321A8042
:101C00003A69FB689A42F0D21623FB181622BA18DA
:101C10001288013A1A801623FB181B88FF2B01D962
:101C2000402305E07B681622BA1812881A80002328
:101C3000181CBD4606B080BD80B584B000AF021C44
:101C4000FB1D1A70BB1D0A1C1A701A4B1B7801224F
:101C50005340DBB2002B03D1BB1D1B78002B1BD0E4
:101C60000C23FB18181C144B98470C23FB18FA1D67
:101C700012781A700C23FB181320191C0F4B98476D
:101C800013200F4B98470B4BFA1D12785A70094BD3
:101C900001221A70002308E0064B5B78FA1D1278C7
:101CA0009A4201D1002300E01D23181CBD4604B058
:101CB00080BDC04620000020A91B0000512A000062
:101CC000952A000080B582B000AF78600A1CFB1C2A
:101CD0001A707B684D4A93423FD04C4A934206D8D3
:101CE0004B4A93420FD04B4A934221D089E04A4A53
:101CF000934200D15BE0494A934200D16CE0484AEC
:101D000093423FD07DE0FB1C1B78012B0AD002DC04
:101D1000002B05D075E0022B06D0032B06D070E017
:101D2000404B6FE0404B6DE0404B6BE0404B69E057
:101D3000FB1C1B78012B0AD002DC002B05D060E0D5
:101D4000022B06D0032B06D05BE003235AE0394B6D
:101D500058E0394B56E0394B54E0FB1C1B78012B03
:101D60000AD002DC002B05D04BE0022B06D0032B5F
:101D700006D046E0324B45E0324B43E0324B41E087
:101D8000324B3FE0FB1C1B78012B0AD002DC002BFE
:101D900005D036E0022B06D0032B06D031E02C4BC9
:101DA00030E02C4B2EE02C4B2CE02C4B2AE0FB1C83
:101DB0001B78012B0AD002DC002B05D021E0022B7E
:101DC00006D0032B06D01CE0254B1BE0254B19E069
:101DD000254B17E0254B15E0FB1C1B78012B0AD087
:101DE00002DC002B05D00CE0022B06D0032B06D022
:101DF00007E01F4B06E01F4B04E01F4B02E01F4BA8
:101E000000E00023181CBD4602B080BD0010004257
:101E100000080042000C004200180042001C004272
:101E20000014004203000400030005000300060044
:101E3000030007000300010003001E0003001F0051
:101E4000030008000300090003000A0003000B0060
:101E50000300100003001100030012000300130030
:101E600003000C0003000D0003000E0003000F0030
:101E700003001600030017000300180003001900F8
:101E800090B58BB000AF78600C23FB180E4A13CAD4
:101E900013C313CA13C300237B620DE07B680C22BB
:101EA000BA18796A89008A58934202D17B6ADBB2F8
:101EB00006E07B6A01337B627B6A052BEED9002347
:101EC000181CBD460BB090BD5048000080B582B0D4
:101ED00000AF021CFB1D1A70BD4602B080BDC0469B
:101EE00080B584B000AF021C3960FB1D1A70134B23
:101EF0001B7801225340DBB2002B15D00023FB607E
:101F00000CE00F4BFA6892000E49D1500E4BFA6864
:101F100092000021D150FB680133FB60FB68052B68
:101F2000EFD9064B01221A70FB1D1A78044B920060
:101F30003968D150BD4604B080BDC04622000020A3
:101F400024000020CD1E0000C400002090B585B004
:101F500000AF78600823FA180E4B111C1A1C0623D8
:101F6000081C111C1A1C0C4B98470F23FC187B688B
:101F7000181C0A4B9847031C23700F23FB181B786F
:101F80000822BA18D35CDBB25BB2181CBD4605B0A0
:101F900090BDC04668480000FD470000811E00005B
:101FA00080B500AF024B1B6800209847BD4680BD3E
:101FB0002400002080B500AF024B5B6801209847E9
:101FC000BD4680BD2400002080B500AF024B9B6859
:101FD00002209847BD4680BD2400002080B500AF98
:101FE000024BDB6803209847BD4680BD24000020DB
:101FF00080B500AF024B1B6904209847BD4680BDE9
:102000002400002080B500AF024B5B690520984793
:10201000BD4680BD2400002080B582B000AF78604E
:102020007B6880221A707B6800225A707B680122CC
:102030009A707B680022DA70BD4602B080BDC0464F
:1020400080B584B000AF021C3960FB1D1A700C23F0
:10205000FB18181C0F4B98470C23FB1880221A7092
:102060003B681A780C23FB185A703B685A780C238B
:10207000FB189A703B689A780C23FB18DA70FB1DEA
:102080001A780C23FB18101C191C034B9847BD46EB
:1020900004B080BD192000003D2D000080B500AFC8
:1020A000BD4680BD80B582B000AF0F4B1B68002BD2
:1020B00012D1EFF310837B607B68002B09D172B6DD
:1020C000BFF35F8F094B00221A70094B01221A706F
:1020D00002E0074B00221A70034B1B685A1C024B8C
:1020E0001A60BD4602B080BD3C0000200000002008
:1020F0004000002080B500AF0A4B1B685A1E094BF8
:102100001A60084B1B68002B0AD1074B1B78DBB207
:10211000002B05D0054B01221A70BFF35F8F62B60A
:10212000BD4680BD3C000020400000200000002093
:1021300080B582B000AF78607B6801225A607B680E
:1021400000225A707B6806221A707B6800221A727D
:102150007B6800225A72BD4602B080BD80B582B055
:1021600000AF78607B6801225A707B6801229A7008
:102170007B680022DA707B6801221A717B68072273
:102180001A707B6800225A71BD4602B080BDC046FD
:1021900080B582B000AF78607B6803221A707B68DC
:1021A00000225A707B6801229A70BD4602B080BD41
:1021B00080B582B000AF021CFB1D1A70034AFB1DE4
:1021C0001B781372BD4602B080BDC04600040040BB
:1021D00080B582B000AF021CFB1D1A70BB1D0A1C2B
:1021E0001A70FB1D1B78012B08D0022B0BD0002B83
:1021F0000ED10B4ABB1D1B7853720BE0084ABB1D66
:102200001B78937206E0064ABB1D1B78D37201E06F
:10221000172300E00023181CBD4602B080BDC04655
:102220000004004080B582B000AF021CFB1D1A7094
:10223000084BFA1D12780F210A40D2B20F210A4032
:10224000520059681E2081430A435A60BD4602B0BD
:1022500080BDC0460040004180B500AFC046034B82
:10226000DB6810221340FAD0BD4680BD0008004054
:1022700080B500AF0C4B02229A840C4B98470A4A57
:102280000B4B9B68D362084A094B5B689362064B11
:1022900000229A84054B9847034A054B1B689BB262
:1022A0009384BD4680BDC04600080040592200000E
:1022B0004400002080B582B000AF021CFB1D1A70E4
:1022C000FB1D1B78082B42D89A00234BD3181B68A0
:1022D0009F46224B1B693BE0214B1B6A1B0A1A1CC1
:1022E00003231340DBB21A1C1E4BD34030E0802383
:1022F0001B022DE080231B022AE0184B5B6927E0BC
:10230000164B1B680222134001D1002320E0164B1C
:102310009847124B1B680422134009D00020134B2E
:102320009847021C0D4B9B681B041B0C53430FE08A
:102330000F4B0DE00A4A5023D35CDBB21A1C042376
:10234000134001D1002303E0044BDB6800E00023CD
:10235000181CBD4602B080BD70480000440000203B
:102360000008004000127A0059220000752B00007E
:10237000006CDC0280B584B000AF78601A4B1B6A39
:10238000FB607B681B781A1C03231340DAB20D2311
:10239000FB1803210A40101C1A7803218A43111CE0
:1023A000021C0A431A707B689A780C23FB18D00130
:1023B0001A787F210A40111C021C0A431A707B689C
:1023C0005A780C23FB1801210A4090011A78402109
:1023D0008A43111C021C0A431A70034BFA681A62E2
:1023E000BD4604B080BDC0460008004080B584B042
:1023F00000AF78602F4B9B69FB607B685A780C2399
:10240000FB1801210A40D0001A7808218A43111CC8
:10241000021C0A431A707B689A780C23FB1801216E
:102420000A4090001A7804218A43111C021C0A43B6
:102430001A707B681B781A1C07231340DAB20D232D
:10244000FB1807210A40101C1A7807218A43111C27
:10245000021C0A431A707B681A790C23FB18D001FE
:102460001A787F210A40111C021C0A431A707B68EB
:10247000DA780C23FB1801210A4090011A784021D8
:102480008A43111C021C0A431A707B685A790D2377
:10249000FB1801210A4010011A7810218A43111CEF
:1024A000021C0A431A70034BFA689A61BD4604B0D5
:1024B00080BDC0460008004080B582B000AF021C5D
:1024C000FB1D1A70FB1D1B78082B3BD89A00214B73
:1024D000D3181B689F46204B1F4A126A02210A43E9
:1024E0001A62002331E01C4B1B4A926902210A4305
:1024F0009A6129E0184A184B1B8A9BB202210B43B0
:102500009BB2138220E0144A134B9B8A9BB2022198
:102510000B439BB2938217E0104B1B6802221A43B5
:102520000E4B1A600E4B98470EE00B4A0A494423A3
:10253000CB5CDBB202210B43D9B24423D15403E07C
:10254000002302E0172300E00023181CBD4602B060
:1025500080BDC046944800000008004044000020B0
:102560007122000080B582B000AF3B1C01221A70BE
:1025700000237B6009E07B68DAB23B1C101C191C4D
:10258000054B98477B6801337B607B68242BF2D92D
:10259000BD4602B080BDC046512A000080B5A2B041
:1025A00000AF4F4BC222D2009A6000204D4B98479B
:1025B0004D4B98474A4B4D4A12689209D2B2111CB2
:1025C0007F220A40D2B27F210A401204996948480A
:1025D00001400A439A618023FB18181C454B984719
:1025E0008023FB1807221A708023FB1801225A70DF
:1025F0008023FB1801229A708023FB1801221A7194
:102600008023FB180022DA708023FB18181C3A4B39
:1026100098470420394B98477C23FB18181C384BEB
:1026200098477C23FB1800221A707C23FB18012298
:102630009A707C23FB1800225A707C23FB18181C0C
:10264000304B984706202D4B98472F4B98475823DF
:10265000FB18181C2D4B98475823FB1804221A709E
:102660005823FB1820225A605823FB1800221A72A4
:102670005823FB1800225A725823FB180220191CF9
:10268000234B98470220234B98470020224B984722
:1026900000200021214B9847012000211F4B984723
:1026A000022000211D4B98473B1D181C174B9847D3
:1026B0003B1D06221A703B1D01225A603B1D002261
:1026C0001A723B1D00225A723B1D0020191C104B30
:1026D000984700200F4B9847BD4622B080BDC046AA
:1026E00000080040252200006525000024608000CD
:1026F000FFFF80FF5D210000ED230000B9240000F2
:102700009121000075230000C12700003121000045
:10271000F127000011290000B1210000D1210000A3
:1027200080B582B000AF021C3960FB1D1A70FB1D22
:102730001B78012B0AD0022B0FD0002B14D10E4B8B
:102740000D4A91693A680A439A610FE00A4B0A4AB6
:10275000D1693A680A43DA6108E0074B064A116A10
:102760003A680A431A6201E0172300E00023181CAC
:10277000BD4602B080BDC0460004004080B500AF39
:10278000014B9847BD4680BDA520000080B500AF35
:10279000014B9847BD4680BDF520000080B500AFD5
:1027A000064B5B78DBB2DBB25BB2002B01DA0123B4
:1027B00000E00023181CBD4680BDC046000C004050
:1027C00080B500AF00200821074B9847074B012236
:1027D0001A70C046054B1B78DBB21A1C012313404C
:1027E000F8D1BD4680BDC04621270000000C004046
:1027F00080B586B000AF021C3960FB1D1A70FB1D4E
:102800001B787B61FB1D1B783B613B681B781B02BF
:102810001A1C7B6913437B613B685B78002B04D0F7
:102820007B698022D20213437B613B685B7A002B79
:1028300004D07B698022120313437B613B685B6891
:10284000012B2CD93B685A683B685B68013B1340FD
:102850001AD10023FB600223BB6005E0FB68013353
:10286000FB60BB685B00BB603B685A68BB689A4210
:10287000F4D8FB681B023A6913433B617B698022F1
:10288000520313437B610AE03B685B681B023A69B1
:1028900013433B617B698022920213437B613B6857
:1028A0001B7A002B04D07B698022920313437B6147
:1028B000C046124B9847031EFBD1114B9847114A53
:1028C000FB1D1B781370C0460C4B9847031EFBD1B1
:1028D0000D4B3A699A60C046084B9847031EFBD1DE
:1028E000094B094A51688022520211407A690A4311
:1028F0005A60064B9847BD4606B080BD9D27000034
:102900007D270000080C0040000C00408D270000CF
:1029100080B582B000AF021CFB1D1A70C0460D4B83
:102920009847031EFBD10C4B98470C4AFB1D1B78A4
:102930001370C046074B9847031EFBD1084B084A4B
:102940005268802149020A435A60064B9847BD46A7
:1029500002B080BD9D2700007D270000040C0040D0
:10296000000C00408D27000080B586B000AF021C2F
:10297000FB1D1A70C0462E4B9847031EFBD12D4BF2
:1029800098472D4AFB1D1B781370C046284B98476B
:10299000031EFBD1294B5B681B0A1A1C1F23134023
:1029A000DBB2181C264B9847031C7B61224AFB1D97
:1029B0001B781370214B5B681B0D1A1C01231340FD
:1029C000DAB21323FB181A701E4AFB1D1B78137012
:1029D000C046174B9847031EFBD1184B9B681B0A38
:1029E0001A1C00239A43131C9BB2FB60164B98479A
:1029F0001323FB181B78002B09D1FB68012B06D988
:102A0000124B7869F9689847031C7B610AE013232D
:102A1000FB181B78002B05D0FB6801331A1C7B695F
:102A2000D3407B617B69181CBD4606B080BDC046A3
:102A30009D2700007D270000040C0040000C004092
:102A4000B5220000080C00408D270000AD440000B6
:102A500080B584B000AF021C3960FB1D1A70FB1DED
:102A60001B78FB603B681B781B021A1CFB68134336
:102A7000FB60FB1D1B78181C044B9847044BFA683D
:102A800092B25A80BD4604B080BDC046D92A00002B
:102A9000000C004080B582B000AF021CFB1D1A7014
:102AA000094B9847094AFB1D1B7813700849084BCE
:102AB0005B889BB28022D20113439BB24B80054BB3
:102AC0009847BD4602B080BD7D270000020C004043
:102AD000000C00408D27000080B584B000AF021CC0
:102AE000FB1D1A701D4B98471D4AFB1D1B78137068
:102AF0001C4B5B889BB21B0A1A1C0F231340DBB2D2
:102B0000FB60184B5A8818490A405A80154A154BE1
:102B10005B889BB215490B409BB25380C046114B5A
:102B20005B889BB21A1C8023DB011340F7D10D4B4D
:102B3000FA68D2B2111C0F220A40D2B2111C0F2225
:102B40000A4010025A8808490A40111C021C0A4314
:102B50005A80074B9847BD4604B080BD7D270000D2
:102B6000020C0040000C0040FFF0FFFFFFBFFFFF22
:102B70008D27000080B584B000AF021CFB1D1A70C9
:102B80000E4B98470E4AFB1D1B7813700D4B5B884C
:102B90009BB21B0A1A1C0F231340DAB20F23FB1837
:102BA0001A70094B98470F23FB181B78181C074B0A
:102BB0009847031C181CBD4604B080BD7D2700004B
:102BC000020C0040000C00408D2700006929000025
:102BD00080B584B000AF021CFB1D1A700F23FB18D8
:102BE000FA1D1278D2091A700E23FB18FA1D1278FA
:102BF00052091A700D4BBB600F23FB181B78002B7A
:102C00000FD10F23FB181B789B0010229446BC4465
:102C10006344083B1A680E23FB181B78DB01D318AA
:102C200000E00023181CBD4604B080BD00440041F4
:102C300080B588B000AFF860B9607A600023FB61AE
:102C40007B68DB7801225340DBB2002B35D07B68F8
:102C50001B78802B0BD0FB69802252021343FB614F
:102C60007B681B781B061A1CFB691343FB617B689E
:102C70005B78002B03D07B685B78022B10D1FB695B
:102C8000802292021343FB617B689B78002B04D067
:102C9000FB698022D2021343FB61FB68BA685A6069
:102CA0007B685B78012B03D07B685B78022B07D1B4
:102CB000FB69214A1340FB6102E0FB68BA685A6075
:102CC000BB681B041B0CBB61BB681B0C7B61BA6936
:102CD000FB691343A022D2051A43FB689A627A6902
:102CE000FB691343D02212061A43FB689A627B6881
:102CF000DB7801225340DBB2002B1AD0FA69802323
:102D0000DB0213400AD07B689B78012B03D1FB6860
:102D1000BA689A6102E0FB68BA685A617B685B78BE
:102D2000012B03D07B685B78022B02D1FB68BA6869
:102D30009A60BD4608B080BDFFFFFBFF80B584B040
:102D400000AF021C3960FB1D1A70FB1D1B78181C9C
:102D50000B4B9847031CFB60FB1D1B781F22134085
:102D600001229A40131CBB60F968BA683B68081CD2
:102D7000111C1A1C034B9847BD4604B080BDC046C9
:102D8000D12B0000312C000080B500AFC046BD46FD
:102D900080BDC04680B500AF054B9847054B9847AE
:102DA000054B9847054B9847054B9847BD4680BD56
:102DB0009D2500009D200000892D0000710200006B
:102DC000892D000080B582B000AF2F4B7B602F4B68
:102DD0003B607A683B689A420CD007E03B681A1D5A
:102DE0003A607A68111D796012681A603A68284B57
:102DF0009A42F3D3274B3B6004E03B681A1D3A60CC
:102E000000221A603A68244B9A42F6D3234B7B6027
:102E1000234B7A68FF218A439A60224A90235B0001
:102E20000221D150204BDA7803218A43111C02225F
:102E30000A43DA701C4BDA780C218A43111C0822F1
:102E40000A43DA70194B9A7B30218A43111C2022E5
:102E50000A439A73154B9A7B0C218A43111C082252
:102E60000A439A73114B9A7B03218A43111C022255
:102E70000A439A730E4B5A6880210A435A600D4BDD
:102E800098470D4B9847FEE71449000000000020CA
:102E900004000020040000201002002000000000B8
:102EA00000ED00E00070004100500041004800418A
:102EB00000400041B14700009143000080B500AFE1
:102EC000FEE7C04680B584B000AF021CFB1D1A703F
:102ED0000F23FB18FA1D1278D2091A700E23FB1863
:102EE000FA1D127852091A700D4BBB600F23FB18A4
:102EF0001B78002B0FD10F23FB181B789B0010228F
:102F00009446BC446344083B1A680E23FB181B78A4
:102F1000DB01D31800E00023181CBD4604B080BDBF
:102F20000044004180B582B000AF021CFB1D1A7046
:102F3000FB1D1B78181C034B9847031C181CBD462F
:102F400002B080BDC52E000080B582B000AF7860B1
:102F50007B6800221A707B6801225A707B6800220D
:102F60009A70BD4602B080BD80B584B000AF021C2F
:102F7000FB1D1A70FB1D1B78181C0B4B9847031C7C
:102F8000FB60FB1D1B781F22134001229A40131C7B
:102F9000BB60FB681B6ABA6813405A1E9341DBB2E0
:102FA000181CBD4604B080BD252F000080B584B03C
:102FB00000AF021CFB1D1A70BB1D0A1C1A70FB1D02
:102FC0001B78181C0C4B9847031CFB60FB1D1B78DF
:102FD0001F22134001229A40131CBB60BB1D1B78AB
:102FE000002B03D0FB68BA689A6102E0FB68BA68FC
:102FF0005A61BD4604B080BD252F000080B500AFEA
:10300000034B01221A70BFF35F8F62B6BD4680BDCD
:103010000000002080B500AF72B6BFF35F8F024B97
:1030200000221A70BD4680BD0000002080B582B02D
:1030300000AF021CFB1D1A70064BFA1D1278111C02
:103040001F220A40012191400A1C1A60BD4602B0AD
:1030500080BDC04600E100E080B584B000AF78607C
:103060007B68A02212011A807B6801229A707B681B
:103070000022DA707B6800221A710F23FB180022ED
:103080001A700EE00F23FB181A787B680232920048
:103090000021D1500F23FB181A780F23FB1801329F
:1030A0001A700F23FB181B78012BEBD9BD4604B017
:1030B00080BDC04680B584B000AF78607B681B6877
:1030C000FB60FB68DB695A1E9341DBB2181CBD46EE
:1030D00004B080BD80B582B000AF78607B6801220B
:1030E0001A707B6800225A607B6800229A607B68B5
:1030F000C0229203DA607B6800221A747B68002287
:103100005A747B6801229A747B680122DA747B68A6
:1031100000221A757B682422002199547B68183399
:10312000181C00210C220A4B98477B68094A9A61B7
:103130007B6800229A627B680022DA627B68002248
:103140001A637B6800225A63BD4602B080BDC04648
:103150000F480000A086010080B582B000AF786003
:103160007B680A221A707B6800225A707B680022F2
:103170009A70BD4602B080BD80B584B000AF786063
:1031800039603B681A787B681A703B685A787B68AC
:103190005A703B689A787B689A700C23FB18181C4D
:1031A0000B4B98470C23FB1801221A707B681A7886
:1031B0000C23FB18101C191C064B98477B681B78C6
:1031C000181C0121044B9847BD4604B080BDC04681
:1031D000492F000041200000AD2F000080B584B0D1
:1031E00000AF78607B681B68FB607B681B68181CFD
:1031F0000A4B9847031C181C094B9847C0467B682C
:10320000181C084B9847031EF9D1FB681B68022263
:103210001A43FB681A60BD4604B080BD4D1F000014
:103220002D300000B530000080B582B000AF3B1DEE
:10323000181C064B98473B1D00221A703B1D0320AB
:10324000191C034B9847BD4602B080BD492F0000B2
:103250004120000080B584B000AF3B1D181C0B4B13
:1032600098473B1D03221A603B1D00225A603B1DFC
:1032700001221A723B1D0122DA723B1D0320191C28
:10328000034B9847BD4604B080BDC046AD03000067
:10329000E103000080B500AF054B181C032100229C
:1032A000044B984703200021034B9847BD4680BD3F
:1032B000F53F0000B90B00001D0C000080B590B078
:1032C00000AF3B1D181C224B98473B1D12221A7061
:1032D000204A3B1D101C191C1F4B98470823FB1844
:1032E000181C1E4B98470823FB18C0229203DA6073
:1032F0000823FB181A4A9A620823FB18194ADA6253
:103300000823FB18012252421A630823FB18164AAD
:103310005A630823FB1800225A600823FB18002276
:103320009A60124A12490823FB18101C1A1C114BF0
:1033300098470E4B181C104B98470C4A054B101C15
:10334000191C00220D4B9847BD4610B080BDC046E9
:10335000593100000C02002079310000D530000006
:10336000020010000200110002001300CC01002036
:10337000000C004279130000DD31000065160000EA
:1033800080B584B000AF3B1C181C0F4B98473B1C0A
:1033900000221A803B1C00229A703B1C01221A71E9
:1033A0000A4A0B493B1C101C1A1C0A4B9847074B36
:1033B000181C094B9847054B084A181C111C084B50
:1033C0009847BD4604B080BD59300000E0000020A1
:1033D00000140040DD070000D505000010270000A4
:1033E000C109000080B500AF054B181C0021054B3A
:1033F0009847034B181C044B9847BD4680BDC046F8
:10340000E00000206D080000D505000080B582B006
:1034100000AF00237B60054B181C054B9847031C2D
:103420007B607B68181CBD4602B080BDE0000020B8
:10343000CD08000090B585B000AF041C3960101CA9
:10344000191CFB1D221C1A70BB1D021C1A707B1D4F
:103450000A1C1A700120504B9847C04627204F4B3A
:103460009847031CDBB25BB2002BF7DA2520002162
:103470004B4B9847BB1D1B783D2B02D9BB1D3D22F2
:103480001A700E23FB1800221A702023FB181B78D9
:10349000002B04D00E23FB1880221A7007E07B1D3E
:1034A0001B78002B03D00E23FB1840221A703D4BD3
:1034B00098473D4A3D4B101C80211A1C3C4B9847B5
:1034C000BB1D1B789BB203339AB23749374B081C9C
:1034D000111C1A1C364B9847FB1D1B789AB23249B7
:1034E000324B081C111C1A1C314B9847314B1B786E
:1034F000DBB29AB22C492D4B081C111C1A1C2C4B08
:1035000098470E23FB181B78DBB29AB22649274B4B
:10351000081C111C1A1C264B98470F23FB1800226D
:103520001A7014E00F23FB181B783A68D3181B7825
:103530009AB21D491D4B081C111C1A1C1C4B9847A4
:103540000F23FB181A780F23FB1801321A700F2370
:10355000FA18BB1D12781B789A42E3D3164B984792
:1035600004200D4B9847154B9847C0460320144B39
:103570009847031C1A1C01235340DBB2002B05D0D3
:10358000104B9847021E104B9A42EFD90120024B74
:103590009847BD4605B090BDED39000001420000DE
:1035A0006D420000D1420000CC0100205C000020F0
:1035B0001D1500003C010020FD420000E533000025
:1035C000692F00000D340000E703000080B582B0D1
:1035D00000AF021CFB1D1A701A4BFA1D12781A70EC
:1035E000184B1B78DBB2002B01D00F2300E01A230D
:1035F0001320191C144B9847124B1B78DBB2002B7D
:1036000012D01120114B9847031CDBB21A1C1F2348
:103610001340DBB21A1C60231343DBB2DBB2112070
:10362000191C094B984709E0094B1B78802252422C
:103630001343DBB21120191C034B9847BD4602B05F
:1036400080BDC046C80100206D420000014200005C
:10365000F800002080B500AF064B01221A80064B0F
:1036600000221A70054B1F221A70054B00221A7097
:10367000BD4680BDC601002042010020F8000020A8
:10368000C801002090B591B000AF041C081C111CAB
:10369000FB1D221C1A70BB1D021C1A707B1D0A1C0C
:1036A0001A70C24B98471023FB1801221A7010237E
:1036B000FB1804225A701023FB1802229A70102360
:1036C000FB180022DA701023FB1803221A71102352
:1036D000FB1802225A711023FB1804229A7110233E
:1036E000FB184022DA711023FB1805221A721023EE
:1036F000FB1803225A721023FB1806229A72102319
:10370000FB183322DA721023FB1807221A73FB1DF1
:103710001B781F2B0DD0FB1D1B782B2B07D0FB1DFF
:103720001B78562B01D1D92304E0E42302E06C235B
:1037300000E04E231022BA1853731023FB180822FE
:103740009A73FB1D1B781F2B0DD0FB1D1B782B2B99
:1037500007D0FB1D1B78562B01D1002304E0C023AA
:1037600002E0402300E0C0231022BA18D3731023D4
:10377000FB1809221A741023FB1800225A74102314
:10378000FB1819229A741023FB184222DA741023B2
:10379000FB1825221A751023FB1840225A75102396
:1037A000FB1826229A751023FB180722DA751023BE
:1037B000FB1828221A761023FB1810225A761023A1
:1037C000FB1829229A761023FB18DC22DA761023C4
:1037D000FB182E221A771023FB1888225A77102301
:1037E000FB182F229A771023FB182D22DA7710234B
:1037F000FB182022302199541023FB187A1D212117
:1038000012785A541023FB1822223721995410237E
:10381000FB182322902199541023FB1824223821CD
:1038200099541023FB182522422199541023FB1888
:1038300026223C2199541023FB1827228F219954CA
:103840001023FB1828223D2199541023FB1829220C
:10385000122199541023FB182A226F219954102306
:10386000FB182B22302199541023FB182C22FF2106
:1038700099541023FB182D22002199544C4B984742
:103880004C4B98474C4B98474C4B98474C4B984760
:103890000F23FB1832221A702F20AA21494B984778
:1038A0002F20494B9847031EAA2B08D0474B984717
:1038B000021C0F23FB181B78DBB29A42ECD3404B5F
:1038C00098472F2055213F4B98472F203E4B984734
:1038D000031E552B08D03D4B9847021C0F23FB18A5
:1038E0001B78DBB29A42ECD33F23FB1800221A70FC
:1038F0001AE03F23FB181A781023FB185200D15C02
:103900003F23FB181B781022BA185B00D318013331
:103910001B78081C191C2B4B98473F23FB181A785F
:103920003F23FB1801321A703F23FB181A7810232B
:10393000FB185200D35CFF2BDBD10020244B9847AF
:10394000244B1B78DBB2181C234B98470120234BD8
:1039500098471B4B9847C04627201B4B9847031C92
:10396000DBB25BB2002B08DB184B9847021C0F231D
:10397000FB181B78DBB29A42EED3144B9847021C1B
:103980000F23FB181B78DBB29A4201D3002309E016
:10399000134B00221A70134B9847134BBA1D127821
:1039A0001A700123181CBD4611B090BD5536000099
:1039B000BD32000081330000293200005532000082
:1039C000E53300006D420000014200000D340000AC
:1039D00001410000C8010020CD350000ED39000094
:1039E000F9000020953200003C01002080B582B033
:1039F00000AF021CFB1D1A70FB1D1B789AB24C4BCA
:103A00001B889BB29A4200D18EE0FB1D1B78042BD1
:103A100000D988E09A00474BD3181B689F460120C5
:103A2000454B9847031CDBB21A1C1C239A43131CFA
:103A3000DBB21A1C0C231343DBB2DBB20120191CCE
:103A40003E4B98473E4B1B78DBB2002B03D0012046
:103A50003C4B984753E052E00120374B9847031CFA
:103A6000DBB21A1C1C239A43131CDBB21A1C102352
:103A70001343DBB2DBB20120191C304B9847304BAB
:103A80001B78DBB2002B03D000202E4B984736E08A
:103A900035E00120284B9847031CDBB21A1C1C237D
:103AA0009A43131CDBB21A1C08231343DBB2DBB2AC
:103AB0000120191C214B984721E001201E4B9847FB
:103AC000031CDBB21A1C1C239A43131CDBB21A1C06
:103AD00004231343DBB2DBB20120191C174B9847B8
:103AE0000DE00120144B9847031C1A1C1C239A4319
:103AF000131CDBB20120191C104B9847C046C0466E
:103B00000B4B1B889BB2002B07D127200A4B9847F1
:103B1000031CDBB25BB2002BF2DAFB1D1B789AB2FE
:103B2000034B1A8000E0C046BD4602B080BDC046CF
:103B3000C6010020B8480000014200006D420000AC
:103B4000C80100202943000080B500AF0B4B1B8843
:103B50009BB2032B0ED10A4B1B889BB2002B09D1C1
:103B6000084B9847031C5A3304DA0120064B984748
:103B7000012300E00023181CBD4680BDC6010020C3
:103B8000C0010020BD410000ED39000090B585B0B6
:103B900002AF041C3960101C191CFB1D221C1A707A
:103BA000BB1D021C1A707B1D0A1C1A703D20174B8E
:103BB0009847031C1A1C04231343DBB23D20191C35
:103BC000134B9847134B984701E0134B9847134BFF
:103BD0009847031C1A1C01235340DBB2002B05D06D
:103BE0000F4B9847021E0F4B9A42EED9FB1D1878D7
:103BF0003968BB1D1A787B1D1C7800230093231C99
:103C0000094CA047BD4603B090BDC046014200002C
:103C10006D420000E5330000A5400000493B000074
:103C20000D340000E70300003534000090B585B086
:103C300000AF041C3960101C191CFB1D221C1A70DB
:103C4000BB1D021C1A707B1D0A1C1A700F23FB1867
:103C500000221A7025E0FB1D19783A68BB1D1B78FD
:103C6000081C111C1A1C0123144CA047144B984724
:103C700008E0FB1D1B78181C124B9847031E01D04F
:103C8000012316E0104B9847021C2023FB181B78D9
:103C90009A42EED30F23FB181A780F23FB18013238
:103CA0001A700F23FA187B1D12781B789A42D2D90A
:103CB0000023181CBD4605B090BDC0468D3B0000DA
:103CC000E5330000CD3C00000D34000080B582B02B
:103CD00000AF021CFB1D1A70104B9847031E18D032
:103CE000FB1D1B789AB20E4B1B889BB29A4203D0E5
:103CF000FB1D1B78FF2B06D10A4B1B889BB2002BA8
:103D000001D0012300E000231A1C01231340DBB281
:103D100000E00023181CBD4602B080BDA540000095
:103D2000DE0000203E01002080B500AF094B1B885B
:103D30009BB2002B06D0084B1B889BB2FF2B01D0F7
:103D4000012300E000231A1C01231340DBB2181CDE
:103D5000BD4680BDC2010020C401002090B587B0DF
:103D600002AF78600A1CFB1C1A70264B00221A80D6
:103D7000254B1B889BB2DAB20F23FB181A70234B1A
:103D80001B889AB20C23FB181A803D20204B9847C1
:103D9000031C1A1C04231343DBB23D20191C1D4BCA
:103DA00098471D4B984701E01C4B98471C4B984780
:103DB000031C1A1C01235340DBB2002B05D0194B06
:103DC0009847021E184B9A42EED90F23FB181B7816
:103DD000DBB29AB20C4B1A800F23FB181B78D8B2B7
:103DE0007968FB1C1A780123009300230F4CA0472D
:103DF0000C23FB181B889AB2044B1A80BD4605B0F1
:103E000090BDC046C2010020DE0000200802002054
:103E1000014200006D420000E5330000A5400000B3
:103E2000493B00000D340000E7030000353400007A
:103E300080B582B000AF5B4B1B889BB2032B00D0D8
:103E4000A7E02820584B9847031C1A1C0423134052
:103E500000D19EE00120554B9847554B9847554A55
:103E6000554B101C00211A1C544B9847514A544B77
:103E7000101C00211A1C514B9847514B1B889BB2B8
:103E8000422B03D84E4B1B889AB200E042224C4B87
:103E90001A80484A4B4B101C00211A1C474B98476C
:103EA000494B1B78DBB201225340DBB2002B0DD013
:103EB000464B1B78DBB29AB2424B1B889BB29A42AC
:103EC00004D0404B1B889BB2FF2B04D13C4B1B887A
:103ED0009BB2022B07D83A4B00221A803C4B9847E2
:103EE0003C4B98475BE0364B1B889BB2033B9AB236
:103EF000394B1A802F4A394B101C00211A1C2F4BAA
:103F00009847BB1D00221A702A4ABB1D101C0021B5
:103F10001A1C2A4B9847BB1D1B789BB2802213406A
:103F20009AB22F4B1A80BB1D1B789BB240221340C4
:103F30009AB22C4B1A80FB1D00221A700FE0FB1D59
:103F40001B785A00284BD3181A4A101C00211A1C3F
:103F50001A4B9847FB1D1A78FB1D01321A70FB1D86
:103F60001B789AB21C4B1B889BB29A42E7D31A4B20
:103F70001B889BB23C2B07D8174B1B889BB21A1C83
:103F8000194B52000021D152114B98470320074B87
:103F90009847164B9847031C1A1C154B1A80BD46B0
:103FA00002B080BDC601002001420000ED390000D2
:103FB000D1420000CC0100205C0000201D15000053
:103FC000C0010020C4010020420100203C0100206B
:103FD000FD4200001540000040010020DE000020EE
:103FE0003E010020C201002044010020BD4100002C
:103FF0000802002080B500AF044B01221A70044B68
:104000009847024B00221A70BD4680BDF90000207F
:10401000313E000080B500AF184B00221A80184BCB
:1040200000221A80174B00221A80174B00221A8098
:10403000164B00221A80164B00221A80154B0022C4
:104040001A802820144B9847031C1A1C0423134081
:104050000BD03D20104B9847031C1A1C042313431C
:10406000DBB23D20191C0D4B9847252040210B4BFE
:10407000984703200A4B9847BD4680BD4001002069
:10408000DE000020C4010020C0010020C201002089
:104090003E01002008020020014200006D420000A5
:1040A000ED39000080B500AF0F4B98470F4B1B88D0
:1040B0009BB2032B09D10E4B1B889BB2002B04D063
:1040C00001200C4B984701230BE0084B1B889BB247
:1040D000032B03D1084B9847002302E0074B984776
:1040E0000023181CBD4680BD15300000C60100200D
:1040F000C0010020ED390000FD2F00001540000038
:1041000080B584B000AF78600120244B98477B686D
:10411000002B29D0224B9847224A234B101CBE214A
:104120001A1C224B98470F23FB1800221A7014E028
:104130000F23FB181B787A68D3181B789AB2194999
:10414000194B081C111C1A1C184B98470F23FB18FD
:104150001A780F23FB1801321A700F23FB181B78F3
:104160000F2BE5D9124B98473D20124B9847031C63
:10417000DBB21A1C01239A43131CDAB27B68591E66
:104180008B41DBB2DBB21343DBB2DBB23D20191C47
:10419000094B9847BD4604B080BDC046ED390000CC
:1041A000D1420000CC0100205C0000201D15000061
:1041B000FD420000014200006D42000080B582B067
:1041C00000AFBB1D00221A8024200C4B9847031C13
:1041D0009BB25B429BB29AB2BB1D1A80BB1D1B886F
:1041E0009BB21BB25B109AB2BB1D1A80BB1D1B8811
:1041F0009BB21BB2181CBD4602B080BD014200003C
:1042000080B584B000AF021CBB1D1A80124B9847CA
:10421000BB1D1B889BB27F2213409AB20F49104BE3
:10422000081C111C1A1C0F4B98470E23FB18002268
:104230001A800A4A0E23FB18101C00211A1C094B75
:104240009847094B98470E23FB181B889BB2DBB29B
:10425000181CBD4604B080BDD1420000CC01002036
:104260005C0000201D150000FD42000080B582B0FA
:1042700000AF021CFB1D1A70BB1D0A1C1A700F4BED
:104280009847FB1D1B78802252421343DBB29AB23F
:104290000B490C4B081C111C1A1C0B4B9847BB1DDF
:1042A0001B789AB20649074B081C111C1A1C064BB6
:1042B0009847064B9847BD4602B080BDD1420000EA
:1042C000CC0100205C0000201D150000FD42000014
:1042D00080B500AF054B9847054A064B101C191CCA
:1042E0000122054B9847BD4680BDC04615300000F1
:1042F000CC0100200C0200206516000080B500AF44
:10430000054A064B101C191C0022054B9847054B0B
:104310009847BD4680BDC046CC0100200C0200205D
:10432000651600006D43000080B582B000AF021C2E
:10433000FB1D1A70FB1D1B78002B01D05D2300E0D4
:1043400055235A20191C084B9847FB1D1B78002B3E
:1043500001D07C2300E070235C20191C024B98479D
:10436000BD4602B080BDC0466D42000080B500AFC2
:10437000054B1B78DBB201225340DBB2002B01D08E
:10438000024B9847BD4680BDF9000020FD2F00007C
:1043900090B58BB002AF364B98475B2002210022CC
:1043A000344B98470120344B9847344B181C344BFE
:1043B00098471023FB610023BB613B1D314A13CAA0
:1043C00013C312681A60BB690133BB61BB69092B57
:1043D00006DCBB69DBB23033DAB23B1DDA731BE0BB
:1043E000BB690A2B18DDBB69632B15DCBA69264B48
:1043F000101C0A219847031CDBB23033DAB23B1D94
:104400009A73BA69214B101C0A2198470B1CDBB226
:104410003033DAB23B1DDA7300237B61FB69DAB219
:10442000391D6423009301200223194CA047031E69
:1044300002D001237B6101E000237B610023FB614B
:10444000144B9847031E12D0134B1B889AB2124B81
:104450001A80124B1B889AB2104B1A80104B984747
:10446000031E04D00F4B181C00210F4B9847A4E7E4
:10447000952D000085360000CD350000CC480000A9
:1044800001410000E4480000CD45000099470000CC
:104490002D3C0000A5400000400100200802002043
:1044A000293D0000E04800005D3D00000022430877
:1044B0008B4274D303098B425FD3030A8B4244D3EC
:1044C000030B8B4228D3030C8B420DD3FF2209022E
:1044D00012BA030C8B4202D31212090265D0030BED
:1044E0008B4219D300E0090AC30B8B4201D3CB03E3
:1044F000C01A5241830B8B4201D38B03C01A524125
:10450000430B8B4201D34B03C01A5241030B8B4226
:1045100001D30B03C01A5241C30A8B4201D3CB0211
:10452000C01A5241830A8B4201D38B02C01A5241F6
:10453000430A8B4201D34B02C01A5241030A8B42F9
:1045400001D30B02C01A5241CDD2C3098B4201D311
:10455000CB01C01A524183098B4201D38B01C01A8F
:10456000524143098B4201D34B01C01A5241030906
:104570008B4201D30B01C01A5241C3088B4201D3B5
:10458000CB00C01A524183088B4201D38B00C01A62
:10459000524143088B4201D34B00C01A5241411A89
:1045A00000D20146524110467047FFE701B5002096
:1045B00000F0FCF802BDC0460029F7D003B5FFF7B4
:1045C00075FF0EBC4243891A1847C04603460B4389
:1045D0007FD4002243088B4274D303098B425FD3FC
:1045E000030A8B4244D3030B8B4228D3030C8B4228
:1045F0000DD3FF22090212BA030C8B4202D312120E
:10460000090265D0030B8B4219D300E0090AC30BE2
:104610008B4201D3CB03C01A5241830B8B4201D38F
:104620008B03C01A5241430B8B4201D34B03C01A78
:104630005241030B8B4201D30B03C01A5241C30AF0
:104640008B4201D3CB02C01A5241830A8B4201D361
:104650008B02C01A5241430A8B4201D34B02C01A4B
:104660005241030A8B4201D30B02C01A5241CDD2F0
:10467000C3098B4201D3CB01C01A524183098B423B
:1046800001D38B01C01A524143098B4201D34B0124
:10469000C01A524103098B4201D30B01C01A524187
:1046A000C3088B4201D3CB00C01A524183088B420E
:1046B00001D38B00C01A524143088B4201D34B00F7
:1046C000C01A5241411A00D2014652411046704769
:1046D0005DE0CA0F00D04942031000D3404253406E
:1046E00000229C4603098B422DD3030A8B4212D32E
:1046F000FC22890112BA030A8B420CD38901921160
:104700008B4208D3890192118B4204D389013AD09C
:10471000921100E08909C3098B4201D3CB01C01A71
:10472000524183098B4201D38B01C01A5241430984
:104730008B4201D34B01C01A524103098B4201D372
:104740000B01C01A5241C3088B4201D3CB00C01ADF
:10475000524183088B4201D38B00C01A5241D9D2F7
:1047600043088B4201D34B00C01A5241411A00D278
:104770000146634652415B10104601D34042002B74
:1047800000D54942704763465B1000D3404201B5F3
:10479000002000F00BF802BD0029F8D003B5FFF7A8
:1047A00015FF0EBC4243891A1847C0467047C046E1
:1047B0000E4B70B500251E1C0D4CE41AA410A5422A
:1047C00004D0AB00F35898470135F8E700F092F8B1
:1047D000084B00251E1C084CE41AA410A54204D066
:1047E000AB00F35898470135F8E770BD0049000069
:1047F000004900000049000004490000002310B5F2
:10480000934203D0CC5CC4540133F9E710BD031CC0
:104810008218934202D019700133FAE77047000002
:104820000100000002000000040000000800000079
:104830000010000000200000004000000080000088
:104840000000010000000200000004000000080059
:1048500000080042000C0042001000420014004218
:1048600000180042001C0042090A0B0C0D0E00004B
:10487000D22200004E2300004E230000F42200004C
:10488000EE220000FA220000D822000000230000DF
:1048900034230000F42400004425000044250000D7
:1048A00040250000E624000006250000D624000074
:1048B000182500002A250000E23A0000BA3A00005C
:1048C000923A0000583A00001E3A0000544F5053EC
:1048D0004543524554504153535752440000000041
:1048E0000000000048656C6C6F20576F726C64218B
:1048F00020202000F8B5C046F8BC08BC9E46704792
:10490000DD000000F8B5C046F8BC08BC9E46704704
:04491000B5000000EE
:04491400010000009E
:0400000300002DC507
:00000001FF
