S0150000446F6E676C65204D6F64756C652E7372656330
S11300003026002071900000699100006991000081
S113001000000000000000000000000000000000DC
S113002000000000000000000000000069910000D2
S113003000000000000000006991000069910000C8
S113004069910000699100006991000069910000C4
S1130050514800006991000069910000B98C0000CA
S113006069910000699100006991000069910000A4
S11300706991000069910000699100006991000094
S11300806991000069910000699100006991000084
S11300906991000000000000000000006991000068
S11300A06991000069910000699100006991000064
S11300B00000000010B5064C2378002B07D1054B37
S11300C0002B02D0044800E000BF0123237010BDC0
S11300D0E000002000000000F09E0000084B10B576
S11300E0002B03D00749084800E000BF0748036815
S11300F0002B00D110BD064B002BFBD09847F9E72D
S113010000000000E4000020F09E0000F09E0000CB
S11301100000000080B582B000AF78607B680022E8
S11301201A70C046BD4602B080BDC04680B582B0DC
S113013000AF02003960FB1D1A70FB1D1B78012BF8
S11301400AD0022B0FD0002B14D10E4B0D4A91690B
S11301503A680A439A610FE00A4B0A4AD1693A683D
S11301600A43DA6108E0074B064A116A3A680A430F
S11301701A6201E0172300E000231800BD4602B014
S113018080BDC0460004004080B584B000AF7860F4
S11301907B681B68FB60FB689B7ADBB25BB2002B5D
S11301A001DA012300E000231800BD4604B080BD3D
S11301B080B584B000AF78607B681B68FB60C04684
S11301C07B681800074B9847031EF9D1FB681B880E
S11301D09BB2022213439AB2FB681A80C046BD4602
S11301E004B080BD8901000080B584B000AF7860A0
S11301F07B681B68FB60C0467B681800074B984708
S1130200031EF9D1FB681B889BB2022293439AB266
S1130210FB681A80C046BD4604B080BD8901000059
S113022080B584B000AF78607B681B68FB607B6836
S113023018000A4B9847C0467B681800084B98473B
S1130240031EF9D1FB681B889BB2012213439AB2A7
S1130250FB681A80C046BD4604B080BDE9010000B9
S11302608901000080B584B000AF786039607B6894
S11302701B68BB603B681A88BB681A803B689B7824
S1130280002B3AD0012B00D06CE0BB681B889AB2DB
S1130290BB681A803B68DB78002B07D0BB681B88DF
S11302A09BB2802213439AB2BB681A800F23FB18B7
S11302B000221A701BE0C0467B681800334B984735
S11302C0031EF9D10F23FB181A783B6802329200FF
S11302D0D1580F23FB181A787B6818002C4B9847C9
S11302E00F23FB181A780F23FB1801321A700F23FF
S11302F0FB181B78002BDED036E0BB681B889BB252
S1130300042213439AB2BB681A803B68DB78002B43
S113031001D0172336E00E23FB1800221A701BE0CD
S1130320C0467B681800194B9847031EF9D10E2369
S1130330FB181A783B6802329200D1580E23FB183E
S11303401A787B681800124B98470E23FB181A780A
S11303500E23FB1801321A700E23FB181B78012B95
S1130360DED901E017230DE03B681B79002B08D090
S1130370BB685B889BB28022D20113439AB2BB68EC
S11303805A8000231800BD4604B080BD89010000D6
S1130390ED04000080B586B000AFF860B9607A6003
S11303A0FB68BA681A6020210020174B9847142371
S11303B0FB181800154B98471423FB1802221A70D7
S11303C01423FB1819000420114B98470420114BE7
S11303D09847FB681800104B98477B689A78FB682D
S11303E01A717B681A79FB685A710C4BFA681A60A7
S11303F07A68FB6811001800094B9847030018003D
S1130400BD4606B080BDC0462D01000015010000A8
S113041075570000B957000021020000380200207F
S11304206502000080B584B000AF786039607B68F5
S11304301B68FB60C0467B681800104B9847031E7E
S1130440F9D17B681B79002B05D0012B0ED1FB68F9
S11304503A681A610CE03B68094A934201D91723B0
S113046007E03B689AB2FB681A8201E0172300E0B8
S113047000231800BD4604B080BDC04689010000B9
S1130480FFFF000080B584B000AF78607B681B6814
S1130490BB607B685B7901225340DBB2002B09D03F
S11304A0BB68104A5A80C0467B6818000E4B9847B8
S11304B0031EF9D17B681B79002B05D0012B08D1D1
S11304C0BB681B69FB6007E0BB681B8A9BB2FB60CF
S11304D002E00023FB60C046FB681800BD4604B080
S11304E080BDC0460080FFFF8901000080B586B052
S11304F000AFF860B960FB1D1A70FB681B687B6174
S1130500C046FB6818001A4B9847031EF9D1FB68D4
S11305101B79002B0FD0012B22D1FB1D1B78012B43
S113052001D917231FE0FB1D1A787B69063292005C
S1130530B968D15016E0FB1D1B78022B01D9172393
S113054011E0BB680B4A934201D917230BE0FB1D52
S11305501A78BB6899B27B690C325200D15201E01F
S11305601A2300E000231800BD4606B080BDC04633
S113057089010000FFFF000080B584B000AF7860FF
S11305800A00BB1C1A807B681B68FB607B681B79B4
S1130590002B01D015230BE0C0467B681800064BE6
S11305A09847031EF9D1FB68BA1C12889A8200236B
S11305B01800BD4604B080BD8901000080B582B03A
S11305C000AF78607B6800221A70C046BD4602B056
S11305D080BDC046F0B58DB000AFB860F9603A6038
S11305E07B60002300243B627C6200230024BB6107
S11305F0FC613F23FB6253E0FB6A203B002B04DBDE
S113060001229A4013007B610BE0FB6A2022D31A7B
S11306100122DA4013000021FA6A91400A001343D0
S11306207B610122FB6A9A4013003B61BB69FC6950
S1130630DB186441BB61FC61BB683A691A40150070
S1130640FB687A691A4016002B00334307D0BB6954
S113065001221343BB61FB6900221343FB617A68E7
S1130660FB699A4219D87A68FB699A4203D13A68BD
S1130670BB699A4211D8B969FA693B687C68C91A9E
S1130680A2410B001400BB61FC613A6A3B6913434D
S11306903B627A6A7B6913437B62FB6A013BFB62C0
S11306A0FB6A002BA8DA3B6A7C6A18002100BD466D
S11306B00DB0F0BD80B586B000AFF860B9607A6067
S11306C01623FB1800221A80BB683B61BB685A08DA
S11306D0FB689A4201D2402326E0BB685B083B6179
S11306E00AE03A69FB68D31A3B611623FB181A889F
S11306F01623FB1801321A803A69FB689A42F0D239
S11307001623FB181622BA181288013A1A801623E7
S1130710FB181B88FF2B01D9402305E07B681622B8
S1130720BA1812881A8000231800BD4606B080BD8E
S1130730F0B59DB000AFF863B9637A633322BA1899
S1130740137000230024BB65FC65002300243B6573
S11307507C6500230024BB66FC6600233B665823AB
S113076030229446BC4463441A78FB6B5A43BB6BF7
S11307709A4201D94023C6E03323FB181B78002B8F
S11307803DD1582330229446BC4463441B78DBB2E9
S11307903B6100237B61FB6BBB600023FB605C4C13
S11307A0BA68FB6838697969A04703000C001B002C
S11307B0FB640023BB64BB6B3B6000237B60B86CB1
S11307C0F96C3A687B68534CA04703000C00BB6586
S11307D0FC6500210122BB6DFC6DC91AA2410B000E
S11307E014003B657C653B6D1B0C7A6D16041E433F
S11307F03B6D1D043300BB660023FB667DE03323A1
S1130800FB181B78012B00D077E037233022944665
S1130810BC44634400221A704EE0BB6BBB620023ED
S1130820FB62B86AF96A03005B0F0A00D200134343
S1130830FB640300DB00BB64FB6B3B6200237B6255
S1130840582330229446BC4463441B78DBB2BB611A
S11308500023FB612E4CBA69FB69386A796AA047A8
S113086003000C003B647C643B6C7C6CB86CF96CDE
S11308701A002300274CA04703000C003B663723D3
S113088030229446BC4463441B783A6ED31A3B66C8
S11308903B6EDB083B663B6E1F4A934215D93723F8
S11308A030229446BC4463441A78372330218C4662
S11308B0BC44634401321A70372330229446BC444A
S11308C063441B78072BA8D900E0C04637233022A5
S11308D09446BC4463441B78082B01D1402312E0A6
S11308E0372330229446BC4463441B785B031A00CC
S11308F03B6E1343BB660023FB66BB6EFC6E9AB271
S11309007B6B1A8000231800BD461DB0F0BDC046A5
S1130910099D0000D5050000FF1F000080B584B0CC
S113092000AF0200FB1D1A70BB1D0A1C1A701A4B83
S11309301B7801225340DBB2002B03D1BB1D1B7873
S1130940002B1BD00C23FB181800144B98470C23C6
S1130950FB18FA1D12781A700C23FB1819001320C7
S11309600F4B984713200F4B98470B4BFA1D1278E7
S11309705A70094B01221A70002308E0064B5B7879
S1130980FA1D12789A4201D1002300E01D231800B9
S1130990BD4604B080BDC046FC000020BD0500007B
S11309A075570000B957000080B582B000AF786079
S11309B00A00FB1C1A707B684D4A93423FD04C4A94
S11309C0934206D84B4A93420FD04B4A934221D0CC
S11309D089E04A4A934200D15BE0494A934200D1FC
S11309E06CE0484A93423FD07DE0FB1C1B78012B0E
S11309F00AD002DC002B05D075E0022B06D0032BB5
S1130A0006D070E0404B6FE0404B6DE0404B6BE034
S1130A10404B69E0FB1C1B78012B0AD002DC002B45
S1130A2005D060E0022B06D0032B06D05BE0032345
S1130A305AE0394B58E0394B56E0394B54E0FB1C33
S1130A401B78012B0AD002DC002B05D04BE0022BD3
S1130A5006D0032B06D046E0324B45E0324B43E050
S1130A60324B41E0324B3FE0FB1C1B78012B0AD098
S1130A7002DC002B05D036E0022B06D0032B06D077
S1130A8031E02C4B30E02C4B2EE02C4B2CE02C4B4B
S1130A902AE0FB1C1B78012B0AD002DC002B05D0BA
S1130AA021E0022B06D0032B06D01CE0254B1BE0D3
S1130AB0254B19E0254B17E0254B15E0FB1C1B7853
S1130AC0012B0AD002DC002B05D00CE0022B06D04F
S1130AD0032B06D007E01F4B06E01F4B04E01F4B1F
S1130AE002E01F4B00E000231800BD4602B080BDA9
S1130AF00010004200080042000C004200180042AE
S1130B00001C00420014004203000400030005001E
S1130B1003000600030007000300010003001E0099
S1130B2003001F00030008000300090003000A007B
S1130B3003000B0003001000030011000300120067
S1130B400300130003000C0003000D0003000E005B
S1130B5003000F0003001600030017000300180031
S1130B600300190090B58BB000AF78600C23FB181C
S1130B700F4A13CA13C313CA13C300237B620EE0C4
S1130B800C23FB187A6A9200D3581A1E7B689A4287
S1130B9002D17B6ADBB206E07B6A01337B627B6A4B
S1130BA0052BEDD900231800BD460BB090BDC046FF
S1130BB0D09D000080B582B000AF78607B68802251
S1130BC01A707B6800225A707B6801229A707B68D5
S1130BD00022DA70C046BD4602B080BD80B584B044
S1130BE000AF0200FB1D1A700F23FB18FA1D1278C8
S1130BF0D2091A700E23FB18FA1D127852091A70C2
S1130C000D4BBB600F23FB181B78002B0FD10F2358
S1130C10FB181B789B0010229446BC446344083B99
S1130C201A680E23FB181B78DB01D31800E000239D
S1130C301800BD4604B080BD0044004180B586B0B4
S1130C4000AF0200FB1D1A70FB1D1B781800194B26
S1130C50984703007B61FB1D1B781F2213403B61F7
S1130C607A6940213B69D3185B181B78DBB21A0000
S1130C700123134001D1802318E03B695B087A69A2
S1130C803021D3185B181B78DBB2FB603B6901226F
S1130C90134006D0FB681B09DBB20F221340DBB202
S1130CA004E0FB68DBB20F221340DBB21800BD4640
S1130CB006B080BDDD0B000080B582B000AF02003D
S1130CC0FB1D1A70FB1D1B781800034B984703008B
S1130CD01800BD4602B080BDDD0B000080B584B0B5
S1130CE000AF0200FB1D1A70BB1D0A1C1A70FB1D0D
S1130CF01B7818000D4B98470300FB60FB1D1B7805
S1130D001F22134001229A401300BB60BB1D1B78B5
S1130D10002B03D0FB68BA689A6102E0FB68BA68EA
S1130D205A61C046BD4604B080BDC046B90C00003F
S1130D3080B582B000AF78607B6800221A70C0462C
S1130D40BD4602B080BDC04680B582B000AF02008F
S1130D503960FB1D1A70FB1D1B78012B0AD0022B76
S1130D600FD0002B14D10E4B0D4A91693A680A43F7
S1130D709A610FE00A4B0A4AD1693A680A43DA6178
S1130D8008E0074B064A116A3A680A431A6201E00E
S1130D90172300E000231800BD4602B080BDC04602
S1130DA00004004080B500AF054B9B78DBB21A000D
S1130DB0022313405A1E9341DBB21800BD4680BD86
S1130DC00020004180B584B000AF78607B681B6868
S1130DD0FB60FB681B7EDBB21A00012313405A1E22
S1130DE09341DBB21800BD4604B080BD80B584B029
S1130DF000AF78607B681B68FB60FB681B7EDBB21E
S1130E001A00042313405A1E9341DBB21800BD4656
S1130E1004B080BD80B584B000AF78600A00BB1C0C
S1130E201A807B681B68FB607B6818000A4B984734
S1130E3003001A0001235340DBB2002B01D0052329
S1130E4006E0BB1C1B88DB05DA0DFB689A620023F5
S1130E501800BD4604B080BDC50D000080B584B047
S1130E6000AF786039607B681B68BB607B681800E2
S1130E701D4B984703001A0001235340DBB2002B9B
S1130E8001D010232CE00F23FB1800221A70BB683A
S1130E905B8B9BB21A00042313400BD00F23FB1867
S1130EA01E221A70BB685B8B9BB2042213439AB256
S1130EB0BB685A837B689B79012B08D1BB689B6A0A
S1130EC09BB2DB05DB0D9AB23B681A8005E0BB6878
S1130ED09B6ADBB29AB23B681A800F23FB181B781B
S1130EE01800BD4604B080BDED0D000090B593B070
S1130EF000AF786039607B681B687B637B681B6824
S1130F003B631C23FB181800854B98471C23FB18D4
S1130F1000225A703B681B78002B03D11C23FB185A
S1130F2000229A703B689A6A0C23FB181A603B688B
S1130F30DA6A0C23FB185A603B681A6B0C23FB1803
S1130F409A603B685A6B0C23FB18DA604723FB1842
S1130F5000221A702CE04723FB181A780C23FB1884
S1130F609200D3583B643B6C002B09D14723FB18F8
S1130F701A783B6B110018006A4B984703003B64D6
S1130F803B6C01330DD03B6CDAB21C23FB181A7096
S1130F903B6C1B0CDBB21C22BA1811001800624B0C
S1130FA098474723FB181A784723FB1801321A7015
S1130FB04723FB181B78032BCDD93B681A787B6831
S1130FC05A713B681A7C7B689A713B689A7C7B688F
S1130FD0DA713B681A7D7B681A720A23FB180022B7
S1130FE01A800023FB630023BB633B681B78012B3F
S1130FF029D17B681B6818004C4B98470300FB629F
S1131000FB6A1433BB62BB6ADBB21800484B9847D7
S113101003007B623B689B692322BC180A22BA182E
S1131020796A1800434B9847030023702323FB1865
S11310301B78002B01D017236DE00A23FB181B88B3
S1131040DAB27B6B1A733B681B78002B1AD13B68AE
S11310509B69FB633B689B8BBB637B6B5B6A3A68F6
S1131060927F11003A68D27F12040A431A437B6BC1
S11310705A623B6820229B5C002B03D0BB6B40224E
S11310801343BB633B685B68FA6B1343FB633B68C6
S11310909B68FA6B1343FB633B68DB68FA6B13438F
S11310A0FB633B681B7C1A00BB6B1343BB633B684D
S11310B05B7C002B03D1204B9847031E03D0FB6BB2
S11310C080221343FB633B689B7C002B04D0BB6BE7
S11310D0802292021343BB633B68DB7C002B04D069
S11310E0BB6B802292001343BB633B681B7D002BC8
S11310F004D0BB6B802292011343BB637B6B1A68E1
S1131100FB6B1A437B6B1A607B6B5A68BB6B1A438D
S11311107B6B5A6000231800BD4613B090BDC046D7
S1131120B50B0000A9090000615A0000650B00001E
S113113099580000B5060000A50D000090B591B0C7
S113114000AF786039607B681B68FB627B681B6852
S1131150BB623B689A6A0C23FB181A603B68DA6A24
S11311600C23FB185A603B681A6B0C23FB189A601B
S11311703B685A6B0C23FB18DA603F23FB180022F0
S11311801A7030E03F23FB181A780C23FB189200E6
S1131190D358BB63BB6B002B09D13F23FB181A78D0
S11311A0BB6A110018006E4B98470300BB63BB6B0E
S11311B0013310D0BB6B1B041C0CBB6B1B0CDBB2D0
S11311C01800684B984703009C4205D07B680022B6
S11311D01A601C23BFE0C0463F23FB181A783F2344
S11311E0FB1801321A703F23FB181B78032BC9D953
S11311F013205D4B984703007B6200237B6300232D
S11312003B6300233B623B681B78012B21D13B6885
S11312109B691F22BC180A22BA18796A1800534B1A
S11312209847030023701F23FB181B78002B01D061
S1131230172390E0FB6A1B7BDAB20A23FB181B8896
S1131240DBB29A4201D01C2385E07B6B0C22134352
S11312507B633B681B78002B29D13B689B697A6BC5
S113126013437B633B689B8B1A003B6B13433B63C9
S11312703B689B7F1A003B68DB7F1B0413431A0007
S11312803B6A13433B62FB6A1A683B6A9A4201D089
S11312901C2360E03B6820229B5C002B03D03B6B4B
S11312A0402213433B637B6B082213437B633B68FD
S11312B05B687A6B13437B633B689B687A6B13436D
S11312C07B633B68DB687A6B13437B633B681B7C03
S11312D01A003B6B13433B633B685B7C002B03D0DE
S11312E07B6B802213437B633B689B7C002B04D085
S11312F03B6B8022920213433B633B68DB7C002BF5
S113130004D03B6B8022920013433B633B681B7DFC
S1131310002B04D03B6B8022920113433B637B6B15
S1131320022213437B63FB6A1A687B6B9A420ED1D9
S1131330FB6A5A683B6B9A4209D13B681A787B680E
S11313405A713B681A7C7B689A71002303E07B68BE
S113135000221A601C231800BD4611B090BDC0467F
S1131360A90900003D0C000099580000B5060000D2
S113137080B58AB000AFF860B9607A60FB68BA687B
S11313801A60FB681B687B627B6A1B68022213403D
S113139007D07A68FB68110018002F4B98470300A8
S11313A055E07B6A1B680122134001D005234EE0FF
S11313B0FB681B681800294B984703003B623B6A93
S11313C00233FB613B6A1433BB610122FB699A401F
S11313D0130019000220224B98471423FB1818000D
S11313E0204B98477B6824229A5C1423FB181A70BC
S11313F0BB69DBB21422BA18110018001A4B9847C3
S1131400BB69DBB21800194B98477B6824229B5CAC
S113141000211800164B98477B681B78012B05D1D7
S11314207B6A1B680C221A437B6A1A607B681B78F0
S1131430002B05D17B6A1B6808221A437B6A1A6059
S11314407A68FB68110018000A4B984703001800DB
S1131450BD460AB080BDC0463D110000650B0000CA
S1131460490D0000310D000075570000B957000008
S11314701D090000ED0E000090B587B000AFF860C4
S11314807A600A23FB180A1C1A80FB68DB790122A4
S11314905340DBB2002B01D01C237CE01523FB1846
S11314A000221A70FB685B79002B21D11623FB18EC
S11314B000221A8014E0FB681800394B9847031E79
S11314C015D11623FB181B88364A934201D11223E7
S11314D061E01623FB181A881623FB1801321A80C0
S11314E01623FB181B882F4A9342E4D900E0C04618
S11314F0C046FB6818002A4B984703001A000123D2
S11315005340DBB2002BF4D10A23FB181A88FB6882
S113151011001800244B9847FB685B79002B21D1FC
S11315201623FB1800221A8014E0FB6818001F4BD6
S11315309847031E15D11623FB181B88194A93429A
S113154001D1122327E01623FB181A881623FB184F
S113155001321A801623FB181B88124A9342E4D9DD
S113156000E0C046C046FB681800104B98470300D3
S11315701A0001235340DBB2002BF4D11523FC18CD
S11315807A68FB6811001800094B98470300237020
S11315901523FB181B781800BD4607B090BDC04644
S11315A0C50D000010270000150E0000ED0D000011
S11315B05D0E000080B586B000AFF860B960FB1D19
S11315C01A70FB685B79012B01D015235CE0FB6882
S11315D01B7A01225340DBB2002B54D0FB1D1B7835
S11315E0002B4AD0BB685B78002B3FD0FB68180007
S11315F0274B984703001A0001235340DBB2002B0A
S113160007D0BB681B7801211800224B984705239B
S11316103AE0BB681B78002118001E4B9847BB6852
S11316209B789AB2FB68110018001B4B9847FB6823
S1131630DB7901225340DBB2002B24D0C046FB6887
S11316401800164B984703001A0001235340DBB2DD
S1131650002BF4D11623FB1800221A801623FA1843
S1131660FB68110018000E4B98470CE0BB681B7810
S113167000211800074B984705E0BB681B7801213F
S11316801800044B984700231800BD4606B080BDDF
S1131690C50D0000DD0C0000150E0000ED0D00006E
S11316A05D0E000080B582B000AF78607B680022D8
S11316B01A70C046BD4602B080BDC04680B582B037
S11316C000AF02003960FB1D1A70FB1D1B78012B53
S11316D00AD0022B0FD0002B14D10E4B0D4A916966
S11316E03A680A439A610FE00A4B0A4AD1693A6898
S11316F00A43DA6108E0074B064A116A3A680A436A
S11317001A6201E0172300E000231800BD4602B06E
S113171080BDC0460004004080B582B000AF786050
S11317207B6880221A707B6800225A707B680122D1
S11317309A707B680022DA70C046BD4602B080BD54
S113174080B500AF054B9B78DBB21A00022313402F
S11317505A1E9341DBB21800BD4680BD00200041F3
S113176080B584B000AF78607B681B68FB60FB6861
S1131770DB695A1E9341DBB21800BD4604B080BD3C
S113178080B582B000AF7860C0467B681800044B17
S11317909847031EF9D1C046BD4602B080BDC0467D
S11317A061170000B0B58CB002AF786039607B6817
S11317B01B68BB617B681B681800A84B9847030033
S11317C07B617B6914333B6100237B6200233B62B2
S11317D00A23FB1800221A801F23FB1800221A7008
S11317E01E23FB1810221A703B681B8A8022D20128
S11317F093421CD08022D201934206DC002B0DD0F0
S113180080229201934224D035E0C022D201934237
S113181028D080221202934212D02CE01F23FB18FE
S113182000221A701E23FB1810221A7023E01F23B3
S1131830FB1800221A701E23FB1808221A701AE0E3
S11318401F23FB1800221A701E23FB1803221A7090
S113185011E01F23FB1801221A701E23FB1810220B
S11318601A7008E01F23FB1801221A701E23FB18AC
S113187008221A70C0463B681A683B68DB681A4342
S11318803B685B6913433A68128A13433A68127ED1
S1131890120213433A682621525C520713437B62B7
S11318A01D23FB1800221A703B685B68FB60FB6811
S11318B0002B1ED08022520593424FD13B68272231
S11318C09B5C01225340DBB2002B46D03B681D6A6F
S11318D03B69DBB21800624B984701001D23FC18DA
S11318E00A23FB181A0028005E4B98470300237054
S11318F033E03B6827229B5C002B14D03B68186ABA
S11319003B68996A1D23FC181F23FB181D780A23C2
S1131910FA181E23FB181B7800932B00524DA8477E
S1131920030023701AE03B681D6A3B69DBB21800B0
S11319304B4B98471D23FC181F23FB1819780A23C7
S1131940FA181E23FB181B7800930B0001002800D3
S1131950454DA8470300237000E0C0461D23FB1833
S11319601B78002B03D01D23FB181B7871E03B6808
S11319705B7E002B03D03B689A7EBB699A737B68BD
S113198018003A4B98470A23FB181A88BB699A81B6
S11319907A6AFB6813437B623B6827229B5C0122C3
S11319A05340DBB2002B03D07B6A042213437B62D7
S11319B03B685B7E9A023B681B7F5B021A433B6871
S11319C05B7F1B021A433B6824215B5C5B041A4364
S11319D03B6825215B5C1B0413433B623B68DB7A59
S11319E01A003B6A13433B623B681B89FF2B0BD0F5
S11319F07B6A8022520413437B623B681B891A0072
S1131A003B6A13433B6208E03B68DB7E002B04D057
S1131A107B6A8022D20413437B623B682C229B5C4A
S1131A20002B03D1124B9847031E03D07B6A8022FC
S1131A3013437B627B6818000C4B9847BB693A6A76
S1131A405A607B681800094B9847BB697A6A1A6028
S1131A5000231800BD460AB0B0BDC046650B0000A7
S1131A6099580000B50600003107000081170000F6
S1131A704117000090B593B000AFF860B9607A6088
S1131A803F23FB1800221A70FB68BA681A60FB68CF
S1131A901B68BB63FB681B681800634B9847030013
S1131AA07B637B6B02333B637B6B1433FB62BB6BEB
S1131AB01B680122134001D00523B1E0BB6B1B68F6
S1131AC00222134001D01C23AAE001223B6B9A405E
S1131AD0130019000220554B98472823FB181800BF
S1131AE0534B98477B682D229A5C2823FB181A7065
S1131AF0FB6ADBB22822BA18110018004D4B984734
S1131B00FB6ADBB218004C4B98477B682D229B5C28
S1131B1000211800494B98477B68DA7AFB685A71B0
S1131B207B6824229A5CFB689A717B6825229A5C04
S1131B30FB68DA717B68DA7EFB681A727B681A7F4D
S1131B40FB685A723F23FC187A68FB68110018007E
S1131B503B4B9847030023703F23FB181B78002B53
S1131B6003D03F23FB181B785AE02423FB181800EA
S1131B70344B98472423FB1800225A702423FB1863
S1131B8000229A707B681A6B1423FB181A607B6816
S1131B905A6B1423FB185A607B689A6B1423FB1846
S1131BA09A607B68DA6B1423FB18DA604723FB180E
S1131BB000221A702CE04723FB181A781423FB1810
S1131BC09200D3583B643B6C002B09D14723FB188C
S1131BD01A78BB68110018001B4B984703003B643C
S1131BE03B6C01330DD03B6CDAB22423FB181A7022
S1131BF03B6C1B0CDBB22422BA1811001800134BE7
S1131C0098474723FB181A784723FB1801321A70A8
S1131C104723FB181B78032BCDD93F23FB181B78D4
S1131C201800BD4613B090BD650B0000BD16000042
S1131C30A516000075570000B95700001D090000E3
S1131C40A517000019170000A9090000615A000037
S1131C5080B584B000AF78600A00BB1C1A807B6832
S1131C601B68FB607B68DB7901225340DBB2002BED
S1131C7001D01C2319E0FB681B7EDBB21A00012390
S1131C80134001D1052310E07B681800094B9847E5
S1131C90FB68BA1C12881A85C046FB681B7EDBB23F
S1131CA01A0002231340F8D000231800BD4604B0E4
S1131CB080BDC0468117000080B584B000AF786055
S1131CC039607B681B68FB607B689B790122534009
S1131CD0DBB2002B01D01C2361E0FB681B7EDBB26E
S1131CE01A000423134001D1052358E07B6818002F
S1131CF02D4B9847FB685B8B9BB2DAB20B23FB1826
S1131D003F210A401A700B23FB181B78002B40D08C
S1131D100B23FB181B780222134004D0FB68022219
S1131D205A831A233BE00B23FB181B78042213402D
S1131D3004D0FB6804225A831E2330E00B23FB18D3
S1131D401B780122134004D0FB6801225A83132319
S1131D5025E00B23FB181B781022134009D0FB68E5
S1131D605B8B9BB2102213439AB2FB685A834223C3
S1131D7015E00B23FB181B782022134009D0FB68C5
S1131D805B8B9BB2202213439AB2FB685A83412394
S1131D9005E0FB681B8D9AB23B681A80002318008B
S1131DA0BD4604B080BDC0468117000080B58AB02E
S1131DB000AFF860B960BB1D1A80BB1D1B88002BE7
S1131DC001D117237EE0FB68DB7901225340DBB2AB
S1131DD0002B01D01C2375E0FB681B687B61FB684A
S1131DE018003A4B98472623FB1800221A8048E033
S1131DF000233B620FE07B691B7EDBB21A000123E8
S1131E0013400DD13B6A324A934201D1122359E067
S1131E103B6A01333B623B6A2D4A9342EBD900E0B3
S1131E20C0462623FB181B882622BA18591C118089
S1131E301A00BB689B181A781E23FB181A80FB68CB
S1131E405B79012B15D12623FB181B882622BA188F
S1131E50591C11801A00BB689B181B781B021AB20C
S1131E601E23FB1800215B5E13431AB21E23FB18CA
S1131E701A801E23FB181A88FB6811001800154BE2
S1131E809847BB1D1B88BA1D591E1180002BAFD16A
S1131E900023BB610FE07B691B7EDBB21A000223C7
S1131EA013400DD1BB690A4A934201D1122309E0C0
S1131EB0BB690133BB61BB69054A9342EBD900E0BE
S1131EC0C04600231800BD460AB080BD811700003B
S1131ED0FFFF0000511C000090B589B000AFF8600E
S1131EE0B960BB1D1A80BB1D1B88002B01D11723B1
S1131EF06DE0FB689B7901225340DBB2002B01D0DB
S1131F001C2364E0FB681B687B611E23FB18002212
S1131F101A8054E00023BB610FE07B691B7EDBB2B7
S1131F201A00042313400DD1BB692B4A934201D1FB
S1131F3012234CE0BB690133BB61BB69264A93425F
S1131F40EBD900E0C0461023FB1800221A801323AB
S1131F50FC181023FA18FB68110018001F4B98474F
S1131F60030023701323FB181B78002B03D01323C7
S1131F70FB181B782BE01E23FB181B881E22BA18A3
S1131F80591C11801A00BB689B181022BA181288B9
S1131F90D2B21A70FB685B79012B10D11E23FB1897
S1131FA01B881E22BA18591C11801A00BB689B1882
S1131FB01022BA181288120A92B2D2B21A70BB1D39
S1131FC01B88BA1D591E1180002BA3D100231800B1
S1131FD0BD4609B090BDC046FFFF0000B91C00001B
S1131FE080B584B000AF0200FB1D1A700F23FB18EC
S1131FF0FA1D1278D2091A700E23FB18FA1D1278F2
S113200052091A700D4BBB600F23FB181B78002B71
S11320100FD10F23FB181B789B0010229446BC445D
S11320206344083B1A680E23FB181B78DB01D318A2
S113203000E000231800BD4604B080BD0044004108
S113204080B582B000AF0200FB1D1A70FB1D1B7827
S11320501800034B984703001800BD4602B080BD2A
S1132060E11F000080B582B000AF78607B68002279
S11320701A707B6801225A707B6800229A70C046ED
S1132080BD4602B080BDC04680B584B000AF02003A
S1132090FB1D1A70FB1D1B7818000B4B984703009F
S11320A0FB60FB1D1B781F22134001229A40130082
S11320B0BB60FB681B6ABA6813405A1E9341DBB2CB
S11320C01800BD4604B080BD4120000080B584B036
S11320D000AF0200FB1D1A70BB1D0A1C1A70FB1D09
S11320E01B7818000D4B98470300FB60FB1D1B7801
S11320F01F22134001229A401300BB60BB1D1B78B2
S1132100002B03D0FB68BA689A6102E0FB68BA68E6
S11321105A61C046BD4604B080BDC046412000009F
S113212080B584B000AF78607B68A02212011A8069
S11321307B6801229A707B680022DA707B68002237
S11321401A710F23FB1800221A700EE00F23FB18DC
S11321501A787B68023292000021D1500F23FB18B9
S11321601A780F23FB1801321A700F23FB181B78FF
S1132170012BEBD9C046BD4604B080BD80B584B008
S113218000AF78607B681B68FB60FB68DB695A1EE4
S11321909341DBB21800BD4604B080BD80B582B067
S11321A000AF78607B6801221A707B6800225A6055
S11321B07B6800229A607B68C0229203DA607B68A5
S11321C000221A747B6800225A747B6801229A7474
S11321D07B680122DA747B6800221A757B682422EA
S11321E0002199547B6818330C22002118000A4BF3
S11321F098477B68094A9A617B6800229A627B68E7
S11322000022DA627B6800221A637B6800225A6328
S1132210C046BD4602B080BDBF9D0000A08601003F
S113222080B582B000AF78607B680A221A707B6840
S113223000225A707B6800229A70C046BD4602B0E4
S113224080BDC04680B584B000AF786039603B681B
S11322501A787B681A703B685A787B685A703B68B6
S11322609A787B689A700C23FB1818000B4B9847DC
S11322700C23FB1801221A707B681B780C22BA18F5
S113228011001800064B98477B681B780121180041
S1132290044B9847C046BD4604B080BD652000008D
S11322A0B54C0000CD20000080B584B000AF78604C
S11322B07B681B68FB60C0467B681800064B984728
S11322C0031EF9D1FB681B6802221A43FB681A60DB
S11322D0C046BD4604B080BD7D21000080B582B0FB
S11322E000AF3B1D1800074B98473B1D00221A7096
S11322F03B1D19000320044B9847C046BD4602B05D
S113230080BDC04665200000B54C000080B584B097
S113231000AF3B1D18000B4B98473B1D03221A606E
S11323203B1D00225A603B1D01221A723B1D0122F3
S1132330DA723B1D19000320034B9847C046BD4683
S113234004B080BD5D4B0000914B000080B500AF30
S1132350064B002203211800054B98470021032057
S1132360044B9847C046BD4680BDC046712E000050
S11323705D470000C147000080B590B000AF3B1D31
S11323801800214B98473B1D12221A703A1D1F4B0F
S1132390110018001E4B98470823FB1818001D4B0A
S11323A098470823FB18C0229203DA600823FB181D
S11323B0194A9A620823FB18184ADA620823FB18A0
S11323C0012252421A630823FB18154A5A63082350
S11323D0FB1800225A600823FB1800229A60082385
S11323E0FA181049104B1800104B98470E4B180060
S11323F00F4B984705490C4B002218000D4B98478A
S1132400C046BD4610B080BD21220000EC02002071
S1132410452200009D21000002001000020011006E
S113242002001300000C0042DC02002071130000C3
S1132430A9220000B515000080B584B000AF3B00B0
S113244018000F4B98473B0000221A803B000022E3
S11324509A703B0001221A713A000A490A4B18008B
S11324600A4B9847084B1800094B9847094A064BF2
S113247011001800084B9847C046BD4604B080BD03
S113248021210000001400404002002095030000B8
S1132490B1010000A08600007905000080B500AFFE
S11324A0054B00211800054B9847034B1800044BBB
S11324B09847C046BD4680BD400200202504000068
S11324C0B101000080B582B000AF00237B60054BF2
S11324D01800054B984703007B607B681800BD46D5
S11324E002B080BD400200208504000090B585B094
S11324F000AF0400396010001900FB1D221C1A7083
S1132500BB1D021C1A707B1D0A1C1A7001204B4B48
S11325109847C04627204A4B984703005BB2002BDC
S1132520F8DA00212520474B9847BB1D1B783D2B2B
S113253002D9BB1D3D221A700E23FB1800221A700B
S11325402023FB181B78002B04D00E23FB188022B9
S11325501A7007E07B1D1B78002B03D00E23FB1899
S113256040221A70384B9847384A394B802118005A
S1132570384B9847BB1D1B789BB2033399B2334A3F
S1132580334B1800334B9847FB1D1B7899B22F4AE5
S11325902F4B18002F4B98472F4B1B78DBB299B267
S11325A02A4A2B4B18002B4B98470E23FB181B78F9
S11325B0DBB299B2254A264B1800264B98470F23C5
S11325C0FB1800221A7012E00F23FB181B783A68DC
S11325D0D3181B7899B21D4A1D4B18001D4B984700
S11325E00F23FB181A780F23FB1801321A700F23DC
S11325F0FA18BB1D12781B789A42E5D3174B9847FB
S113260004200E4B9847164B9847C0460320154BA1
S1132610984703001A0001235340DBB2002B05D076
S1132620114B9847021E114B9A42EFD90120034BDC
S11326309847C046BD4605B090BDC0468D2A0000EF
S113264069300000D130000031310000FE0000206C
S1132650DC020020791400004A02002055310000F9
S11326609D24000089200000C5240000E703000029
S113267080B582B000AF0200FB1D1A70194BFA1D21
S113268012781A70174B1B78DBB2002B01D00F2382
S113269000E01A2319001320134B9847114B1B78A1
S11326A0DBB2002B10D01120104B984703005BB213
S11326B01F2213405BB2602213435BB2DBB21900EA
S11326C01120094B984709E0094B1B78802252429C
S11326D01343DBB219001120034B9847C046BD4693
S11326E002B080BDD8020020D13000006930000063
S11326F04802002080B500AF074B01221A80074B27
S113270000221A70064B1F221A70064B00221A7000
S1132710C046BD4680BDC046D602002050020020FF
S113272048020020D802002090B591B000AF040008
S113273008001100FB1D221C1A70BB1D021C1A701C
S11327407B1D0A1C1A70C14B98471023FB180122E9
S11327501A701023FB1804225A701023FB1802224B
S11327609A701023FB180022DA701023FB1803223E
S11327701A711023FB1802225A711023FB18042229
S11327809A711023FB184022DA711023FB180522DA
S11327901A721023FB1803225A721023FB18062204
S11327A09A721023FB183322DA721023FB180722C3
S11327B01A73FB1D1B781F2B0DD0FB1D1B782B2BB5
S11327C007D0FB1D1B78562B01D1D92304E0E42349
S11327D002E06C2300E04E231022BA185373102336
S11327E0FB1808229A73FB1D1B781F2B0DD0FB1DB1
S11327F01B782B2B07D0FB1D1B78562B01D10023F4
S113280004E0C02302E0402300E0C0231022BA18F1
S1132810D3731023FB1809221A741023FB18002207
S11328205A741023FB1819229A741023FB1842229D
S1132830DA741023FB1825221A751023FB18402282
S11328405A751023FB1826229A751023FB180722A9
S1132850DA751023FB1828221A761023FB1810228D
S11328605A761023FB1829229A761023FB18DC22AF
S1132870DA761023FB182E221A771023FB188822ED
S11328805A771023FB182F229A771023FB182D2236
S1132890DA771023FB182022302199541023FB18D7
S11328A07A1D212112785A541023FB182222372131
S11328B099541023FB182322902199541023FB18B8
S11328C02422382199541023FB182522422199549B
S11328D01023FB1826223C2199541023FB1827228D
S11328E08F2199541023FB1828223D219954102339
S11328F0FB182922122199541023FB182A226F2134
S113290099541023FB182B22302199541023FB18BF
S11329102C22FF2199541023FB182D2200219954B5
S11329204B4B98474B4B98474B4B98474B4B9847CF
S11329304B4B98470F23FB1832221A70AA212F20E1
S1132940484B98472F20484B9847031EAA2B08D082
S1132950464B984702000F23FB181B78DBB29A42C0
S1132960ECD33F4B984755212F203E4B98472F20BF
S11329703D4B9847031E552B08D03C4B984702000B
S11329800F23FB181B78DBB29A42ECD33F23FB18CE
S113299000221A7019E03F23FB181A781023FB1841
S11329A05200D05C3F23FB181B781022BA185B003E
S11329B0D31801331B7819002A4B98473F23FB187F
S11329C01A783F23FB1801321A703F23FB181A7838
S11329D01023FB185200D35CFF2BDCD10020244BC6
S11329E09847244B1B78DBB21800234B98470120EF
S11329F0224B98471A4B9847C04627201A4B9847B2
S1132A0003005BB2002B08DB184B984702000F232E
S1132A10FB181B78DBB29A42EFD3144B98470200A1
S1132A200F23FB181B78DBB29A4201D3002309E081
S1132A30134B00221A70134B9847134BBA1D12788C
S1132A401A7001231800BD4611B090BDF526000090
S1132A507923000039240000DD2200000D2300004A
S1132A609D240000D130000069300000C52400001E
S1132A70752F0000D8020020712600008D2A000066
S1132A80490200204D2300004A02002080B582B094
S1132A9000AF0200FB1D1A70FB1D1B789AB2474B56
S1132AA01B889BB29A4200D181E0FB1D1B78042B4A
S1132AB000D97EE09A00424BD3181B689F46012040
S1132AC0404B984703005BB21C2293435BB20C2239
S1132AD013435BB2DBB2190001203B4B98473B4BDD
S1132AE01B78DBB2002B4CD00120394B984748E0CF
S1132AF00120344B984703005BB21C2293435BB222
S1132B00102213435BB2DBB2190001202E4B98470D
S1132B102E4B1B78DBB2002B35D000202C4B984772
S1132B2031E00120274B984703005BB21C229343FA
S1132B305BB2082213435BB2DBB219000120224BC3
S1132B40984721E001201F4B984703005BB21C22E9
S1132B5093435BB2042213435BB2DBB2190001203E
S1132B60194B984710E00120164B984703001A00B0
S1132B701C239A431300DBB219000120124B98471F
S1132B8002E0C04600E0C046C0460C4B1B889BB226
S1132B90002B06D127200B4B984703005BB2002B78
S1132BA0F3DAFB1D1B789AB2044B1A8002E0C0468C
S1132BB000E0C046BD4602B080BDC046D60200203B
S1132BC0E89D000069300000D1300000D8020020E8
S1132BD08131000080B500AF0B4B1B889BB2032BE7
S1132BE00ED10A4B1B889BB2002B09D1084B984786
S1132BF003005A3304DA0120064B9847012300E00E
S1132C0000231800BD4680BDD6020020D00200205B
S1132C10293000008D2A000090B585B002AF040071
S1132C20396010001900FB1D221C1A70BB1D021C08
S1132C301A707B1D0A1C1A703D20174B984703001D
S1132C401A0004231343DBB219003D20134B9847A9
S1132C50134B984701E0134B9847134B98470300D5
S1132C601A0001235340DBB2002B05D00F4B9847C9
S1132C70021E0F4B9A42EED97B1D1C78BB1D1A789D
S1132C803968FB1D1878002300932300094CA047E2
S1132C90C046BD4603B090BD69300000D13000008D
S1132CA09D240000292F0000D52B0000C52400001E
S1132CB0E7030000ED24000080B582B000AF584B5C
S1132CC01B889BB2032B00D0A1E02820554B9847CA
S1132CD003001A000423134000D198E00120524B52
S1132CE09847524B9847524A524B00211800524B76
S1132CF09847524A4F4B002118004F4B98474F4B6F
S1132D001B889BB2422B03D84C4B1B889AB200E021
S1132D1042224A4B1A804A4A464B00211800464B2D
S1132D209847484B1B78DBB201225340DBB2002B9F
S1132D300DD0454B1B78DBB29AB2414B1B889BB23A
S1132D409A4204D03E4B1B889BB2FF2B04D13B4BD1
S1132D501B889BB2022B07D8384B00221A803B4BAE
S1132D6098473B4B984758E0344B1B889BB2033B36
S1132D709AB2384B1A80384A2E4B002118002E4B39
S1132D809847BB1D00221A70BA1D2A4B0021180057
S1132D90294B9847BB1D1B789BB2802213409AB2E3
S1132DA02E4B1A80BB1D1B789BB2402213409AB253
S1132DB02B4B1A80FB1D00221A700EE0FB1D1B78A2
S1132DC05A00284BD2181B4B002118001A4B984765
S1132DD0FB1D1A78FB1D01321A70FB1D1B789AB279
S1132DE01C4B1B889BB29A42E8D31A4B1B889BB29C
S1132DF03C2B07D8174B1B889BB21A00194B520067
S1132E000021D152114B98470320074B9847164B8A
S1132E10984703001A00154B1A80BD4602B080BDC6
S1132E20D6020020693000008D2A000031310000F4
S1132E30FE000020DC02002079140000D0020020F3
S1132E40D4020020500200204A0200205531000024
S1132E50952E00004E0200203E0200204C0200206D
S1132E60D20200205402002029300000E802002091
S1132E7080B500AF054B01221A70054B9847034BF0
S1132E8000221A70C046BD4680BDC04649020020DB
S1132E90B92C000080B500AF194B00221A80194BE1
S1132EA000221A80184B00221A80184B00221A8024
S1132EB0174B00221A80174B00221A80164B00224F
S1132EC01A802820154B984703001A000423134046
S1132ED00BD03D20114B984703001A0004231343E1
S1132EE0DBB219003D200E4B9847402125200C4BA6
S1132EF0984703200B4B9847C046BD4680BDC0464B
S1132F004E0200203E020020D4020020D002002005
S1132F10D20200204C020020E802002069300000A8
S1132F20D13000008D2A000080B500AF0D4B1B8806
S1132F309BB2032B09D10C4B1B889BB2002B04D0F2
S1132F4001200A4B9847012309E0064B1B889BB2DA
S1132F50032B01D1002302E0054B984700231800FE
S1132F60BD4680BDD6020020D00200208D2A00007C
S1132F70952E000080B584B000AF78600120224B0C
S1132F8098477B68002B26D0204B9847204A214B3A
S1132F90BE211800204B98470F23FB1800221A70FB
S1132FA012E00F23FB181B787A68D3181B7899B2A8
S1132FB0174A184B1800184B98470F23FB181A7818
S1132FC00F23FB1801321A700F23FB181B780F2BE9
S1132FD0E7D9124B98473D20114B984703005BB249
S1132FE0012293435AB27B68591E8B41DBB25BB218
S1132FF013435BB2DBB219003D200A4B9847C0462D
S1133000BD4604B080BDC0468D2A000031310000A9
S1133010FE000020DC02002079140000553100007D
S113302069300000D130000080B582B000AFBB1D14
S113303000221A8024200B4B984703009BB25B426A
S11330409BB21AB2BB1D1A80BB1D1B881BB25B103E
S11330501AB2BB1D1A80BB1D1B881BB21800BD46CB
S113306002B080BD6930000080B584B000AF0200BA
S1133070BB1D1A80114B9847BB1D1B889BB27F2236
S1133080134099B20E4A0F4B18000F4B98470E236A
S1133090FB1800221A800E23FA180A4B002118008C
S11330A0094B9847094B98470E23FB181B889BB282
S11330B0DBB21800BD4604B080BDC046313100000B
S11330C0FE000020DC0200207914000055310000CD
S11330D080B582B000AF0200FB1D1A70BB1D0A1C34
S11330E01A700E4B9847FB1D1B78802252421343E3
S11330F0DBB299B20A4A0B4B18000B4B9847BB1D25
S11331001B7899B2064A074B1800074B9847074BA0
S11331109847C046BD4602B080BDC046313100006C
S1133120FE000020DC02002079140000553100006C
S113313080B500AF0449054B01221800044B9847A1
S1133140C046BD4680BDC046EC020020DC02002023
S1133150B515000080B500AF0549064B00221800E4
S1133160054B9847054B9847C046BD4680BDC046B1
S1133170EC020020DC020020B5150000C53100007F
S113318080B582B000AF0200FB1D1A70FB1D1B78D6
S1133190002B01D05D2300E0552319005A20084B71
S11331A09847FB1D1B78002B01D07C2300E0702383
S11331B019005C20024B9847C046BD4602B080BD52
S11331C0D130000080B500AFC046BD4680BDC046CA
S11331D080B584B000AF0200FB1D1A700F23FB18EA
S11331E0FA1D1278D2091A700E23FB18FA1D1278F0
S11331F052091A700D4BBB600F23FB181B78002B70
S11332000FD10F23FB181B789B0010229446BC445B
S11332106344083B1A680E23FB181B78DB01D318A0
S113322000E000231800BD4604B080BD0044004106
S113323080B582B000AF0200FB1D1A70FB1D1B7825
S11332401800034B984703001800BD4602B080BD28
S1133250D131000080B584B000AF0200FB1D1A70AC
S1133260BB1D0A1C1A70FB1D1B7818000D4B9847D8
S11332700300FB60FB1D1B781F22134001229A40B0
S11332801300BB60BB1D1B78002B03D0FB68BA681E
S11332909A6102E0FB68BA685A61C046BD4604B050
S11332A080BDC0463132000080B500AF012111203D
S11332B0024B9847C046BD4680BDC046553200000B
S11332C080B500AFC046BD4680BDC04680B500AFE6
S11332D000210F20024B9847C046BD4680BDC04622
S11332E0C147000080B500AF00210F20024B984772
S11332F0C046BD4680BDC0460948000080B500AF49
S1133300C046BD4680BDC046F0B587B004AF0200DC
S1133310BB1D1A80164B1B780133DAB2144B1A709A
S1133320134B1B78042B1FD9114B00221A70114B1D
S113333000229B5E98B2104B00229B5E9CB20F4B06
S11333401B689DB20E4B1B689EB20E4B1B780E4A37
S113335012780E49097802910192009333002A00F1
S113336021000B4CA04700E0C046BD4603B0F0BDB1
S113337000010020E2010020E4010020F801002007
S1133380FC01002030020020310200203202002023
S1133390B534000080B582B000AFEFF310833B601A
S11333A03B685A425341DBB27B6072B6BFF35F8F16
S11333B0034B00221A707B681800BD4602B080BD22
S11333C0D800002080B582B000AF78607B685A1EB8
S11333D09341DBB21800BD4602B080BD80B582B017
S11333E000AF78607B681800064B9847031E05D031
S11333F0054B01221A70BFF35F8F62B6C046BD460B
S113340002B080BDC5330000D800002080B500AFF5
S11334100B4B00221A700B4B00221A700A4B00222D
S11334201A700A4B072200211800094B9847094BD0
S113343000221A70084B984703001800BD4680BD4F
S11334400401002008010020130100200C010020C9
S1133450BF9D000009010020B199000080B500AFB4
S1133460024B9847C046BD4680BDC046C99900007E
S1133470B0B500AF044B054A05490648064CA047C1
S113348003001800BD46B0BDA9340000140000209C
S113349008010020040100209536000080B500AF2B
S11334A000231800BD4680BD80B500AF002318007E
S11334B0BD4680BDB0B584B000AF05000C0010005F
S11334C01900BB1D2A1C1A803B1D221C1A80BB1C20
S11334D0021C1A803B000A1C1A803C4B98470300CC
S11334E0FB60BB1D1B88DAB2394B5A70BB1D1B88AD
S11334F01B12DBB27F221340DAB2354B9A703B1DAC
S11335001B88DAB2324BDA703B1D1B881B12DBB20C
S11335107F221340DAB22E4B1A71BB1C1B88DAB21D
S11335202B4B5A71BB1C1B881B12DBB27F2213402E
S1133530DAB2274B9A712023FB181B78002B07D093
S1133540234B1B7801221343DAB2214B1A7006E095
S11335501F4B1B7801229343DAB21D4B1A702823A8
S1133560FB181B78002B07D0194B1B78022213433E
S1133570DAB2174B1A7006E0154B1B7802229343FC
S1133580DAB2134B1A702423FB181B78002B07D0D4
S11335900F4B1B7804221343DAB20D4B1A7006E06A
S11335A00B4B1B7804229343DAB2094B1A70094B74
S11335B001221A70084B9847FB681800074B98477C
S11335C001231800BD4604B0B0BDC04695330000C9
S11335D00C01002009010020E1350000DD3300006A
S11335E090B583B002AF144B1B78002B01D000239D
S11335F01EE0124B124A11681960918899809279E1
S11336009A71104B0322002118000F4B98470F4B5F
S113361000221A70094A0E4B0093072300218120CF
S11336200C4CA04703001A00034B1A70024B1B7882
S11336301800BD4601B090BD130100201401002004
S11336400C0100200D010020BF9D00000901002095
S1133650593600004566000080B582B000AF39607D
S11336601100FB1D021C1A70BB1D0A1C1A70064BAC
S113367000221A70054B1B78002B01D0044B98478D
S1133680C046BD4602B080BD1301002009010020E0
S1133690E135000080B584B000AFF860B9607A60AD
S11336A03B60354B1B785BB2002B32DA324B1B7814
S11336B01A006023134009D12F4B5B78062B05D1E8
S11336C07B6818002D4B9847030051E02A4B1B7868
S11336D01A0060231340202B1BD1274B5B78022B4D
S11336E007D0032B0DD0012B13D13B68984703005F
S11336F03EE0214BFA689A601F4B01229A81012314
S113370036E01D4BBA689A601B4B01229A81012353
S11337102EE0194B1B785BB2002B28DB164B1B7871
S11337201A0060231340202B21D1134B5B780A2B02
S113373007D00B2B0ED0092B19D13B6898470300F7
S113374016E00D4B5B881B0A9BB2DAB2FB681A7059
S113375001230DE0084BDB88002B01D0002307E098
S1133760054B5B88DAB2BB681A70012300E00023C2
S11337701800BD4604B080BDE0040020813700007D
S113378080B584B000AF7860254B984703000933B7
S1133790FB60FB685B78212B01D000233BE0214BCD
S11337A05B881B0A9BB2DBB2212B13D11D4BFA6839
S11337B09A60FB681B789AB21A4BDB88181C111CA0
S11337C08AB283B29A4200D9011C8AB2154B9A81FB
S11337D0012320E0FB689A79124B5B881B0A9BB299
S11337E0DBB29A4216D10F4B7A689A60FB68DA7999
S11337F01B7A1B0213439AB20A4BDB88181C111C58
S11338008AB283B29A4200D9011C8AB2054B9A81CA
S1133810012300E000231800BD4604B080BDC0466B
S113382029380000E004002080B500AF024B1B687B
S11338301800BD4680BDC0462C01002080B500AFF5
S1133840074B1B681A68064B1B681B689978DB7862
S11338501B020B439BB2D3181800BD4680BDC04663
S11338602801002080B584B000AF78600A00FB1CFA
S11338701A70144B98470300FB607B681B781A008E
S11338807B689B187B6011E07B685B78042B12D00B
S11338907B685B78FA1C12789A4201D17B680CE051
S11338A07B681B781A007B689B187B60FA687B68CE
S11338B09A42E9D800E0C04600231800BD4604B08F
S11338C080BDC0463D38000080B584B000AF020022
S11338D0FB1D1A70BB1D0A1C1A70204B1B78002B91
S11338E001D1002336E01E4B1B681B681B79FA1DAF
S11338F012789A4201D300232CE0194B1B681A68F2
S1133900184B1A60184B98470300FB601CE0154BDA
S11339101B685B78042B0FD1124B1B689B78FA1D34
S113392012789A4208D10F4B1B68DB78BA1D1278C3
S11339309A4201D101230DE00A4B1A68094B1B6816
S11339401B78D218074B1A60064B1B68FA689A4218
S1133950DDD800231800BD4604B080BD240100203A
S1133960280100202C0100203D38000080B584B0DF
S113397000AF0200FB1D1A70FB1D1B78002118000C
S1133980214B984703001A0001235340DBB2002B5C
S113399001D0002334E01D4B1B685A68FB1D1B78C3
S11339A09B00D3181B68BB60BB68DB6898470300A7
S11339B01A00FB1D1B7811001800134B98470300D5
S11339C01A0001235340DBB2002B01D0002317E07F
S11339D00F4B1B68FB60FB68052118000D4B9847D3
S11339E00300FB60FB68002B05D0FB689B78180084
S11339F0094B9847EFE7C046BB685B6898470123CB
S1133A001800BD4604B080BDC9380000280100205C
S1133A102C01002065380000E162000080B584B00C
S1133A2000AF0200FB1D1A70BB1D0A1C1A70BB1DDF
S1133A301A78FB1D1B78110018001F4B98470300D0
S1133A401A0001235340DBB2002B01D000232EE0E7
S1133A501A4B1B68FB60FB6805211800184B98473C
S1133A600300FB60FB68002B15D0FB689878FB68AB
S1133A70D978FB681A795B791B0213439BB21A004D
S1133A80104B984703001A0001235340DBB2002B6C
S1133A90E1D000230BE0C0460B4B1B685A68FB1DAA
S1133AA01B789B00D3181B681B68984703001800F9
S1133AB0BD4604B080BDC046C93800002C010020BA
S1133AC0653800006D6300002801002080B500AF58
S1133AD0024B9847C046BD4680BDC0465D7200009B
S1133AE080B582B000AF164B1B78002B15D0FB1DA0
S1133AF000221A7009E0FB1D1B781800114B98472F
S1133B00FB1D1A78FB1D01321A700F4B1B681B68D2
S1133B101B79FA1D12789A42EDD3094B00221A70D0
S1133B200A4B1B88022213409BB2002B01D0084B86
S1133B309847064B00221A80C046BD4602B080BD9D
S1133B40240100206D390000280100201C01002000
S1133B506199000080B582B000AF174B1B78002B31
S1133B6025D0FB1D00221A7019E0144B1B685A68FB
S1133B70FB1D1B789B00D3181B681B69002B09D005
S1133B800E4B1B685A68FB1D1B789B00D3181B68DF
S1133B901B699847FB1D1A78FB1D01321A70074BED
S1133BA01B681B681B79FA1D12789A42DDD3C04644
S1133BB0BD4602B080BDC04624010020280100207B
S1133BC080B500AF074BDB88022B01D0002305E052
S1133BD0054B02211800054B984701231800BD46E8
S1133BE080BDC046E00400201C010020756900006F
S1133BF080B500AF0C4BDB88022B01D000230FE013
S1133C00094B9B88DBB21800084B984703009AB213
S1133C10074B1A80064B02211800064B98470123D4
S1133C201800BD4680BDC046E004002015650000B4
S1133C30300100207569000080B500AF0C4BDB88B3
S1133C40002B01D000230FE0094B5B88012B0AD124
S1133C50084B1B88022293439AB2064B1A80064BE8
S1133C609847012300E000231800BD4680BDC046EC
S1133C70E00400201C0100206199000080B500AF21
S1133C800A4BDB88002B01D000230CE0074B5B8838
S1133C90002B07D1054B9B88DBB21800044B9847D7
S1133CA0030000E000231800BD4680BDE0040020AE
S1133CB09965000080B500AF0C4BDB88002B01D068
S1133CC0002310E0094B5B88012B02D0C04600237F
S1133CD009E0074B1B88022213439AB2044B1A8053
S1133CE0044B984701231800BD4680BDE004002022
S1133CF01C0100204D99000080B500AF0D4BDB88FE
S1133D00002B01D0002312E00A4B5B88002B0DD15D
S1133D10084B9B88DBB21800074B9847054B9B88E0
S1133D20DBB21800054B9847030000E0002318009D
S1133D30BD4680BDE00400205562000041650000DE
S1133D4080B500AF054B5B88DBB27F221340DBB24A
S1133D501800034B9847C046BD4680BDE0040020D0
S1133D602D69000080B500AF064BDB88002B01D025
S1133D70002303E0034B044A1A6101231800BD46E3
S1133D8080BDC046E0040020413D000080B584B001
S1133D9000AFFB1D00221A702D4B5B881A00FF2315
S1133DA01340012B09D0022B0DD0002B11D1294B2C
S1133DB004211800284B98470DE0FB1D09221A70B6
S1133DC0264BBB6007E0FB1D09221A70244BBB6025
S1133DD001E0002337E0FB1D1B78002B32D00F23BA
S1133DE0FB1800221A7016E00F23FB181B780F2211
S1133DF0BA181278B9688A18127891B2194A5B0015
S1133E00D31802330A1C1A800F23FB181A780F23C5
S1133E10FB1801321A700F23FA18FB1D12781B7855
S1133E209A42E1D3FB1D1B780133DBB2DB18DAB213
S1133E300C4B1A700B4B1B789AB20A4B11001800EA
S1133E40054B984701231800BD4604B080BDC04609
S1133E50E0040020A800002075690000AC000020E8
S1133E60B8000020C400002080B582B000AF394BF8
S1133E705A88FB1D1A70374B5B881B0A9BB2DBB256
S1133E80022B13D002DC012B05D051E0032B44D0CC
S1133E900F2B2FD04CE0304B1A682F4B1B681B782C
S1133EA09BB2190010002D4B984744E02A4B1B6825
S1133EB05B7CFA1D12789A4201D3002346E0264B1C
S1133EC05A68FB1D1B78DB00D3181868224B5A680C
S1133ED0FB1D1B78DB00D3181B689A78DB781B0268
S1133EE013439BB219001D4B98471A4B9B6802223F
S1133EF05A7020E0184B9B68002B01D1002325E069
S1133F00154B9868144B9B689A78DB781B02134313
S1133F109BB21900114B98470DE0114B98470300D1
S1133F201A0001235340DBB2002B03D000230DE021
S1133F3000230BE0C046074BDA88064B9B899A4264
S1133F4003D2044BDA88034B9A8101231800BD463F
S1133F5002B080BDE00400209C00002075690000D0
S1133F608D3D000080B500AF074BDB88012B01D0ED
S1133F70002305E0054B01211800054B9847012358
S1133F801800BD4680BDC046E00400202401002086
S1133F907569000080B582B000AF2A4BDB88002B26
S1133FA001D000234AE0284B9847031E01D1002387
S1133FB044E0244B5B881A00FF231A40234B1B6800
S1133FC05B7C9A4201DD002338E0214B98471D4B6E
S1133FD05B88DAB21F4B1A701E4B1B78002B01D181
S1133FE001232BE0194B5A681A4B1B781A498C464B
S1133FF06344DB00D218194B1A60FB1D00221A70AF
S113400013E0FB1D1B7800211800154B9847030093
S11340101A0001235340DBB2002B01D000230DE032
S1134020FB1D1A78FB1D01321A700C4B1B681B68B0
S11340301B79FA1D12789A42E3D301231800BD4676
S113404002B080BDE0040020596900009C000020FB
S1134050E13A000024010020FFFFFF1F2801002097
S11340601D3A000080B582B000AF214BDB88012BE4
S113407001D0002338E01F4B1B78002B01D1002313
S113408032E01B4B9A88FB1D1A701B4B1B681B6884
S11340901B79FA1D12789A4201D3002324E0FB1DF8
S11340A01B7800211800154B984703001A000123C0
S11340B05340DBB2002B01D0002315E00E4B1B68EC
S11340C05A68FB1D1B789B00D3181B683B603B6838
S11340D0DB68984703001A00094B1A70084B01214A
S11340E01800084B984701231800BD4602B080BD54
S11340F0E00400202401002028010020C938000029
S1134100200100207569000080B582B000AF174B14
S1134110DB88002B01D0002324E0154B1B78002BF7
S113412001D100231EE0114B9A88FB1D1A700F4B1E
S11341305A88BB1D1A70FB1D1B7818000D4B98473D
S113414003001A0001235340DBB2002B01D00023EB
S113415008E0BB1D1A78FB1D1B7811001800064BE4
S1134160984703001800BD4602B080BDE00400205B
S1134170240100206D3900001D3A000080B500AF15
S1134180474B1B785BB2002B40DA454BDB88002B96
S113419001D1002381E0424B1B781A001F231340F6
S11341A014D13F4B5B78062B08D0082B0AD0002B88
S11341B000D00BE03B4B984703006EE03A4B984726
S11341C003006AE0394B9847030066E0344B1B78E0
S11341D01A001F231340012B08D1314B5B780A2BA3
S11341E000D003E0324B9847030056E02C4B1B7879
S11341F01A001F231340022B4ED1294B5B78002B4E
S113420000D049E02B4B9847030046E0244B1B7831
S11342101A001F23134019D1214B5B78092B14D8A2
S11342209A00254BD3181B689F46244B98470300DC
S113423033E0234B984703002FE0224B98470300B9
S11342402BE0214B9847030027E0C046144B1B7812
S11342501A001F231340012B08D1114B5B780B2B41
S113426000D003E0194B9847030016E00C4B1B7871
S11342701A001F231340022B0ED1094B5B78012B2C
S113428002D0032B04D007E0114B9847030004E04D
S1134290104B9847030000E000231800BD4680BD82
S11342A0E0040020C13B0000693E0000653F0000BF
S11342B065400000F13B0000FC9D0000653D0000EE
S11342C0393C0000B53C0000953F00000941000066
S11342D07D3C0000F93C000080B582B000AF244B67
S11342E01B78002B01D100233DE0224B9A88FB1D53
S11342F01A70214B1B681B681B79FA1D12789A42AD
S113430001D300232FE0FB1D1B78002118001B4B59
S1134310984703001A0001235340DBB2002B01D05D
S1134320002320E0144B1B685A68FB1D1B789B007C
S1134330D3181B683B603B68DB68984703001A008E
S1134340FB1D1B78110018000C4B984703001A0042
S113435001235340DBB2002B01D0002303E03B6870
S11343609B68984703001800BD4602B080BDC04654
S113437024010020E004002028010020C9380000A6
S113438080B582B000AF224B1B78002B01D10023F3
S113439039E0204B9A88FB1D1A70FB1D00221A700D
S11343A028E01D4B1B685A68FB1D1B789B00D31823
S11343B01B683B603B68DB68984703001A00FB1DE1
S11343C01B7811001800154B984703001A000123AD
S11343D05340DBB2002B01D0002314E03B689B6800
S11343E09847031E01D001230DE0FB1D1A78FB1D25
S11343F001321A70084B1B681B681B79FA1D12786E
S11344009A42CED300231800BD4602B080BDC046F8
S113441024010020E004002028010020C938000005
S113442080B500AF1E4B00229A811D4B00221A61F9
S11344301B4B00225A611A4B1B785BB2002B05DA26
S1134440174BDB88002B01D1002326E0144B1B788B
S11344501A006023134005D1124B9847031E01D064
S113446001231AE00E4B1B781A001F231340012B63
S113447005D10D4B9847031E01D001230DE0084BD5
S11344801B781A001F231340022B05D1074B9847B2
S1134490031E01D0012300E000231800BD4680BDA7
S11344A0E00400207D410000D94200008143000067
S11344B080B582B000AF104B1B68002B12D1EFF314
S11344C010837B607B68002B09D172B6BFF35F8FCA
S11344D00A4B00221A700A4B01221A7002E0084BA0
S11344E000221A70044B1B685A1C034B1A60C04606
S11344F0BD4602B080BDC04634010020D800002073
S11345003801002080B500AF0B4B1B685A1E0A4BC4
S11345101A60094B1B68002B0AD1084B1B78DBB2CD
S1134520002B05D0064B01221A70BFF35F8F62B6D1
S1134530C046BD4680BDC04634010020380100207D
S1134540D800002080B584B000AF0200FB1D1A70B3
S11345500F23FB18FA1D1278D2091A700E23FB18C8
S1134560FA1D127852091A700D4BBB600F23FB1809
S11345701B78002B0FD10F23FB181B789B001022F4
S11345809446BC446344083B1A680E23FB181B780A
S1134590DB01D31800E000231800BD4604B080BD41
S11345A00044004180B582B000AF0200FB1D1A70C8
S11345B0FB1D1B781800034B984703001800BD46E9
S11345C002B080BD4545000080B582B000AF786080
S11345D07B6800221A707B6801225A707B68002273
S11345E09A70C046BD4602B080BDC04680B584B056
S11345F000AF0200FB1D1A70BB1D0A1C1A70FB1DC4
S11346001B7818000D4B98470300FB60FB1D1B78BB
S11346101F22134001229A401300BB60BB1D1B786C
S1134620002B03D0FB68BA689A6102E0FB68BA68A1
S11346305A61C046BD4604B080BDC046A5450000D1
S113464080B582B000AF3B1D18000E4B98473B1D50
S113465001221A703B1D190011200B4B98470121B0
S113466011200A4B98473B1D00221A703B1D012262
S11346705A703B1D19000F20034B9847C046BD4696
S113468002B080BDC9450000B54C0000ED450000F6
S113469080B584B000AF0200FB1D1A700F23FB1815
S11346A0FA1D127852091A700F23FB181B78002B7D
S11346B00CD1094BBB600F23FB181B789B00102205
S11346C09446BC446344083B1B6800E00023180084
S11346D0BD4604B080BDC0460018004080B584B01B
S11346E000AF0200FB1D1A70FB1D1B7818000B4B5A
S11346F098470300FB60FB1D1B781F221340012217
S11347009A401300BB60FB681B69BA6813405A1EC9
S11347109341DBB21800BD4604B080BD9146000051
S113472080B584B000AF0200FB1D1A70FB1D1B781E
S11347301800094B98470300FB60FB1D1B781F22E0
S1134740134001229A401300BB60FB68BA681A61E7
S1134750C046BD4604B080BD9146000080B582B01D
S113476000AF786008001100FB1C021C1A70BB1C0F
S11347700A1C1A70BB1C1B78002B01D0172319E0EC
S1134780FB1C1A780D4B9200D358002B07D1FB1C4D
S11347901A780A4B92007968D15000230AE0FB1C76
S11347A01A78064B9200D2587B689A4201D10023B2
S11347B000E01D231800BD4602B080BDF8020020B1
S11347C080B584B000AF0200FB1D1A70BB1D0A1C2B
S11347D01A70BB1D1B78002B0ED1FB1D1B78180013
S11347E0084B98470300FB60FB1D1B7801229A408D
S11347F0FB68DA60002300E017231800BD4604B00C
S113480080BDC0469146000080B584B000AF020070
S1134810FB1D1A70BB1D0A1C1A70BB1D1B78002BD4
S11348200ED1FB1D1B781800084B98470300FB6052
S1134830FB1D1B7801229A40FB689A60002300E06C
S113484017231800BD4604B080BDC0469146000041
S113485080B500AF154B00221A7020E0134B1B7873
S11348601800134B9847031E13D0104B1B781800E5
S1134870104B98470D4B1B781A000F4B9200D358DE
S1134880002B06D0094B1B781A000B4B9200D3580F
S11348909847064B1B780133DAB2044B1A70034B6A
S11348A01B780F2BDAD9C046BD4680BDF502002027
S11348B0DD46000021470000F802002080B582B0E8
S11348C000AF78607B6800221A70C046BD4602B013
S11348D080BDC04680B582B000AF02003960FB1DC8
S11348E01A70FB1D1B78012B0AD0022B0FD0002B52
S11348F014D10E4B0D4A91693A680A439A610FE04C
S11349000A4B0A4AD1693A680A43DA6108E0074B5C
S1134910064A116A3A680A431A6201E0172300E062
S113492000231800BD4602B080BDC046000400400C
S113493080B582B000AF78607B6880221A707B6893
S113494000225A707B6801229A707B680022DA7018
S1134950C046BD4602B080BD80B582B000AF020043
S1134960FB1D1A70064BFA1D127811001F220A4013
S1134970012191400A001A60C046BD4602B080BDC4
S113498000E100E080B584B000AF0200FB1D1A70A6
S11349900F23FB18FA1D127852091A700F23FB1803
S11349A01B78002B0CD1094BBB600F23FB181B7821
S11349B09B0010229446BC446344083B1B6800E0FF
S11349C000231800BD4604B080BDC0460018004056
S11349D080B582B000AF0F4B3B6000237B6011E0D9
S11349E07B689B0008229446BC446344083B1B68D4
S11349F05B78DBB25BB2002B01DA012306E07B6853
S1134A0001337B607B68002BEAD000231800BD468D
S1134A1002B080BD0018004080B584B000AF2D4BBB
S1134A207B60402100202C4B98473B0018002B4B07
S1134A3098473B0000221A703B0019000520284BC0
S1134A4098470520274B98470023FB6018E0FB6834
S1134A509B0010229446BC4463440C3B1A68FB68D8
S1134A609B0010218C46BC4463440C3B1B681B78A0
S1134A70DBB201210B43DBB21370FB680133FB6033
S1134A80FB68002BE3D0C046174B9847031EFBD1AD
S1134A900B23FB1800221A700DE00B23FB181A7865
S1134AA0124B92000021D1500B23FB181A780B23D0
S1134AB0FB1801321A700B23FB181B780F2BECD94F
S1134AC004200B4B98470B4B9847C046BD4604B097
S1134AD080BDC04600180040D5480000BD48000015
S1134AE075570000B9570000D1490000F8020020B2
S1134AF059490000F94A000080B582B000AF154B57
S1134B003B6000237B6018E07B689B00082294468E
S1134B10BC446344083B1A687B689B0008218C46AC
S1134B20BC446344083B1B681B78DBB202210B4383
S1134B30DBB213707B6801337B607B68002BE3D0AE
S1134B40C046054B9847031EFBD1C046BD4602B084
S1134B5080BDC04600180040D149000080B582B035
S1134B6000AF78607B6800221A607B6800225A607C
S1134B707B6801221A727B6801225A727B680022C8
S1134B809A727B680222DA72C046BD4602B080BDCA
S1134B9080B586B000AF02003960FB1D1A7008238F
S1134BA0FB181800364B98473B685B68DAB2082359
S1134BB0FB181A700823FB1800225A703B681A7AF3
S1134BC00823FB189A703B681B68DBB20822BA18EA
S1134BD0110018002B4B9847FB1D1B7818002A4B1B
S1134BE0984703003B61FB1D1B78072213409B0081
S1134BF0FB603B68DB7A7B613B689B7A002B03D0CC
S1134C007B69082213437B61FB1D1B78DB08DBB245
S1134C101800FB1D1B78DB08DBB21A003B69063267
S1134C209200D3580F21FA6891400A00D2431A40E7
S1134C307969FB6899400B001A4311003B69821D96
S1134C409200D1503B685B7A002B0AD03B695A69C9
S1134C50FB1D1B78012199400B001A433B695A61E3
S1134C600AE03B695B69FA1D1278012191400A0050
S1134C70D2431A403B695A61C046BD4606B080BD66
S1134C8031490000615A00008549000080B582B0B6
S1134C9000AF78607B6880221A707B6800225A70AB
S1134CA07B6801229A707B680022DA70C046BD4698
S1134CB002B080BD80B584B000AF02003960FB1D36
S1134CC01A700C23FB181800104B98470C23FB1880
S1134CD080221A703B681A780C23FB185A703B68C0
S1134CE05A780C23FB189A703B689A780C23FB18AB
S1134CF0DA700C23FA18FB1D1B7811001800044B02
S1134D009847C046BD4604B080BDC0468D4C0000E7
S1134D10615A000080B582B000AF78607B680122E0
S1134D205A607B6800225A707B6806221A707B687E
S1134D3000221A727B6800225A72C046BD4602B035
S1134D4080BDC04680B582B000AF78607B68032226
S1134D501A707B6800225A707B6801229A70C046E0
S1134D60BD4602B080BDC04680B582B000AF786059
S1134D707B6800221A707B6800225A807B680022BC
S1134D809A807B6800229A717B680022DA717B68C2
S1134D9001225A707B6807221A727B683F225A816B
S1134DA07B6801221A737B680122DA817B68062200
S1134DB01A82C046BD4602B080BDC04680B582B0EE
S1134DC000AF0200FB1D1A70034AFB1D1B7813720F
S1134DD0C046BD4602B080BD0004004080B582B02C
S1134DE000AF0200FB1D1A70BB1D0A1C1A70FB1DCC
S1134DF01B78012B08D0022B0BD0002B0ED10B4AB1
S1134E00BB1D1B7853720BE0084ABB1D1B789372C1
S1134E1006E0064ABB1D1B78D37201E0172300E0AD
S1134E2000231800BD4602B080BDC0460004004007
S1134E3080B582B000AF0200FB1D1A70084AFB1D4A
S1134E401B780F210B40D9B253680F200140490051
S1134E501E2083430B435360C046BD4602B080BD51
S1134E600040004180B500AFC046044BDB6810220F
S1134E701340FAD0C046BD4680BDC046000800407D
S1134E8080B500AF0C4B02229A840C4B98470A4A17
S1134E900B4B9B68D362084A094B5B689362064BD1
S1134EA000229A84054B9847034A054B1B689BB222
S1134EB09384C046BD4680BD00080040654E000096
S1134EC03C01002080B582B000AF0200FB1D1A70C7
S1134ED0FB1D1B78082B47D89A00264BD3181B6858
S1134EE09F46254B1B6940E0244B1B6A9B059B0F87
S1134EF0DBB21A00224BD34037E080231B0234E09C
S1134F0080231B0231E01C4B5B692EE01A4B1B68AB
S1134F100222134001D1002327E01A4B9847164B75
S1134F201B682022134001D0174B1EE0124B1B6854
S1134F300422134009D00020144B984702000E4B62
S1134F409B681B041B0C53430FE00F4B0DE00B4AF3
S1134F505023D35CDBB21A000423134001D1002395
S1134F6003E0054BDB6800E000231800BD4602B0F7
S1134F7080BDC046249E00003C0100200008004083
S1134F8000127A00654E0000006CDC0299580000A3
S1134F9080B584B000AF78601A4B1B6AFB607B68F5
S1134FA01B781A1C03231340DAB20D23FB180321C8
S1134FB00A4010001A7803218A43111C021C0A4378
S1134FC01A707B689A780C23FB18D0011A787F2119
S1134FD00A40111C021C0A431A707B685A780C237D
S1134FE0FB1801210A4090011A7840218A43111CC0
S1134FF0021C0A431A70034BFA681A62C046BD4683
S113500004B080BD0008004080B582B000AF786075
S11350107B681B7A9B021B041A0C7B685B899B05CB
S11350209B0D1A432A4B5A607B689A797B68DB791B
S11350301343DBB21A007B685B8813437A68928857
S11350401A437B685B78DB011A43214B1A607B6847
S11350501B78042B16D17B681B7B9B061A007B688C
S1135060DB891B0419001B4B0B4013437A68128A1B
S11350701A43174B9A60164B1B687A6812781A43C6
S1135080134B1A607B681B78202B1CD17B681B7B1D
S11350909B061A007B68DB891B0419000D4B0B402F
S11350A013437A68128A1A43094B9A60084B1B68A7
S11350B07A68127804210A43D2B213438022D200C0
S11350C01A43034B1A60C046BD4602B080BDC046B9
S11350D03C0100200000FF0380B582B000AF020055
S11350E0FB1D1A70FB1D1B78082B3BD89A00214B23
S11350F0D3181B689F46204B1F4A126A02210A4399
S11351001A62002331E01C4B1B4A926902210A43B4
S11351109A6129E0184A184B1B8A9BB202210B435F
S11351209BB2138220E0144A134B9B8A9BB2022148
S11351300B439BB2938217E0104B1B6802221A4365
S11351400E4B1A600E4B98470EE00B4A0A49442353
S1135150CB5CDBB202210B43D9B24423D15403E02C
S1135160002302E0172300E000231800BD4602B02C
S113517080BDC046489E0000000800403C0100205D
S1135180814E000080B584B000AF0200FB1D1A7090
S11351900023FB60FB1D1B78082B21D89A00184BB9
S11351A0D3181B689F460823FB601BE00423FB60A5
S11351B018E00123FB6015E00223FB6012E01023DA
S11351C0FB600FE00F4A5023D35CDBB21A000323C9
S11351D01340033B5A425341DBB20CE001230AE083
S11351E0002308E0074BDB68FA681A40FB68D31A0F
S11351F05A425341DBB21800BD4604B080BDC046DC
S11352006C9E00000008004080B582B000AF3B00F7
S113521002221A7000237B6009E07B68DBB23A004B
S113522011001800054B98477B6801337B607B684D
S1135230242BF2D9C046BD4602B080BD755700008C
S113524080B5A6B000AF6E4BC222D2009A60022095
S11352506C4B98476C4B98478023FB1818006B4B9A
S113526098478023FB1820221A708023FB18002201
S11352705A70674B1B689B0E9422BA1813609423D0
S1135280FB181B683F2B03D11F239422BA18136009
S11352909423FB181B68DAB28023FB181A7280234C
S11352A0FB1800225A808023FB180022DA71802325
S11352B0FB1800229A718023FB1800229A80802315
S11352C0FB1807221A738023FB183F22DA818023FC
S11352D0FB180A22DA818023FB184E4A5A81802364
S11352E0FB1800225A808023FB180022DA718023E5
S11352F0FB1800229A718023FB18802252009A80A6
S11353008023FB18444A1A828023FB181800434B5D
S113531098477C23FB181800414B98477C23FB18C3
S113532000221A707C23FB1801229A707C23FB183C
S113533000225A707C23FB1818003A4B9847062029
S1135340394B9847394B98476423FB181800384B5E
S113535098476423FB1805221A706423FB18012262
S11353605A606423FB1800221A726423FB1800227B
S11353705A726423FB18190001202E4B9847012010
S11353802D4B98470720284B9847C04607202B4BA6
S1135390984703001A0001235340DBB2002BF5D1D8
S11353A0174A938C80210B4393840020244B984705
S11353B000210020234B984700210120214B9847CE
S11353C0002102201F4B98473B001800184B9847B8
S11353D03B0007221A703B0001225A603B00012265
S11353E01A723B0000225A723B0019000020114B34
S11353F098470020104B9847C046BD4626B080BD54
S113540000080040314E000009520000694D0000C0
S113541024608000FF01000080BBFFFF09500000F2
S1135420454D0000914F0000D9500000ED5400009C
S1135430154D00001D550000415600008551000027
S1135440BD4D0000DD4D000080B582B000AF02000C
S11354503960FB1D1A70FB1D1B78012B0AD0022B2F
S11354600FD0002B14D10E4B0D4A91693A680A43B0
S11354709A610FE00A4B0A4AD1693A680A43DA6131
S113548008E0074B064A116A3A680A431A6201E0C7
S1135490172300E000231800BD4602B080BDC046BB
S11354A00004004080B500AF024B9847C046BD469B
S11354B080BDC046B144000080B500AF024B9847A0
S11354C0C046BD4680BDC0460545000080B500AF5E
S11354D0054B5B78DBB25BB2002B01DA012300E001
S11354E000231800BD4680BD000C004080B500AF0D
S11354F008210020074B9847074B01221A70C04629
S1135500054B1B78DBB21A0001231340F8D1C046C7
S1135510BD4680BD49540000000C004080B586B0F3
S113552000AF02003960FB1D1A70FB1D1B787B6104
S1135530FB1D1B783B613B681B781B021A007B69CF
S113554013437B613B685B78002B04D07B6980222A
S1135550D20213437B613B685B7A002B04D07B69E6
S11355608022120313437B613B685B68012B2CD9B7
S11355703B685A683B685B68013B13401AD10023BF
S1135580FB600223BB6005E0FB680133FB60BB6882
S11355905B00BB603B685A68BB689A42F4D8FB68FE
S11355A01B023A6913433B617B6980225203134314
S11355B07B610AE03B685B681B023A6913433B6109
S11355C07B698022920213437B613B681B7A002B28
S11355D004D07B698022920313437B61C046134B42
S11355E09847031EFBD1124B9847124AFB1D1B78A8
S11355F01370C0460D4B9847031EFBD10E4B3A69FE
S11356009A60C046094B9847031EFBD10A4B0A4ACD
S113561051688022520211407A690A435A60074B4A
S11356209847C046BD4606B080BDC046CD54000074
S1135630A5540000080C0040000C0040B9540000C0
S113564080B582B000AF0200FB1D1A70C0460E4B3D
S11356509847031EFBD10D4B98470D4AFB1D1B7841
S11356601370C046084B9847031EFBD1094B094AE7
S11356705268802149020A435A60074B9847C04642
S1135680BD4602B080BDC046CD540000A554000004
S1135690040C0040000C0040B954000080B586B0F2
S11356A000AF0200FB1D1A70C0462A4B9847031E28
S11356B0FBD1294B9847294AFB1D1B781370C04620
S11356C0244B9847031EFBD1254B5B68DB04DB0EA0
S11356D0DBB21800234B984703007B611F4AFB1D74
S11356E01B7813701E4B5B68DB02DB0FDAB21323EB
S11356F0FB181A701C4AFB1D1B781370C046154B0F
S11357009847031EFBD1164B9B681B021B0C9BB2D4
S1135710FB60164B98471323FB181B78002B09D109
S1135720FB68012B06D9124BF96878699847030086
S11357307B610AE01323FB181B78002B05D0FB6860
S113574001337A69DA4013007B617B691800BD4636
S113575006B080BDCD540000A5540000040C0040E8
S1135760000C0040C54E0000080C0040B954000075
S1135770DD99000080B584B000AF02003960FB1DE4
S11357801A70FB1D1B78FB603B681B781B021A0018
S1135790FB681343FB60FB1D1B781800044B984700
S11357A0044BFA6892B25A80C046BD4604B080BD2C
S11357B001580000000C004080B582B000AF020028
S11357C0FB1D1A700A4B98470A4AFB1D1B7813707D
S11357D00949094B5B889BB28022D20113439BB2D7
S11357E04B80064B9847C046BD4602B080BDC046BC
S11357F0A5540000020C0040000C0040B954000005
S113580080B584B000AF0200FB1D1A701C4B984792
S11358101C4AFB1D1B7813701B4B5B881B051B0F5D
S1135820DBB2FB60184A538818490B405380164A70
S1135830154B5B889BB216490B409BB25380C04604
S1135840114B5B889BB21A008023DB011340F7D114
S11358500D4AFB68DBB2191C0F230B40D9B25388E5
S1135860081C0F210140080208490B40191C031CA5
S11358700B435380074B9847C046BD4604B080BDD8
S1135880A5540000020C0040000C0040FFF0FFFF94
S1135890FFBFFFFFB954000080B584B000AF020021
S11358A0FB1D1A700D4B98470D4AFB1D1B78137096
S11358B00C4B5B881B051B0FDAB20F23FB181A7005
S11358C0094B98470F23FB181B781800074B984780
S11358D003001800BD4604B080BDC046A5540000B6
S11358E0020C0040000C0040B95400009D5600001A
S11358F080B584B000AF0200FB1D1A700F23FB18A3
S1135900FA1D1278D2091A700E23FB18FA1D1278A8
S113591052091A700D4BBB600F23FB181B78002B28
S11359200FD10F23FB181B789B0010229446BC4414
S11359306344083B1A680E23FB181B78DB01D31859
S113594000E000231800BD4604B080BD00440041BF
S113595080B588B000AFF860B9607A600023FB615D
S11359607B68DB7801225340DBB2002B35D07B68A7
S11359701B78802B0BD0FB69802252021343FB61FE
S11359807B681B781B061A00FB691343FB617B6869
S11359905B78002B03D07B685B78022B10D1FB690A
S11359A0802292021343FB617B689B78002B04D016
S11359B0FB698022D2021343FB61FB68BA685A6018
S11359C07B685B78012B03D07B685B78022B07D163
S11359D0FB69224A1340FB6102E0FB68BA685A6023
S11359E0BB681B041B0CBB61BB681B0C7B61BA69E5
S11359F0FB691343A022D2051A43FB689A627A69B1
S1135A00FB691343D02212061A43FB689A627B682F
S1135A10DB7801225340DBB2002B1AD0FA698023D1
S1135A20DB0213400AD07B689B78012B03D1FB680F
S1135A30BA689A6102E0FB68BA685A617B685B786D
S1135A40012B03D07B685B78022B02D1FB68BA6818
S1135A509A60C046BD4608B080BDC046FFFFFBFF4C
S1135A6080B584B000AF02003960FB1D1A70FB1DC5
S1135A701B7818000A4B98470300FB60FB1D1B783A
S1135A801F22134001229A401300BB603A68B96890
S1135A90FB681800034B9847C046BD4604B080BD60
S1135AA0F15800005159000080B500AFC046BD4612
S1135AB080BDC04680B500AF064B9847064B98475B
S1135AC0064B9847064B9847064B9847C046BD4639
S1135AD080BDC0464152000041460000A95A000062
S1135AE0194A0000A95A000080B582B000AFEFF354
S1135AF010833B603B685A425341DBB27B6072B611
S1135B00BFF35F8F034B00221A707B681800BD46F9
S1135B1002B080BDD800002080B582B000AF7860AC
S1135B207B685A1E9341DBB21800BD4602B080BDAB
S1135B3080B582B000AF78607B681800064B984748
S1135B40031E05D0054B01221A70BFF35F8F62B6A6
S1135B50C046BD4602B080BD195B0000D8000020DD
S1135B6080B584B000AF0200FB1D1A700F23FB1830
S1135B70FA1D1278D2091A700E23FB18FA1D127836
S1135B8052091A700D4BBB600F23FB181B78002BB6
S1135B900FD10F23FB181B789B0010229446BC44A2
S1135BA06344083B1A680E23FB181B78DB01D318E7
S1135BB000E000231800BD4604B080BD004400414D
S1135BC080B582B000AF78607B681A687B681B6818
S1135BD01B899BB201218B439BB21381C046BD46F6
S1135BE002B080BD80B582B000AF78607B681A686F
S1135BF07B681B681B899BB201210B439BB21381F9
S1135C00C046BD4602B080BD80B582B000AF7860AA
S1135C107B681B689B7A5B065B0EDBB21800BD4693
S1135C2002B080BD80B582B000AF78600A00FB1C72
S1135C301A707B681B68FA1C1278802149420A4357
S1135C40D2B29A72C046BD4602B080BD80B582B061
S1135C5000AF78607B681B681B8A9B045B0D9BB25A
S1135C601800BD4602B080BD80B582B000AF786038
S1135C700A00FB1C1A707B681A68FB1C1B78032142
S1135C800B40D9B21389081C03210140880205493D
S1135C900B40191C031C0B431381C046BD4602B0C4
S1135CA080BDC046FFF3FFFF80B582B000AF0200A5
S1135CB0FB1D1A70FB1D1B781800034B984703004B
S1135CC01800BD4602B080BD615B000080B584B0A1
S1135CD000AF0200FB1D1A70FB1D1B7818000B4B54
S1135CE098470300FB60FB1D1B781F221340012211
