S0150000446F6E676C65204D6F64756C652E7372656330
S113000060250020F1360000ED360000ED360000DA
S113001000000000000000000000000000000000DC
S1130020000000000000000000000000ED360000A9
S11300300000000000000000ED360000ED36000076
S1130040ED360000ED360000ED360000ED36000020
S1130050790D0000ED360000ED360000552F00004C
S1130060ED360000ED360000ED360000ED36000000
S1130070ED360000ED360000ED360000ED360000F0
S1130080ED360000ED360000ED360000ED360000E0
S1130090ED3600000000000000000000ED36000016
S11300A0ED360000ED360000ED360000ED360000C0
S11300B00000000010B5064C2378002B07D1054B37
S11300C0002B02D0044800E000BF0123237010BDC0
S11300D0DC00002000000000BC460000084B10B506
S11300E0002B03D00749084800E000BF0748036815
S11300F0002B00D110BD064B002BFBD09847F9E72D
S113010000000000E0000020BC460000BC460000E7
S1130110000000000368987AC009704770B50400B5
S11301200668054D2000A8470028FBD13288022329
S11301301343338070BDC0461501000070B5040040
S11301400668054D2000A8470028FBD13388022209
S11301509343338070BDC0461501000070B50400A0
S11301600668064B9847064D2000A8470028FBD197
S1130170328801231343338070BDC0463D01000023
S113018015010000F8B504000E0007680A4D2000B0
S1130190A8470028FBD12379002B03D0012B09D1D8
S11301A03E6108E01720054B9E4204D8B6B23E8259
S11301B0002000E01720F8BD15010000FFFF00003B
S11301C070B5040006684379002B06D1094B73808F
S11301D0094D2000A8470028FBD12379002B04D027
S11301E00020012B04D1306902E0308A80B2FFE79D
S11301F070BDC0460080FFFF15010000F0B583B05C
S11302000400019115000668114F2000B84700282A
S1130210FBD12379002B0AD0012B16D11730012DE5
S113022014D80635AD00019BAB5100200EE0172019
S1130230022D0BD8074B019A9A4207D86B469B882C
S11302400C356D00AB53002000E01A2003B0F0BD64
S113025015010000FFFF0000F0B583B00400160094
S113026001602E4A916920230B43936101A9022363
S11302700B7004202A4B984704202A4B98472000EF
S1130280294B9847B378237133796371274B1C60EA
S1130290276833883B80B378002B17D01720012BB5
S11302A03AD13B889BB23B80F378002B03D03A8849
S11302B0802313433B801E4D2000A8470028FBD118
S11302C00022B16820001B4B98471BE03A880423A6
S11302D013433B80F3781720002B1DD1144D2000CD
S11302E0A8470028FBD10022B1682000114B984791
S11302F00F4D2000A8470028FBD10122F1682000FF
S11303000C4B984733790020002B05D07A88802342
S1130310DB0113437B80FFE703B0F0BD0004004022
S11303203D1B0000B11A00005D0100009001002097
S113033015010000FD010000F8B504000E0003796A
S11303401520002B06D12768034D2000A84700285C
S1130350FBD1BE82F8BDC0461501000010B5034BA9
S1130360984780229202024B5A6110BD5D2600001C
S11303700044004110B584B001AC20000E4B9847F6
S11303800F2301930023636001332372A3720133AB
S1130390E37221000F20094B984700220F210848DF
S11303A0084B984700210F20074B98478022920260
S11303B0064B9A6104B010BD650E0000790E000072
S11303C05D0300000D0D0000390D000000440041E4
S11303D080229202014B9A617047C046004400415A
S11303E010B500210F20014B984710BD390D0000B6
S11303F010B500210F20014B984710BD590D000086
S113040080229202014B5A617047C0460044004169
S113041010B5FA2189000F4B984789B2002904D1FD
S1130420802292020C4B5A6107E0FA235B00994246
S113043003D180229202084B9A61084B1B78013346
S1130440DBB2042B02D8054A137002E00022034BEE
S11304501A7010BD5943000000440041F800002008
S1130460002070470020704710B50024074B1C7013
S1130470074B1C70074B1C70072200210648074BD2
S11304809847074B1C70074B984710BD0801002084
S11304900401002003010020FC000020D7450000D7
S11304A0090100203142000010B5014B984710BDEE
S11304B04142000010B5034B034A04490448054C6B
S11304C0A04710BD650400001400002004010020B2
S11304D008010020D904000070B5040015003A4A50
S11304E0127850B200284EDA6020024031D13648EA
S11304F0407806282DD1354B98470300827A002096
S1130500212A60D1304A5288120A212A0DD12E4A5A
S11305101900093191605B7AD088191C9BB283421F
S113052000D9011C918101204DE0D97B002091422A
S113053049D125498D601A7C09331B7A1B02134368
S1130540C8881A1C9BB2834200D9021C8A810120EC
S113055039E00020202A36D11B4A5278022A06D0DC
S1130560032A0AD00020012A2DD198472BE0164BEC
S11305709C6001229A81012025E0134B996001229D
S11305809A8101201FE0602002400020202A1AD115
S11305900D4A52780A2A06D00B2A0AD00020092ACA
S11305A011D198470FE0084B5B881B0A2370012088
S11305B009E0054BDB880020002B04D1024B5B884B
S11305C00B700130FFE770BD840300206507000055
S11305D010B5114B1B681C68A378E27812021A4309
S11305E0A2180378C018904210D24378042B0FD07D
S11305F08B4205D10FE04378042B0BD08B420AD0F9
S11306000378C0189042F6D3002004E0002002E0F2
S1130610002000E0002010BD0C01002010B5034BA9
S11306205B887F201840024B984710BD840300204C
S11306303D26000070B5184B1B780022002B29D0F2
S1130640164B1B681B681C79844223D9144A136017
S11306509A78DC78240214431C19A34219D2002589
S113066001265A78042A0BD19A78824208D1DA7882
S11306708A4205D1002D01D0094A1360012209E004
S11306801A789B183500A342EBD3054A1360002265
S113069000E00022100070BD140100200C010020B5
S11306A018010020F0B5474680B404000021124B25
S11306B09847051E1CD0114B1B685B68A200D358D9
S11306C09846DB689847010020000B4B9847051EAD
S11306D00ED00B4B1C680B4E0B4F05212000B0476E
S11306E0041E02D08078B847F7E743465B68984712
S11306F0280004BC9046F0BD350600000C01002023
S113070018010020D105000059230000F8B50500A8
S11307100F4B9847002819D00E4B1C680E4E0F4FF4
S113072005212000B047041E09D003794279120242
S11307301A43C1788078B8470028F1D106E0084B05
S11307401B685B68AD00EB581B689847F8BDC04652
S11307503506000018010020D1050000B123000077
S11307600C010020014B18687047C0461801002096
S113077010B5014B984710BDA127000070B5114B6F
S11307801B78002B11D0104B1B681B681B79002BA6
S11307900BD000240D4E0C4D2000B0470134E4B2C0
S11307A02B681B681B79A342F6D80022054B1A70EC
S11307B0074B1B889B0701D5064B98470022044B27
S11307C01A8070BD140100200C010020A506000051
S11307D0120100200142000070B50D4B1B78002B64
S11307E015D00C4B1B681A681279002A0FD000240C
S11307F0084D5B68A200D3581B69002B00D09847B2
S11308000134E4B22B681A681279A242F1D870BD9F
S1130810140100200C010020F8B5BB4B00229A8182
S11308201A615A611B785AB2002A00DB03E2B64A05
S1130830D2880020002A00D001E205E21F210B40EB
S113084076D1B149497806290BD0082968D0002906
S11308506ED1022A00D0C2E10231AC48AC4B9847B9
S1130860F1E1A94B5B881A0A022A10D0D1B20229FD
S113087002D8012A05D085E1032A2AD00F2A1CD0E8
S113088080E1A44B18680178A14B98473FE0DBB2A4
S1130890A04A1268527C9A4200D8A0E19D4A52684C
S11308A0DB0098588378C17809021943984B98471C
S11308B0954B9B6802225A7029E0964B9868002851
S11308C000D18CE18378C17809021943904B984791
S11308D01DE0FF221340012B0AD0002B03D08E4AC7
S11308E0022B06D053E104218C48894B98470EE033
S11308F08B4A8C498B1C14311078188001320233D6
S11309008B42F9D1874814210170814B98477E4B63
S1130910DA889B89934200D895E17B4B9A8192E1D6
S1130920012A00D05BE101217F48794B98478AE195
S1130930012B27D1744949780A2923D1012A00D0EF
S11309402BE1794B1B78002B00D126E16E4B1C79EF
S1130950764B1D682B681B79A34200D81DE100214A
S11309602000734B9847002800D110E16B68A40065
S1130970E358DB6898476F4B187001211800644BEB
S1130980984760E1022B00D001E15F4B5B780020C7
S1130990002B00D0F9E0022A00D020E15A4B18794C
S11309A0654B9847654B188002211800584B9847AF
S11309B049E11F22134076D1534A5278032A25D0A5
S11309C0D1B2032902D8012A0ED06CE0052A02D044
S11309D0092A2ED067E04C4BDB88002B00D0FEE0C8
S11309E0574A494B1A612EE1474BDB88002B00D054
S11309F0F5E0454B5B88012B00D0F0E0434A1388B7
S1130A0002218B4313804F4B98471CE13E4BDB88FC
S1130A10002B00D0E3E03C4B5B880020012B00D08E
S1130A20B3E03A4A118802230B431380464B98479C
S1130A3009E1354BDB88002B00D0D0E0434B9847CD
S1130A40002800D1A3E0304B9A78324B1B685B7CC2
S1130A509A4200DD9BE03E4B98472B4B9B78324AF1
S1130A601370002B00D1EEE03A4A94466344DB0055
S1130A70284A5268D3182D4A13601B681B79002B2F
S1130A8000D1E0E00024344D160000212000A847E6
S1130A90002800D17BE00134E4B233681B681B7981
S1130AA0A342F2D8CFE0012B18D1174A52780B2A6F
S1130AB014D1154BDB88002B6FD11B4B1B78002BFB
S1130AC06BD0114B1D795C882800244B9847002873
S1130AD05DD0E1B22800204B984756E0022B56D156
S1130AE0094B5B78012B02D0032B3BD04CE0064B27
S1130AF0DB88002B73D1044B5B88002B6FD1024B36
S1130B001879174B984740E0840300201201002015
S1130B10B526000084000020A8000020D400002096
S1130B20B4000020C0000020140100200C010020AB
S1130B303506000010010020B92400000A0100203D
S1130B401D06000001420000F54100004D26000092
S1130B507D070000FFFFFF1F0D070000A506000032
S1130B60F9250000394BDB88002B38D1374B5B88E3
S1130B70002B34D1354C2079354B98472079354BAF
S1130B80984702E0002000E0002000285CD12F4BB1
S1130B901B781F221340012B21D12F4B1B780020DF
S1130BA0002B51D0294B1C792C4B1D682B681B79C9
S1130BB0A34249D900212000294B984700280ED090
S1130BC06B68A200D558EB68984701002000244BBD
S1130BD09847002803D0AB689847002834D11B4BB2
S1130BE01B781F2213400020022B2DD11A4B1B7897
S1130BF0002B29D0194B1B681A681279002A18D0C7
S1130C000025174E154F5B68AA00D458E36898472F
S1130C1001002800B047002816D0A3689847002890
S1130C2012D10135EDB23B681A681279AA42EAD8AA
S1130C300AE0002008E060221A42A8D1B9E6602147
S1130C401942A4D1FAE50120F8BDC046840300206E
S1130C500D230000CD240000140100200C0100200D
S1130C60350600000C4B1B68002B10D1EFF31083EA
S1130C70002B09D172B6BFF35F8F0022074B1A70A5
S1130C800132074B1A7002E00022054B1A70024A27
S1130C9013680133136070471C010020D800002042
S1130CA020010020084B1A68013A1A601B68002BC7
S1130CB009D1064B1B78002B05D00122044B1A7076
S1130CC0BFF35F8F62B670471C0100202001002033
S1130CD0D8000020F0B583B001AC01256570002771
S1130CE0A770257021001120064EB0478022920281
S1130CF0054B9A612770657021000F20B04703B03F
S1130D00F0BDC046ED0E0000004400411723002A48
S1130D100DD18B00074A9B58002B03D189008850C2
S1130D20002304E0834201D01D2300E000231800C7
S1130D307047C0469C0100201723002907D10022D8
S1130D401F2800D8034A01238340D36000231800DE
S1130D507047C046001800401723002907D100221D
S1130D601F2800D8034A01238340936000231800FE
S1130D707047C0460018004070B50022154B1A7029
S1130D8000231F25144E134C1F2B19D90FE00021EB
S1130D9000E012490A619B009B59002B00D0984740
S1130DA023780133DBB223700F2BEDD911E0290036
S1130DB0194001228A40002109691142E7D1EFE775
S1130DC02900194001228A40044909691142E0D1ED
S1130DD0E6E770BD990100209C0100200018004046
S1130DE0044A117802230B43137053785BB2002B2F
S1130DF0FBDB70470018004000B583B0124A9169CC
S1130E0040230B43936101A900230B7005200F4B72
S1130E10984705200E4B98470E4A117801230B433F
S1130E20137053785BB2002BFBDB0B4B1900403182
S1130E30002204C39942FCD11022084B1A60084BCB
S1130E40984703B000BDC046000400403D1B0000AD
S1130E50B11A0000001800409C01002000E100E0ED
S1130E60E10D00000023036043600122027242721C
S1130E7083720233C3727047F0B583B005000C006F
S1130E8001A900234B70CB7023790B70237A8B70EC
S1130E902078144B984700201F2D00D812480721B2
S1130EA029408900E27AA37A002B01D008231A434F
S1130EB0EB089B00C3189E690F278F40BE438A40EE
S1130EC032439A61637A002B05D042690123AB4017
S1130ED01343436104E043690122AA4093434361FD
S1130EE003B0F0BD351C00000018004000B583B00D
S1130EF001AB80221A700A785A704A789A708A78FC
S1130F00DA701900014B984703B000BD351C00008E
S1130F1010B5490840230024814201D20AE01C0094
S1130F20091A631C9BB28842F9D94023FF2C01D8CB
S1130F3014800023180010BD10B582B004000E4BBD
S1130F401B78002B01D000290DD001A90C701320AF
S1130F500A4B984713200A4B9847074B5C700122B1
S1130F601A70002006E0044B5B78834201D01D20F8
S1130F7000E0002002B010BD240100203D1B000051
S1130F80B11A0000444B984233D006D8434B9842E0
S1130F900DD0434B98421BD06FE0424B98424AD04D
S1130FA0414B984258D0414B984266D132E00129D6
S1130FB006D0002963D0022906D0032906D001E017
S1130FC03B4867E0002065E03A4863E03A4861E066
S1130FD0012906D0002954D0022906D0032906D0BD
S1130FE001E0364856E0002054E0354852E03548E8
S1130FF050E0012906D0002945D0022906D0032952
S113100006D001E0304845E0002043E02F4841E0AD
S11310102F483FE0012906D0002936D0022906D006
S1131020032906D001E02B4834E0002032E02A48AE
S113103030E02A482EE0012906D0002927D00229D1
S113104006D0032906D001E0254823E0002021E052
S113105024481FE024481DE0012906D0002918D0A7
S1131060022906D0032906D001E0204812E000201E
S113107010E01F480EE01F480CE000200AE01E4864
S113108008E0032006E01D4804E01D4802E01D4876
S113109000E01D487047C0460010004200080042AE
S11310A0000C004200180042001C004200140042E0
S11310B0030005000300060003000700030001000D
S11310C003001E0003001F000300090003000A00C0
S11310D003000B00030011000300120003001300BF
S11310E003000D0003000E0003000F0003001700AF
S11310F003001800030019000300040003000800A3
S11311000300100003000C000300160030B587B084
S11311100C4B6A4632CB32C232CB32C2009B834282
S113112006D001239A0069465258824203D100E056
S11311300023D8B203E00133062BF3D1002007B01B
S113114030BDC046E8450000F0B557464E4645461A
S1131150E0B488B080460E001400030019600B68E8
S11311609B0700D4A6E0936A0393D36A0493136B9A
S11311700593536B069300271F239946F9B2BB00CE
S113118003AA9858002802D13000AC4B9847431C5E
S113119027D00204130C9C46000CC1B200250306A0
S11311A003D44B09DB01A64A9D184B460B40E818B3
S11311B040300078824680205246D2070AD55B0828
S11311C0EB1830331878C0B2CB0701D5000901E021
S11311D00F231840844504D00023424613601C208A
S11311E026E10137042FC9D11320964B9847237861
S11311F00027012B12D102AA0100A069924B984743
S113120003001720002B00D012E1337BDBB202AACB
S1131210127805309A4200D00AE10C372578002D67
S113122014D13268E37F1B04A17F0B431C2093423B
S113123000D0FDE0A169A38B2022A25C002A01D08A
S11312404022134308220A43174300E00023626844
S1131250A1680A43E1680A433A43217C0B43617C59
S1131260002901D080210A43A17C002902D08021D9
S113127089020B43E17C002902D0802189000B43C1
S1131280217D002902D0802189010B43306802218D
S11312900A43824209D172689A4206D143465D717B
S11312A0237C424693710020C2E00023424613602F
S11312B01C20BDE00B680520DB0700D5B8E0080062
S11312C0624B984762490A6A851C0123AB40134369
S11312D00B6207A92427E35D0B701430C5B2280004
S11312E05C4B984728005C4B9847E05D00215B4BC2
S11312F098472378012B03D132680B3313433360AF
S11313002378002B03D132680833134333604346F8
S11313101E6802AB80221A7000225A700121997053
S1131320DA702378002B01D102AB9A70A36A03937D
S1131330E36A0493236B0593636B0693002702AD62
S1131340F9B2BB0003AA9858002802D130003B4BE5
S11313509847431C05D02870000CC0B22900404BAC
S113136098470137042FEBD1237842465371237CED
S11313709371A37CD371237D137200226B46DA80B0
S11313802378012B15D143461868304B9847143005
S1131390C0B22C4B984701006B469A1DA0692A4B9A
S11313A0984703001720002B42D16B4606331B7865
S11313B033732378002B0FD1A769A38B706AE17F65
S11313C00904A57F2943014371622022A25C002AFB
S11313D004D040210B4301E0002300276268A16888
S11313E00A43E1680A433A43217C0B43617C0029A8
S11313F003D11C498978890701D580210A43A17C3E
S1131400002902D0802189020B43E17C002902D00B
S1131410802189000B43217D002902D0802189018C
S11314200B4331680A4332607268134373600020CF
S113143008B01CBC90469946A246F0BD850F00003A
S113144000440041591B0000110F00000D11000061
S1131450000400403D1B0000B11A0000390F0000D9
S1131460351C00000020004170B5C4791C23002CF9
S11314704FD04379002B0ED105682B7EDB070AD4AD
S1131480254B01262C7E344205D1012B3ED0013B55
S11314909BB2002BF6D104680125237E2B42FCD09D
S11314A0237EDB0702D5C905C90DA1624379002B50
S11314B00ED10468237E5B070AD4174B0425217ED2
S11314C0294205D1012B23D0013B9BB2002BF6D13D
S11314D0016804240B7E2342FCD00C7E1023640795
S11314E017D54C8B0023640704D54C8B043323435A
S11314F04B831E238079012804D1896AC905C90D4B
S1131500118006E0896AC9B2118002E0122300E06A
S11315101223180070BDC0461027000010B544798E
S11315201523012C70D1047A0023002C6CD1002ADD
S11315305AD04B78002B46D003681B7EDB0710D4AF
S11315400B78D9090022002904D15A09D2012F4964
S11315508C4662441F210B401E399940916105233A
S113156052E00B78DC090022002C04D15A09D20184
S1131570264CA44662441F2423401E3C9C405461D4
S113158003681A7ED20701D58A789A62C279002349
S1131590002A39D102680421137E0B42FCD0117E4B
S11315A00023490730D5538B5B0703D5518B0423A4
S11315B00B4353838379012B02D1936A002323E0E5
S11315C0936A002320E00B78D9090022002904D172
S11315D05A09D2010D498C4662441F210B401E3921
S11315E09940516100230FE00B78D90900220029AA
S11315F004D15A09D20105498C4662441F210B408B
S11316001E39994091610023180010BD0044004127
S113161010B5082803D880001B4B1B589F46002098
S113162030E01A4B18692DE0194B1B6A9B059B0F80
S11316301848D84026E0154B586923E0134B1B6823
S1131640022018401ED012491022CB681A42FCD046
S11316500E4B1B685B0714D500200F4B98470B4BB0
S11316609B681B041B0C58430CE05023084AD35CB2
S113167000205B0706D5054BD86803E080200002F4
S113168000E0064810BDC0460046000028010020C6
S11316900008004000127A00591B0000006CDC02B4
S11316A070B50C4C236A0178857842780120024099
S11316B092014026B343134302002A40D2017F30F3
S11316C08343134303220A40120203490B4013438A
S11316D0236270BD00080040FFFCFFFF10B5037AD1
S11316E09B061A0C43899B059B0D1343194C63609D
S11316F08179C37919434388828813430B43427821
S1131700D201134323600378042B0FD1037B9B0680
S1131710028A13431900C3891B040F4A13400B4365
S1131720A360216804230B43236011E0202B0FD115
S1131730037B9B06028A13431900C3891B04064AD0
S113174013400B43034A9360136804490B4313602B
S113175010BDC046280100200000FF03240400003F
S1131760082803D88000254B1B589F46172044E0C7
S1131770234A116A02230B43136200203DE0204AEE
S1131780916902230B439361002036E01C4A118ABD
S113179002230B43138200202FE0194A918A02236B
S11317A00B439382002028E016490B68022213435E
S11317B00B60134B9A8419000E32CB681A42FCD08A
S11317C0104A91680E4BD96252689A6200229A8438
S11317D019001032CB681A42FCD00A4B1B689BB22A
S11317E0074A9384002008E005494422885C0223C8
S11317F003438B54002000E000207047244600007F
S1131800000800402801002030B58BB0C222D2006D
S11318102F4B9A602F494B681E2293431A3A134365
S11318204B60033A01AB1A7000242B4DE0B201A9BE
S1131830A8470134252CF9D105AB00220021598099
S11318409A71DA71203119705A70244B1B689B0EFF
S11318503F2B00D1203B05A80372072303730333F6
S1131860C3811F4B4381FF3B83801E4B03821E4B6E
S1131870984704A8002343700122827003701B4B15
S1131880984706201A4CA0471A4B98470720A047B0
S11318900F491022CB681A42FCD00D4A918C802348
S11318A00B439384144A0023137253729372D372BA
S11318B001A901224A604B704B7207330B700A7204
S11318C000200E4B984700200D4B98470BB030BDBD
S11318D000080040004000413D1B000024608000DF
S11318E0FF01000080BBFFFFDD160000A116000011
S11318F061170000051900000004004029190000C8
S1131900E1190000064A916908230B4393610122FF
S1131910044B1A7019000B781342FCD17047C0466F
S113192000040040000C004070B5060005000C786F
S1131930240204434B78002B02D08023DB021C4397
S11319404B7A002B02D080231B031C4348680128D8
S113195018D9431E184210D1022806D902230022A6
S113196001325B009842FBD800E0002212023243AD
S1131970150080235B031C4304E0050235438023E8
S11319809B021C430B7A002B02D080239B031C4335
S11319900F4A53785BB2002BFBDB0E4B98470E4B80
S11319A01E700B4A53785BB2002BFBDB084B9D6027
S11319B01A0053785BB2002BFBDB054A5168802385
S11319C05B020B401C435460044B984770BDC046F7
S11319D0000C0040650C0000080C0040A50C000041
S11319E010B504000B4A53785BB2002BFBDB0A4BA7
S11319F098470A4B1C70074A53785BB2002BFBDBF9
S1131A00044A5368802149020B435360044B9847AE
S1131A1010BDC046000C0040650C0000040C0040E2
S1131A20A50C000070B504001A4A53785BB2002B71
S1131A30FBDB194B9847194B1C70164A53785BB261
S1131A40002BFBDB134E7068C004C00E144B984788
S1131A500500124B1C707668F602F60F114B1C70D1
S1131A600C4A53785BB2002BFBDB0A4B9C682402C4
S1131A70240C0D4B9847002E07D1012C07D92100C7
S1131A8028000A4B9847050001E00134E54028008E
S1131A9070BDC046000C0040650C0000040C004002
S1131AA011160000080C0040A50C00004D42000077
S1131AB010B50400064B9847064B1C70064A518823
S1131AC08023DB010B435380044B984710BDC04671
S1131AD0650C0000020C0040000C0040A50C000046
S1131AE010B504000F4B98470F4B1C700F4B5A88CE
S1131AF01205100F59880E4A0A405A8059880D4A17
S1131B000A405A8019008022D2014B881342FCD12A
S1131B1006494C880202064B234013434B80064B74
S1131B20984710BD650C0000020C0040000C0040FA
S1131B30FFF0FFFFFFBFFFFFA50C000010B50C78FE
S1131B4024020443024B9847A4B2024B5C8010BDAC
S1131B50E11A0000000C004010B50400064B984741
S1131B60064B1C70064B5C882405240F054B9847D4
S1131B702000054B984710BD650C0000020C004086
S1131B80000C0040A50C0000251A000030B5D378E5
S1131B90002B1ED11378802B04D01B0680246402F2
S1131BA0234300E0002354780225AC430AD19478FF
S1131BB0002C03D18024A402234302E0C024E402C5
S1131BC0234341605478013C012C12D8184C234023
S1131BD00FE041600B041B0CA024E4052343836243
S1131BE00B0CD024240623438362D378002B18D013
S1131BF01CE00C04240CA025ED052C431C4384623A
S1131C000C0CD0252D062C431C438462D478002C64
S1131C100CD15B0305D59378012B01D1816100E0E0
S1131C2041615378013B012B00D8816030BDC0462F
S1131C30FFFFFBFF10B503000A00C10900200029C3
S1131C4004D15809C00105498C4660441F210B404A
S1131C501E399940024B984710BDC04600440041CC
S1131C608D1B00007047C04610B5054B9847054BC7
S1131C709847054B9847054B9847054B984710BD27
S1131C8009180000D50C0000651C0000F90D0000C7
S1131C90651C000010B582B004000422234901A889
S1131CA0234B9847234B1B78A3423DD0002C1AD0DA
S1131CB001AB1A5D204B9B5CFF2B00D1FEE7EFF3D9
S1131CC0108372B6BFF35F8F00201C4908701A4856
S1131CD0815C01318154002B05D10122174B1A700C
S1131CE0BFF35F8F62B6134B1B78002B1AD001AA87
S1131CF0D25C114B9B5C002B00D1FEE7EFF3108309
S1131D0072B6BFF35F8F00200C4908700A48815CEB
S1131D1001398154002B05D10122084B1A70BFF3FD
S1131D205F8F62B6034B1C7002B010BD48460000C2
S1131D30C54500004301002094010020D800002084
S1131D400F2303405B00C0091818023883001818D9
S1131D508000014B1818704744010020F0B5574625
S1131D604E464546E0B489468E7973B2002B51DA6B
S1131D7030005C4B984704000F2333409846038A95
S1131D809A464B465F88C3689C466744C76085682B
S1131D90AF4224D0ED1BADB2534B9D4206D91D007A
S1131DA051461800514B98476D1AADB2A37C0022DE
S1131DB09B0706D5514628004D4B984789B24A42A5
S1131DC04A415100A37C022293431943A1746268DF
S1131DD0D2192B0041464748474CA0477DE0837CFD
S1131DE09B070BD5837C0222934383744268D219E8
S1131DF0002341463F48404CA0476EE0837C0122CB
S1131E00934383740368002B67D0320039000020A9
S1131E10984762E03000334B984704000F2737405F
S1131E20038A98464B461B889A46837C5B0710D5E9
S1131E304368C268944663441D00414680682C4B45
S1131E4098470A00791E89012C4BC91828002C4B8D
S1131E509847E36853441D1EE360A3689D4201D97B
S1131E60E3602FE04A46928852452BD19D4229D007
S1131E705B1B9EB21C4B9E4207D91E0041461800B4
S1131E801A4B9847731A9BB205E041463000184B31
S1131E909847731A9BB298450DD9A27C0423134327
S1131EA0A3747A1E9201154BD21843463900114887
S1131EB0144CA04711E06268521939000D48114CC6
S1131EC0A0470AE0A37C01229343A3742368002B58
S1131ED003D0E1683200002098471CBC9046994624
S1131EE0A246F0BD411D0000FF1F00002D4500006B
S1131EF0594300001C020020752E0000DC01002064
S1131F00C5450000C52E000010B50522054B1A700A
S1131F10054C80212000054B984700212000044BEC
S1131F20984710BD6E0100201C020020C52D000042
S1131F30ED2D000070B50E000D4C062120000D4D56
S1131F40A84704212000A847022120000A4B9847F3
S1131F5002200A4B98473368002B04D0084B98475B
S1131F603368002B01D1074B9847074B984770BD46
S1131F701C020020D5280000B5280000951C000094
S1131F8025420000194200000D42000070B5134BB9
S1131F909B8C9B0606D41149D022CB681340D02BCE
S1131FA0FBD104E00D491022CB681A42FCD00C4C42
S1131FB0022120000B4B9847042120000A4DA8471A
S1131FC00A4A062120000A4B984706212000A84708
S1131FD00320084B9847084B984770BD0008004001
S1131FE01C020020D5280000B5280000351F000081
S1131FF091280000951C0000C941000070B582B012
S113200004001E4B984780232268937201AD280078
S11320101B4B984700266E7029002000194B9847E7
S113202019492000194B9847194B0222002120001E
S1132030184DA847184B002200212000A847174B31
S1132040012200212000A847022200212000144D73
S1132050A847002200212000A847012200212000D7
S1132060A847226811890F4B0B408021C9000B43FC
S113207013810D4B1E7002B070BDC0467D07000079
S1132080F92A0000092B00009C030020112F0000F6
S1132090E1210000F1280000F9240000E9200000FB
S11320A041290000FFF3FFFF6E01002010B5032259
S11320B0074B1A70074C08492000084B9847084BF7
S11320C09A68002300212000064CA04710BDC0469A
S11320D06E0100201C0200209C030020112F000030
S11320E084030020752E000010B589794BB2002BB3
S11320F00CDA0D4B1B78012B02D10C4B984712E0E4
S1132100042B10D10A480B4B98470CE0064B1B7864
S1132110022B03D10422044B1A7004E0032B02D1D6
S11321200348044B984710BD6E010020AD20000009
S11321301C020020C52D000070B5204B1A88204BCE
S11321409C89A41AA4B2002C20D11E490B88D31850
S11321509BB20B801A4AD2889A4203D01A4B1B783E
S1132160002B07D00422194B1A70194919481A4B2D
S1132170984722E0124B5B69002B0ED09847002849
S11321800BD000220D4B1A800D4B9C89072C04D9CF
S113219000220D4B1A70082402E001220A4B1A7027
S11321A0064D2B88064A9268D2182300002109485C
S11321B00A4EB0472B88E4182C8070BD6C010020B7
S11321C08403002040010020420100206E01002011
S11321D09C0300201C020020112F0000752E00001B
S11321E010B50C002C4B1B78002B07D02B4B1B6914
S11321F0002B00D098470022274B1A702388082B05
S113220002D0274B984745E0244A264B1978117091
S113221059785170D97809029878411851805979C0
S11322200902187941189180D97909029B795B18C0
S1132230D3801D4B9847002802D1194B984729E0B9
S1132240164B1B787F2B10D90023184A1380184A89
S113225013800222104B1A700823124A00211548D9
S1132260154CA047154B984714E00C4BDB88002B0A
S113227002D1134B98470DE000230C4A13800C4AFB
S113228013800122044B1A700823064A00210948CE
S1132290094CA04710BDC0466E01002084030020F5
S11322A0091F00009C0300201908000040010020C1
S11322B06C0100201C020020C52E00003921000002
S11322C0AD20000010B5024B9847024B984710BD53
S11322D0D9070000D541000010B5074C04212000A7
S11322E0064B984702212000054B98470120054BD7
S11322F09847054B984710BD1C020020D5280000C4
S1132300B5280000951C0000BD41000010B5040074
S113231001000A480A4B984720000A4B9847837CDF
S1132320DB070AD5837C0122934383740368002B63
S113233003D0C16822000120984710BD1C02002070
S1132340612D0000411D0000024B1B68188A8004A7
S1132350400D70471C02002070B582B0040001AD2E
S113236028000D4B984720000C4B98472C700023F5
S1132370EB700B4E290030000A4B98470F21214087
S113238000223000084B9847002221003000074B00
S1132390984702B070BDC046F92A00000D23000022
S11323A01C020020092B0000192900001D2A00002E
S11323B0F0B583B006000C00150001AF3800364BB1
S11323C098473E70082D03D8002201AB5A702EE0C6
S11323D0102D03D8012201AB5A7028E0202D03D818
S11323E0022201AB5A7022E0402D03D8032201AB34
S11323F05A701CE0802D03D8042201AB5A7016E0F9
S113240080235B009D4203D8052201AB5A700EE085
S113241080239B009D4203D8062201AB5A7006E03C
S113242000231E4A954233D8072201AB5A7030006C
S11324301B4B9847058203212140012903D1022225
S113244001ABDA700BE0022903D1032201ABDA708D
S113245005E0002303291BD1042201ABDA7001A992
S11324601048114B98470023002811D10F21314007
S11324700C4C0E4B002220000D4DA84700223100C9
S113248020000C4DA847012231002000A847012359
S1132490180003B0F0BDC046F92A0000FF03000095
S11324A0411D00001C020020092B00005D1D0000DE
S11324B0F12800004129000010B501000148024B39
S11324C0984710BD1C020020992D000010B504008F
S11324D00F2303400020012B07D821000348044B9D
S11324E098472000034B9847012010BD1C02002090
S11324F0C52D00000D23000070B5344B1B78012B53
S113250055D10D88324B9B89324A14886219934203
S113251001DA1D1BADB22E4B986800192A002E4912
S11325202E4B98476419A4B22A4B1C80082D06D15F
S1132530274BDA882A4B1B881B199A4210DC244B40
S11325409C815B69002B08D09847002805D105229F
S11325501E4B1A70234B984736E0234B984733E0C1
S11325601B4B9B89A3421BD1194B5B69002B06D1E2
S11325700522164B1A7000201A4B984724E09847FE
S1132580002805D10522114B1A70164B98471BE001
S11325901349104A08881388C3180B80002313803A
S11325A008230D4A00211148114CA0470CE0022BCE
S11325B002D1104B984707E0054B1B69002B00D054
S11325C098470022014B1A7070BDC0466E0100206E
S11325D0840300206C0100209C030020C5450000FA
S11325E040010020CD240000AD2000001C0200208A
S11325F0C52E00003921000070B504000F230340EC
S11326000020012B12D82000094B98470500210017
S11326100848094B9847AB7C0120DB0706D5AB7C07
S113262001229343AB742B689847012070BDC046C8
S1132630411D00001C020020ED2D0000024B1A6811
S113264080231843907270471C020020024B1B68C1
S1132650987A4006400E70471C02002010B5124BB9
S11326609B8C9B0606D41049D022CB681340D02BF8
S1132670FBD104E00C491022CB681A42FCD00320A1
S11326800A4B98470A4B1A68537B022B0BD005213F
S11326900220138903439BB21381537B022B02D084
S11326A001390029F5D110BD00080040951C000037
S11326B01C020020014B986099817047840300201C
S11326C010B5054B1A68118901230B4313810120AE
S11326D0024B984710BDC0461C020020951C000008
S11326E070B50320164B9847164C226813890121B4
S11326F08B431381144A03312000144EB047144A0B
S113270000212000B047134A01212000B047124A9B
S113271002212000B04704212000104DA8470021C9
S11327202000A84701212000A84702212000A84733
S11327300B4A06212000B04706212000A84770BD9F
S1132740951C00001C020020D922000091280000E2
S1132750C5220000FD1F00008D1F0000B5280000E9
S1132760351F000010B500210E20084B9847084B78
S11327701B6A5B0402D5074B984701E0064B984758
S113278000210E20054B984710BDC046590D00008E
S113279000440041E1260000C1260000390D00007C
S11327A070B584B0EFF3108472B6BFF35F8F002668
S11327B0284B1E7003AD2800274B9847AE70274E58
S11327C02A0027493000274B98473000264B98476A
S11327D0264B9B8C9B0606D42449D022CB681340FD
S11327E0D02BFBD104E021491022CB681A42FCD043
S11327F001201F4B984768461E4B98470E230093B1
S1132800002301936A4613720333D372023B93721B
S113281000210E20184B984769460E20174B984705
S113282000220E211648174B984700210E20164B04
S11328309847164B1B6A5B0401D5114B9847002C33
S113284005D10122034B1A70BFF35F8F62B604B047
S113285070BDC046D8000020E93400001C020020EE
S113286000500041F9340000412F000000080040EE
S1132870951C0000650E0000590D0000790E000043
S1132880652700000D0D0000390D000000440041D3
S113289010B50B002E339B001A50AA225200490097
S11328A0845A034BCB5A23438352002010BDC046A5
S11328B0604600004900064BCB5A02689383AB2163
S11328C04900425A1A434252026813830020704757
S11328D0604600004900054BCA5AAB214900435ADF
S11328E09343435203689A82002070476046000075
S11328F010B58C00A4183434A40004196360411882
S11329005931FF310878034B9B5C03430B70002063
S113291010BDC0467046000010B58B009B183433C0
S11329209B00C31800245C6041185931FF31034BEC
S11329309A5C0B7893430B70002010BD7046000026
S113294070B50F230B40C4186134FF342678324D20
S1132950AD5C35432570002A1FD1002B08D15C01E2
S11329600568AC4664440A34FF34032525703DE011
S11329704CB2002C08DA5C010568AC4664440A34A5
S1132980FF340225257031E05C010568AC466444DF
S11329900A34FF340125257028E0012A1CD1002BBC
S11329A007D102685B01D3180A33FF330C221A7073
S11329B030E049B2002907DA02685B01D3180A3310
S11329C0FF3308221A7025E002685B01D3180A332A
S11329D0FF3304221A701DE0022A07D102685B014A
S11329E0D3180A33FF3310221A7013E0032A11D1CB
S11329F049B2002907DA02685B01D3180A33FF33AE
S1132A0040221A7006E002685B01D3180A33FF33D0
S1132A1020221A70002070BD7046000070B50F238C
S1132A200B40C4186134FF34324DAE5C2578B54395
S1132A302570002A1FD1002B08D15C010568AC4623
S1132A4064440934FF34032525703DE04CB2002C66
S1132A5008DA5C010568AC4664440934FF34022595
S1132A60257031E05C010568AC4664440934FF34E8
S1132A700125257028E0012A1CD1002B07D102680A
S1132A805B01D3180933FF330C221A7030E049B2CA
S1132A90002907DA02685B01D3180933FF330822DF
S1132AA01A7025E002685B01D3180933FF3304224E
S1132AB01A701DE0022A07D102685B01D31809339A
S1132AC0FF3310221A7013E0032A11D149B20029EE
S1132AD007DA02685B01D3180933FF3340221A7006
S1132AE006E002685B01D3180933FF3320221A7011
S1132AF0002070BD70460000002303704370837093
S1132B000133C3707047C046F0B50A780F231340F1
S1132B101C0052B2CB78042B00D9F1E09B008D4D00
S1132B20EB589F460368083464010022E2540023F2
S1132B300EE1620103689C46624480235B00D55C1D
S1132B40E43B6D0700D003E1E433D65CE43B70253D
S1132B502E4200D0FCE05F3DE433D554230008331B
S1132B605B010268D2182F3555710268D318802290
S1132B701A718B78002B0BD06201774B9B18586825
S1132B8080252D06284358605A692A435A610AE071
S1132B906201714B9B185A68520052085A605A6974
S1132BA0520052085A610722487863016A4CE418BB
S1132BB0636810400007694D2B40034363604B7802
S1132BC061691A4013070A002A401A43626100230C
S1132BD0BEE0002A18DA650103689C466544802338
S1132BE05B00EF5CE43B7026374200D0B0E09036E7
S1132BF0AF5D04333B43AB550068230008335B01EE
S1132C00C318802018717BE0650103689C46654405
S1132C1080235B00EE5CE43B760700D098E08026DE
S1132C207600AF5D1A3B3B43AB5500682300083385
S1132C305B01C3184020587162E0002A17DA65016D
S1132C4003689C46654480235B00EF5CE43B70268C
S1132C5037427DD19036AF5D14333B43AB550068AA
S1132C60230008335B01C3188020187148E0650114
S1132C7003689C46654480235B00EE5CE43B760776
S1132C8066D180267600AF5D193B3B43AB550068A7
S1132C90230008335B01C3184020587130E0002A38
S1132CA017DA650103689C46654480235B00EF5C8A
S1132CB0E43B702637424BD19036AF5D24333B431F
S1132CC0AB550068230008335B01C31880201871DA
S1132CD016E0650103689C46654480235B00EE5C56
S1132CE0E43B760734D180267600AF5D183B3B4346
S1132CF0AB550068230008335B01C31840205871AA
S1132D00D20F4D7863009B181B011348C3185E68EB
S1132D10072005402D0711483040284358608B7820
S1132D20002B0BD063009A1812010B4CA2185368A5
S1132D30802109060B435360002309E063009A18BD
S1132D401201054B9A1853685B005B08536000231B
S1132D501800F0BD4C460000A4030020FFFFFF8FC5
S1132D600F230B4049B200290ADA08335B010268D9
S1132D70D218802111710268D3180222DA7109E095
S1132D8008335B010268D218402151710268D318DC
S1132D900122DA717047C0460F230B4049B2002963
S1132DA007DA026808335B01D31898798006C00FEC
S1132DB006E0026808335B01D3189879C006C00F97
S1132DC07047C0460F230B4049B2002906DA026857
S1132DD008335B01D31820225A7105E002680833D6
S1132DE05B01D31810225A717047C04630B50F23C7
S1132DF00B4049B200291EDA590102685218832493
S1132E006400145DA40634D520258224640015557D
S1132E100268944661440822FF328A5C520628D52F
S1132E20C43C0822FF328C54026808335B01D31877
S1132E3002221A711DE059010268521883246400A9
S1132E40145DE40615D51025822464001555026826
S1132E50944661440822FF328A5C920609D5E43C18
S1132E600822FF328C54026808335B01D318012214
S1132E701A7130BD30B50C00083464010568645D16
S1132E806406640F1C25002C16D04C010B4D2C1924
S1132E902500226164690A4A22406A616C699B04C4
S1132EA09A0CA30B9B0313436B610368083149011C
S1132EB0591880234B710025280030BDA40300203D
S1132EC0FF3F00F030B50C00083464010568645D10
S1132ED064071C25002C15D00B4D4C0162512C1994
S1132EE065689B041A09094B2B40134363606368AC
S1132EF09B0B9B0363600368083149015918402305
S1132F000B710025280030BDA4030020FF3F00F012
S1132F10094B19605968094A0A40802189020A4309
S1132F205A605A68920B92035A60026840218223C5
S1132F305B00D15400207047A4030020FF3F00F041
S1132F400268117802230B43137002689378022BF2
S1132F50FCD07047F0B55F4656464D464446F0B443
S1132F6083B0C84B1F683D682B78DB0900D155E15D
S1132F70288C80B2C44B9847041E1F2C00D9D3E080
S1132F80030008335B01ED18ED79EDB2AB0751D0C6
S1132F90BE4A01238340116899431160030008333A
S1132FA05B013A68944663440322DA713B18AE33FA
S1132FB01B78DB073ED5B64B18703A68030008331C
S1132FC05B019B5C9B079B0F012B10D14201B14B12
S1132FD09B185A689204920CAD494A805A681201AF
S1132FE0920C8A805A68920B92035A601AE042014A
S1132FF0A84B9B185A681201920C90B2A4494A80BB
S11330005A689204920C8A805968A34A0A405A600A
S1133010002807D163019F4AD3185B689B049B0C6B
S11330209B4A5380974B1868A31C1B01C3185B6809
S1133030974998476B070ED5944A0123A34011681A
S1133040994311608F4B1B681A68230008335B0196
S1133050D3180422DA712B0721D58C4A0123A3400B
S1133060116899431160874B1868230008335B018A
S11330700268944663440822DA710319AE331B785C
S11330809B070CD582490C706301824AD318DA89F4
S11330901F2313404B702301C3189B6A9847EB0608
S11330A022D57A4A0123A340116899431160754BD4
S11330B01868230008335B010268944663441022B5
S11330C0DA710319AE331B785B070DD5704A14709F
S11330D063017049CB185B681B019B0C538023016F
S11330E0C318DB6A00219847AB0600D4F1E1674AB4
S11330F00123A340116899431160624B18682300AF
S113310008335B010268944663442022DA71031990
S1133110AE331B781B0700D4DBE15D490C7024013E
S11331200419236B9847D4E1AC8BA4B2630708D588
S11331300423AB83A133FB5CDB0702D57B68380037
S1133140984723070DD50022504B1A604D4B186841
S11331500823026893839D33C35C9B0701D583686E
S1133160984763060AD5474B18684023026893833F
S11331706533C35CDB0601D543699847A3060AD5CA
S1133180404B18682023026893838533C35C1B0774
S113319001D503699847E3060AD53A4B186810230A
S11331A0026893839533C35C5B0701D5C368984772
S11331B023060DD50022354B1A60324B1868802344
S11331C0026893832533C35C9B0601D583699847C2
S11331D0E3050ED500222D4B1A602A4B1868802374
S11331E05B00026893835B3BC35C5B0601D5C369E8
S11331F09847A30500D46CE10022244B1A60214BAC
S1133200186880239B00026893835C3BFF3BC35C8C
S11332107F2B00D85DE1036A98475AE12E8CB6B241
S1133220002E3FD1AE8BB6B2AB235B00FD5A3540C6
S1133230023BFB5A1D400024184F124B99469846F6
S11332406300DB5B334203D04A46126812689383FF
S11332502B4213D0062C07D10E4B1B891A0980234D
S11332605B0013400E4A136023002E339B0042463A
S113327012689B580A494246106898470134072C43
S1133280DED126E188010020394500007C010020C0
S113329074010020A4030020FF3F00F060460000FA
S11332A0700100203C005934FF340023012294466D
S11332B05F329146503A92460D3A9346B8462F00F3
S11332C0D8B2019332001A416146114200D1FBE0A9
S11332D01A0008325201BA18D279D2B2217A25786A
S11332E0294011404D4615422AD03D0047465B0116
S11332F0ED180823FF33EB5C5B0609D54022082355
S1133300FF33EA54883BFF3B0343754A93710AE059
S11333100823FF33EB5C9B0605D520220823FF33EB
S1133320EA546F4B987160230B4200D1D1E0019BAA
S11333301B01FB18E0331B68694938009847C8E053
S1133340554615421FD03D004746019A13000833E5
S11333505B01ED181023EB71BB186133FF331B784D
S1133360DB0600D4B5E0100053015E4AD3185B6855
S11333709B049B0C5A490B800301FB18DC331B682C
S113338040469847A5E05D4615423FD03D0047467C
S113339080465B01ED180823FF33EB5C9B0712D5D5
S11333A002220823FF33EA544D4A883BFF3B034380
S11333B09371019B5B014B48C31810335B689B04FA
S11333C09B0C538017E00823FF33EB5CDB0712D51B
S11333D001220823FF33EA54414843468371019B89
S11333E05A01404B9B185A689204920C02805B6805
S11333F01B019B0C83808B076BD0019B0D331B013E
S1133400FB185B6836493800984762E00C25154282
S11334105AD03D00474680465B01ED180823FF3330
S1133420EB5C1B0721D508220823FF33EA540198DB
S113343043012C4AD3189B7E9B0706D54201294B96
S11334409B189A7E022082439A7680235B424246EE
S11334501343234A9371019B08335B013A689446F2
S11334606344DB799B0723D533E00823FF33EB5C0C
S11334705B071DD504220823FF33EA540198430156
S1133480184AD3189B7A9B0706D54201154B9B1803
S11334909A7A022082439A72114B42469A71019B96
S11334A008335B013A6894466344DB79DB0710D444
S11334B00C230B420DD0019B1B01FB18D8331B6856
S11334C007493800984704E001330134082B00D041
S11334D0F6E603B03CBC90469946A246AB46F0BD26
S11334E080010020A4030020002202700123437005
S11334F08270C3707047C046F0B54F464646C0B4AC
S113350083B004000D00160000236B4A13606B4A5D
S1133510106021606A49C86920220243CA6101AF70
S11335207B700122BA70FB70063399463B703900F8
S11335301820644B984698474B463B703900192035
S1133540C047B3786A461370694606205E4B9847B5
S113355006205E4B98472A78012313432B70AB78DF
S1133560DB07FCD45A4BDA7803218A4302210A434D
S1133570DA70DA780C218A4308210A43DA70554B51
S11335801B689B03DB0E1F2B00D11A3B298D9A016C
S1133590514B0B4013432B854E4B1B685B02DB0ED8
S11335A01F2B00D1023B2A8D1F218A4313432B85F5
S11335B0484B1B689B015B0F072B00D1043B298DF3
S11335C01A03464B0B4013432B8532782B78D201D8
S11335D07F210B4013432B7072782B787E390A407D
S11335E0920003318B4313432B703D4B6B62F37892
S11335F0012B05D12268138908318B43138108E01C
S1133600002B06D121680B890C2293430422134317
S11336100B818022520000213148324B9847221DF1
S113362023002433002102C29342FCD12100A4319F
S113363000221A605A609A60DA6010338B42F8D123
S11336400023A422A3540132A3542300A63321004F
S1133650AE3100221A701A7201339942FAD1220053
S1133660B8322300D433002102C29A42FCD1210093
S11336705531FF3100221A605A609A60DA601033C3
S11336808B42F8D10023AA225200A3520232A35241
S113369023005933FF336134FF3400221A701A7245
S11336A001339C42FAD180220F4B1A60002003B0F0
S11336B00CBC90469946F0BD7C0100208801002096
S11336C000040040351C00003D1B0000B11A00003E
S11336D000500041246080003FF8FFFFFF8FFFFF90
S11336E0A4030020D745000000E100E0FEE7C04647
S11336F070B52E4B2E4A9A4203D02E4B2B4A9A4237
S113370004D32D4B2D4A9A4210D31EE02C4A294B48
S113371003339B1A9B0801339B000022234824494E
S11337208C58845004329A42FAD1EAE7254A224B53
S113373003339B1A9B0801339B0000221F4800217E
S11337401418216004329A42FAD11F4AFF211F4BF8
S11337508B439360FD3990235B001D4AD1501D4873
S1133760C3780324A34302221343C370C3780C26F3
S1133770B34308210B43C370174B987B3025A843F0
S11337800500202028439873987BB0430143997324
S1133790997BA1430A439A73104A516880230B43CF
S11337A053600F4B98470F4B9847FEE700000020EB
S11337B0BC460000DC00002060050020DC00002086
S11337C004000020E000002000ED00E00000000004
S11337D00070004100500041004800410040004199
S11337E0794500005141000000B583B001A90023D0
S11337F00B7001224A708B700320024B984703B070
S113380000BDC046ED0E000010B584B001AC200030
S1133810074B98470323019300236360013323720A
S1133820E37221000320034B984704B010BDC04647
S1133830650E0000790E000010B500220321044833
S1133840044B984700210320034B984710BDC04602
S1133850613E00000D0D0000390D000030B591B03F
S1133860284C1223237000236370A37001A9012242
S11338704A708B700A701220234B98472378DA0918
S11338800021002A04D15909C901204A94466144FF
S11338901F2213401E3A10009840886102AC227027
S11338A0002303930493C021890305912374637453
S11338B0A274E27423752332A354183A002108A891
S11338C0134B9847134BA361134BA362134BE3624F
S11338D001235B422363124B6363124D220012499E
S11338E02800124B98472A68D369002BFCD1116831
S11338F002330B431360002202490A480C4B9847D9
S113390011B030BD5C050020ED0E00000044004104
S1133910D7450000A086010002001000020011003B
S1133920020013004C050020000C00424911000065
S11339301D15000010B584B000236A46D3700293AD
S113394003931380937001231371074C07492000DC
S1133950074B98472000074B984707492000074B1F
S1133960984704B010BDC046A804002000140040CD
S1133970590200001D010000102700003903000057
S113398010B5044C00212000034B98472000034B42
S1133990984710BDA8040020850100001D01000007
S11339A000B583B0002301930348044B984701906A
S11339B0019803B000BDC046A8040020C101000066
S11339C00122054B1A800023044A13701F21044A64
S11339D01170044A1370704746050020C00400208B
S11339E0B00400204805002010B572B6BFF35F8F05
S11339F00022044B1A70013203490448044B9847CF
S1133A0010BDC046D80000205C0500204C050020F5
S1133A101D150000054B1B78002B05D10122044B1A
S1133A201A70BFF35F8F62B67047C046B1040020BE
S1133A30D800002010B5002203490448044B9847DD
S1133A40044B984710BDC0465C0500204C0500207F
S1133A501D150000153A000070B584B06B469C1D1E
S1133A60D8800C4B984721887F2319400A4E0B4A73
S1133A7030000B4DA8470E246C4400232380220001
S1133A8000213000A847074B98472088C0B204B0F3
S1133A9070BDC046E93900004C0500208C010020AF
S1133AA069140000353A000010B582B06B469C1DC5
S1133AB0002323802420064B9847404200B22080F4
S1133AC023881BB25B102380208800B202B010BD93
S1133AD0593A0000F8B505000C00084B9847084E09
S1133AE080212943074D32002800074FB847A1B26F
S1133AF032002800B847054B9847F8BDE939000063
S1133B008C0100204C05002069140000353A0000A7
S1133B1010B5104B18701B780F21002B00D10B31FE
S1133B2013200D4B98470B4B1B78002B0AD0112008
S1133B300A4B98471F210140602319431120064B6B
S1133B40984706E0064B1978802319431120024B4D
S1133B50984710BD48050020D53A0000593A0000A6
S1133B60B004002010B500280AD103E05C20084B03
S1133B7098470BE055215A20054B98477021F5E7EB
S1133B805D215A20024B98477C21EFE710BDC046C7
S1133B90D53A000070B586B2314B1B889BB29E4269
S1133BA05DD004285BD880002E4B1B589F46012013
S1133BB02D4B98471C23010099430C231943C9B288
S1133BC001202A4B98472A4B1B78002B02D0012056
S1133BD0284B9847224C244D37E00120224B98472C
S1133BE01C230100994310231943C9B201201F4B20
S1133BF098471F4B1B78002BECD000201D4B984797
S1133C00E8E70120184B98471C2301009943082337
S1133C101943C9B20120154B9847DBE70120124B29
S1133C2098471C230100994304231943C9B2012076
S1133C300E4B9847CEE701200B4B9847E323010036
S1133C4019400120094B9847C4E723889BB2002BF5
S1133C5003D12720A8470306F7D5014B1E8070BD6A
S1133C604605002074460000593A0000D53A000089
S1133C7048050020653B000010B50023114A13805D
S1133C80114A1380114A1380114A1380114A138078
S1133C90114A1380114A13802820114B9847430777
S1133CA008D53D200E4B984704231843C1B23D204C
S1133CB00C4B9847402125200A4B984703200A4B78
S1133CC0984710BDBE040020A6040020440500202F
S1133CD04005002042050020BC04002058050020B7
S1133CE0593A0000D53A0000953B0000F0B583B086
S1133CF0474B1B889BB2032B00D083E02820454B05
S1133D009847430700D47DE00120434B9847434B39
S1133D109847434E434A00213000434DA847434C43
S1133D20220000213000A84723889BB24222422B64
S1133D3002D83E4B1A8892B23C4B1A803C4A00216E
S1133D403748394B98473B4B1B78002B0BD13A4BE8
S1133D501A78374B1B889BB29A4204D0344B1B8889
S1133D609BB2FF2B04D1314B1B889BB2022B07D88B
S1133D7000222E4B1A80314B9847314B984745E02F
S1133D802A4B1B88033B9BB22E4D2B80244F2E4A7B
S1133D9000213800244EB0476B46DC1D00232370FD
S1133DA0220000213800B04723787F221900914374
S1133DB0264A118040221340254A13802B889BB247
S1133DC0002B0FD00024234F154D174E6200D2193B
S1133DD000212800B0470134E4B21A4B1B889BB27F
S1133DE0A342F3D8174B1B889BB23C2B05D8154B29
S1133DF01B885B000021174A9952104B98470320F7
S1133E00054B9847144B9847144B188003B0F0BDEA
S1133E1046050020593A0000953B0000E9390000AE
S1133E204C0500208C01002069140000400500208E
S1133E3044050020C0040020B2040020353A0000EC
S1133E40793C0000BE040020A6040020BC0400202D
S1133E5042050020C4040020A93A000058050020AF
S1133E6010B5044C01232370034B9847002323709F
S1133E7010BDC046B1040020ED3C0000F0B54F4633
S1133E8080B481460120154B98474B46002B14D033
S1133E90134B9847134ABE211348144B98474C467A
S1133EA04D4610350F4E114F217832000E48B84759
S1133EB00134AC42F8D10E4B98473D200D4B984746
S1133EC00123984349464B1E99410143C9B23D2001
S1133ED0094B984704BC9146F0BDC046953B000091
S1133EE0E93900008C0100204C0500206914000011
S1133EF0353A0000593A0000D53A0000F0B557466B
S1133F004E464546E0B490B0040001911500804B44
S1133F10984704AB01221A7004215970022098704A
S1133F200022DA7003321A71587199713C31D971D7
S1133F303B3919725A7203329A722D32DA722C3A60
S1133F401A731F2C00D1C0E02B2C00D1B6E0562CE4
S1133F5000D0C1E0C7E004ABDA7309221A7400216F
S1133F60597410329A7429329146DA742522904693
S1133F701A7540225A7526269E75393ADA7528270D
S1133F801F7609325A7629249C76CC32DA76AE3AF8
S1133F901A775A325A77593A9A77023A9446DA7724
S1133FA030202022985401329D54163222255A552D
S1133FB0902201355A55382201355A5542464D460C
S1133FC09D543C259D556936153D5E551635DD5588
S1133FD02B3D1D555D3501341D5501341855D43420
S1133FE004381C54624699544A4B98474A4B9847A4
S1133FF04A4B98474A4B98474A4B9847322202AB60
S1134000DA71494D494C4A4FAA212F20A8472F2045
S1134010A047AA2806D0B84702AB07331B78DBB207
S11340209842F1D33F4B98473F4D404C404F552168
S11340302F20A8472F20A04755285BD0B84702ABB4
S113404007331B78DBB29842F1D353E05B00EB18E3
S11340505978B8470134E4B223006200505DFF2868
S1134060F4D10020334B9847334B1878C0B2334B0C
S113407098470120324B98472A4B98472B4D2C4F99
S113408002ABDC1D2720A847030604D4B8472378D5
S1134090DBB29842F6D3264B984702AB07331B7822
S11340A0DBB2002298422BD2264B1A70264B98473B
S11340B0264B6A4612791A70012221E004AB6C2265
S11340C05A73643A9A73383245E704AB4E225A73F2
S11340D0463A9A73B8323EE704ABE4225A73DC3AA8
S11340E09A73B83237E704ABD9225A73D13A9A7328
S11340F0002230E701200023002404AD0A4FA5E785
S1134100100010B01CBC90469946A246F0BDC046B3
S1134110C13900005D38000035390000E93700007E
S11341200938000081390000D53A0000593A0000EE
S1134130A13900007D3E000048050020113B00002D
S1134140953B0000B104002039380000B20400207F
S113415010B501240F4B1C70BFF35F8F62B60E4B7A
S11341609847002202215B200C4B984701200C4BFE
S113417098470C480C4B98470C4B00221A705A7005
S11341809A70DA701C710A4B98470A4B98470A4B8D
S11341909847FEE7D8000020691C0000FD3E00009F
S11341A0113B0000884600007D3E00009401002081
S11341B075030000D10300007107000010B5014B26
S11341C0984710BDD103000010B5014B984710BDAE
S11341D00104000010B5044B1B78002B03D0034BE3
S11341E09847034B984710BD8E01002049230000D7
S11341F01104000010B5014B984710BDE103000005
S113420010B5014B984710BDF103000010B5014BE8
S1134210984710BDD103000010B5014B984710BD5D
S1134220F103000010B5014B984710BDE1030000F5
S11342300122024B1A7001207047C0468E010020F3
S11342400022014B1A7070478E010020002243089F
S11342508B4274D303098B425FD3030A8B4244D34A
S1134260030B8B4228D3030C8B420DD3FF2209028C
S113427012BA030C8B4202D31212090265D0030B4B
S11342808B4219D300E0090AC30B8B4201D3CB0341
S1134290C01A5241830B8B4201D38B03C01A524183
S11342A0430B8B4201D34B03C01A5241030B8B4285
S11342B001D30B03C01A5241C30A8B4201D3CB0270
S11342C0C01A5241830A8B4201D38B02C01A524155
S11342D0430A8B4201D34B02C01A5241030A8B4258
S11342E001D30B02C01A5241CDD2C3098B4201D370
S11342F0CB01C01A524183098B4201D38B01C01AEE
S1134300524143098B4201D34B01C01A5241030964
S11343108B4201D30B01C01A5241C3088B4201D313
S1134320CB00C01A524183088B4201D38B00C01AC0
S1134330524143088B4201D34B00C01A5241411AE7
S113434000D20146524110467047FFE701B50020F4
S113435000F0F0F802BDC0460029F7D076E77047B8
S113436003460B437FD4002243088B4274D30309D2
S11343708B425FD3030A8B4244D3030B8B4228D373
S1134380030C8B420DD3FF22090212BA030C8B4299
S113439002D31212090265D0030B8B4219D300E039
S11343A0090AC30B8B4201D3CB03C01A5241830BBE
S11343B08B4201D38B03C01A5241430B8B4201D36E
S11343C04B03C01A5241030B8B4201D30B03C01A97
S11343D05241C30A8B4201D3CB02C01A5241830A11
S11343E08B4201D38B02C01A5241430A8B4201D340
S11343F04B02C01A5241030A8B4201D30B02C01A6A
S11344005241CDD2C3098B4201D3CB01C01A5241D0
S113441083098B4201D38B01C01A524143098B4259
S113442001D34B01C01A524103098B4201D30B0142
S1134430C01A5241C3088B4201D3CB00C01A524167
S113444083088B4201D38B00C01A524143088B422C
S113445001D34B00C01A5241411A00D201465241C5
S1134460104670475DE0CA0F00D04942031000D3E4
S11344704042534000229C4603098B422DD3030A39
S11344808B4212D3FC22890112BA030A8B420CD349
S1134490890192118B4208D3890192118B4204D372
S11344A089013AD0921100E08909C3098B4201D3F2
S11344B0CB01C01A524183098B4201D38B01C01A2C
S11344C0524143098B4201D34B01C01A52410309A3
S11344D08B4201D30B01C01A5241C3088B4201D352
S11344E0CB00C01A524183088B4201D38B00C01AFF
S11344F05241D9D243088B4201D34B00C01A5241D6
S1134500411A00D20146634652415B10104601D362
S11345104042002B00D54942704763465B1000D3EC
S1134520404201B5002000F005F802BD0029F8D092
S113453016E770477047C046414208401C210123DA
S11345401B04984201D3000C10391B0A984201D372
S1134550000A08391B09984201D30009043902A250
S1134560105C401A7047C0461B1C1D1D1E1E1E1EDB
S11345701F1F1F1F1F1F1F1F0E4B70B500251E007E
S11345800D4CE41AA410A54204D0AB00F35898478C
S11345900135F8E700F082F8084B00251E00084CAE
S11345A0E41AA410A54204D0AB00F358984701358F
S11345B0F8E770BDA8460000A8460000A846000021
S11345C0AC460000002310B59A4203D0CC5CC4541E
S11345D00133F9E710BD03008218934202D0197029
S11345E00133FAE77047000000080042000C004263
S11345F0001000420014004200180042001C004257
S1134600221600001E1600001E1600007C16000074
S11346107C16000036160000281600003C16000028
S11346206A1600008C1700006C1700006C1700005D
S1134630F81700007E1700009A170000701700009A
S1134640A8170000E817000000030201242B000053
S1134650322B0000D22B00003A2C00009E2C0000CC
S11346600400080070008000010000010002000046
S1134670030C1060363C00001C3C0000023C0000AF
S1134680DA3B0000AE3B0000544F505345435245C3
S1134690545041535357524400000000F8B5C046EB
S11346A0F8BC08BC9E467047DD000000F8B5C04663
S10F46B0F8BC08BC9E467047B500000032
S11346BC69040000A9040000B504000061040000B2
S11346CC0000000005010902A1010901A10005096E
S11346DC190129031500250175019503810275053E
S11346EC950181010501093009310938150026FFAE
S11346FC7F751095038102C0C000000009022200DE
S113470C010100A032090400000103010200092187
S113471C110100012235000705810308000A00007D
S113472C050F0C0001071002020000004C000020D1
S113473C90000020940000207C00002070000020D9
S113474C000000201201010200000008EB03002409
S113475C0001010200010000484944204D6F7573AB
S113476C6500000041544D454C2041534600000067
S113477C0003000000000000000000000000000026
S10F478C00000000040309040100000008
S90336F1D5
