S0150000446F6E676C65204D6F64756C652E7372656330
S1130000A8250020D1470000CD470000CD470000BF
S113001000000000000000000000000000000000DC
S1130020000000000000000000000000CD470000B8
S11300300000000000000000CD470000CD47000094
S1130040CD470000CD470000CD470000CD4700005C
S113005089230000CD470000CD4700003540000053
S1130060CD470000CD470000CD470000CD4700003C
S1130070CD470000CD470000CD470000CD4700002C
S1130080CD470000CD470000CD470000CD4700001C
S1130090CD4700000000000000000000CD47000034
S11300A0CD470000CD470000CD470000CD470000FC
S11300B00000000010B5064C2378002B07D1054B37
S11300C0002B02D0044800E000BF0123237010BDC0
S11300D0DC00002000000000C04E0000084B10B5FA
S11300E0002B03D00749084800E000BF0748036815
S11300F0002B00D110BD064B002BFBD09847F9E72D
S113010000000000E0000020C04E0000C04E0000CF
S1130110000000000368987AC009704770B50400B5
S11301200668054D2000A8470028FBD13288022329
S11301301343338070BDC0461501000070B5040040
S11301400668054D2000A8470028FBD13388022209
S11301509343338070BDC0461501000070B50400A0
S11301600668064B9847064D2000A8470028FBD197
S1130170328801231343338070BDC0463D01000023
S113018015010000F8B504000E0007680A4D2000B0
S1130190A8470028FBD12379002B03D0012B09D1D8
S11301A03E6108E01720054B9E4204D8B6B23E8259
S11301B0002000E01720F8BD15010000FFFF00003B
S11301C070B5040006684379002B06D1094B73808F
S11301D0094D2000A8470028FBD12379002B04D027
S11301E00020012B04D1306902E0308A80B2FFE79D
S11301F070BDC0460080FFFF15010000F0B583B05C
S11302000400019115000668114F2000B84700282A
S1130210FBD12379002B0AD0012B16D11730012DE5
S113022014D80635AD00019BAB5100200EE0172019
S1130230022D0BD8074B019A9A4207D86B469B882C
S11302400C356D00AB53002000E01A2003B0F0BD64
S113025015010000FFFF0000F0B583B00400160094
S113026001602E4A916920230B43936101A9022363
S11302700B7004202A4B984704202A4B98472000EF
S1130280294B9847B378237133796371274B1C60EA
S1130290276833883B80B378002B17D01720012BB5
S11302A03AD13B889BB23B80F378002B03D03A8849
S11302B0802313433B801E4D2000A8470028FBD118
S11302C00022B16820001B4B98471BE03A880423A6
S11302D013433B80F3781720002B1DD1144D2000CD
S11302E0A8470028FBD10022B1682000114B984791
S11302F00F4D2000A8470028FBD10122F1682000FF
S11303000C4B984733790020002B05D07A88802342
S1130310DB0113437B80FFE703B0F0BD0004004022
S11303204D2A0000C12900005D010000DC0100200D
S113033015010000FD010000F8B504000E0003796A
S11303401520002B06D12768034D2000A84700285C
S1130350FBD1BE82F8BDC0461501000010B54908A6
S113036040230024814201D20AE01C00091A631CC4
S11303709BB28842F9D94023FF2C01D81480002372
S1130380180010BD10B582B004000E4B1B78002B72
S113039001D000290DD001A90C7013200A4B9847F5
S11303A013200A4B9847074B5C7001221A700020F7
S11303B006E0044B5B78834201D01D2000E000205E
S11303C002B010BDF80000204D2A0000C129000031
S11303D0444B984233D006D8434B98420DD0434BFC
S11303E098421BD06FE0424B98424AD0414B98420E
S11303F058D0414B984266D132E0012906D00029F9
S113040063D0022906D0032906D001E03B4867E007
S1130410002065E03A4863E03A4861E0012906D0EB
S1130420002954D0022906D0032906D001E0364819
S113043056E0002054E0354852E0354850E00129A8
S113044006D0002945D0022906D0032906D001E0B0
S1130450304845E0002043E02F4841E02F483FE08A
S1130460012906D0002936D0022906D0032906D056
S113047001E02B4834E0002032E02A4830E02A48EA
S11304802EE0012906D0002927D0022906D003290D
S113049006D001E0254823E0002021E024481FE0A5
S11304A024481DE0012906D0002918D0022906D0CD
S11304B0032906D001E0204812E0002010E01F4884
S11304C00EE01F480CE000200AE01E4808E003206C
S11304D006E01D4804E01D4802E01D4800E01D48F8
S11304E07047C0460010004200080042000C004261
S11304F000180042001C00420014004203000500E2
S113050003000600030007000300010003001E00AF
S113051003001F000300090003000A0003000B008E
S113052003001100030012000300130003000D0078
S113053003000E0003000F0003001700030018005F
S11305400300190003000400030008000300100066
S113055003000C000300160030B587B00C4B6A464C
S113056032CB32C232CB32C2009B834206D001234B
S11305709A0069465258824203D100E00023D8B25F
S113058003E00133062BF3D1002007B030BDC04691
S1130590EC4D0000F0B557464E464546E0B488B0F1
S11305A080460E001400030019600B689B0700D4FA
S11305B0A6E0936A0393D36A0493136B0593536B76
S11305C0069300271F239946F9B2BB0003AA985843
S11305D0002802D13000AC4B9847431C27D00204BA
S11305E0130C9C46000CC1B20025030603D44B092E
S11305F0DB01A64A9D184B460B40E81840300078B2
S1130600824680205246D2070AD55B08EB18303365
S11306101878C0B2CB0701D5000901E00F231840B8
S1130620844504D00023424613601C2026E1013790
S1130630042FC9D11320964B984723780027012B08
S113064012D102AA0100A069924B98470300172017
S1130650002B00D012E1337BDBB202AA1278053002
S11306609A4200D00AE10C372578002D14D1326863
S1130670E37F1B04A17F0B431C20934200D0FDE0C9
S1130680A169A38B2022A25C002A01D0402213433B
S113069008220A43174300E000236268A1680A4362
S11306A0E1680A433A43217C0B43617C002901D071
S11306B080210A43A17C002902D0802189020B43B6
S11306C0E17C002902D0802189000B43217D00298F
S11306D002D0802189010B43306802210A438242FF
S11306E009D172689A4206D143465D71237C424621
S11306F093710020C2E00023424613601C20BDE039
S11307000B680520DB0700D5B8E00800624B98476A
S113071062490A6A851C0123AB4013430B6207A993
S11307202427E35D0B701430C5B228005C4B984756
S113073028005C4B9847E05D00215B4B9847237889
S1130740012B03D132680B33134333602378002B1E
S113075003D1326808331343336043461E6802AB47
S113076080221A7000225A7001219970DA7023785D
S1130770002B01D102AB9A70A36A0393E36A04933A
S1130780236B0593636B0693002702ADF9B2BB009C
S113079003AA9858002802D130003B4B9847431CC9
S11307A005D02870000CC0B22900404B984701378F
S11307B0042FEBD1237842465371237C9371A37C9D
S11307C0D371237D137200226B46DA802378012BC8
S11307D015D143461868304B98471430C0B22C4B9F
S11307E0984701006B469A1DA0692A4B984703005D
S11307F01720002B42D16B4606331B7833732378C2
S1130800002B0FD1A769A38B706AE17F0904A57F30
S11308102943014371622022A25C002A04D04021B2
S11308200B4301E0002300276268A1680A43E168E2
S11308300A433A43217C0B43617C002903D11C49C0
S11308408978890701D580210A43A17C002902D037
S1130850802189020B43E17C002902D08021890098
S11308600B43217D002902D0802189010B4331688B
S11308700A433260726813437360002008B01CBCE2
S113088090469946A246F0BDD103000000440041C1
S1130890692A00005D0300005905000000040040BF
S11308A04D2A0000C129000085030000452B0000EB
S11308B00020004170B5C4791C23002C4FD043792B
S11308C0002B0ED105682B7EDB070AD4254B0126AD
S11308D02C7E344205D1012B3ED0013B9BB2002B30
S11308E0F6D104680125237E2B42FCD0237EDB074E
S11308F002D5C905C90DA1624379002B0ED1046844
S1130900237E5B070AD4174B0425217E294205D197
S1130910012B23D0013B9BB2002BF6D101680424A8
S11309200B7E2342FCD00C7E1023640717D54C8B1E
S11309300023640704D54C8B043323434B831E23C9
S11309408079012804D1896AC905C90D118006E09E
S1130950896AC9B2118002E0122300E01223180050
S113096070BDC0461027000010B544791523012C32
S113097070D1047A0023002C6CD1002A5AD04B7811
S1130980002B46D003681B7EDB0710D40B78D909F3
S11309900022002904D15A09D2012F498C4662440D
S11309A01F210B401E3999409161052352E00B78B9
S11309B0DC090022002C04D15A09D201264CA44699
S11309C062441F2423401E3C9C40546103681A7EE9
S11309D0D20701D58A789A62C2790023002A39D1D4
S11309E002680421137E0B42FCD0117E00234907C8
S11309F030D5538B5B0703D5518B04230B435383AF
S1130A008379012B02D1936A002323E0936A0023A4
S1130A1020E00B78D9090022002904D15A09D20117
S1130A200D498C4662441F210B401E399940516187
S1130A3000230FE00B78D9090022002904D15A09B8
S1130A40D20105498C4662441F210B401E3999404E
S1130A5091610023180010BD0044004100B583B02B
S1130A6001A900230B7001224A708B700320024BF2
S1130A70984703B000BDC046FD24000010B584B003
S1130A8001AC2000074B98470323019300236360C4
S1130A9001332372E37221000320034B984704B00F
S1130AA010BDC046752400008924000010B5002242
S1130AB003210448044B984700210320034B984723
S1130AC010BDC046F11200001D23000049230000A0
S1130AD030B591B0284C1223237000236370A370A7
S1130AE001A901224A708B700A701220234B984787
S1130AF02378DA090021002A04D15909C901204ABE
S1130B00944661441F2213401E3A100098408861A5
S1130B1002AC2270002303930493C021890305913E
S1130B2023746374A274E27423752332A354183AB1
S1130B30002108A8134B9847134BA361134BA362DE
S1130B40134BE36201235B422363124B6363124D35
S1130B50220012492800124B98472A68D369002BB7
S1130B60FCD1116802330B431360002202490A4886
S1130B700C4B984711B030BD90020020FD240000BA
S1130B8000440041DB4D0000A0860100020010007B
S1130B90020011000200130080020020000C004239
S1130BA0950500006909000010B584B000236A4669
S1130BB0D370029303931380937001231371074C32
S1130BC007492000074B98472000074B98470749DF
S1130BD02000074B984704B010BDC046E401002034
S1130BE000140040590200001D01000010270000FD
S1130BF03903000010B5044C00212000034B984732
S1130C002000034B984710BDE4010020850100003B
S1130C101D01000000B583B0002301930348044B79
S1130C2098470190019803B000BDC046E40100203C
S1130C30C10100000122054B1A800023044A1370ED
S1130C401F21044A1170044A137070477A0200206D
S1130C50F4010020EC0100207C02002010B572B6E3
S1130C60BFF35F8F0022044B1A700132034904481A
S1130C70044B984710BDC046D800002090020020C5
S1130C808002002069090000054B1B78002B05D168
S1130C900122044B1A70BFF35F8F62B67047C046DF
S1130CA0ED010020D800002010B5002203490448BB
S1130CB0044B9847044B984710BDC046900200204F
S1130CC08002002069090000890C000070B584B01E
S1130CD06B469C1DD8800C4B984721887F23194074
S1130CE00A4E0B4A30000B4DA8470E246C440023D7
S1130CF02380220000213000A847074B9847208812
S1130D00C0B204B070BDC0465D0C0000800200207B
S1130D10FA000020B5080000A90C000010B582B04C
S1130D206B469C1D002323802420064B9847404299
S1130D3000B2208023881BB25B102380208800B27D
S1130D4002B010BDCD0C0000F8B505000C00084B36
S1130D509847084E80212943074D32002800074F49
S1130D60B847A1B232002800B847054B9847F8BDF0
S1130D705D0C0000FA00002080020020B50800008D
S1130D80A90C000010B5104B18701B780F21002B14
S1130D9000D10B3113200D4B98470B4B1B78002BC4
S1130DA00AD011200A4B98471F21014060231943A0
S1130DB01120064B984706E0064B19788023194307
S1130DC01120024B984710BD7C020020490D000001
S1130DD0CD0C0000EC01002010B500280AD103E07E
S1130DE05C20084B98470BE055215A20054B984747
S1130DF07021F5E75D215A20024B98477C21EFE7EB
S1130E0010BDC046490D000070B586B2314B1B8839
S1130E109BB29E425DD004285BD880002E4B1B58A9
S1130E209F4601202D4B98471C23010099430C2316
S1130E301943C9B201202A4B98472A4B1B78002B2F
S1130E4002D00120284B9847224C244D37E0012042
S1130E50224B98471C230100994310231943C9B21C
S1130E6001201F4B98471F4B1B78002BECD0002010
S1130E701D4B9847E8E70120184B98471C230100B5
S1130E80994308231943C9B20120154B9847DBE75E
S1130E900120124B98471C23010099430423194352
S1130EA0C9B201200E4B9847CEE701200B4B98475F
S1130EB0E323010019400120094B9847C4E7238824
S1130EC09BB2002B03D12720A8470306F7D5014B7B
S1130ED01E8070BD7A020020044E0000CD0C00007C
S1130EE0490D00007C020020D90D000010B50B4B09
S1130EF01B889BB20020032B0ED1094B1B889BB28D
S1130F00002B09D1074B9847030000205A3303DA1A
S1130F100130054B9847012010BDC0467A020020DD
S1130F20740200201D0D0000090E000010B50023FE
S1130F30114A1380114A1380114A1380114A1380F5
S1130F40114A1380114A1380114A13802820114B2F
S1130F509847430708D53D200E4B98470423184370
S1130F60C1B23D200C4B9847402125200A4B98479D
S1130F7003200A4B984710BDF2010020E201002033
S1130F80780200207402002076020020F001002084
S1130F908C020020CD0C0000490D0000090E000059
S1130FA010B572B6BFF35F8F0022114B1A70114B4C
S1130FB01B889BB2032B09D10F4B1B889BB2002BC0
S1130FC004D001200D4B984701200FE0094B1B88EA
S1130FD09BB2032B07D10122054B1A70BFF35F8F1D
S1130FE062B6002002E0064B9847002010BDC046C0
S1130FF0D80000207A02002074020020090E0000AC
S11310002D0F0000F0B585B00090019115001F0070
S11310100AAB1C780120304B9847304E2720B0474C
S11310200306FBD5002125202D4B98472B1C3D2D75
S113103000D93D23DEB2002202ABDA71002C03D0CA
S1131040803202ABDA7104E0002F02D0402202ABFE
S1131050DA71244B9847244F244D3A00802128000C
S1131060234CA047F11C3A002800A0476B4619887E
S11310703A002800A0471F4B19783A002800A047DF
S113108002ABD9793A002800A047002E0ED0019A6D
S11310901400731EDBB20133D618134F144D21789C
S11310A03A001248A8470134B442F8D1124B984789
S11310B00420094B9847114B9847114D0824114EB1
S11310C02B6A1C4203D1B0470F4B9842F8D9012038
S11310D0014B984705B0F0BD090E0000CD0C00008F
S11310E0490D00005D0C0000FA0000208002002081
S11310F0B5080000EE010020A90C0000F50B00006B
S113110000440041150C0000E7030000F0B587B06F
S11311100390049105921F003D20104B984704232F
S11311201843C1B23D200E4B98470E4B98470E4EC4
S11311300E4D0F4C00E0A047B047002803D1A8474C
S11311400C4B9842F7D9002300933B00059A04996D
S11311500398094CA04707B0F0BDC046CD0C000071
S1131160490D0000F50B0000ED0E0000150C000009
S1131170A10F0000E703000005100000F0B583B0E4
S1131180474B1B889BB2032B00D083E02820454BA0
S11311909847430700D47DE00120434B9847434BD5
S11311A09847434E434A00213000434DA847434CDF
S11311B0220000213000A84723889BB24222422B00
S11311C002D83E4B1A8892B23C4B1A803C4A00210A
S11311D03748394B98473B4B1B78002B0BD13A4B84
S11311E01A78374B1B889BB29A4204D0344B1B8825
S11311F09BB2FF2B04D1314B1B889BB2022B07D827
S113120000222E4B1A80314B9847314B984745E0CA
S11312102A4B1B88033B9BB22E4D2B80244F2E4A16
S113122000213800244EB0476B46DC1D0023237098
S1131230220000213800B04723787F22190091430F
S1131240264A118040221340254A13802B889BB2E2
S1131250002B0FD00024234F154D174E6200D219D6
S113126000212800B0470134E4B21A4B1B889BB21A
S1131270A342F3D8174B1B889BB23C2B05D8154BC4
S11312801B885B000021174A9952104B9847032092
S1131290054B9847144B9847144B188003B0F0BD86
S11312A07A020020CD0C0000090E00005D0C000045
S11312B080020020FA000020B5080000740200201B
S11312C078020020F4010020EE010020A90C0000A7
S11312D02D0F0000F2010020E2010020F0010020A7
S11312E076020020F80100201D0D00008C02002071
S11312F010B5044C01232370034B9847002323703B
S113130010BDC046ED0100207D110000F0B54F4630
S113131080B481460120154B98474B46002B14D0CE
S1131320134B9847134ABE211348144B98474C4615
S11313304D4610350F4E114F217832000E48B847F4
S11313400134AC42F8D10E4B98473D200D4B9847E1
S11313500123984349464B1E99410143C9B23D209C
S1131360094B984704BC9146F0BDC046090E0000E5
S11313705D0C0000FA00002080020020B508000087
S1131380A90C0000CD0C0000490D0000F0B5574633
S11313904E464546E0B490B0040001911500804BE0
S11313A0984704AB01221A700421597002209870E6
S11313B00022DA7003321A71587199713C31D97173
S11313C03B3919725A7203329A722D32DA722C3AFC
S11313D01A731F2C00D1C0E02B2C00D1B6E0562C80
S11313E000D0C1E0C7E004ABDA7309221A7400210B
S11313F0597410329A7429329146DA74252290462F
S11314001A7540225A7526269E75393ADA752827A8
S11314101F7609325A7629249C76CC32DA76AE3A93
S11314201A775A325A77593A9A77023A9446DA77BF
S113143030202022985401329D54163222255A55C8
S1131440902201355A55382201355A5542464D46A7
S11314509D543C259D556936153D5E551635DD5523
S11314602B3D1D555D3501341D5501341855D434BB
S113147004381C54624699544A4B98474A4B98473F
S11314804A4B98474A4B98474A4B9847322202ABFB
S1131490DA71494D494C4A4FAA212F20A8472F20E1
S11314A0A047AA2806D0B84702AB07331B78DBB2A3
S11314B09842F1D33F4B98473F4D404C404F552104
S11314C02F20A8472F20A04755285BD0B84702AB50
S11314D007331B78DBB29842F1D353E05B00EB187F
S11314E05978B8470134E4B223006200505DFF2804
S11314F0F4D10020334B9847334B1878C0B2334BA8
S113150098470120324B98472A4B98472B4D2C4F34
S113151002ABDC1D2720A847030604D4B847237870
S1131520DBB29842F6D3264B984702AB07331B78BD
S1131530DBB2002298422BD2264B1A70264B9847D6
S1131540264B6A4612791A70012221E004AB6C2200
S11315505A73643A9A73383245E704AB4E225A738D
S1131560463A9A73B8323EE704ABE4225A73DC3A43
S11315709A73B83237E704ABD9225A73D13A9A73C3
S1131580002230E701200023002404AD0A4FA5E720
S1131590100010B01CBC90469946A246F0BDC0464F
S11315A0350C0000D10A0000A90B00005D0A000000
S11315B07D0A0000F50B0000490D0000CD0C000071
S11315C0150C00000D1300007C020020850D0000A6
S11315D0090E0000ED010020AD0A0000EE0100201C
S11315E010B5034B984780229202024B5A6110BDFA
S11315F03D3700000044004110B584B001AC200028
S1131600144B98470F230193002363600133237223
S1131610A3720133E37221000F200F4B984700227D
S11316200F210E480E4B984700210F200D4B984771
S1131630802292020C4B9A61002202215B200B4B08
S1131640984701200A4B98470A480B4B984704B027
S113165010BDC0467524000089240000E115000077
S11316601D23000049230000004400418D130000A5
S1131670850D0000184E00000D1300008022920218
S1131680014B9A617047C0460044004110B50021E7
S11316900F20014B984710BD4923000010B50021CD
S11316A00F20014B984710BD69230000802292024D
S11316B0014B5A617047C04600440041F0B55F4693
S11316C056464D464446F0B483B0FA2189006C4B2B
S11316D0984789B2002904D180229202694B5A6149
S11316E007E0FA235B00994203D180229202654B02
S11316F09A61654B1B780133DBB2042B02D8624A32
S11317001370B5E00022604B1A70604B9847041EBA
S113171000D1ADE05E4B1888F530FF3000B2188080
S11317205C4D2B88F533FF332B805B4B98470023AC
S1131730E85E5A4B98475A4B1B889BB2012B67D1E2
S1131740584B1B889BB2002B51DD514B0020185E77
S1131750504B0021595E0023019300930022524E06
S1131760B3463F239846B246B146B4464D4D530066
S11317709B5B9B09012B0FD0002B04D0022B15D0AF
S1131780032B1CD024E053005746DB5B47463B4009
S1131790034318B200941BE053005F46DB5B4746EB
S11317A03B409B01034318B2009411E053004F46A1
S11317B0DB5B47463B40194309B2019408E0530000
S11317C06746DB5B47463B409B01194309B20194E2
S11317D001322B889BB29342C9DC009B002B01D0C1
S11317E02B4B1880019B002B01D02A4B1980284BCE
S11317F00020185E284B9847264B0020185E274B84
S113180098470023012229490320294CA0472FE0AF
S1131810234B1B889BB2012B2AD1224B1B889BB2E2
S1131820002B25DD0024204F002C02D0022C05D0F3
S113183018E0388800B21F4B984713E01A4B988879
S1131840C0B21D4E3070C008012528401B4B98477C
S11318503078800828401A4B984730784008284050
S1131860184B984701340F4B1B889BB2A342DBDC17
S113187003B03CBC90469946A246AB46F0BDC04678
S11318805D4B0000004400413E010020A10F000018
S11318903C01002040010020991A0000791A000040
S11318A0E2010020F2010020F8010020FC000020E9
S11318B00D110000591A00003A010020D91A000045
S11318C0C91A0000B91A00000020704700207047B0
S11318D010B50024074B1C70074B1C70074B1C7081
S11318E0072200210648074B9847074B1C70074BFB
S11318F0984710BD580100204C0100204B010020E6
S113190044010020DB4D000059010020354A00004D
S113191010B5014B984710BD454A000010B5034B64
S1131920034A04490448054CA04710BDCD180000E3
S1131930140000204C01002058010020E91A000086
S113194010B582B0104B1B780020002B19D10F4C1E
S11319500F48036823608388A3808379A3710130CF
S1131960032200210B4B984700220B4B1A700B4BA0
S113197000930723220000218120094CA047024A3A
S1131980107002B010BDC0464B0100205001002071
S113199044010020DB4D000059010020351A0000ED
S11319A04D35000010B5EFF3108472B6BFF35F8FAE
S11319B00022114B1A7003007F339BB2FE2B09D90E
S11319C00020002C16D101320B4B1A70BFF35F8F2D
S11319D062B60FE0094B58540122094B1A70094BA7
S11319E098470120002C05D10122034B1A70BFF344
S11319F05F8F62B610BDC046D800002044010020AD
S1131A00590100204119000010B5002804D0074AEC
S1131A1013781943117003E0044A13788B4313704D
S1131A2001210020024B984710BDC046440100200C
S1131A30A519000010B50022044B1A70044B1B7842
S1131A40002B01D0034B984710BDC0464B0100202A
S1131A50590100204119000070B5040040B205216D
S1131A60044EB04705006404600E0621B0470540EB
S1131A70E8B270BDA519000070B5040040B203219E
S1131A80044EB04705006404600E0421B0470540CD
S1131A90E8B270BDA519000070B5040040B2012180
S1131AA0044EB04705006404600E0221B0470540AF
S1131AB0E8B270BDA519000010B50421014B984788
S1131AC010BDC046091A000010B50221014B984709
S1131AD010BDC046091A000010B50121014B9847FA
S1131AE010BDC046091A000070B5040015003A4A3A
S1131AF0127850B200284EDA6020024031D13648C4
S1131B00407806282DD1354B98470300827A00206F
S1131B10212A60D1304A5288120A212A0DD12E4A34
S1131B201900093191605B7AD088191C9BB28342F9
S1131B3000D9011C918101204DE0D97B0020914204
S1131B4049D125498D601A7C09331B7A1B02134342
S1131B50C8881A1C9BB2834200D9021C8A810120C6
S1131B6039E00020202A36D11B4A5278022A06D0B6
S1131B70032A0AD00020012A2DD198472BE0164BC6
S1131B809C6001229A81012025E0134B9960012277
S1131B909A8101201FE0602002400020202A1AD1EF
S1131BA00D4A52780A2A06D00B2A0AD00020092AA4
S1131BB011D198470FE0084B5B881B0A2370012062
S1131BC009E0054BDB880020002B04D1024B5B8825
S1131BD00B700130FFE770BD84040020751D000008
S1131BE010B5114B1B681C68A378E27812021A43E3
S1131BF0A2180378C018904210D24378042B0FD057
S1131C008B4205D10FE04378042B0BD08B420AD0D2
S1131C100378C0189042F6D3002004E0002002E0CC
S1131C20002000E0002010BD5C01002010B5034B33
S1131C305B887F201840024B984710BD8404002025
S1131C401D37000070B5184B1B780022002B29D0DB
S1131C50164B1B681B681C79844223D9144A1360F1
S1131C609A78DC78240214431C19A34219D2002563
S1131C7001265A78042A0BD19A78824208D1DA785C
S1131C808A4205D1002D01D0094A1360012209E0DE
S1131C901A789B183500A342EBD3054A136000223F
S1131CA000E00022100070BD640100205C010020EF
S1131CB068010020F0B5474680B404000021124BAF
S1131CC09847051E1CD0114B1B685B68A200D358B3
S1131CD09846DB689847010020000B4B9847051E87
S1131CE00ED00B4B1C680B4E0B4F05212000B04748
S1131CF0041E02D08078B847F7E743465B689847EC
S1131D00280004BC9046F0BD451C00005C01002086
S1131D1068010020E11B000069320000F8B50500ED
S1131D200F4B9847002819D00E4B1C680E4E0F4FCE
S1131D3005212000B047041E09D00379427912021C
S1131D401A43C1788078B8470028F1D106E0084BDF
S1131D501B685B68AD00EB581B689847F8BDC0462C
S1131D60451C000068010020E11B0000C132000096
S1131D705C010020014B18687047C04668010020D0
S1131D8010B5014B984710BD8138000070B5114B58
S1131D901B78002B11D0104B1B681B681B79002B80
S1131DA00BD000240D4E0C4D2000B0470134E4B29A
S1131DB02B681B681B79A342F6D80022054B1A70C6
S1131DC0074B1B889B0701D5064B98470022044B01
S1131DD01A8070BD640100205C010020B51C000065
S1131DE062010020054A000070B50D4B1B78002BE2
S1131DF015D00C4B1B681A681279002A0FD00024E6
S1131E00084D5B68A200D3581B69002B00D098478B
S1131E100134E4B22B681A681279A242F1D870BD79
S1131E20640100205C010020F8B5BB4B00229A81BC
S1131E301A615A611B785AB2002A00DB03E2B64ADF
S1131E40D2880020002A00D001E205E21F210B40C5
S1131E5076D1B149497806290BD0082968D00029E0
S1131E606ED1022A00D0C2E10231AC48AC4B984793
S1131E70F1E1A94B5B881A0A022A10D0D1B20229D7
S1131E8002D8012A05D085E1032A2AD00F2A1CD0C2
S1131E9080E1A44B18680178A14B98473FE0DBB27E
S1131EA0A04A1268527C9A4200D8A0E19D4A526826
S1131EB0DB0098588378C17809021943984B9847F6
S1131EC0954B9B6802225A7029E0964B986800282B
S1131ED000D18CE18378C17809021943904B98476B
S1131EE01DE0FF221340012B0AD0002B03D08E4AA1
S1131EF0022B06D053E104218C48894B98470EE00D
S1131F008B4A8C498B1C14311078188001320233AF
S1131F108B42F9D1874814210170814B98477E4B3D
S1131F20DA889B89934200D895E17B4B9A8192E1B0
S1131F30012A00D05BE101217F48794B98478AE16F
S1131F40012B27D1744949780A2923D1012A00D0C9
S1131F502BE1794B1B78002B00D126E16E4B1C79C9
S1131F60764B1D682B681B79A34200D81DE1002124
S1131F702000734B9847002800D110E16B68A4003F
S1131F80E358DB6898476F4B187001211800644BC5
S1131F90984760E1022B00D001E15F4B5B780020A1
S1131FA0002B00D0F9E0022A00D020E15A4B187926
S1131FB0654B9847654B188002211800584B984789
S1131FC049E11F22134076D1534A5278032A25D07F
S1131FD0D1B2032902D8012A0ED06CE0052A02D01E
S1131FE0092A2ED067E04C4BDB88002B00D0FEE0A2
S1131FF0574A494B1A612EE1474BDB88002B00D02E
S1132000F5E0454B5B88012B00D0F0E0434A138890
S113201002218B4313804F4B98471CE13E4BDB88D6
S1132020002B00D0E3E03C4B5B880020012B00D068
S1132030B3E03A4A118802230B431380464B984776
S113204009E1354BDB88002B00D0D0E0434B9847A7
S1132050002800D1A3E0304B9A78324B1B685B7C9C
S11320609A4200DD9BE03E4B98472B4B9B78324ACB
S11320701370002B00D1EEE03A4A94466344DB002F
S1132080284A5268D3182D4A13601B681B79002B09
S113209000D1E0E00024344D160000212000A847C0
S11320A0002800D17BE00134E4B233681B681B795B
S11320B0A342F2D8CFE0012B18D1174A52780B2A49
S11320C014D1154BDB88002B6FD11B4B1B78002BD5
S11320D06BD0114B1D795C882800244B984700284D
S11320E05DD0E1B22800204B984756E0022B56D130
S11320F0094B5B78012B02D0032B3BD04CE0064B01
S1132100DB88002B73D1044B5B88002B6FD1024B0F
S11321101879174B984740E084040020620100209E
S11321209537000084000020A8000020D40000207F
S1132130B4000020C0000020640100205C010020E5
S1132140451C000060010020C93300005A01002032
S11321502D1C0000054A0000F94900002D3700003D
S11321608D1D0000FFFFFF1F1D1D0000B51C00009A
S113217009350000394BDB88002B38D1374B5B889D
S1132180002B34D1354C2079354B98472079354B89
S1132190984702E0002000E0002000285CD12F4B8B
S11321A01B781F221340012B21D12F4B1B780020B9
S11321B0002B51D0294B1C792C4B1D682B681B79A3
S11321C0A34249D900212000294B984700280ED06A
S11321D06B68A200D558EB68984701002000244B97
S11321E09847002803D0AB689847002834D11B4B8C
S11321F01B781F2213400020022B2DD11A4B1B7871
S1132200002B29D0194B1B681A681279002A18D0A0
S11322100025174E154F5B68AA00D458E368984709
S113222001002800B047002816D0A368984700286A
S113223012D10135EDB23B681A681279AA42EAD884
S11322400AE0002008E060221A42A8D1B9E6602121
S11322501942A4D1FAE50120F8BDC0468404002047
S11322601D320000DD330000640100205C01002009
S1132270451C00000C4B1B68002B10D1EFF310839E
S1132280002B09D172B6BFF35F8F0022074B1A707F
S11322900132074B1A7002E00022054B1A70024A01
S11322A013680133136070476C010020D8000020CC
S11322B070010020084B1A68013A1A601B68002B51
S11322C009D1064B1B78002B05D00122044B1A7050
S11322D0BFF35F8F62B670476C010020700100206D
S11322E0D8000020F0B583B001AC0125657000274B
S11322F0A770257021001120064EB047802292025B
S1132300054B9A612770657021000F20B04703B018
S1132310F0BDC046FD240000004400411723002AFC
S11323200DD18B00074A9B58002B03D1890088509C
S1132330002304E0834201D01D2300E000231800A1
S11323407047C0469C0200201723002907D10022B1
S11323501F2800D8034A01238340D36000231800B8
S11323607047C046001800401723002907D10022F7
S11323701F2800D8034A01238340936000231800D8
S11323807047C0460018004070B50022154B1A7003
S113239000231F25144E134C1F2B19D90FE00021C5
S11323A000E012490A619B009B59002B00D098471A
S11323B023780133DBB223700F2BEDD911E0290010
S11323C0194001228A40002109691142E7D1EFE74F
S11323D02900194001228A40044909691142E0D1C7
S11323E0E6E770BD990200209C020020001800401E
S11323F0044A117802230B43137053785BB2002B09
S1132400FBDB70470018004000B583B0124A9169A5
S113241040230B43936101A900230B7005200F4B4C
S1132420984705200E4B98470E4A117801230B4319
S1132430137053785BB2002BFBDB0B4B190040315C
S1132440002204C39942FCD11022084B1A60084BA5
S1132450984703B000BDC046000400404D2A000068
S1132460C1290000001800409C02002000E100E0A7
S1132470F1230000002303604360012202724272D0
S113248083720233C3727047F0B583B005000C0049
S113249001A900234B70CB7023790B70237A8B70C6
S11324A02078144B984700201F2D00D8124807218C
S11324B029408900E27AA37A002B01D008231A4329
S11324C0EB089B00C3189E690F278F40BE438A40C8
S11324D032439A61637A002B05D042690123AB40F1
S11324E01343436104E043690122AA4093434361D7
S11324F003B0F0BD452B00000018004000B583B0C8
S113250001AB80221A700A785A704A789A708A78D5
S1132510DA701900014B984703B000BD452B000049
S113252010B5082803D880001B4B1B589F46002079
S113253030E01A4B18692DE0194B1B6A9B059B0F61
S11325401848D84026E0154B586923E0134B1B6804
S1132550022018401ED012491022CB681A42FCD027
S11325600E4B1B685B0714D500200F4B98470B4B91
S11325709B681B041B0C58430CE05023084AD35C93
S113258000205B0706D5054BD86803E080200002D5
S113259000E0064810BDC0462C4E00007401002027
S11325A00008004000127A00692A0000006CDC0276
S11325B070B50C4C236A017885784278012002407A
S11325C092014026B343134302002A40D2017F30D4
S11325D08343134303220A40120203490B4013436B
S11325E0236270BD00080040FFFCFFFF10B5037AB2
S11325F09B061A0C43899B059B0D1343194C63607E
S11326008179C37919434388828813430B43427801
S1132610D201134323600378042B0FD1037B9B0661
S1132620028A13431900C3891B040F4A13400B4346
S1132630A360216804230B43236011E0202B0FD1F6
S1132640037B9B06028A13431900C3891B04064AB1
S113265013400B43034A9360136804490B4313600C
S113266010BDC046740100200000FF0324040000D4
S1132670082803D88000254B1B589F46172044E0A8
S1132680234A116A02230B43136200203DE0204ACF
S1132690916902230B439361002036E01C4A118A9E
S11326A002230B43138200202FE0194A918A02234C
S11326B00B439382002028E016490B68022213433F
S11326C00B60134B9A8419000E32CB681A42FCD06B
S11326D0104A91680E4BD96252689A6200229A8419
S11326E019001032CB681A42FCD00A4B1B689BB20B
S11326F0074A9384002008E005494422885C0223A9
S113270003438B54002000E000207047504E00002B
S1132710000800407401002030B58BB0C222D20002
S11327202F4B9A602F494B681E2293431A3A134346
S11327304B60033A01AB1A7000242B4DE0B201A99F
S1132740A8470134252CF9D105AB0022002159807A
S11327509A71DA71203119705A70244B1B689B0EE0
S11327603F2B00D1203B05A80372072303730333D7
S1132770C3811F4B4381FF3B83801E4B03821E4B4F
S1132780984704A8002343700122827003701B4BF6
S1132790984706201A4CA0471A4B98470720A04791
S11327A00F491022CB681A42FCD00D4A918C802329
S11327B00B439384144A0023137253729372D3729B
S11327C001A901224A604B704B7207330B700A72E5
S11327D000200E4B984700200D4B98470BB030BD9E
S11327E000080040004000414D2A000024608000A1
S11327F0FF01000080BBFFFFED250000B1250000B4
S1132800712600001528000000040040392800004B
S1132810F1280000064A916908230B4393610122C1
S1132820044B1A7019000B781342FCD17047C04650
S113283000040040000C004070B5060005000C7850
S1132840240204434B78002B02D08023DB021C4378
S11328504B7A002B02D080231B031C4348680128B9
S113286018D9431E184210D1022806D90223002287
S113287001325B009842FBD800E00022120232438E
S1132880150080235B031C4304E0050235438023C9
S11328909B021C430B7A002B02D080239B031C4316
S11328A00F4A53785BB2002BFBDB0E4B98470E4B61
S11328B01E700B4A53785BB2002BFBDB084B9D6008
S11328C01A0053785BB2002BFBDB054A5168802366
S11328D05B020B401C435460044B984770BDC046D8
S11328E0000C004075220000080C0040B5220000D6
S11328F010B504000B4A53785BB2002BFBDB0A4B88
S113290098470A4B1C70074A53785BB2002BFBDBD9
S1132910044A5368802149020B435360044B98478F
S113292010BDC046000C004075220000040C00409D
S1132930B522000070B504001A4A53785BB2002B2C
S1132940FBDB194B9847194B1C70164A53785BB242
S1132950002BFBDB134E7068C004C00E144B984769
S11329600500124B1C707668F602F60F114B1C70B2
S11329700C4A53785BB2002BFBDB0A4B9C682402A5
S1132980240C0D4B9847002E07D1012C07D92100A8
S113299028000A4B9847050001E00134E54028006F
S11329A070BDC046000C004075220000040C0040BD
S11329B021250000080C0040B5220000514A000007
S11329C010B50400064B9847064B1C70064A518804
S11329D08023DB010B435380044B984710BDC04652
S11329E075220000020C0040000C0040B5220000DB
S11329F010B504000F4B98470F4B1C700F4B5A88AF
S1132A001205100F59880E4A0A405A8059880D4AF7
S1132A100A405A8019008022D2014B881342FCD10B
S1132A2006494C880202064B234013434B80064B55
S1132A30984710BD75220000020C0040000C0040B5
S1132A40FFF0FFFFFFBFFFFFB522000010B50C78B9
S1132A5024020443024B9847A4B2024B5C8010BD8D
S1132A60F1290000000C004010B50400064B984703
S1132A70064B1C70064B5C882405240F054B9847B5
S1132A802000054B984710BD75220000020C004041
S1132A90000C0040B52200003529000030B5D37881
S1132AA0002B1ED11378802B04D01B0680246402D3
S1132AB0234300E0002354780225AC430AD19478E0
S1132AC0002C03D18024A402234302E0C024E402A6
S1132AD0234341605478013C012C12D8184C234004
S1132AE00FE041600B041B0CA024E4052343836224
S1132AF00B0CD024240623438362D378002B18D0F4
S1132B001CE00C04240CA025ED052C431C4384621A
S1132B100C0CD0252D062C431C438462D478002C45
S1132B200CD15B0305D59378012B01D1816100E0C1
S1132B3041615378013B012B00D8816030BDC04610
S1132B40FFFFFBFF10B503000A00C10900200029A4
S1132B5004D15809C00105498C4660441F210B402B
S1132B601E399940024B984710BDC04600440041AD
S1132B709D2A00007047C04610B5054B9847054B89
S1132B809847054B9847054B9847054B984710BD08
S1132B9019270000E5220000752B0000092400001D
S1132BA0752B000010B582B004000422234901A84B
S1132BB0234B9847234B1B78A3423DD0002C1AD0BB
S1132BC001AB1A5D204B9B5CFF2B00D1FEE7EFF3BA
S1132BD0108372B6BFF35F8F00201C4908701A4837
S1132BE0815C01318154002B05D10122174B1A70ED
S1132BF0BFF35F8F62B6134B1B78002B1AD001AA68
S1132C00D25C114B9B5C002B00D1FEE7EFF31083E9
S1132C1072B6BFF35F8F00200C4908700A48815CCC
S1132C2001398154002B05D10122084B1A70BFF3DE
S1132C305F8F62B6034B1C7002B010BD744E00006F
S1132C40C94D00008F01002094020020D80000200C
S1132C500F2303405B00C0091818023883001818BA
S1132C608000014B1818704790010020F0B55746BA
S1132C704E464546E0B489468E7973B2002B51DA4C
S1132C8030005C4B984704000F2333409846038A76
S1132C909A464B465F88C3689C466744C76085680C
S1132CA0AF4224D0ED1BADB2534B9D4206D91D005B
S1132CB051461800514B98476D1AADB2A37C0022BF
S1132CC09B0706D5514628004D4B984789B24A4286
S1132CD04A415100A37C022293431943A1746268C0
S1132CE0D2192B0041464748474CA0477DE0837CDE
S1132CF09B070BD5837C0222934383744268D219C9
S1132D00002341463F48404CA0476EE0837C0122AB
S1132D10934383740368002B67D03200390000208A
S1132D20984762E03000334B984704000F27374040
S1132D30038A98464B461B889A46837C5B0710D5CA
S1132D404368C268944663441D00414680682C4B26
S1132D5098470A00791E89012C4BC91828002C4B6E
S1132D609847E36853441D1EE360A3689D4201D95C
S1132D70E3602FE04A46928852452BD19D4229D0E8
S1132D805B1B9EB21C4B9E4207D91E004146180095
S1132D901A4B9847731A9BB205E041463000184B12
S1132DA09847731A9BB298450DD9A27C0423134308
S1132DB0A3747A1E9201154BD21843463900114868
S1132DC0144CA04711E06268521939000D48114CA7
S1132DD0A0470AE0A37C01229343A3742368002B39
S1132DE003D0E1683200002098471CBC9046994605
S1132DF0A246F0BD512C0000FF1F0000314D000021
S1132E005D4B00001C030020553F0000DC02002045
S1132E10C94D0000A53F000010B50522054B1A70EE
S1132E20054C80212000054B984700212000044BCD
S1132E30984710BDBA0100201C030020A53E0000E5
S1132E40CD3E000070B50E000D4C062120000D4D46
S1132E50A84704212000A847022120000A4B9847D4
S1132E6002200A4B98473368002B04D0084B98473C
S1132E703368002B01D1074B9847074B984770BD27
S1132E801C030020B539000095390000A52B000073
S1132E90294A00001D4A0000114A000070B5134B76
S1132EA09B8C9B0606D41149D022CB681340D02BAF
S1132EB0FBD104E00D491022CB681A42FCD00C4C23
S1132EC0022120000B4B9847042120000A4DA847FB
S1132ED00A4A062120000A4B984706212000A847E9
S1132EE00320084B9847084B984770BD00080040E2
S1132EF01C030020B539000095390000452E000060
S1132F0071390000A52B0000CD49000070B582B0D6
S1132F1004001E4B984780232268937201AD280059
S1132F201B4B984700266E7029002000194B9847C8
S1132F3019492000194B9847194B022200212000FF
S1132F40184DA847184B002200212000A847174B12
S1132F50012200212000A847022200212000144D54
S1132F60A847002200212000A847012200212000B8
S1132F70A847226811890F4B0B408021C9000B43DD
S1132F8013810D4B1E7002B070BDC0468D1D000034
S1132F90D93B0000E93B00009C040020F13F000005
S1132FA0F1300000D139000009340000F92F00008D
S1132FB0213A0000FFF3FFFFBA01002010B50322FD
S1132FC0074B1A70074C08492000084B9847084BD8
S1132FD09A68002300212000064CA04710BDC0467B
S1132FE0BA0100201C0300209C040020F13F0000D3
S1132FF084040020553F000010B589794BB2002BA2
S11330000CDA0D4B1B78012B02D10C4B984712E0C4
S1133010042B10D10A480B4B98470CE0064B1B7845
S1133020022B03D10422044B1A7004E0032B02D1B7
S11330300348044B984710BDBA010020BD2F00007F
S11330401C030020A53E000070B5204B1A88204BBD
S11330509C89A41AA4B2002C20D11E490B88D31831
S11330609BB20B801A4AD2889A4203D01A4B1B781F
S1133070002B07D00422194B1A70194919481A4B0E
S1133080984722E0124B5B69002B0ED0984700282A
S11330900BD000220D4B1A800D4B9C89072C04D9B0
S11330A000220D4B1A70082402E001220A4B1A7008
S11330B0064D2B88064A9268D2182300002109483D
S11330C00A4EB0472B88E4182C8070BDB80100204C
S11330D0840400208C0100208E010020BA0100200D
S11330E09C0400201C030020F13F0000553F000019
S11330F010B50C002C4B1B78002B07D02B4B1B69F5
S1133100002B00D098470022274B1A702388082BE5
S113311002D0274B984745E0244A264B1978117072
S113312059785170D97809029878411851805979A1
S11331300902187941189180D97909029B795B18A1
S1133140D3801D4B9847002802D1194B984729E09A
S1133150164B1B787F2B10D90023184A1380184A6A
S113316013800222104B1A700823124A00211548BA
S1133170154CA047154B984714E00C4BDB88002BEB
S113318002D1134B98470DE000230C4A13800C4ADC
S113319013800122044B1A700823064A00210948AF
S11331A0094CA04710BDC046BA0100208404002089
S11331B0192E00009C040020291E00008C01002010
S11331C0B80100201C030020A53F00004930000086
S11331D0BD2F000010B5024B9847024B984710BD15
S11331E0E91D0000D949000010B5074C0421200056
S11331F0064B984702212000054B98470120054BB8
S11332009847054B984710BD1C030020B5390000B2
S113321095390000A52B0000C149000010B5040039
S113322001000A480A4B984720000A4B9847837CC0
S1133230DB070AD5837C0122934383740368002B44
S113324003D0C16822000120984710BD1C03002050
S1133250413E0000512C0000024B1B68188A800478
S1133260400D70471C03002070B582B0040001AD0E
S113327028000D4B984720000C4B98472C700023D6
S1133280EB700B4E290030000A4B98470F21214068
S113329000223000084B9847002221003000074BE1
S11332A0984702B070BDC046D93B00001D320000F3
S11332B01C030020E93B0000F9390000FD3A00003E
S11332C0F0B583B006000C00150001AF3800364B92
S11332D098473E70082D03D8002201AB5A702EE0A7
S11332E0102D03D8012201AB5A7028E0202D03D8F9
S11332F0022201AB5A7022E0402D03D8032201AB15
S11333005A701CE0802D03D8042201AB5A7016E0D9
S113331080235B009D4203D8052201AB5A700EE066
S113332080239B009D4203D8062201AB5A7006E01D
S113333000231E4A954233D8072201AB5A7030004D
S11333401B4B9847058203212140012903D1022206
S113335001ABDA700BE0022903D1032201ABDA706E
S113336005E0002303291BD1042201ABDA7001A973
S11333701048114B98470023002811D10F213140E8
S11333800C4C0E4B002220000D4DA84700223100AA
S113339020000C4DA847012231002000A84701233A
S11333A0180003B0F0BDC046D93B0000FF03000085
S11333B0512C00001C030020E93B00006D2C000090
S11333C0D1390000213A000010B501000148024B38
S11333D0984710BD1C030020793E000010B504007E
S11333E00F2303400020012B07D821000348044B7E
S11333F098472000034B9847012010BD1C03002070
S1133400A53E00001D32000070B5344B1B78012B23
S113341055D10D88324B9B89324A148862199342E4
S113342001DA1D1BADB22E4B986800192A002E49F3
S11334302E4B98476419A4B22A4B1C80082D06D140
S1133440274BDA882A4B1B881B199A4210DC244B21
S11334509C815B69002B08D09847002805D1052280
S11334601E4B1A70234B984736E0234B984733E0A2
S11334701B4B9B89A3421BD1194B5B69002B06D1C3
S11334800522164B1A7000201A4B984724E09847DF
S1133490002805D10522114B1A70164B98471BE0E2
S11334A01349104A08881388C3180B80002313801B
S11334B008230D4A00211148114CA0470CE0022BAF
S11334C002D1104B984707E0054B1B69002B00D035
S11334D098470022014B1A7070BDC046BA01002003
S11334E084040020B80100209C040020C94D000081
S11334F08C010020DD330000BD2F00001C030020E0
S1133500A53F00004930000070B504000F230340BC
S11335100020012B12D82000094B984705002100F8
S11335200848094B9847AB7C0120DB0706D5AB7CE8
S113353001229343AB742B689847012070BDC046A9
S1133540512C00001C030020CD3E0000F0B585B0D6
S113355005000391029201930F2303401E000024EF
S1133560012B00D9C3E0634B9847041E00D0B9E097
S11335702800614B98470700EFF3108372B6BFF33E
S11335805F8F00215D4A1170827CD20709D5002B20
S113359000D0ACE00122594B1A70BFF35F8F62B6C2
S11335A0A5E0817C01220A438274002B05D101220B
S11335B0524B1A70BFF35F8F62B6029B7B60019B14
S11335C0BB600023FB600A9B3B600123039A13400A
S11335D05A00BB7C02218B43134304229343BB74E4
S11335E06BB2002B3FDA019B002B1CD09CB2444BE6
S11335F09C4206D9398A1C001800424B9847631A2A
S11336009CB2BA7C0023920706D5398A20003E4B2F
S1133610984789B24B424B415B00BA7C02218A43F2
S11336201343BB7415E0BB7C9B0705D5BB7C02220E
S11336309343BB7400240CE0BB7C01229343BB7412
S11336400A9B002B50D02A00002100209847012417
S11336504DE02300029A31002C482D4CA0474442EF
S11336604441E4B243E0019B002B2ED09CB2244B96
S11336709C4207D9398A1C001800224B9847631AC8
S11336809AB205E0398A20001F4B9847631A9AB210
S11336903B8A9A420FD2B97C04220A43BA74721E3E
S11336A092011C495218310018481B4CA04744424F
S11336B04441E4B21BE01300029A31001348164C53
S11336C0A04744424441E4B211E0BB7C012293434D
S11336D0BB740A9B002B09D02A00002100209847C4
S11336E0012404E0002402E0012400E0012420007D
S11336F005B0F0BDC9330000512C0000D8000020F3
S1133700FF1F0000314D00005D4B00001C03002032
S1133710553F0000DC020020A53F0000024B1A6860
S113372080231843907270471C030020024B1B68CF
S1133730987A4006400E70471C03002010B5124BC7
S11337409B8C9B0606D41049D022CB681340D02B07
S1133750FBD104E00C491022CB681A42FCD00320B0
S11337600A4B98470A4B1A68537B022B0BD005214E
S11337700220138903439BB21381537B022B02D093
S113378001390029F5D110BD00080040A52B000027
S11337901C030020014B9860998170478404002029
S11337A010B5054B1A68118901230B4313810120BD
S11337B0024B984710BDC0461C030020A52B0000F7
S11337C070B50320164B9847164C226813890121C3
S11337D08B431381144A03312000144EB047144A1A
S11337E000212000B047134A01212000B047124AAB
S11337F002212000B04704212000104DA8470021D9
S11338002000A84701212000A84702212000A84742
S11338100B4A06212000B04706212000A84770BDAE
S1133820A52B00001C030020E931000071390000C1
S1133830D53100000D2F00009D2E000095390000A9
S1133840452E000010B500210E20084B9847084B68
S11338501B6A5B0402D5074B984701E0064B984767
S113386000210E20054B984710BDC0466923000077
S113387000440041C1370000A13700004923000083
S113388070B584B0EFF3108472B6BFF35F8F002677
S1133890284B1E7003AD2800274B9847AE70274E67
S11338A02A0027493000274B98473000264B984779
S11338B0264B9B8C9B0606D42449D022CB6813400C
S11338C0D02BFBD104E021491022CB681A42FCD052
S11338D001201F4B984768461E4B98470E230093C0
S11338E0002301936A4613720333D372023B93722B
S11338F000210E20184B984769460E20174B984715
S113390000220E211648174B984700210E20164B13
S11339109847164B1B6A5B0401D5114B9847002C42
S113392005D10122034B1A70BFF35F8F62B604B056
S113393070BDC046D8000020C94500001C0300200B
S113394000500041D945000021400000000800401B
S1133950A52B0000752400006923000089240000C1
S1133960453800001D2300004923000000440041A5
S113397010B50B002E339B001A50AA2252004900A6
S1133980845A034BCB5A23438352002010BDC046B4
S11339908C4E00004900064BCB5A02689383AB213E
S11339A04900425A1A434252026813830020704766
S11339B08C4E00004900054BCA5AAB214900435ABA
S11339C09343435203689A82002070478C4E000050
S11339D010B58C00A4183434A40004196360411891
S11339E05931FF310878034B9B5C03430B70002073
S11339F010BDC0469C4E000010B58B009B1834339C
S1133A009B00C31800245C6041185931FF31034BFB
S1133A109A5C0B7893430B70002010BD9C4E000001
S1133A2070B50F230B40C4186134FF342678324D2F
S1133A30AD5C35432570002A1FD1002B08D15C01F1
S1133A400568AC4664440A34FF34032525703DE020
S1133A504CB2002C08DA5C010568AC4664440A34B4
S1133A60FF340225257031E05C010568AC466444EE
S1133A700A34FF340125257028E0012A1CD1002BCB
S1133A8007D102685B01D3180A33FF330C221A7082
S1133A9030E049B2002907DA02685B01D3180A331F
S1133AA0FF3308221A7025E002685B01D3180A3339
S1133AB0FF3304221A701DE0022A07D102685B0159
S1133AC0D3180A33FF3310221A7013E0032A11D1DA
S1133AD049B2002907DA02685B01D3180A33FF33BD
S1133AE040221A7006E002685B01D3180A33FF33E0
S1133AF020221A70002070BD9C4E000070B50F2368
S1133B000B40C4186134FF34324DAE5C2578B543A4
S1133B102570002A1FD1002B08D15C010568AC4632
S1133B2064440934FF34032525703DE04CB2002C75
S1133B3008DA5C010568AC4664440934FF340225A4
S1133B40257031E05C010568AC4664440934FF34F7
S1133B500125257028E0012A1CD1002B07D1026819
S1133B605B01D3180933FF330C221A7030E049B2D9
S1133B70002907DA02685B01D3180933FF330822EE
S1133B801A7025E002685B01D3180933FF3304225D
S1133B901A701DE0022A07D102685B01D3180933A9
S1133BA0FF3310221A7013E0032A11D149B20029FD
S1133BB007DA02685B01D3180933FF3340221A7015
S1133BC006E002685B01D3180933FF3320221A7020
S1133BD0002070BD9C4E000000230370437083706E
S1133BE00133C3707047C046F0B50A780F23134001
S1133BF01C0052B2CB78042B00D9F1E09B008D4D10
S1133C00EB589F460368083464010022E254002301
S1133C100EE1620103689C46624480235B00D55C2C
S1133C20E43B6D0700D003E1E433D65CE43B70254C
S1133C302E4200D0FCE05F3DE433D554230008332A
S1133C405B010268D2182F3555710268D31880229F
S1133C501A718B78002B0BD06201774B9B18586834
S1133C6080252D06284358605A692A435A610AE080
S1133C706201714B9B185A68520052085A605A6983
S1133C80520052085A610722487863016A4CE418CA
S1133C90636810400007694D2B40034363604B7811
S1133CA061691A4013070A002A401A43626100231B
S1133CB0BEE0002A18DA650103689C466544802347
S1133CC05B00EF5CE43B7026374200D0B0E09036F6
S1133CD0AF5D04333B43AB550068230008335B01FD
S1133CE0C318802018717BE0650103689C46654415
S1133CF080235B00EE5CE43B760700D098E08026EE
S1133D007600AF5D1A3B3B43AB5500682300083394
S1133D105B01C3184020587162E0002A17DA65017C
S1133D2003689C46654480235B00EF5CE43B70269B
S1133D3037427DD19036AF5D14333B43AB550068B9
S1133D40230008335B01C3188020187148E0650123
S1133D5003689C46654480235B00EE5CE43B760785
S1133D6066D180267600AF5D193B3B43AB550068B6
S1133D70230008335B01C3184020587130E0002A47
S1133D8017DA650103689C46654480235B00EF5C99
S1133D90E43B702637424BD19036AF5D24333B432E
S1133DA0AB550068230008335B01C31880201871E9
S1133DB016E0650103689C46654480235B00EE5C65
S1133DC0E43B760734D180267600AF5D183B3B4355
S1133DD0AB550068230008335B01C31840205871B9
S1133DE0D20F4D7863009B181B011348C3185E68FB
S1133DF0072005402D0711483040284358608B7830
S1133E00002B0BD063009A1812010B4CA2185368B4
S1133E10802109060B435360002309E063009A18CC
S1133E201201054B9A1853685B005B08536000232A
S1133E301800F0BD784E0000A4040020FFFFFF8F9F
S1133E400F230B4049B200290ADA08335B010268E8
S1133E50D218802111710268D3180222DA7109E0A4
S1133E6008335B010268D218402151710268D318EB
S1133E700122DA717047C0460F230B4049B2002972
S1133E8007DA026808335B01D31898798006C00FFB
S1133E9006E0026808335B01D3189879C006C00FA6
S1133EA07047C0460F230B4049B2002906DA026866
S1133EB008335B01D31820225A7105E002680833E5
S1133EC05B01D31810225A717047C04630B50F23D6
S1133ED00B4049B200291EDA5901026852188324A2
S1133EE06400145DA40634D520258224640015558D
S1133EF00268944661440822FF328A5C520628D53F
S1133F00C43C0822FF328C54026808335B01D31886
S1133F1002221A711DE059010268521883246400B8
S1133F20145DE40615D51025822464001555026835
S1133F30944661440822FF328A5C920609D5E43C27
S1133F400822FF328C54026808335B01D318012223
S1133F501A7130BD30B50C00083464010568645D25
S1133F606406640F1C25002C16D04C010B4D2C1933
S1133F702500226164690A4A22406A616C699B04D3
S1133F809A0CA30B9B0313436B610368083149012B
S1133F90591880234B710025280030BDA40400204B
S1133FA0FF3F00F030B50C00083464010568645D1F
S1133FB064071C25002C15D00B4D4C0162512C19A3
S1133FC065689B041A09094B2B40134363606368BB
S1133FD09B0B9B0363600368083149015918402314
S1133FE00B710025280030BDA4040020FF3F00F021
S1133FF0094B19605968094A0A40802189020A4319
S11340005A605A68920B92035A60026840218223D4
S11340105B00D15400207047A4040020FF3F00F04F
S11340200268117802230B43137002689378022B01
S1134030FCD07047F0B55F4656464D464446F0B452
S113404083B0C84B1F683D682B78DB0900D155E16C
S1134050288C80B2C44B9847041E1F2C00D9D3E08F
S1134060030008335B01ED18ED79EDB2AB0751D0D5
S1134070BE4A012383401168994311600300083349
S11340805B013A68944663440322DA713B18AE3309
S11340901B78DB073ED5B64B18703A68030008332B
S11340A05B019B5C9B079B0F012B10D14201B14B21
S11340B09B185A689204920CAD494A805A681201BE
S11340C0920C8A805A68920B92035A601AE0420159
S11340D0A84B9B185A681201920C90B2A4494A80CA
S11340E05A689204920C8A805968A34A0A405A601A
S11340F0002807D163019F4AD3185B689B049B0C7B
S11341009B4A5380974B1868A31C1B01C3185B6818
S1134110974998476B070ED5944A0123A340116829
S1134120994311608F4B1B681A68230008335B01A5
S1134130D3180422DA712B0721D58C4A0123A3401A
S1134140116899431160874B1868230008335B0199
S11341500268944663440822DA710319AE331B786B
S11341609B070CD582490C706301824AD318DA8903
S11341701F2313404B702301C3189B6A9847EB0617
S113418022D57A4A0123A340116899431160754BE3
S11341901868230008335B010268944663441022C4
S11341A0DA710319AE331B785B070DD5704A1470AE
S11341B063017049CB185B681B019B0C538023017E
S11341C0C318DB6A00219847AB0600D4F1E1674AC3
S11341D00123A340116899431160624B18682300BE
S11341E008335B010268944663442022DA710319A0
S11341F0AE331B781B0700D4DBE15D490C7024014E
S11342000419236B9847D4E1AC8BA4B2630708D597
S11342100423AB83A133FB5CDB0702D57B68380046
S1134220984723070DD50022504B1A604D4B186850
S11342300823026893839D33C35C9B0701D583687D
S1134240984763060AD5474B18684023026893834E
S11342506533C35CDB0601D543699847A3060AD5D9
S1134260404B18682023026893838533C35C1B0783
S113427001D503699847E3060AD53A4B1868102319
S1134280026893839533C35C5B0701D5C368984781
S113429023060DD50022354B1A60324B1868802353
S11342A0026893832533C35C9B0601D583699847D1
S11342B0E3050ED500222D4B1A602A4B1868802383
S11342C05B00026893835B3BC35C5B0601D5C369F7
S11342D09847A30500D46CE10022244B1A60214BBB
S11342E0186880239B00026893835C3BFF3BC35C9C
S11342F07F2B00D85DE1036A98475AE12E8CB6B251
S1134300002E3FD1AE8BB6B2AB235B00FD5A3540D5
S1134310023BFB5A1D400024184F124B9946984605
S11343206300DB5B334203D04A461268126893830E
S11343302B4213D0062C07D10E4B1B891A0980235C
S11343405B0013400E4A136023002E339B00424649
S113435012689B580A494246106898470134072C52
S1134360DED126E1D40100203D4D0000C80100202B
S1134370C0010020A4040020FF3F00F08C4E000088
S1134380BC0100203C005934FF3400230122944630
S11343905F329146503A92460D3A9346B8462F0002
S11343A0D8B2019332001A416146114200D1FBE0B8
S11343B01A0008325201BA18D279D2B2217A257879
S11343C0294011404D4615422AD03D0047465B0125
S11343D0ED180823FF33EB5C5B0609D54022082364
S11343E0FF33EA54883BFF3B0343754A93710AE069
S11343F00823FF33EB5C9B0605D520220823FF33FB
S1134400EA546F4B987160230B4200D1D1E0019BB9
S11344101B01FB18E0331B68694938009847C8E062
S1134420554615421FD03D004746019A13000833F4
S11344305B01ED181023EB71BB186133FF331B785C
S1134440DB0600D4B5E0100053015E4AD3185B6864
S11344509B049B0C5A490B800301FB18DC331B683B
S113446040469847A5E05D4615423FD03D0047468B
S113447080465B01ED180823FF33EB5C9B0712D5E4
S113448002220823FF33EA544D4A883BFF3B03438F
S11344909371019B5B014B48C31810335B689B0409
S11344A09B0C538017E00823FF33EB5CDB0712D52A
S11344B001220823FF33EA54414843468371019B98
S11344C05A01404B9B185A689204920C02805B6814
S11344D01B019B0C83808B076BD0019B0D331B014D
S11344E0FB185B6836493800984762E00C25154292
S11344F05AD03D00474680465B01ED180823FF3340
S1134500EB5C1B0721D508220823FF33EA540198EA
S113451043012C4AD3189B7E9B0706D54201294BA5
S11345209B189A7E022082439A7680235B424246FD
S11345301343234A9371019B08335B013A68944601
S11345406344DB799B0723D533E00823FF33EB5C1B
S11345505B071DD504220823FF33EA540198430165
S1134560184AD3189B7A9B0706D54201154B9B1812
S11345709A7A022082439A72114B42469A71019BA5
S113458008335B013A6894466344DB79DB0710D453
S11345900C230B420DD0019B1B01FB18D8331B6865
S11345A007493800984704E001330134082B00D050
S11345B0F6E603B03CBC90469946A246AB46F0BD35
S11345C0CC010020A40400200022027001234370C7
S11345D08270C3707047C046F0B54F464646C0B4BB
S11345E083B004000D00160000236B4A13606B4A6D
S11345F0106021606A49C86920220243CA6101AF80
S11346007B700122BA70FB70063399463B70390007
S11346101820644B984698474B463B703900192044
S1134620C047B3786A461370694606205E4B9847C4
S113463006205E4B98472A78012313432B70AB78EE
S1134640DB07FCD45A4BDA7803218A4302210A435C
S1134650DA70DA780C218A4308210A43DA70554B60
S11346601B689B03DB0E1F2B00D11A3B298D9A017B
S1134670514B0B4013432B854E4B1B685B02DB0EE7
S11346801F2B00D1023B2A8D1F218A4313432B8504
S1134690484B1B689B015B0F072B00D1043B298D02
S11346A01A03464B0B4013432B8532782B78D201E7
S11346B07F210B4013432B7072782B787E390A408C
S11346C0920003318B4313432B703D4B6B62F378A1
S11346D0012B05D12268138908318B43138108E02B
S11346E0002B06D121680B890C2293430422134327
S11346F00B818022520000213148324B9847221D01
S113470023002433002102C29342FCD12100A431AE
S113471000221A605A609A60DA6010338B42F8D132
S11347200023A422A3540132A3542300A63321005E
S1134730AE3100221A701A7201339942FAD1220062
S1134740B8322300D433002102C29A42FCD12100A2
S11347505531FF3100221A605A609A60DA601033D2
S11347608B42F8D10023AA225200A3520232A35250
S113477023005933FF336134FF3400221A701A7254
S113478001339C42FAD180220F4B1A60002003B0FF
S11347900CBC90469946F0BDC8010020D40100200D
S11347A000040040452B00004D2A0000C1290000F0
S11347B000500041246080003FF8FFFFFF8FFFFF9F
S11347C0A4040020DB4D000000E100E0FEE7C04649
S11347D070B52E4B2E4A9A4203D02E4B2B4A9A4246
S11347E004D32D4B2D4A9A4210D31EE02C4A294B58
S11347F003339B1A9B0801339B000022234824495E
S11348008C58845004329A42FAD1EAE7254A224B62
S113481003339B1A9B0801339B0000221F4800218D
S11348201418216004329A42FAD11F4AFF211F4B07
S11348308B439360FD3990235B001D4AD1501D4882
S1134840C3780324A34302221343C370C3780C2602
S1134850B34308210B43C370174B987B3025A843FF
S11348600500202028439873987BB0430143997333
S1134870997BA1430A439A73104A516880230B43DE
S113488053600F4B98470F4B9847FEE700000020FA
S1134890C04E0000DC000020A4050020DC00002045
S11348A004000020E000002000ED00E00000000013
S11348B000700041005000410048004100400041A8
S11348C07D4D0000C9480000F8B55F4656464D4688
S11348D04446F0B40124314B1C70BFF35F8F62B6C1
S11348E02F4B98472F4B00221A705A709A70DA7027
S11348F01C712D4B98472D4B98472D4B9847274FAC
S11349000024261C274DB94601239C46BB46294B4F
S11349109846C0239B009A4672B6BFF35F8F3E70E1
S11349202B78002B0BD121001E4A00E01900013224
S11349304B1CDBB210780028F8D0002B06D14B4674
S113494062461A70BFF35F8F62B6E5E772B6BFF3D3
S11349505F8F5B461C7043465B6852461343424676
S11349605360022902D9032908D00CE0124A1369C2
S1134970042083431361114B597004E00E4A1169FA
S113498004230B431361054B62461A70BFF35F8F18
S113499062B6BFF34F8F30BFBEE7C046D8000020D9
S11349A0792B000094020020F91500007D16000008
S11349B0811D00000040004100ED00E000040040C3
S11349C010B5014B984710BD7D16000010B5014B82
S11349D0984710BDAD16000010B5044B1B78002B92
S11349E003D0034B9847034B984710BDD8010020D0
S11349F059320000BD16000010B5014B984710BD98
S1134A008D16000010B5014B984710BD9D1600008F
S1134A1010B5014B984710BD7D16000010B5014B31
S1134A20984710BD9D16000010B5014B984710BD66
S1134A308D1600000122024B1A7001207047C046F7
S1134A40D80100200022014B1A707047D8010020C1
S1134A50002243088B4274D303098B425FD3030AB9
S1134A608B4244D3030B8B4228D3030C8B420DD3CC
S1134A70FF22090212BA030C8B4202D3121209025A
S1134A8065D0030B8B4219D300E0090AC30B8B4298
S1134A9001D3CB03C01A5241830B8B4201D38B0346
S1134AA0C01A5241430B8B4201D34B03C01A5241EB
S1134AB0030B8B4201D30B03C01A5241C30A8B422E
S1134AC001D3CB02C01A5241830A8B4201D38B0219
S1134AD0C01A5241430A8B4201D34B02C01A5241BD
S1134AE0030A8B4201D30B02C01A5241CDD2C3092F
S1134AF08B4201D3CB01C01A524183098B4201D3AB
S1134B008B01C01A524143098B4201D34B01C01A95
S1134B10524103098B4201D30B01C01A5241C3080D
S1134B208B4201D3CB00C01A524183088B4201D37C
S1134B308B00C01A524143088B4201D34B00C01A68
S1134B405241411A00D20146524110467047FFE7D4
S1134B5001B5002000F0F0F802BDC0460029F7D0EE
S1134B6076E7704703460B437FD4002243088B4209
S1134B7074D303098B425FD3030A8B4244D3030BE0
S1134B808B4228D3030C8B420DD3FF22090212BAA5
S1134B90030C8B4202D31212090265D0030B8B4221
S1134BA019D300E0090AC30B8B4201D3CB03C01A0B
S1134BB05241830B8B4201D38B03C01A5241430BE6
S1134BC08B4201D34B03C01A5241030B8B4201D3D6
S1134BD00B03C01A5241C30A8B4201D3CB02C01A41
S1134BE05241830A8B4201D38B02C01A5241430AB9
S1134BF08B4201D34B02C01A5241030A8B4201D3A8
S1134C000B02C01A5241CDD2C3098B4201D3CB014E
S1134C10C01A524183098B4201D38B01C01A5241FD
S1134C2043098B4201D34B01C01A524103098B4201
S1134C3001D30B01C01A5241C3088B4201D3CB00EC
S1134C40C01A524183088B4201D38B00C01A5241CF
S1134C5043088B4201D34B00C01A5241411A00D27F
S1134C6001465241104670475DE0CA0F00D04942E8
S1134C70031000D34042534000229C4603098B4258
S1134C802DD3030A8B4212D3FC22890112BA030AE0
S1134C908B420CD3890192118B4208D38901921162
S1134CA08B4204D389013AD0921100E08909C309E7
S1134CB08B4201D3CB01C01A524183098B4201D3E9
S1134CC08B01C01A524143098B4201D34B01C01AD4
S1134CD0524103098B4201D30B01C01A5241C3084C
S1134CE08B4201D3CB00C01A524183088B4201D3BB
S1134CF08B00C01A5241D9D243088B4201D34B00D6
S1134D00C01A5241411A00D20146634652415B1017
S1134D10104601D34042002B00D5494270476346F8
S1134D205B1000D3404201B5002000F005F802BD3D
S1134D300029F8D016E770477047C0464142084042
S1134D401C2101231B04984201D3000C10391B0AB7
S1134D50984201D3000A08391B09984201D300097B
S1134D60043902A2105C401A7047C0461B1C1D1D6A
S1134D701E1E1E1E1F1F1F1F1F1F1F1F0E4B70B541
S1134D8000251E000D4CE41AA410A54204D0AB006B
S1134D90F35898470135F8E700F082F8084B0025EE
S1134DA01E00084CE41AA410A54204D0AB00F3582A
S1134DB098470135F8E770BDAC4E0000AC4E0000DA
S1134DC0AC4E0000B04E0000002310B59A4203D050
S1134DD0CC5CC4540133F9E710BD0300821893423C
S1134DE002D019700133FAE770470000000800424E
S1134DF0000C00420010004200140042001800425F
S1134E00001C0042AA0E0000900E0000760E000066
S1134E104E0E0000220E0000544F5053454352459D
S1134E2054504153535752440000000032250000AF
S1134E302E2500002E2500008C2500008C25000066
S1134E4046250000382500004C2500007A25000086
S1134E509C2600007C2600007C2600000827000019
S1134E608E260000AA26000080260000B826000036
S1134E70F826000000030201043C0000123C00007C
S1134E80B23C00001A3D00007E3D00000400080012
S1134E90700080000100000100020000030C10609B
S1134EA0F8B5C046F8BC08BC9E467047DD0000005B
S1134EB0F8B5C046F8BC08BC9E467047B500000073
S1134EC0D1180000111900001D190000C9180000B4
S1134ED00000000005010902A1010901A100050962
S1134EE01901290315002501750195038102750532
S1134EF0950181010501093009310938150026FFA2
S1134F007F751095038102C0C000000009022200D1
S1134F10010100A03209040000010301020009217B
S1134F20110100012235000705810308000A000071
S1134F30050F0C0001071002020000004C000020C5
S1134F4090000020940000207C00002070000020CD
S1134F50000000201201010200000008EB030024FD
S1134F600001010200010000484944204D6F75739F
S1134F706500000041544D454C204153460000005B
S1134F80000300000000000000000000000000001A
S10F4F90000000000403090401000000FC
S90347D1E4
