S0150000446F6E676C65204D6F64756C652E7372656330
S113000008260020CD890000C58A0000C58A0000AA
S113001000000000000000000000000000000000DC
S1130020000000000000000000000000C58A00007D
S11300300000000000000000C58A0000C58A00001E
S1130040C58A0000C58A0000C58A0000C58A000070
S1130050AD410000C58A0000C58A00001586000075
S1130060C58A0000C58A0000C58A0000C58A000050
S1130070C58A0000C58A0000C58A0000C58A000040
S1130080C58A0000C58A0000C58A0000C58A000030
S1130090C58A00000000000000000000C58A0000BE
S11300A0C58A0000C58A0000C58A0000C58A000010
S11300B00000000010B5064C2378002B07D1054B37
S11300C0002B02D0044800E000BF0123237010BDC0
S11300D0E00000200000000048920000084B10B52A
S11300E0002B03D00749084800E000BF0748036815
S11300F0002B00D110BD064B002BFBD09847F9E72D
S113010000000000E4000020489200004892000033
S11301100000000080B582B000AF78607B680022E8
S11301201A70C046BD4602B080BDC04680B582B0DC
S113013000AF02003960FB1D1A70FB1D1B78012BF8
S11301400AD0022B0FD0002B14D10E4B0D4A91690B
S11301503A680A439A610FE00A4B0A4AD1693A683D
S11301600A43DA6108E0074B064A116A3A680A430F
S11301701A6201E0172300E000231800BD4602B014
S113018080BDC0460004004080B584B000AF7860F4
S11301907B681B68FB60FB689B7ADBB25BB2002B5D
S11301A001DA012300E000231800BD4604B080BD3D
S11301B080B584B000AF78607B681B68FB60C04684
S11301C07B681800074B9847031EF9D1FB681B880E
S11301D09BB2022213439AB2FB681A80C046BD4602
S11301E004B080BD8901000080B584B000AF7860A0
S11301F07B681B68FB60C0467B681800074B984708
S1130200031EF9D1FB681B889BB2022293439AB266
S1130210FB681A80C046BD4604B080BD8901000059
S113022080B584B000AF78607B681B68FB607B6836
S113023018000A4B9847C0467B681800084B98473B
S1130240031EF9D1FB681B889BB2012213439AB2A7
S1130250FB681A80C046BD4604B080BDE9010000B9
S11302608901000080B584B000AF786039607B6894
S11302701B68BB603B681A88BB681A803B689B7824
S1130280002B3AD0012B00D06CE0BB681B889AB2DB
S1130290BB681A803B68DB78002B07D0BB681B88DF
S11302A09BB2802213439AB2BB681A800F23FB18B7
S11302B000221A701BE0C0467B681800334B984735
S11302C0031EF9D10F23FB181A783B6802329200FF
S11302D0D1580F23FB181A787B6818002C4B9847C9
S11302E00F23FB181A780F23FB1801321A700F23FF
S11302F0FB181B78002BDED036E0BB681B889BB252
S1130300042213439AB2BB681A803B68DB78002B43
S113031001D0172336E00E23FB1800221A701BE0CD
S1130320C0467B681800194B9847031EF9D10E2369
S1130330FB181A783B6802329200D1580E23FB183E
S11303401A787B681800124B98470E23FB181A780A
S11303500E23FB1801321A700E23FB181B78012B95
S1130360DED901E017230DE03B681B79002B08D090
S1130370BB685B889BB28022D20113439AB2BB68EC
S11303805A8000231800BD4604B080BD89010000D6
S1130390ED04000080B586B000AFF860B9607A6003
S11303A0FB68BA681A6020210020174B9847142371
S11303B0FB181800154B98471423FB1802221A70D7
S11303C01423FB1819000420114B98470420114BE7
S11303D09847FB681800104B98477B689A78FB682D
S11303E01A717B681A79FB685A710C4BFA681A60A7
S11303F07A68FB6811001800094B9847030018003D
S1130400BD4606B080BDC0462D01000015010000A8
S1130410D150000015510000210200003C020020D0
S11304206502000080B584B000AF786039607B68F5
S11304301B68FB60C0467B681800104B9847031E7E
S1130440F9D17B681B79002B05D0012B0ED1FB68F9
S11304503A681A610CE03B68094A934201D91723B0
S113046007E03B689AB2FB681A8201E0172300E0B8
S113047000231800BD4604B080BDC04689010000B9
S1130480FFFF000080B584B000AF78607B681B6814
S1130490BB607B685B7901225340DBB2002B09D03F
S11304A0BB68104A5A80C0467B6818000E4B9847B8
S11304B0031EF9D17B681B79002B05D0012B08D1D1
S11304C0BB681B69FB6007E0BB681B8A9BB2FB60CF
S11304D002E00023FB60C046FB681800BD4604B080
S11304E080BDC0460080FFFF8901000080B586B052
S11304F000AFF860B960FB1D1A70FB681B687B6174
S1130500C046FB6818001A4B9847031EF9D1FB68D4
S11305101B79002B0FD0012B22D1FB1D1B78012B43
S113052001D917231FE0FB1D1A787B69063292005C
S1130530B968D15016E0FB1D1B78022B01D9172393
S113054011E0BB680B4A934201D917230BE0FB1D52
S11305501A78BB6899B27B690C325200D15201E01F
S11305601A2300E000231800BD4606B080BDC04633
S113057089010000FFFF000080B584B000AF7860FF
S11305800A00BB1C1A807B681B68FB607B681B79B4
S1130590002B01D015230BE0C0467B681800064BE6
S11305A09847031EF9D1FB68BA1C12889A8200236B
S11305B01800BD4604B080BD8901000080B582B03A
S11305C000AF78607B6800221A70C046BD4602B056
S11305D080BDC04680B586B000AFF860B9607A606F
S11305E01623FB1800221A80BB683B61BB685A08BB
S11305F0FB689A4201D2402326E0BB685B083B615A
S11306000AE03A69FB68D31A3B611623FB181A887F
S11306101623FB1801321A803A69FB689A42F0D219
S11306201623FB181622BA181288013A1A801623C8
S1130630FB181B88FF2B01D9402305E07B68162299
S1130640BA1812881A8000231800BD4606B080BD6F
S113065080B584B000AF0200FB1D1A70BB1D0A1CDC
S11306601A701A4B1B7801225340DBB2002B03D1C2
S1130670BB1D1B78002B1BD00C23FB181800144B3C
S113068098470C23FB18FA1D12781A700C23FB18D8
S1130690190013200F4B984713200F4B98470B4B0F
S11306A0FA1D12785A70094B01221A70002308E0CF
S11306B0064B5B78FA1D12789A4201D1002300E0C0
S11306C01D231800BD4604B080BDC046FC000020B8
S11306D0BD050000D15000001551000080B582B066
S11306E000AF78600A00FB1C1A707B684D4A934285
S11306F03FD04C4A934206D84B4A93420FD04B4AC0
S1130700934221D089E04A4A934200D15BE0494AAE
S1130710934200D16CE0484A93423FD07DE0FB1CF9
S11307201B78012B0AD002DC002B05D075E0022BCC
S113073006D0032B06D070E0404B6FE0404B6DE0D9
S1130740404B6BE0404B69E0FB1C1B78012B0AD04B
S113075002DC002B05D060E0022B06D0032B06D070
S11307605BE003235AE0394B58E0394B56E0394BF0
S113077054E0FB1C1B78012B0AD002DC002B05D0B3
S11307804BE0022B06D0032B06D046E0324B45E06B
S1130790324B43E0324B41E0324B3FE0FB1C1B78D1
S11307A0012B0AD002DC002B05D036E0022B06D048
S11307B0032B06D031E02C4B30E02C4B2EE02C4B9D
S11307C02CE02C4B2AE0FB1C1B78012B0AD002DC0A
S11307D0002B05D021E0022B06D0032B06D01CE011
S11307E0254B1BE0254B19E0254B17E0254B15E065
S11307F0FB1C1B78012B0AD002DC002B05D00CE07B
S1130800022B06D0032B06D007E01F4B06E01F4B3C
S113081004E01F4B02E01F4B00E000231800BD461C
S113082002B080BD0010004200080042000C0042EB
S113083000180042001C004200140042030004009F
S11308400300050003000600030007000300010085
S113085003001E0003001F0003000800030009003A
S113086003000A0003000B00030010000300110042
S1130870030012000300130003000C0003000D002A
S113088003000E0003000F0003001600030017000E
S1130890030018000300190090B58BB000AF786016
S11308A00C23FB180F4A13CA13C313CA13C3002320
S11308B07B620EE00C23FB187A6A9200D3581A1E4E
S11308C07B689A4202D17B6ADBB206E07B6A013321
S11308D07B627B6A052BEDD900231800BD460BB063
S11308E090BDC0462891000080B582B000AF78600A
S11308F07B6880221A707B6800225A707B68012210
S11309009A707B680022DA70C046BD4602B080BD92
S113091080B584B000AF0200FB1D1A700F23FB18D2
S1130920FA1D1278D2091A700E23FB18FA1D1278D8
S113093052091A700D4BBB600F23FB181B78002B58
S11309400FD10F23FB181B789B0010229446BC4444
S11309506344083B1A680E23FB181B78DB01D31889
S113096000E000231800BD4604B080BD00440041EF
S113097080B586B000AF0200FB1D1A70FB1D1B780A
S11309801800194B984703007B61FB1D1B781F223D
S113099013403B617A6940213B69D3185B181B788B
S11309A0DBB21A000123134001D1802318E03B6914
S11309B05B087A693021D3185B181B78DBB2FB60C3
S11309C03B690122134006D0FB681B09DBB20F22EE
S11309D01340DBB204E0FB68DBB20F221340DBB24E
S11309E01800BD4606B080BD1109000080B582B074
S11309F000AF0200FB1D1A70FB1D1B781800034B8F
S1130A00984703001800BD4602B080BD11090000DC
S1130A1080B584B000AF0200FB1D1A70BB1D0A1C18
S1130A201A70FB1D1B7818000D4B98470300FB60E0
S1130A30FB1D1B781F22134001229A401300BB6048
S1130A40BB1D1B78002B03D0FB68BA689A6102E0D7
S1130A50FB68BA685A61C046BD4604B080BDC04652
S1130A60ED09000080B582B000AF78607B68002299
S1130A701A70C046BD4602B080BDC04680B582B083
S1130A8000AF02003960FB1D1A70FB1D1B78012B9F
S1130A900AD0022B0FD0002B14D10E4B0D4A9169B2
S1130AA03A680A439A610FE00A4B0A4AD1693A68E4
S1130AB00A43DA6108E0074B064A116A3A680A43B6
S1130AC01A6201E0172300E000231800BD4602B0BB
S1130AD080BDC0460004004080B500AF054B9B7844
S1130AE0DBB21A00022313405A1E9341DBB21800F2
S1130AF0BD4680BD0020004180B584B000AF786061
S1130B007B681B68FB60FB681B7EDBB21A00012359
S1130B1013405A1E9341DBB21800BD4604B080BD99
S1130B2080B584B000AF78607B681B68FB60FB68AD
S1130B301B7EDBB21A00042313405A1E9341DBB21E
S1130B401800BD4604B080BD80B584B000AF7860A5
S1130B500A00BB1C1A807B681B68FB607B6818005A
S1130B600A4B984703001A0001235340DBB2002BC1
S1130B7001D0052306E0BB1C1B88DB05DA0DFB68EE
S1130B809A6200231800BD4604B080BDF90A000033
S1130B9080B584B000AF786039607B681B68BB6047
S1130BA07B6818001D4B984703001A00012353402B
S1130BB0DBB2002B01D010232CE00F23FB18002202
S1130BC01A70BB685B8B9BB21A00042313400BD0D2
S1130BD00F23FB181E221A70BB685B8B9BB2042286
S1130BE013439AB2BB685A837B689B79012B08D163
S1130BF0BB689B6A9BB2DB05DB0D9AB23B681A802B
S1130C0005E0BB689B6ADBB29AB23B681A800F238B
S1130C10FB181B781800BD4604B080BD210B0000F2
S1130C2090B593B000AF786039607B681B687B63D4
S1130C307B681B683B631C23FB181800854B984793
S1130C401C23FB1800225A703B681B78002B03D12D
S1130C501C23FB1800229A703B689A6A0C23FB1829
S1130C601A603B68DA6A0C23FB185A603B681A6BFB
S1130C700C23FB189A603B685A6B0C23FB18DA6050
S1130C804723FB1800221A702CE04723FB181A781C
S1130C900C23FB189200D3583B643B6C002B09D106
S1130CA04723FB181A783B6B110018006A4B9847CE
S1130CB003003B643B6C01330DD03B6CDAB21C2364
S1130CC0FB181A703B6C1B0CDBB21C22BA18110007
S1130CD01800624B98474723FB181A784723FB18E0
S1130CE001321A704723FB181B78032BCDD93B68BC
S1130CF01A787B685A713B681A7C7B689A713B68E6
S1130D009A7C7B68DA713B681A7D7B681A720A23C5
S1130D10FB1800221A800023FB630023BB633B689B
S1130D201B78012B29D17B681B6818004C4B984712
S1130D300300FB62FB6A1433BB62BB6ADBB21800BC
S1130D40484B984703007B623B689B692322BC188D
S1130D500A22BA18796A1800434B98470300237093
S1130D602323FB181B78002B01D017236DE00A23E3
S1130D70FB181B88DAB27B6B1A733B681B78002B59
S1130D801AD13B689B69FB633B689B8BBB637B6BA2
S1130D905B6A3A68927F11003A68D27F12040A4370
S1130DA01A437B6B5A623B6820229B5C002B03D066
S1130DB0BB6B40221343BB633B685B68FA6B134312
S1130DC0FB633B689B68FA6B1343FB633B68DB681C
S1130DD0FA6B1343FB633B681B7C1A00BB6B134326
S1130DE0BB633B685B7C002B03D1204B9847031EFD
S1130DF003D0FB6B80221343FB633B689B7C002B7B
S1130E0004D0BB6B802292021343BB633B68DB7C40
S1130E10002B04D0BB6B802292001343BB633B685E
S1130E201B7D002B04D0BB6B802292011343BB6358
S1130E307B6B1A68FB6B1A437B6B1A607B6B5A687B
S1130E40BB6B1A437B6B5A6000231800BD4613B07A
S1130E5090BDC046E9080000DD060000BD53000057
S1130E6099080000F5510000D5050000D90A0000DA
S1130E7090B591B000AF786039607B681B68FB6205
S1130E807B681B68BB623B689A6A0C23FB181A6078
S1130E903B68DA6A0C23FB185A603B681A6B0C2314
S1130EA0FB189A603B685A6B0C23FB18DA603F23EB
S1130EB0FB1800221A7030E03F23FB181A780C2329
S1130EC0FB189200D358BB63BB6B002B09D13F23A3
S1130ED0FB181A78BB6A110018006E4B9847030080
S1130EE0BB63BB6B013310D0BB6B1B041C0CBB6B13
S1130EF01B0CDBB21800684B984703009C4205D0DA
S1130F007B6800221A601C23BFE0C0463F23FB1805
S1130F101A783F23FB1801321A703F23FB181B7801
S1130F20032BC9D913205D4B984703007B62002330
S1130F307B6300233B6300233B623B681B78012BEC
S1130F4021D13B689B691F22BC180A22BA18796A0E
S1130F501800534B9847030023701F23FB181B787A
S1130F60002B01D0172390E0FB6A1B7BDAB20A2323
S1130F70FB181B88DBB29A4201D01C2385E07B6BF3
S1130F800C2213437B633B681B78002B29D13B68FD
S1130F909B697A6B13437B633B689B8B1A003B6BA7
S1130FA013433B633B689B7F1A003B68DB7F1B0456
S1130FB013431A003B6A13433B62FB6A1A683B6A99
S1130FC09A4201D01C2360E03B6820229B5C002BEA
S1130FD003D03B6B402213433B637B6B08221343D8
S1130FE07B633B685B687A6B13437B633B689B68FA
S1130FF07A6B13437B633B68DB687A6B13437B63D5
S11310003B681B7C1A003B6B13433B633B685B7C74
S1131010002B03D07B6B802213437B633B689B7C58
S1131020002B04D03B6B8022920213433B633B684A
S1131030DB7C002B04D03B6B8022920013433B6388
S11310403B681B7D002B04D03B6B80229201134331
S11310503B637B6B022213437B63FB6A1A687B6BE3
S11310609A420ED1FB6A5A683B6B9A4209D13B689B
S11310701A787B685A713B681A7C7B689A710023E2
S113108003E07B6800221A601C231800BD4611B0DF
S113109090BDC046DD06000071090000F551000056
S11310A0D505000080B58AB000AFF860B9607A60F9
S11310B0FB68BA681A60FB681B687B627B6A1B6802
S11310C00222134007D07A68FB68110018002F4BE6
S11310D09847030055E07B6A1B680122134001D046
S11310E005234EE0FB681B681800294B9847030052
S11310F03B623B6A0233FB613B6A1433BB610122EE
S1131100FB699A40130019000220224B98471423CC
S1131110FB181800204B98477B6824229A5C142300
S1131120FB181A70BB69DBB21422BA18110018003C
S11311301A4B9847BB69DBB21800194B98477B6878
S113114024229B5C00211800164B98477B681B786F
S1131150012B05D17B6A1B680C221A437B6A1A6037
S11311607B681B78002B05D17B6A1B6808221A4315
S11311707B6A1A607A68FB68110018000A4B98476A
S113118003001800BD460AB080BDC046710E0000C1
S1131190990800007D0A0000650A0000D150000093
S11311A01551000051060000210C000090B587B0D5
S11311B000AFF8607A600A23FB180A1C1A80FB68E7
S11311C0DB7901225340DBB2002B01D01C237CE0ED
S11311D01523FB1800221A70FB685B79002B21D1C0
S11311E01623FB1800221A8014E0FB681800394B00
S11311F09847031E15D11623FB181B88364A9342C1
S113120001D1122361E01623FB181A881623FB1858
S113121001321A801623FB181B882F4A9342E4D903
S113122000E0C046C046FB6818002A4B98470300FC
S11312301A0001235340DBB2002BF4D10A23FB181C
S11312401A88FB6811001800244B9847FB685B79E7
S1131250002B21D11623FB1800221A8014E0FB680E
S113126018001F4B9847031E15D11623FB181B8823
S1131270194A934201D1122327E01623FB181A8836
S11312801623FB1801321A801623FB181B88124AF6
S11312909342E4D900E0C046C046FB681800104BF6
S11312A0984703001A0001235340DBB2002BF4D10A
S11312B01523FC187A68FB6811001800094B98473D
S11312C0030023701523FB181B781800BD4607B0D4
S11312D090BDC046F90A000010270000490B000029
S11312E0210B0000910B000080B586B000AFF860C0
S11312F0B960FB1D1A70FB685B79012B01D01523C3
S11313005CE0FB681B7A01225340DBB2002B54D013
S1131310FB1D1B78002B4AD0BB685B78002B3FD0A9
S1131320FB681800274B984703001A000123534019
S1131330DBB2002B07D0BB681B7801211800224BBD
S1131340984705233AE0BB681B78002118001E4B20
S11313509847BB689B789AB2FB68110018001B4B36
S11313609847FB68DB7901225340DBB2002B24D081
S1131370C046FB681800164B984703001A00012367
S11313805340DBB2002BF4D11623FB1800221A8041
S11313901623FA18FB68110018000E4B98470CE04E
S11313A0BB681B7800211800074B984705E0BB6811
S11313B01B7801211800044B984700231800BD46F0
S11313C006B080BDF90A0000110A0000490B0000B4
S11313D0210B0000910B000080B584B000AF020027
S11313E0FB1D1A700F23FB18FA1D1278D2091A700C
S11313F00E23FB18FA1D127852091A700D4BBB60AC
S11314000F23FB181B78002B0FD10F23FB181B781D
S11314109B0010229446BC446344083B1A680E2384
S1131420FB181B78DB01D31800E000231800BD462D
S113143004B080BD0044004180B582B000AF02001A
S1131440FB1D1A70FB1D1B781800034B9847030003
S11314501800BD4602B080BDD913000080B582B02B
S113146000AF78607B6800221A707B6801225A7092
S11314707B6800229A70C046BD4602B080BDC0465B
S113148080B584B000AF0200FB1D1A70FB1D1B78F1
S113149018000B4B98470300FB60FB1D1B781F22B1
S11314A0134001229A401300BB60FB681B6ABA68B0
S11314B013405A1E9341DBB21800BD4604B080BDF0
S11314C03914000080B584B000AF0200FB1D1A700F
S11314D0BB1D0A1C1A70FB1D1B7818000D4B984786
S11314E00300FB60FB1D1B781F22134001229A405E
S11314F01300BB60BB1D1B78002B03D0FB68BA68CC
S11315009A6102E0FB68BA685A61C046BD4604B0FD
S113151080BDC0463914000080B584B000AF786047
S11315207B68A02212011A807B6801229A707B6872
S11315300022DA707B6800221A710F23FB18002244
S11315401A700EE00F23FB181A787B68023292009F
S11315500021D1500F23FB181A780F23FB180132F6
S11315601A700F23FB181B78012BEBD9C046BD461C
S113157004B080BD80B584B000AF78607B681B6820
S1131580FB60FB68DB695A1E9341DBB21800BD4661
S113159004B080BD80B582B000AF78607B68012262
S11315A01A707B6800225A607B6800229A607B680C
S11315B0C0229203DA607B6800221A747B680022DE
S11315C05A747B6801229A747B680122DA747B68FE
S11315D000221A757B682422002199547B681833F1
S11315E00C22002118000A4B98477B68094A9A612B
S11315F07B6800229A627B680022DA627B680022A0
S11316001A637B6800225A63C046BD4602B080BD9F
S113161017910000A086010080B582B000AF786009
S11316207B680A221A707B6800225A707B68002249
S11316309A70C046BD4602B080BDC04680B584B035
S113164000AF786039603B681A787B681A703B6831
S11316505A787B685A703B689A787B689A700C2336
S1131660FB1818000B4B98470C23FB1801221A7027
S11316707B681B780C22BA1811001800064B984797
S11316807B681B7801211800044B9847C046BD466F
S113169004B080BD5D14000011460000C5140000B4
S11316A080B584B000AF78607B681B68FB60C0467F
S11316B07B681800064B9847031EF9D1FB681B682A
S11316C002221A43FB681A60C046BD4604B080BDBE
S11316D07515000080B582B000AF3B1D1800074BA4
S11316E098473B1D00221A703B1D19000320044B30
S11316F09847C046BD4602B080BDC0465D14000098
S11317001146000080B584B000AF3B1D18000B4BA0
S113171098473B1D03221A603B1D00225A603B1D63
S113172001221A723B1D0122DA723B1D19000320AB
S1131730034B9847C046BD4604B080BDB944000081
S1131740ED44000080B500AF064B002203211800D1
S1131750054B984700210320044B9847C046BD46DB
S113176080BDC04669220000B94000001D41000050
S113177080B590B000AF3B1D1800214B98473B1D2E
S113178012221A703A1D1F4B110018001E4B984765
S11317900823FB1818001D4B98470823FB18C02288
S11317A09203DA600823FB18194A9A620823FB188B
S11317B0184ADA620823FB18012252421A630823EA
S11317C0FB18154A5A630823FB1800225A600823A1
S11317D0FB1800229A600823FA181049104B1800CD
S11317E0104B98470E4B18000F4B984705490C4B6C
S11317F0002218000D4B9847C046BD4610B080BD6E
S113180019160000F00200203D1600009515000096
S1131810020010000200110002001300000C00423C
S1131820E0020020A5100000A1160000E91200004B
S113183080B584B000AF3B0018000F4B98473B00C5
S113184000221A803B0000229A703B0001221A7188
S11318503A000A490A4B18000A4B9847084B1800EB
S1131860094B9847094A064B11001800084B984742
S1131870C046BD4604B080BD1915000000140040E8
S11318804402002095030000B1010000102700006D
S11318907905000080B500AF054B00211800054B09
S11318A09847034B1800044B9847C046BD4680BD7B
S11318B04402002025040000B101000080B582B07C
S11318C000AF00237B60054B1800054B98470300CD
S11318D07B607B681800BD4602B080BD44020020D6
S11318E08504000090B585B000AF04003960100095
S11318F01900FB1D221C1A70BB1D021C1A707B1DD3
S11319000A1C1A7001204B4B9847C04627204A4BAB
S1131910984703005BB2002BF8DA00212520474BDF
S11319209847BB1D1B783D2B02D9BB1D3D221A7065
S11319300E23FB1800221A702023FB181B78002B9F
S113194004D00E23FB1880221A7007E07B1D1B783D
S1131950002B03D00E23FB1840221A70384B9847F3
S1131960384A394B80211800384B9847BB1D1B78E7
S11319709BB2033399B2334A334B1800334B984725
S1131980FB1D1B7899B22F4A2F4B18002F4B9847F9
S11319902F4B1B78DBB299B22A4A2B4B18002B4BE6
S11319A098470E23FB181B78DBB299B2254A264BC5
S11319B01800264B98470F23FB1800221A7012E0D8
S11319C00F23FB181B783A68D3181B7899B21D4A69
S11319D01D4B18001D4B98470F23FB181A780F2333
S11319E0FB1801321A700F23FA18BB1D12781B78EA
S11319F09A42E5D3174B984704200E4B9847164B51
S1131A009847C0460320154B984703001A0001234A
S1131A105340DBB2002B05D0114B9847021E114BEB
S1131A209A42EFD90120034B9847C046BD4605B002
S1131A3090BDC046851E000061240000C92400003A
S1131A4029250000FE000020E0020020AD11000066
S1131A504E0200204D25000095180000811400005E
S1131A60BD180000E703000080B582B000AF02009B
S1131A70FB1D1A70194BFA1D12781A70174B1B783C
S1131A80DBB2002B01D00F2300E01A23190013202E
S1131A90134B9847114B1B78DBB2002B10D011204D
S1131AA0104B984703005BB21F2213405BB26022C5
S1131AB013435BB2DBB219001120094B984709E0CC
S1131AC0094B1B78802252421343DBB219001120C8
S1131AD0034B9847C046BD4602B080BDDC020020DF
S1131AE0C9240000612400004C02002080B500AF2E
S1131AF0074B01221A80074B00221A70064B1F2243
S1131B001A70064B00221A70C046BD4680BDC046FE
S1131B10DA020020540200204C020020DC020020E3
S1131B2090B591B000AF040008001100FB1D221C09
S1131B301A70BB1D021C1A707B1D0A1C1A70C14B43
S1131B4098471023FB1801221A701023FB18042253
S1131B505A701023FB1802229A701023FB180022DB
S1131B60DA701023FB1803221A711023FB180222C7
S1131B705A711023FB1804229A711023FB18402277
S1131B80DA711023FB1805221A721023FB180322A2
S1131B905A721023FB1806229A721023FB18332260
S1131BA0DA721023FB1807221A73FB1D1B781F2BF4
S1131BB00DD0FB1D1B782B2B07D0FB1D1B78562B40
S1131BC001D1D92304E0E42302E06C2300E04E2396
S1131BD01022BA1853731023FB1808229A73FB1DA2
S1131BE01B781F2B0DD0FB1D1B782B2B07D0FB1D47
S1131BF01B78562B01D1002304E0C02302E04023CC
S1131C0000E0C0231022BA18D3731023FB18092252
S1131C101A741023FB1800225A741023FB1819227B
S1131C209A741023FB184222DA741023FB1825221D
S1131C301A751023FB1840225A751023FB1826220C
S1131C409A751023FB180722DA751023FB18282233
S1131C501A761023FB1810225A761023FB18292217
S1131C609A761023FB18DC22DA761023FB182E2236
S1131C701A771023FB1888225A771023FB182F2277
S1131C809A771023FB182D22DA771023FB182022D1
S1131C90302199541023FB187A1D212112785A54AB
S1131CA01023FB182222372199541023FB182322D6
S1131CB0902199541023FB1824223821995410237D
S1131CC0FB182522422199541023FB1826223C217B
S1131CD099541023FB1827228F2199541023FB18A1
S1131CE028223D2199541023FB18292212219954AA
S1131CF01023FB182A226F2199541023FB182B223E
S1131D00302199541023FB182C22FF2199541023BD
S1131D10FB182D22002199544B4B98474B4B984765
S1131D204B4B98474B4B98474B4B98470F23FB180B
S1131D3032221A70AA212F20484B98472F20484B53
S1131D409847031EAA2B08D0464B984702000F233E
S1131D50FB181B78DBB29A42ECD33F4B98475521D2
S1131D602F203E4B98472F203D4B9847031E552B61
S1131D7008D03C4B984702000F23FB181B78DBB2BA
S1131D809A42ECD33F23FB1800221A7019E03F2338
S1131D90FB181A781023FB185200D05C3F23FB1861
S1131DA01B781022BA185B00D31801331B78190072
S1131DB02A4B98473F23FB181A783F23FB1801321C
S1131DC01A703F23FB181A781023FB185200D35CB7
S1131DD0FF2BDCD10020244B9847244B1B78DBB22B
S1131DE01800234B98470120224B98471A4B9847D9
S1131DF0C04627201A4B984703005BB2002B08DB30
S1131E00184B984702000F23FB181B78DBB29A4249
S1131E10EFD3144B984702000F23FB181B78DBB257
S1131E209A4201D3002309E0134B00221A70134B8A
S1131E309847134BBA1D12781A7001231800BD4637
S1131E4011B090BDED1A00007117000031180000A8
S1131E50D51600000517000095180000C9240000DD
S1131E6061240000BD1800006D230000DC02002086
S1131E70691A0000851E00004D020020451700006D
S1131E804E02002080B582B000AF0200FB1D1A7024
S1131E90FB1D1B789AB2474B1B889BB29A4200D118
S1131EA081E0FB1D1B78042B00D97EE09A00424B95
S1131EB0D3181B689F460120404B984703005BB230
S1131EC01C2293435BB20C2213435BB2DBB21900B6
S1131ED001203B4B98473B4B1B78DBB2002B4CD08B
S1131EE00120394B984748E00120344B98470300C0
S1131EF05BB21C2293435BB2102213435BB2DBB28E
S1131F00190001202E4B98472E4B1B78DBB2002B77
S1131F1035D000202C4B984731E00120274B9847BF
S1131F2003005BB21C2293435BB2082213435BB2EF
S1131F30DBB219000120224B984721E001201F4BFE
S1131F40984703005BB21C2293435BB20422134301
S1131F505BB2DBB219000120194B984710E0012055
S1131F60164B984703001A001C239A431300DBB254
S1131F7019000120124B984702E0C04600E0C04619
S1131F80C0460C4B1B889BB2002B06D127200B4B61
S1131F90984703005BB2002BF3DAFB1D1B789AB25F
S1131FA0044B1A8002E0C04600E0C046BD4602B0C1
S1131FB080BDC046DA020020409100006124000088
S1131FC0C9240000DC0200207925000080B500AFA0
S1131FD00B4B1B889BB2032B0ED10A4B1B889BB265
S1131FE0002B09D1084B984703005A3304DA012027
S1131FF0064B9847012300E000231800BD4680BD2E
S1132000DA020020D402002021240000851E0000F2
S113201090B585B002AF0400396010001900FB1DB3
S1132020221C1A70BB1D021C1A707B1D0A1C1A701C
S11320303D20174B984703001A0004231343DBB2D7
S113204019003D20134B9847134B984701E0134B5D
S11320509847134B984703001A0001235340DBB2FF
S1132060002B05D00F4B9847021E0F4B9A42EED916
S11320707B1D1C78BB1D1A783968FB1D187800235A
S113208000932300094CA047C046BD4603B090BD51
S113209061240000C92400009518000021230000D9
S11320A0CD1F0000BD180000E7030000E518000084
S11320B080B582B000AF584B1B889BB2032B00D075
S11320C0A1E02820554B984703001A00042313402D
S11320D000D198E00120524B9847524B9847524AFE
S11320E0524B00211800524B9847524A4F4B002143
S11320F018004F4B98474F4B1B889BB2422B03D879
S11321004C4B1B889AB200E042224A4B1A804A4A3E
S1132110464B00211800464B9847484B1B78DBB2CE
S113212001225340DBB2002B0DD0454B1B78DBB2B0
S11321309AB2414B1B889BB29A4204D03E4B1B88F7
S11321409BB2FF2B04D13B4B1B889BB2022B07D8BD
S1132150384B00221A803B4B98473B4B984758E03A
S1132160344B1B889BB2033B9AB2384B1A80384AD3
S11321702E4B002118002E4B9847BB1D00221A70CD
S1132180BA1D2A4B00211800294B9847BB1D1B7808
S11321909BB2802213409AB22E4B1A80BB1D1B782F
S11321A09BB2402213409AB22B4B1A80FB1D002293
S11321B01A700EE0FB1D1B785A00284BD2181B4BDB
S11321C0002118001A4B9847FB1D1A78FB1D013299
S11321D01A70FB1D1B789AB21C4B1B889BB29A4247
S11321E0E8D31A4B1B889BB23C2B07D8174B1B8890
S11321F09BB21A00194B52000021D152114B98473F
S11322000320074B9847164B984703001A00154BB9
S11322101A80BD4602B080BDDA02002061240000AD
S1132220851E000029250000FE000020E002002099
S1132230AD110000D4020020D80200205402002076
S11322404E0200204D2500008D2200005202002085
S11322504202002050020020D60200205802002032
S113226021240000EC02002080B500AF054B0122C0
S11322701A70054B9847034B00221A70C046BD469E
S113228080BDC0464D020020B120000080B500AFE3
S1132290194B00221A80194B00221A80184B002275
S11322A01A80184B00221A80174B00221A80174BF1
S11322B000221A80164B00221A802820154B9847BA
S11322C003001A00042313400BD03D20114B984700
S11322D003001A0004231343DBB219003D200E4B04
S11322E09847402125200C4B984703200B4B9847D7
S11322F0C046BD4680BDC0465202002042020020B6
S1132300D8020020D4020020D6020020500200206F
S1132310EC02002061240000C9240000851E000096
S113232080B500AF0D4B1B889BB2032B09D10C4B1E
S11323301B889BB2002B04D001200A4B9847012331
S113234009E0064B1B889BB2032B01D1002302E05A
S1132350054B984700231800BD4680BDDA020020D3
S1132360D4020020851E00008D22000080B584B0B8
S113237000AF78600120224B98477B68002B26D061
S1132380204B9847204A214BBE211800204B9847E8
S11323900F23FB1800221A7012E00F23FB181B787E
S11323A07A68D3181B7899B2174A184B1800184B3F
S11323B098470F23FB181A780F23FB1801321A7061
S11323C00F23FB181B780F2BE7D9124B98473D209E
S11323D0114B984703005BB2012293435AB27B68C6
S11323E0591E8B41DBB25BB213435BB2DBB2190003
S11323F03D200A4B9847C046BD4604B080BDC04648
S1132400851E000029250000FE000020E0020020B7
S1132410AD1100004D25000061240000C924000016
S113242080B582B000AFBB1D00221A8024200B4B64
S1132430984703009BB25B429BB21AB2BB1D1A8041
S1132440BB1D1B881BB25B101AB2BB1D1A80BB1DBF
S11324501B881BB21800BD4602B080BD6124000079
S113246080B584B000AF0200BB1D1A80114B9847A1
S1132470BB1D1B889BB27F22134099B20E4A0F4B9F
S113248018000F4B98470E23FB1800221A800E23C6
S1132490FA180A4B00211800094B9847094B984732
S11324A00E23FB181B889BB2DBB21800BD4604B098
S11324B080BDC04629250000FE000020E002002067
S11324C0AD1100004D25000080B582B000AF0200C0
S11324D0FB1D1A70BB1D0A1C1A700E4B9847FB1D7E
S11324E01B78802252421343DBB299B20A4A0B4B47
S11324F018000B4B9847BB1D1B7899B2064A074B33
S11325001800074B9847074B9847C046BD4602B092
S113251080BDC04629250000FE000020E002002006
S1132520AD1100004D25000080B500AF0449054BF6
S113253001221800044B9847C046BD4680BDC046E2
S1132540F0020020E0020020E912000080B500AF94
S11325500549064B00221800054B9847054B984740
S1132560C046BD4680BDC046F0020020E002002007
S1132570E9120000BD25000080B582B000AF020062
S1132580FB1D1A70FB1D1B78002B01D05D2300E09E
S1132590552319005A20084B9847FB1D1B78002B24
S11325A001D07C2300E0702319005C20024B984783
S11325B0C046BD4602B080BDC924000080B500AF4E
S11325C0C046BD4680BDC04680B584B000AF0200A1
S11325D0FB1D1A700F23FB18FA1D1278D2091A700A
S11325E00E23FB18FA1D127852091A700D4BBB60AA
S11325F00F23FB181B78002B0FD10F23FB181B781C
S11326009B0010229446BC446344083B1A680E2382
S1132610FB181B78DB01D31800E000231800BD462B
S113262004B080BD0044004180B582B000AF020018
S1132630FB1D1A70FB1D1B781800034B9847030001
S11326401800BD4602B080BDC925000080B584B025
S113265000AF0200FB1D1A70FB1D1B7818000B4B0A
S113266098470300FB60FB1D1B781F2213400122C7
S11326709A401300BB60FB681B6ABA6813405A1E79
S11326809341DBB21800BD4604B080BD292600008A
S113269080B584B000AF0200FB1D1A70BB1D0A1C7C
S11326A01A70FB1D1B7818000D4B98470300FB6044
S11326B0FB1D1B781F22134001229A401300BB60AC
S11326C0BB1D1B78002B03D0FB68BA689A6102E03B
S11326D0FB68BA685A61C046BD4604B080BDC046B6
S11326E02926000080B500AF002202215B20064BA2
S11326F098470120054B9847054B1800054B984710
S1132700C046BD4680BDC046211B0000691A0000BA
S1132710549100006D23000080B500AF0121112009
S1132720044B9847044B9847044B9847C046BD4612
S113273080BDC04691260000E5260000D5160000A5
S113274080B500AF01211120024B9847C046BD4619
S113275080BDC0469126000080B500AF00210F2047
S1132760024B9847C046BD4680BDC0461D4100008F
S113277080B500AF00210F20024B9847C046BD46EC
S113278080BDC0466541000080B500AF0021112026
S1132790024B9847C046BD4680BDC0469126000006
S11327A0F0B58BB004AF0200BB1D1A800F20DC4BC8
S11327B0984703001A00DB4B1A70DB4B9847020062
S11327C0DA4B1A60BB1D1888D94BFA22910098473E
S11327D00B009BB2002B03D100211120D54B98474D
S11327E0BB1D1888D24BFA22910098470B009AB26D
S11327F0FA235B009A4203D101211120CD4B984763
S1132800CD4B1B780133DAB2CB4B1A70CA4B1B7811
S1132810042B00D845E2C84B00221A70C74B9847D6
S1132820031E00D1E8E1C64B1B889BB2012B00D0EC
S113283054E1BD4B98470200BC4B1A60B94B1B785E
S1132840002B03D0BF4B01221A7007E0BE4B1B883C
S11328509BB24E2B02D1BB4B00221A70BB4B002201
S11328609A5EBB4B1A80BB4B00229A5EBA4B1A800D
S1132870BA4B00221A60BA4B00221A6000237B6113
S113288074E0B14B7A695200D35A9BB29B099BB254
S1132890012B1DD002DC002B05D064E0022B32D0CA
S11328A0032B45D05FE0AD4B1B689A1CAB4B1A6001
S11328B0A54B7A695200D35A9BB21A003F231A409F
S11328C0A84B1A60A74B1B681AB2A04B1A804AE0A7
S11328D0A24B1B68DA1CA14B1A609B4B7A6952000D
S11328E0D35A9BB21A003F231A409E4B1A609D4B49
S11328F01B689B011AB2954B00215B5E13431AB20D
S1132900924B1A802FE0964B1B689A1C944B1A60CA
S11329108D4B7A695200D35A9BB21A003F231A4056
S1132920904B1A608F4B1B681AB28A4B1A801AE0BC
S11329308B4B1B68DA1C8A4B1A60834B7A695200F2
S1132940D35A9BB21A003F231A40864B1A60854B18
S11329501B689B011AB27F4B00215B5E13431AB2C2
S11329607C4B1A80C0467B6901337B617E4B1B889C
S11329709BB21A1E7B699A4200DD82E7774B1B6883
S1132980052B03D1764B1B68052B0AD0704B002214
S11329909A5E6E4B1A80704B00229A5E6D4B1A80C1
S11329A075E0724B1A68724B1B68D21A6F4B1A602F
S11329B0704B1A68704B1B68D21A6E4B1A60002356
S11329C03B6114E03B695A1C6B4B9200D1586A4B33
S11329D03A699200D1503B695A1C654B9200D15818
S11329E0634B3A699200D1503B6901333B613B69C7
S11329F0032BE7DD554B00229B5E1A005B4B1B68E3
S1132A00D2185A4B1A60534B00229B5E1A00594B42
S1132A101B68D218574B1A604E4B00229B5E1A005B
S1132A20554B1A61494B00229B5E1A00504B1A61A8
S1132A304E4B1A68514B05211000984703001AB2F7
S1132A40424B1A804B4B1A684C4B05211000984797
S1132A5003001AB23F4B1A803C4B00229B5E9BB290
S1132A601A1C131CDB189B181A1C11011A1C0B1CB2
S1132A70D3189BB21AB2354B1A80364B00229B5E98
S1132A809BB2442253439BB21AB2324B1A802D4B51
S1132A901B78002B0BD03A4B43221A70394B1B681E
S1132AA0DAB2374900230120374CA047A4E0344B65
S1132AB052221A70334B1B68DAB2314900230120C9
S1132AC0314CA0472E4B42221A702E4B1B68DAB2AF
S1132AD02B49002303202C4CA0478DE0184B1B8866
S1132AE09BB2032B00D087E00023FB607CE0FB68F3
S1132AF0012B0CD0022B4DD0002B72D1124BFA6853
S1132B005200D35A9BB21A00204B1A6069E00E4B54
S1132B10FA685200D35A9BB21A001D4B1A6060E047
S1132B204D2600003E010020BD1800004001002099
S1132B30998E00009126000044010020212300000A
S1132B4042020020450100205802002046010020D6
S1132B50480100204A0100204C01002050010020BF
S1132B605401002058010020520200205C01002082
S1132B706001002074010020780100208D8D000088
S1132B800001002000000020112000008C01002022
S1132B9090010020454BFA685200D35A9BB2DAB236
S1132BA0434B1A70424B1B78DB10012213405A1E10
S1132BB09341DAB23F4B1A703D4B1B785B100122F4
S1132BC013405A1E9341DAB23B4B1A70384B1B78B0
S1132BD09B10012213405A1E9341DAB2374B1A70EC
S1132BE0C046FB680133FB60354B1B889BB21A1E41
S1132BF0FB689A4200DD7AE7324B98470200324B79
S1132C001B68D21AFA235B009A4212D9274B52222C
S1132C101A802E4B1B68DAB22D49002301202D4C5B
S1132C20A047284B98470200274B1A602A4B0022E2
S1132C301A70294B1B7801225340DBB2002B31D090
S1132C40264B00229B5E9CB2254B00229B5E9DB2CC
S1132C50244B1B689EB2244B1B689BB29C46144BAE
S1132C601B78DB10012213405A1E9341DBB2104A39
S1132C701278521001210A40511E8A41D2B20C49E5
S1132C800978891001200140481E8141C9B202918E
S1132C90019200936346320029002000134CA047A0
S1132CA000E0C046BD4607B0F0BDC0465802002053
S1132CB09401002095010020960100209701002036
S1132CC052020020BD180000400100200000002036
S1132CD000010020112000004501002046010020D1
S1132CE04A0100208C01002090010020112E0000D8
S1132CF080B582B000AFEFF310833B603B685A426B
S1132D005341DBB27B6072B6BFF35F8F034B00228B
S1132D101A707B681800BD4602B080BDDC0000203C
S1132D2080B582B000AF78607B685A1E9341DBB2F5
S1132D301800BD4602B080BD80B582B000AF786097
S1132D407B681800064B9847031E05D0054B0122EB
S1132D501A70BFF35F8F62B6C046BD4602B080BD35
S1132D60212D0000DC00002080B500AF0B4B0022B9
S1132D701A700B4B00221A700A4B00221A700A4B6D
S1132D80072200211800094B9847094B00221A70AA
S1132D90084B984703001800BD4680BD98010020E9
S1132DA09C010020A7010020A00100201791000031
S1132DB09D010020618D000080B500AF024B984753
S1132DC0C046BD4680BDC046798D0000B0B500AF99
S1132DD0044B054A05490648064CA0470300180061
S1132DE0BD46B0BD052E0000180000209C01002047
S1132DF098010020F12F000080B500AF00231800D7
S1132E00BD4680BD80B500AF00231800BD4680BD1F
S1132E10B0B584B000AF05000C0010001900BB1D54
S1132E202A1C1A803B1D221C1A80BB1C021C1A80FF
S1132E303B000A1C1A803C4B98470300FB60BB1DF7
S1132E401B88DAB2394B5A70BB1D1B881B12DBB2CC
S1132E507F221340DAB2354B9A703B1D1B88DAB2DD
S1132E60324BDA703B1D1B881B12DBB27F221340EE
S1132E70DAB22E4B1A71BB1C1B88DAB22B4B5A7177
S1132E80BB1C1B881B12DBB27F221340DAB2274B18
S1132E909A712023FB181B78002B07D0234B1B7837
S1132EA001221343DAB2214B1A7006E01F4B1B7840
S1132EB001229343DAB21D4B1A702823FB181B78A6
S1132EC0002B07D0194B1B7802221343DAB2174B9D
S1132ED01A7006E0154B1B7802229343DAB2134BA7
S1132EE01A702423FB181B78002B07D00F4B1B7878
S1132EF004221343DAB20D4B1A7006E00B4B1B7815
S1132F0004229343DAB2094B1A70094B01221A7056
S1132F10084B9847FB681800074B98470123180093
S1132F20BD4604B0B0BDC046F12C0000A001002095
S1132F309D0100203D2F0000392D000090B583B085
S1132F4002AF144B1B78002B01D000231EE0124B60
S1132F50124A116819609188998092799A71104B7C
S1132F600322002118000F4B98470F4B00221A70C0
S1132F70094A0E4B00930723002181200C4CA047E3
S1132F8003001A00034B1A70024B1B781800BD464D
S1132F9001B090BDA7010020A8010020A0010020DD
S1132FA0A1010020179100009D010020B52F000011
S1132FB0A15F000080B582B000AF39601100FB1D35
S1132FC0021C1A70BB1D0A1C1A70064B00221A70D0
S1132FD0054B1B78002B01D0044B9847C046BD46D7
S1132FE002B080BDA70100209D0100203D2F0000FC
S1132FF080B584B000AFF860B9607A603B60354B4F
S11330001B785BB2002B32DA324B1B781A00602338
S1133010134009D12F4B5B78062B05D17B68180030
S11330202D4B9847030051E02A4B1B781A0060236C
S11330301340202B1BD1274B5B78022B07D0032B8B
S11330400DD0012B13D13B68984703003EE0214B80
S1133050FA689A601F4B01229A81012336E01D4BC6
S1133060BA689A601B4B01229A8101232EE0194B06
S11330701B785BB2002B28DB164B1B781A006023ED
S11330801340202B21D1134B5B780A2B07D00B2B39
S11330900ED0092B19D13B689847030016E00D4B5D
S11330A05B881B0A9BB2DAB2FB681A7001230DE03D
S11330B0084BDB88002B01D0002307E0054B5B881D
S11330C0DAB2BB681A70012300E000231800BD4681
S11330D004B080BDE4040020DD30000080B584B07D
S11330E000AF7860254B984703000933FB60FB6809
S11330F05B78212B01D000233BE0214B5B881B0A2A
S11331009BB2DBB2212B13D11D4BFA689A60FB688A
S11331101B789AB21A4BDB88181C111C8AB283B232
S11331209A4200D9011C8AB2154B9A81012320E0EE
S1133130FB689A79124B5B881B0A9BB2DBB29A42FA
S113314016D10F4B7A689A60FB68DA791B7A1B02F6
S113315013439AB20A4BDB88181C111C8AB283B23F
S11331609A4200D9011C8AB2054B9A81012300E0DE
S113317000231800BD4604B080BDC0468531000060
S1133180E404002080B500AF024B1B681800BD4664
S113319080BDC046C001002080B500AF074B1B684E
S11331A01A68064B1B681B689978DB781B020B4373
S11331B09BB2D3181800BD4680BDC046BC01002098
S11331C080B584B000AF78600A00FB1C1A70144B01
S11331D098470300FB607B681B781A007B689B1888
S11331E07B6011E07B685B78042B12D07B685B7892
S11331F0FA1C12789A4201D17B680CE07B681B7838
S11332001A007B689B187B60FA687B689A42E9D84D
S113321000E0C04600231800BD4604B080BDC0468F
S11332209931000080B584B000AF0200FB1D1A7014
S1133230BB1D0A1C1A70204B1B78002B01D10023E4
S113324036E01E4B1B681B681B79FA1D12789A42E4
S113325001D300232CE0194B1B681A68184B1A6021
S1133260184B98470300FB601CE0154B1B685B7808
S1133270042B0FD1124B1B689B78FA1D12789A42CB
S113328008D10F4B1B68DB78BA1D12789A4201D122
S113329001230DE00A4B1A68094B1B681B78D218EE
S11332A0074B1A60064B1B68FA689A42DDD8002364
S11332B01800BD4604B080BDB8010020BC01002048
S11332C0C00100209931000080B584B000AF020035
S11332D0FB1D1A70FB1D1B7800211800214B984719
S11332E003001A0001235340DBB2002B01D000235A
S11332F034E01D4B1B685A68FB1D1B789B00D318D8
S11333001B68BB60BB68DB68984703001A00FB1DA1
S11333101B7811001800134B984703001A0001236F
S11333205340DBB2002B01D0002317E00F4B1B6886
S1133330FB60FB68052118000D4B98470300FB60F8
S1133340FB68002B05D0FB689B781800094B984755
S1133350EFE7C046BB685B68984701231800BD4689
S113336004B080BD25320000BC010020C001002053
S1133370C13100003D5C000080B584B000AF0200A4
S1133380FB1D1A70BB1D0A1C1A70BB1D1A78FB1D8D
S11333901B78110018001F4B984703001A000123E3
S11333A05340DBB2002B01D000232EE01A4B1B68E4
S11333B0FB60FB6805211800184B98470300FB606D
S11333C0FB68002B15D0FB689878FB68D978FB68FC
S11333D01A795B791B0213439BB21A00104B98476E
S11333E003001A0001235340DBB2002BE1D0002379
S11333F00BE0C0460B4B1B685A68FB1D1B789B00F7
S1133400D3181B681B68984703001800BD4604B016
S113341080BDC04625320000C0010020C13100003B
S1133420C95C0000BC01002080B500AF024B984786
S1133430C046BD4680BDC046B96B000080B582B0B1
S113344000AF164B1B78002B15D0FB1D00221A7001
S113345009E0FB1D1B781800114B9847FB1D1A78D7
S1133460FB1D01321A700F4B1B681B681B79FA1D78
S113347012789A42EDD3094B00221A700A4B1B882A
S1133480022213409BB2002B01D0084B9847064BF5
S113349000221A80C046BD4602B080BDB80100209B
S11334A0C9320000BC010020B0010020118D0000D1
S11334B080B582B000AF174B1B78002B25D0FB1DC5
S11334C000221A7019E0144B1B685A68FB1D1B7804
S11334D09B00D3181B681B69002B09D00E4B1B687B
S11334E05A68FB1D1B789B00D3181B681B699847FF
S11334F0FB1D1A78FB1D01321A70074B1B681B68F1
S11335001B79FA1D12789A42DDD3C046BD4602B03B
S113351080BDC046B8010020BC01002080B500AFCA
S1133520074BDB88022B01D0002305E0054B022169
S11335301800054B984701231800BD4680BDC046BE
S1133540E4040020B0010020D162000080B500AF87
S11335500C4BDB88022B01D000230FE0094B9B8826
S1133560DBB21800084B984703009AB2074B1A8045
S1133570064B02211800064B984701231800BD464C
S113358080BDC046E4040020715E0000C401002038
S1133590D162000080B500AF0C4BDB88002B01D05A
S11335A000230FE0094B5B88012B0AD1084B1B88D1
S11335B0022293439AB2064B1A80064B9847012382
S11335C000E000231800BD4680BDC046E40400208E
S11335D0B0010020118D000080B500AF0A4BDB88DC
S11335E0002B01D000230CE0074B5B88002B07D194
S11335F0054B9B88DBB21800044B9847030000E09E
S113360000231800BD4680BDE4040020F55E0000E0
S113361080B500AF0C4BDB88002B01D0002310E0F9
S1133620094B5B88012B02D0C046002309E0074BFD
S11336301B88022213439AB2044B1A80044B984706
S113364001231800BD4680BDE4040020B001002021
S1133650FD8C000080B500AF0D4BDB88002B01D042
S1133660002312E00A4B5B88002B0DD1084B9B888A
S1133670DBB21800074B9847054B9B88DBB2180058
S1133680054B9847030000E000231800BD4680BDA9
S1133690E4040020B15B00009D5E000080B500AF33
S11336A0054B5B88DBB27F221340DBB21800034B6F
S11336B09847C046BD4680BDE404002089620000EE
S11336C080B500AF064BDB88002B01D0002303E05C
S11336D0034B044A1A6101231800BD4680BDC0464D
S11336E0E40400209D36000080B584B000AFFB1DCB
S11336F000221A702D4B5B881A00FF231340012B04
S113370009D0022B0DD0002B11D1294B0421180014
S1133710284B98470DE0FB1D09221A70264BBB600D
S113372007E0FB1D09221A70244BBB6001E0002353
S113373037E0FB1D1B78002B32D00F23FB1800222F
S11337401A7016E00F23FB181B780F22BA18127890
S1133750B9688A18127891B2194A5B00D3180233F7
S11337600A1C1A800F23FB181A780F23FB18013246
S11337701A700F23FA18FB1D12781B789A42E1D3B2
S1133780FB1D1B780133DBB2DB18DAB20C4B1A7069
S11337900B4B1B789AB20A4B11001800054B984743
S11337A001231800BD4604B080BDC046E4040020D7
S11337B0AC000020D1620000B0000020BC0000205A
S11337C0C800002080B582B000AF394B5A88FB1D79
S11337D01A70374B5B881B0A9BB2DBB2022B13D0E7
S11337E002DC012B05D051E0032B44D00F2B2FD04A
S11337F04CE0304B1A682F4B1B681B789BB21900A6
S113380010002D4B984744E02A4B1B685B7CFA1D43
S113381012789A4201D3002346E0264B5A68FB1DD6
S11338201B78DB00D3181868224B5A68FB1D1B78E1
S1133830DB00D3181B689A78DB781B0213439BB216
S113384019001D4B98471A4B9B6802225A7020E0BE
S1133850184B9B68002B01D1002325E0154B986879
S1133860144B9B689A78DB781B0213439BB21900B4
S1133870114B98470DE0114B984703001A000123A0
S11338805340DBB2002B03D000230DE000230BE0F8
S1133890C046074BDA88064B9B899A4203D2044BF5
S11338A0DA88034B9A8101231800BD4602B080BD1B
S11338B0E4040020A0000020D1620000E9360000EA
S11338C080B500AF074BDB88012B01D0002305E056
S11338D0054B01211800054B984701231800BD46EC
S11338E080BDC046E4040020B8010020D16200007D
S11338F080B582B000AF2A4BDB88002B01D00023B7
S11339004AE0284B9847031E01D1002344E0244B8E
S11339105B881A00FF231A40234B1B685B7C9A4286
S113392001DD002338E0214B98471D4B5B88DAB258
S11339301F4B1A701E4B1B78002B01D101232BE067
S1133940194B5A681A4B1B781A498C466344DB009E
S1133950D218194B1A60FB1D00221A7013E0FB1DCC
S11339601B7800211800154B984703001A00012307
S11339705340DBB2002B01D000230DE0FB1D1A786D
S1133980FB1D01321A700C4B1B681B681B79FA1D56
S113399012789A42E3D301231800BD4602B080BDD9
S11339A0E4040020B5620000A00000203D340000C3
S11339B0B8010020FFFFFF1FBC0100207933000085
S11339C080B582B000AF214BDB88012B01D00023EE
S11339D038E01F4B1B78002B01D1002332E01B4B36
S11339E09A88FB1D1A701B4B1B681B681B79FA1DF8
S11339F012789A4201D3002324E0FB1D1B78002196
S1133A001800154B984703001A0001235340DBB2FA
S1133A10002B01D0002315E00E4B1B685A68FB1DD8
S1133A201B789B00D3181B683B603B68DB68984796
S1133A3003001A00094B1A70084B01211800084BA7
S1133A40984701231800BD4602B080BDE40400205D
S1133A50B8010020BC01002025320000B401002080
S1133A60D162000080B582B000AF174BDB88002B19
S1133A7001D0002324E0154B1B78002B01D1002337
S1133A801EE0114B9A88FB1D1A700F4B5A88BB1D00
S1133A901A70FB1D1B7818000D4B984703001A0081
S1133AA001235340DBB2002B01D0002308E0BB1DEF
S1133AB01A78FB1D1B7811001800064B9847030069
S1133AC01800BD4602B080BDE4040020B801002007
S1133AD0C93200007933000080B500AF474B1B7832
S1133AE05BB2002B40DA454BDB88002B01D100236D
S1133AF081E0424B1B781A001F23134014D13F4B23
S1133B005B78062B08D0082B0AD0002B00D00BE0E2
S1133B103B4B984703006EE03A4B984703006AE03A
S1133B20394B9847030066E0344B1B781A001F2377
S1133B301340012B08D1314B5B780A2B00D003E0F2
S1133B40324B9847030056E02C4B1B781A001F2376
S1133B501340022B4ED1294B5B78002B00D049E057
S1133B602B4B9847030046E0244B1B781A001F2375
S1133B70134019D1214B5B78092B14D89A00254B9B
S1133B80D3181B689F46244B9847030033E0234B0C
S1133B90984703002FE0224B984703002BE0214B6A
S1133BA09847030027E0C046144B1B781A001F23D4
S1133BB01340012B08D1114B5B780B2B00D003E091
S1133BC0194B9847030016E00C4B1B781A001F236F
S1133BD01340022B0ED1094B5B78012B02D0032B2F
S1133BE004D007E0114B9847030004E0104B9847BA
S1133BF0030000E000231800BD4680BDE40400205B
S1133C001D350000C5370000C1380000C13900006F
S1133C104D35000068910000C13600009535000064
S1133C2011360000F1380000653A0000D935000073
S1133C305536000080B582B000AF244B1B78002BB2
S1133C4001D100233DE0224B9A88FB1D1A70214BC1
S1133C501B681B681B79FA1D12789A4201D3002352
S1133C602FE0FB1D1B78002118001B4B9847030015
S1133C701A0001235340DBB2002B01D0002320E0C3
S1133C80144B1B685A68FB1D1B789B00D3181B68D8
S1133C903B603B68DB68984703001A00FB1D1B78F8
S1133CA0110018000C4B984703001A0001235340DD
S1133CB0DBB2002B01D0002303E03B689B689847EC
S1133CC003001800BD4602B080BDC046B801002004
S1133CD0E4040020BC0100202532000080B582B03D
S1133CE000AF224B1B78002B01D1002339E0204B7D
S1133CF09A88FB1D1A70FB1D00221A7028E01D4BC8
S1133D001B685A68FB1D1B789B00D3181B683B601B
S1133D103B68DB68984703001A00FB1D1B78110001
S1133D201800154B984703001A0001235340DBB2D7
S1133D30002B01D0002314E03B689B689847031EC6
S1133D4001D001230DE0FB1D1A78FB1D01321A700E
S1133D50084B1B681B681B79FA1D12789A42CED354
S1133D6000231800BD4602B080BDC046B801002043
S1133D70E4040020BC0100202532000080B500AF1F
S1133D801E4B00229A811D4B00221A611B4B0022FC
S1133D905A611A4B1B785BB2002B05DA174BDB8890
S1133DA0002B01D1002326E0144B1B781A0060235A
S1133DB0134005D1124B9847031E01D001231AE08A
S1133DC00E4B1B781A001F231340012B05D10D4BFA
S1133DD09847031E01D001230DE0084B1B781A00FD
S1133DE01F231340022B05D1074B9847031E01D014
S1133DF0012300E000231800BD4680BDE404002038
S1133E00D93A0000353C0000DD3C000080B582B0AA
S1133E1000AF104B1B68002B12D1EFF310837B60B3
S1133E207B68002B09D172B6BFF35F8F0A4B002267
S1133E301A700A4B01221A7002E0084B00221A7011
S1133E40044B1B685A1C034B1A60C046BD4602B0A3
S1133E5080BDC046C8010020DC000020CC01002049
S1133E6080B500AF0B4B1B685A1E0A4B1A60094BF6
S1133E701B68002B0AD1084B1B78DBB2002B05D042
S1133E80064B01221A70BFF35F8F62B6C046BD466F
S1133E9080BDC046C8010020CC010020DC00002009
S1133EA080B584B000AF0200FB1D1A700F23FB180D
S1133EB0FA1D1278D2091A700E23FB18FA1D127813
S1133EC052091A700D4BBB600F23FB181B78002B93
S1133ED00FD10F23FB181B789B0010229446BC447F
S1133EE06344083B1A680E23FB181B78DB01D318C4
S1133EF000E000231800BD4604B080BD004400412A
S1133F0080B582B000AF0200FB1D1A70FB1D1B7848
S1133F101800034B984703001800BD4602B080BD4B
S1133F20A13E000080B582B000AF78607B680022BB
S1133F301A707B6801225A707B6800229A70C0460E
S1133F40BD4602B080BDC04680B584B000AF02005B
S1133F50FB1D1A70BB1D0A1C1A70FB1D1B78180070
S1133F600D4B98470300FB60FB1D1B781F22134079
S1133F7001229A401300BB60BB1D1B78002B03D0A9
S1133F80FB68BA689A6102E0FB68BA685A61C04685
S1133F90BD4604B080BDC046013F000080B582B07C
S1133FA000AF3B1D18000E4B98473B1D01221A70B1
S1133FB03B1D190011200B4B9847012111200A4B7E
S1133FC098473B1D00221A703B1D01225A703B1D6D
S1133FD019000F20034B9847C046BD4602B080BD70
S1133FE0253F000011460000493F000080B584B021
S1133FF000AF0200FB1D1A700F23FB18FA1D127884
S113400052091A700F23FB181B78002B0CD1094B93
S1134010BB600F23FB181B789B0010229446BC4402
S11340206344083B1B6800E000231800BD4604B04D
S113403080BDC0460018004080B584B000AF0200C7
S1134040FB1D1A70FB1D1B7818000B4B98470300CF
S1134050FB60FB1D1B781F22134001229A401300B2
S1134060BB60FB681B69BA6813405A1E9341DBB2FC
S11340701800BD4604B080BDED3F000080B584B09B
S113408000AF0200FB1D1A70FB1D1B781800094BC2
S113409098470300FB60FB1D1B781F22134001227D
S11340A09A401300BB60FB68BA681A61C046BD46FB
S11340B004B080BDED3F000080B582B000AF7860F1
S11340C008001100FB1C021C1A70BB1C0A1C1A708D
S11340D0BB1C1B78002B01D0172319E0FB1C1A789A
S11340E00D4B9200D358002B07D1FB1C1A780A4BB6
S11340F092007968D15000230AE0FB1C1A78064B21
S11341009200D2587B689A4201D1002300E01D231B
S11341101800BD4602B080BDFC02002080B584B00A
S113412000AF0200FB1D1A70BB1D0A1C1A70BB1DD8
S11341301B78002B0ED1FB1D1B781800084B9847E9
S11341400300FB60FB1D1B7801229A40FB68DA60C8
S1134150002300E017231800BD4604B080BDC0460C
S1134160ED3F000080B584B000AF0200FB1D1A7063
S1134170BB1D0A1C1A70BB1D1B78002B0ED1FB1D26
S11341801B781800084B98470300FB60FB1D1B7845
S113419001229A40FB689A60002300E0172318006C
S11341A0BD4604B080BDC046ED3F000080B500AF01
S11341B0154B00221A7020E0134B1B781800134B88
S11341C09847031E13D0104B1B781800104B9847C8
S11341D00D4B1B781A000F4B9200D358002B06D0BE
S11341E0094B1B781A000B4B9200D3589847064B87
S11341F01B780133DAB2044B1A70034B1B780F2B74
S1134200DAD9C046BD4680BDF9020020394000001D
S11342107D400000FC02002080B582B000AF7860D1
S11342207B6800221A70C046BD4602B080BDC046FD
S113423080B582B000AF02003960FB1D1A70FB1D0F
S11342401B78012B0AD0022B0FD0002B14D10E4B5C
S11342500D4A91693A680A439A610FE00A4B0A4A87
S1134260D1693A680A43DA6108E0074B064A116AE1
S11342703A680A431A6201E0172300E00023180099
S1134280BD4602B080BDC0460004004080B582B087
S113429000AF78607B6880221A707B6800225A70B5
S11342A07B6801229A707B680022DA70C046BD46A2
S11342B002B080BD80B582B000AF0200FB1D1A7051
S11342C0064BFA1D127811001F220A400121914069
S11342D00A001A60C046BD4602B080BD00E100E09D
S11342E080B584B000AF0200FB1D1A700F23FB18C9
S11342F0FA1D127852091A700F23FB181B78002B31
S11343000CD1094BBB600F23FB181B789B001022B8
S11343109446BC446344083B1B6800E00023180037
S1134320BD4604B080BDC0460018004080B582B0D0
S113433000AF0F4B3B6000237B6011E07B689B0068
S113434008229446BC446344083B1B685B78DBB298
S11343505BB2002B01DA012306E07B6801337B604A
S11343607B68002BEAD000231800BD4602B080BD54
S11343700018004080B584B000AF2D4B7B60402115
S113438000202C4B98473B0018002B4B98473B00D0
S113439000221A703B0019000520284B984705207D
S11343A0274B98470023FB6018E0FB689B00102212
S11343B09446BC4463440C3B1A68FB689B00102180
S11343C08C46BC4463440C3B1B681B78DBB2012164
S11343D00B43DBB21370FB680133FB60FB68002BFB
S11343E0E3D0C046174B9847031EFBD10B23FB18A1
S11343F000221A700DE00B23FB181A78124B92005E
S11344000021D1500B23FB181A780B23FB1801321F
S11344101A700B23FB181B780F2BECD904200B4BC1
S113442098470B4B9847C046BD4604B080BDC04674
S1134430001800403142000019420000D150000031
S1134440155100002D430000FC020020B54200007D
S11344505544000080B582B000AF154B3B6000238B
S11344607B6018E07B689B0008229446BC4463444C
S1134470083B1A687B689B0008218C46BC44634453
S1134480083B1B681B78DBB202210B43DBB21370C1
S11344907B6801337B607B68002BE3D0C046054B0F
S11344A09847031EFBD1C046BD4602B080BDC0463E
S11344B0001800402D43000080B582B000AF786042
S11344C07B6800221A607B6800225A607B680122A4
S11344D01A727B6801225A727B6800229A727B6886
S11344E00222DA72C046BD4602B080BD80B586B0F5
S11344F000AF02003960FB1D1A700823FB18180076
S1134500364B98473B685B68DAB20823FB181A708D
S11345100823FB1800225A703B681A7A0823FB18F8
S11345209A703B681B68DBB20822BA1811001800A5
S11345302B4B9847FB1D1B7818002A4B9847030008
S11345403B61FB1D1B78072213409B00FB603B680B
S1134550DB7A7B613B689B7A002B03D07B69082262
S113456013437B61FB1D1B78DB08DBB21800FB1DCA
S11345701B78DB08DBB21A003B6906329200D35881
S11345800F21FA6891400A00D2431A407969FB6806
S113459099400B001A4311003B69821D9200D150CF
S11345A03B685B7A002B0AD03B695A69FB1D1B7878
S11345B0012199400B001A433B695A610AE03B69A7
S11345C05B69FA1D1278012191400A00D2431A4016
S11345D03B695A61C046BD4606B080BD8D420000AD
S11345E0BD530000E142000080B582B000AF7860A6
S11345F07B6880221A707B6800225A707B680122D3
S11346009A707B680022DA70C046BD4602B080BD55
S113461080B584B000AF02003960FB1D1A700C2312
S1134620FB181800104B98470C23FB1880221A70B3
S11346303B681A780C23FB185A703B685A780C2391
S1134640FB189A703B689A780C23FB18DA700C23D9
S1134650FA18FB1D1B7811001800044B9847C0463C
S1134660BD4604B080BDC046E9450000BD5300000E
S113467080B582B000AF78607B6801225A607B68A5
S113468000225A707B6806221A707B6800221A7214
S11346907B6800225A72C046BD4602B080BDC04647
S11346A080B582B000AF78607B6803221A707B68A3
S11346B000225A707B6801229A70C046BD4602B03F
S11346C080BDC04680B582B000AF78607B680022B0
S11346D01A707B6800225A807B6800229A807B686B
S11346E000229A717B680022DA717B6801225A7079
S11346F07B6807221A727B683F225A817B680122F9
S11347001A737B680122DA817B6806221A82C0460A
S1134710BD4602B080BDC04680B582B000AF020085
S1134720FB1D1A70034AFB1D1B781372C046BD465D
S113473002B080BD0004004080B582B000AF02002A
S1134740FB1D1A70BB1D0A1C1A70FB1D1B78012B64
S113475008D0022B0BD0002B0ED10B4ABB1D1B78AB
S113476053720BE0084ABB1D1B78937206E0064A9D
S1134770BB1D1B78D37201E0172300E0002318004F
S1134780BD4602B080BDC0460004004080B582B082
S113479000AF0200FB1D1A70084AFB1D1B780F2195
S11347A00B40D9B253680F20014049001E208343B7
S11347B00B435360C046BD4602B080BD004000417B
S11347C080B500AFC046044BDB6810221340FAD01A
S11347D0C046BD4680BDC0460008004080B500AF5D
S11347E00C4B02229A840C4B98470A4A0B4B9B6849
S11347F0D362084A094B5B689362064B00229A8491
S1134800054B9847034A054B1B689BB29384C046EB
S1134810BD4680BD00080040C1470000D001002013
S113482080B582B000AF0200FB1D1A70FB1D1B781F
S1134830082B47D89A00264BD3181B689F46254B54
S11348401B6940E0244B1B6A9B059B0FDBB21A00DB
S1134850224BD34037E080231B0234E080231B0229
S113486031E01C4B5B692EE01A4B1B68022213409B
S113487001D1002327E01A4B9847164B1B682022CE
S1134880134001D0174B1EE0124B1B680422134047
S113489009D00020144B984702000E4B9B681B0460
S11348A01B0C53430FE00F4B0DE00B4A5023D35C1A
S11348B0DBB21A000423134001D1002303E0054BAB
S11348C0DB6800E000231800BD4602B080BDC0468E
S11348D090910000D00100200008004000127A00EE
S11348E0C1470000006CDC02F551000080B584B0C3
S11348F000AF78601A4B1B6AFB607B681B781A1C3C
S113490003231340DAB20D23FB1803210A401000DD
S11349101A7803218A43111C021C0A431A707B680B
S11349209A780C23FB18D0011A787F210A40111CB5
S1134930021C0A431A707B685A780C23FB18012165
S11349400A4090011A7840218A43111C021C0A4330
S11349501A70034BFA681A62C046BD4604B080BDA3
S11349600008004080B582B000AF78607B681B7A95
S11349709B021B041A0C7B685B899B059B0D1A43E5
S11349802A4B5A607B689A797B68DB791343DBB2E4
S11349901A007B685B8813437A6892881A437B68A1
S11349A05B78DB011A43214B1A607B681B78042B6C
S11349B016D17B681B7B9B061A007B68DB891B0472
S11349C019001B4B0B4013437A68128A1A43174B86
S11349D09A60164B1B687A6812781A43134B1A6054
S11349E07B681B78202B1CD17B681B7B9B061A00E1
S11349F07B68DB891B0419000D4B0B4013437A6859
S1134A00128A1A43094B9A60084B1B687A68127819
S1134A1004210A43D2B213438022D2001A43034B27
S1134A201A60C046BD4602B080BDC046D001002019
S1134A300000FF0380B582B000AF0200FB1D1A70B6
S1134A40FB1D1B78082B3BD89A00214BD3181B68FD
S1134A509F46204B1F4A126A02210A431A6200230E
S1134A6031E01C4B1B4A926902210A439A6129E0F6
S1134A70184A184B1B8A9BB202210B439BB2138228
S1134A8020E0144A134B9B8A9BB202210B439BB236
S1134A90938217E0104B1B6802221A430E4B1A60D4
S1134AA00E4B98470EE00B4A0A494423CB5CDBB219
S1134AB002210B43D9B24423D15403E0002302E082
S1134AC0172300E000231800BD4602B080BDC04695
S1134AD0B491000000080040D0010020DD47000030
S1134AE080B584B000AF0200FB1D1A700023FB6088
S1134AF0FB1D1B78082B21D89A00184BD3181B6870
S1134B009F460823FB601BE00423FB6018E001239D
S1134B10FB6015E00223FB6012E01023FB600FE052
S1134B200F4A5023D35CDBB21A0003231340033B28
S1134B305A425341DBB20CE001230AE0002308E0AF
S1134B40074BDB68FA681A40FB68D31A5A42534190
S1134B50DBB21800BD4604B080BDC046D891000049
S1134B600008004080B582B000AF3B0002221A70FA
S1134B7000237B6009E07B68DBB23A001100180077
S1134B80054B98477B6801337B607B68242BF2D903
S1134B90C046BD4602B080BDD150000080B5A6B06D
S1134BA000AF6E4BC222D2009A6002206C4B984731
S1134BB06C4B98478023FB1818006B4B9847802355
S1134BC0FB1820221A708023FB1800225A70674BAE
S1134BD01B689B0E9422BA1813609423FB181B685D
S1134BE03F2B03D11F239422BA1813609423FB187C
S1134BF01B68DAB28023FB181A728023FB18002288
S1134C005A808023FB180022DA718023FB180022CB
S1134C109A718023FB1800229A808023FB180722B4
S1134C201A738023FB183F22DA818023FB180A229F
S1134C30DA818023FB184E4A5A818023FB18002214
S1134C405A808023FB180022DA718023FB1800228B
S1134C509A718023FB18802252009A808023FB18CB
S1134C60444A1A828023FB181800434B98477C233C
S1134C70FB181800414B98477C23FB1800221A703C
S1134C807C23FB1801229A707C23FB1800225A70A3
S1134C907C23FB1818003A4B98470620394B984759
S1134CA0394B98476423FB181800384B9847642302
S1134CB0FB1805221A706423FB1801225A6064232E
S1134CC0FB1800221A726423FB1800225A72642310
S1134CD0FB18190001202E4B984701202D4B9847B3
S1134CE00720284B9847C04607202B4B98470300C2
S1134CF01A0001235340DBB2002BF5D1174A938CE1
S1134D0080210B4393840020244B984700210020EA
S1134D10234B984700210120214B98470021022072
S1134D201F4B98473B001800184B98473B0007223D
S1134D301A703B0001225A603B0001221A723B00A8
S1134D4000225A723B0019000020114B98470020A2
S1134D50104B9847C046BD4626B080BD00080040B1
S1134D608D470000654B0000C546000024608000AC
S1134D70FF01000080BBFFFF65490000A146000061
S1134D80ED480000354A0000494E0000714600001D
S1134D90794E00009D4F0000E14A000019470000D1
S1134DA03947000080B582B000AF02003960FB1DB6
S1134DB01A70FB1D1B78012B0AD0022B0FD0002B7D
S1134DC014D10E4B0D4A91693A680A439A610FE077
S1134DD00A4B0A4AD1693A680A43DA6108E0074B88
S1134DE0064A116A3A680A431A6201E0172300E08E
S1134DF000231800BD4602B080BDC0460004004038
S1134E0080B500AF024B9847C046BD4680BDC04642
S1134E100D3E000080B500AF024B9847C046BD462A
S1134E2080BDC046613E000080B500AF054B5B7895
S1134E30DBB25BB2002B01DA012300E0002318008F
S1134E40BD4680BD000C004080B500AF08210020A5
S1134E50074B9847074B01221A70C046054B1B7835
S1134E60DBB21A0001231340F8D1C046BD4680BD11
S1134E70A54D0000000C004080B586B000AF0200D4
S1134E803960FB1D1A70FB1D1B787B61FB1D1B78B1
S1134E903B613B681B781B021A007B6913437B61EF
S1134EA03B685B78002B04D07B698022D2021343D9
S1134EB07B613B685B7A002B04D07B698022120300
S1134EC013437B613B685B68012B2CD93B685A68B0
S1134ED03B685B68013B13401AD10023FB6002234B
S1134EE0BB6005E0FB680133FB60BB685B00BB6033
S1134EF03B685A68BB689A42F4D8FB681B023A695B
S1134F0013433B617B698022520313437B610AE0B4
S1134F103B685B681B023A6913433B617B698022EF
S1134F20920213437B613B681B7A002B04D07B699C
S1134F308022920313437B61C046134B9847031EA0
S1134F40FBD1124B9847124AFB1D1B781370C046C5
S1134F500D4B9847031EFBD10E4B3A699A60C0462D
S1134F60094B9847031EFBD10A4B0A4A5168802219
S1134F70520211407A690A435A60074B9847C04667
S1134F80BD4606B080BDC046294E0000014E00005B
S1134F90080C0040000C0040154E000080B582B0A3
S1134FA000AF0200FB1D1A70C0460E4B9847031E4B
S1134FB0FBD10D4B98470D4AFB1D1B781370C0465F
S1134FC0084B9847031EFBD1094B094A52688021BC
S1134FD049020A435A60074B9847C046BD4602B08F
S1134FE080BDC046294E0000014E0000040C004064
S1134FF0000C0040154E000080B586B000AF0200E2
S1135000FB1D1A70C0462A4B9847031EFBD1294B3F
S11350109847294AFB1D1B781370C046244B9847B8
S1135020031EFBD1254B5B68DB04DB0EDBB21800EF
S1135030234B984703007B611F4AFB1D1B781370A9
S11350401E4B5B68DB02DB0FDAB21323FB181A700A
S11350501C4AFB1D1B781370C046154B9847031E52
S1135060FBD1164B9B681B021B0C9BB2FB60164BBF
S113507098471323FB181B78002B09D1FB68012BDD
S113508006D9124BF9687869984703007B610AE0F6
S11350901323FB181B78002B05D0FB6801337A69B6
S11350A0DA4013007B617B691800BD4606B080BD01
S11350B0294E0000014E0000040C0040000C00408A
S11350C021480000080C0040154E00008D8D0000A2
S11350D080B584B000AF02003960FB1D1A70FB1D5F
S11350E01B78FB603B681B781B021A00FB681343A8
S11350F0FB60FB1D1B781800044B9847044BFA68AF
S113510092B25A80C046BD4604B080BD5D510000D5
S1135110000C004080B582B000AF0200FB1D1A7085
S11351200A4B98470A4AFB1D1B7813700949094B1F
S11351305B889BB28022D20113439BB24B80064B07
S11351409847C046BD4602B080BDC046014E00002F
S1135150020C0040000C0040154E000080B584B0E5
S113516000AF0200FB1D1A701C4B98471C4AFB1D24
S11351701B7813701B4B5B881B051B0FDBB2FB609A
S1135180184A538818490B405380164A154B5B88BC
S11351909BB216490B409BB25380C046114B5B88AF
S11351A09BB21A008023DB011340F7D10D4AFB6840
S11351B0DBB2191C0F230B40D9B25388081C0F21F2
S11351C00140080208490B40191C031C0B4353807F
S11351D0074B9847C046BD4604B080BD014E000051
S11351E0020C0040000C0040FFF0FFFFFFBFFFFF78
S11351F0154E000080B584B000AF0200FB1D1A708C
S11352000D4B98470D4AFB1D1B7813700C4B5B88A4
S11352101B051B0FDAB20F23FB181A70094B9847B2
S11352200F23FB181B781800074B9847030018003E
S1135230BD4604B080BDC046014E0000020C0040D3
S1135240000C0040154E0000F94F000080B584B0FA
S113525000AF0200FB1D1A700F23FB18FA1D127811
S1135260D2091A700E23FB18FA1D127852091A700B
S11352700D4BBB600F23FB181B78002B0FD10F23A2
S1135280FB181B789B0010229446BC446344083BE3
S11352901A680E23FB181B78DB01D31800E00023E7
S11352A01800BD4604B080BD0044004180B588B0FC
S11352B000AFF860B9607A600023FB617B68DB783B
S11352C001225340DBB2002B35D07B681B78802B46
S11352D00BD0FB69802252021343FB617B681B786D
S11352E01B061A00FB691343FB617B685B78002B88
S11352F003D07B685B78022B10D1FB698022920279
S11353001343FB617B689B78002B04D0FB698022EC
S1135310D2021343FB61FB68BA685A607B685B780E
S1135320012B03D07B685B78022B07D1FB69224AEF
S11353301340FB6102E0FB68BA685A60BB681B0457
S11353401B0CBB61BB681B0C7B61BA69FB69134313
S1135350A022D2051A43FB689A627A69FB69134357
S1135360D02212061A43FB689A627B68DB7801221A
S11353705340DBB2002B1AD0FA698023DB021340BE
S11353800AD07B689B78012B03D1FB68BA689A61C9
S113539002E0FB68BA685A617B685B78012B03D032
S11353A07B685B78022B02D1FB68BA689A60C046BE
S11353B0BD4608B080BDC046FFFFFBFF80B584B08A
S11353C000AF02003960FB1D1A70FB1D1B7818002A
S11353D00A4B98470300FB60FB1D1B781F221340F8
S11353E001229A401300BB603A68B968FB68180050
S11353F0034B9847C046BD4604B080BD4D520000E3
S1135400AD52000080B500AFC046BD4680BDC04669
S113541080B500AF064B9847064B9847064B984714
S1135420064B9847064B9847C046BD4680BDC046CC
S11354309D4B00009D3F0000055400007543000093
S11354400554000080B582B000AFEFF310833B60D9
S11354503B685A425341DBB27B6072B6BFF35F8F45
S1135460034B00221A707B681800BD4602B080BD51
S1135470DC00002080B582B000AF78607B685A1EE3
S11354809341DBB21800BD4602B080BD80B582B046
S113549000AF78607B681800064B9847031E05D060
S11354A0054B01221A70BFF35F8F62B6C046BD463A
S11354B002B080BD75540000DC00002080B584B0CB
S11354C000AF0200FB1D1A700F23FB18FA1D12789F
S11354D0D2091A700E23FB18FA1D127852091A7099
S11354E00D4BBB600F23FB181B78002B0FD10F2330
S11354F0FB181B789B0010229446BC446344083B71
S11355001A680E23FB181B78DB01D31800E0002374
S11355101800BD4604B080BD0044004180B582B08F
S113552000AF78607B681A687B681B681B899BB234
S113553001218B439BB21381C046BD4602B080BD9E
S113554080B582B000AF78607B681A687B681B689E
S11355501B899BB201210B439BB21381C046BD46FC
S113556002B080BD80B582B000AF78607B681B68F4
S11355709B7A5B065B0EDBB21800BD4602B080BDB1
S113558080B582B000AF78600A00FB1C1A707B689B
S11355901B68FA1C1278802149420A43D2B29A72DB
S11355A0C046BD4602B080BD80B582B000AF786011
S11355B07B681B681B8A9B045B0D9BB21800BD466D
S11355C002B080BD80B582B000AF78600A00FB1CD9
S11355D01A707B681A68FB1C1B7803210B40D9B234
S11355E01389081C03210140880205490B40191C3A
S11355F0031C0B431381C046BD4602B080BDC046A8
S1135600FFF3FFFF80B582B000AF0200FB1D1A70EC
S1135610FB1D1B781800034B984703001800BD4678
S113562002B080BDBD54000080B584B000AF02005C
S1135630FB1D1A70FB1D1B7818000B4B98470300C9
S1135640FB60FB1D1B781F22134001229A401300AC
S1135650BB60FB681B6ABA6813405A1E9341DBB2F5
S11356601800BD4604B080BD0556000080B584B066
S113567000AF0200FB1D1A70FB1D1B780C4AD35CA3
S1135680FF2B00D1FEE70B4B98470300FB60FB1D8B
S11356901B78074AD25C0132D1B2054AD154FB6867
S11356A01800054B9847C046BD4604B080BDC046AF
S11356B0F4020020455400008D54000080B584B0ED
S11356C000AF0200FB1D1A70FB1D1B780C4AD35C53
S11356D0002B00D1FEE70B4B98470300FB60FB1D3A
S11356E01B78074AD25C013AD1B2054AD154FB680F
S11356F01800054B9847C046BD4604B080BDC0465F
S1135700F4020020455400008D54000080B500AF21
S11357100B4B9B8C9BB21A002023134007D1C0462D
S1135720074BDB68D0221340D02BF9D105E0C046EB
S1135730034BDB6810221340FAD0C046BD4680BD3F
S11357400008004080B584B000AF0200FB1D1A7051
S11357500C23FA18174B1000190004231A00164BD7
S11357609847164B1B78FA1D12789A421DD0FB1DE0
S11357701B78002B07D0FB1D1B780C22BA18D35CB6
S113578018000F4B98470D4B1B78002B08D00B4B80
S11357901B781A000C23FB189B5C1800094B9847D4
S11357A0064BFA1D12781A7000E0C046BD4604B0DC
S11357B080BDC046FC910000059100001802002045
S11357C06D560000BD56000080B582B000AF0200E7
S11357D0FB1D1A70FB1D1B780F2213405B00FA1D82
S11357E0127852B2D2B2D209D2B29B189A1E1300C6
S11357F09B009B189B00034A9B181800BD4602B0EF
S113580080BDC046F001002090B589B000AF78603B
S11358107B68BB611723FB18BA6992791A70172346
S1135820FB181B781800544B984703003B610F2367
S1135830FB181722BA1812780F210A401A700C2389
S1135840FB183A69128A1A800A23FB18BA6952882B
S11358501A803B69DA680A23FB181B88D2183B6953
S1135860DA603B69DA683B699B689A4254D03B69C9
S11358709B6899B23B69DB689AB21E23FB188A1AAB
S11358801A801E23FB181B883C4A93420DD90C2313
S1135890FB181A8839483A4B110098470B009AB202
S11358A01E23FB1835498A1A1A803B699B7C022205
S11358B01340DBB2002B0ED01E23FA180C23FB1866
S11358C0128819882F4B100098470B009BB2002BAD
S11358D001D1012300E00023DBB21A1C0123134091
S11358E0DAB23B6901210A4090189A7C02218A436A
S11358F0111C021C0A439A743B695A683B69DB68B1
S1135900D2181E23FB181C880F23FB1819781E4875
S113591023001E4CA0472BE03B699B7C02221340D2
S1135920DBB2002B11D03B699A7C02218A439A7422
S11359303B695A683B69DB68D2180F23FB18197856
S113594011480023114CA04712E03B699A7C0121C5
S11359508A439A743B691B68002B09D03B691C6815
S11359603B69D9681723FB181B781A000020A0474D
S1135970BD4609B090BDC046C9570000FF1F0000D6
S11359806D900000998E00007C030020B57E00001D
S1135990B0B588B000AF78607B68BB611723FB1893
S11359A0BA6992791A701723FB181B781800664B92
S11359B0984703003B610F23FB181722BA1812788B
S11359C00F210A401A700C23FB183A69128A1A80B4
S11359D00A23FB18BA6912881A803B699B7C04224B
S11359E01340DBB2002B19D03B695A683B69DB6872
S11359F0D4180F23FB181B78013B9A01534BD5187D
S1135A003B699A680C23FB181988514B100098477E
S1135A100B001A00290020004E4B98473B69DA68B6
S1135A200A23FB181B88D2183B69DA603B69DA68E1
S1135A303B699B689A4203D93B699A683B69DA607F
S1135A40BB699B880A22BA1812889A4265D13B69BD
S1135A50DA683B699B689A425FD03B699B6899B25C
S1135A603B69DB689AB21E23FB188A1A1A801E232C
S1135A70FB181B88384A93420ED90C23FB181A884A
S1135A803548364B110098470B009AB21E23FB1879
S1135A9031498A1A1A8011E01E23FA180C23FB18C4
S1135AA0128819882A4B100098470B009AB21E23BB
S1135AB0FB181E21791809888A1A1A801E23FA18DD
S1135AC00C23FB1812881B889A4216D23B699A7CD5
S1135AD004210A439A740F23FB181B78013B9A0193
S1135AE01A4BD2180C23FB181C880F23FB181978A7
S1135AF01B4823001B4CA04722E03B695A683B69C2
S1135B00DB68D2181E23FB181C880F23FB18197896
S1135B1013482300134CA04712E03B699A7C0121EF
S1135B208A439A743B691B68002B09D03B691C6843
S1135B303B69D9681723FB181B781A000020A0477B
S1135B40BD4608B0B0BDC046C95700003C030020A4
S1135B50998E000005910000FF1F00006D90000069
S1135B607C030020697F000080B584B000AF7860BA
S1135B7039603B68FB600B23FB18FA6892791A7052
S1135B800B23FB181B785BB2002B04DA3B6818006C
S1135B90054B984703E03B681800044B9847C04600
S1135BA0BD4604B080BDC0460958000091590000AC
S1135BB090B585B000AF0200FB1D1A70FB1D1A786A
S1135BC0144B11001800144B9847FB1D1B78180048
S1135BD0124B98470300FB60FB689B7C0122134037
S1135BE0DBB2002B12D0FB689A7C01218A439A74A1
S1135BF0FB681B68002B0AD0FB681C68FB68D9682B
S1135C00FB1D1B781A000120A04700E0C046BD46DA
S1135C1005B090BD7C030020317C0000C957000012
S1135C2080B500AF034B1800034B984703001800DE
S1135C30BD4680BD7C030020A955000080B584B01A
S1135C4000AF0200FB1D1A700823FB181800184B44
S1135C5098470F23FB18FA1D12780F210A401A7077
S1135C60FB1D1B781800134B98470823FB18FA1DDB
S1135C7012781A700823FB180022DA700823FA1825
S1135C800D4B110018000D4B98470F23FB18197882
S1135C90094B002218000A4B9847FB1D1978064B44
S1135CA000221800074B9847C046BD4604B080BD8B
S1135CB011770000B15B00007C03002039770000FD
S1135CC0597300006D75000090B587B000AF0400F3
S1135CD008001100FB1D221C1A70BB1D021C1A7047
S1135CE03B1D0A1C1A800C23FB181800584B9847BC
