S0150000446F6E676C65204D6F64756C652E7372656330
S11300000026002039880000318900003189000071
S113001000000000000000000000000000000000DC
S11300200000000000000000000000003189000012
S11300300000000000000000318900003189000048
S113004031890000318900003189000031890000C4
S11300507940000031890000318900008984000062
S113006031890000318900003189000031890000A4
S11300703189000031890000318900003189000094
S11300803189000031890000318900003189000084
S113009031890000000000000000000031890000E8
S11300A03189000031890000318900003189000064
S11300B00000000010B5064C2378002B07D1054B37
S11300C0002B02D0044800E000BF0123237010BDC0
S11300D0E000002000000000AC90000008B5084BD0
S11300E0002B03D00748084900E000BF0748036815
S11300F0002B00D108BD064B002BFBD09847F9E735
S113010000000000AC900000E4000020AC9000006F
S11301100000000080B582B000AF78607B680022E8
S11301201A70BD4602B080BD80B582B000AF021C1B
S11301303960FB1D1A70FB1D1B78012B0AD0022BA2
S11301400FD0002B14D10E4B0D4A91693A680A4323
S11301509A610FE00A4B0A4AD1693A680A43DA61A4
S113016008E0074B064A116A3A680A431A6201E03A
S1130170172300E00023181CBD4602B080BDC04612
S11301800004004080B584B000AF78607B681B68D1
S1130190FB60FB689B7ADBB2DBB25BB2002B01DA5B
S11301A0012300E00023181CBD4604B080BDC046F6
S11301B080B584B000AF78607B681B68FB60C04684
S11301C07B68181C074B9847031EF9D1FB681B88F2
S11301D09BB2022213439AB2FB681A80BD4604B054
S11301E080BDC0468501000080B584B000AF786052
S11301F07B681B68FB60C0467B68181C074B9847EC
S1130200031EF9D1FB681B889BB2022293439AB266
S1130210FB681A80BD4604B080BDC046850100005D
S113022080B584B000AF78607B681B68FB607B6836
S1130230181C0A4B9847C0467B68181C084B984703
S1130240031EF9D1FB681B889BB2012213439AB2A7
S1130250FB681A80BD4604B080BDC046E9010000B9
S11302608501000080B584B000AF786039607B6898
S11302701B68BB603B681A88BB681A803B689B7824
S1130280002B3CD0012B00D070E0BB681B889AB2D5
S1130290BB681A803B68DB78002B07D0BB681B88DF
S11302A09BB2802213439AB2BB681A800F23FB18B7
S11302B000221A701DE0C0467B68181C354B984715
S11302C0031EF9D10F23FB181A783B6802329200FF
S11302D0D25879680F23FB181B78081C111C1A1CB0
S11302E02D4B98470F23FB181A780F23FB18013264
S11302F01A700F23FB181B78002BDCD038E0BB6886
S11303001B889BB2042213439AB2BB681A803B68D1
S1130310DB78002B01D0172338E00E23FB180022D2
S11303201A701DE0C0467B68181C1A4B9847031EC0
S1130330F9D10E23FB181A783B6802329200D25886
S113034079680E23FB181B78081C111C1A1C124B0D
S113035098470E23FB181A780E23FB1801321A70E3
S11303600E23FB181B78012BDCD901E017230DE0C9
S11303703B681B79002B08D0BB685B889BB280224A
S1130380D20113439AB2BB685A800023181CBD469D
S113039004B080BD85010000F504000080B586B07E
S11303A000AFF860B9607A60FB68BA681A60002030
S11303B02021174B98471423FB18181C154B9847FA
S11303C01423FB1802221A701423FB180420191C8E
S11303D0114B98470420114B9847FB68181C104B8D
S11303E098477B689A78FB681A717B681A79FB686E
S11303F05A710C4BFA681A60FA687B68101C191C55
S1130400094B9847031C181CBD4606B080BDC04666
S11304102901000015010000854F0000C94F0000AC
S113042021020000340200206502000080B584B07F
S113043000AF786039607B681B68FB60C0467B68EE
S1130440181C104B9847031EF9D17B681B79002BAD
S113045005D0012B0ED1FB683A681A610CE03B68A9
S1130460094A934201D9172307E03B689AB2FB6813
S11304701A8201E0172300E00023181CBD4604B0D3
S113048080BDC04685010000FFFF000080B584B038
S113049000AF78607B681B68BB607B685B79012276
S11304A05340DBB2002B09D0BB68104A5A80C046C7
S11304B07B68181C0E4B9847031EF9D17B681B7987
S11304C0002B05D0012B08D1BB681B69FB6007E03A
S11304D0BB681B8A9BB2FB6002E00023FB60C04642
S11304E0FB68181CBD4604B080BDC0460080FFFFF9
S11304F08501000080B586B000AFF860B960FB1DCF
S11305001A70FB681B687B61C046FB68181C1A4B99
S11305109847031EF9D1FB681B79002B0FD0012BE0
S113052022D1FB1D1B78012B01D917231FE0FB1DD2
S11305301A787B6906329200B968D15016E0FB1D27
S11305401B78022B01D9172311E0BB680B4A934295
S113055001D917230BE0FB1D1A78BB6899B27B699C
S11305600C325200D15201E01A2300E00023181C7F
S1130570BD4606B080BDC04685010000FFFF0000F7
S113058080B584B000AF78600A1CBB1C1A807B68FD
S11305901B68FB607B681B79002B01D015230BE0E3
S11305A0C0467B68181C064B9847031EF9D1FB68AC
S11305B0BA1C12889A820023181CBD4604B080BD60
S11305C08501000080B582B000AF78607B680022AE
S11305D01A70BD4602B080BD80B586B000AFF86029
S11305E0B9607A601623FB1800221A80BB683B614D
S11305F0BB685A08FB689A4201D2402326E0BB68D4
S11306005B083B610AE03A69FB68D31A3B61162335
S1130610FB181A881623FB1801321A803A69FB6802
S11306209A42F0D21623FB181622BA181288013AFD
S11306301A801623FB181B88FF2B01D9402305E0E1
S11306407B681622BA1812881A800023181CBD462B
S113065006B080BD80B584B000AF021CFB1D1A70CB
S1130660BB1D0A1C1A701A4B1B7801225340DBB2C3
S1130670002B03D1BB1D1B78002B1BD00C23FB18B4
S1130680181C144B98470C23FB18FA1D12781A7087
S11306900C23FB181320191C0F4B984713200F4BE6
S11306A098470B4BFA1D12785A70094B01221A70A5
S11306B0002308E0064B5B78FA1D12789A4201D1B8
S11306C0002300E01D23181CBD4604B080BDC046B5
S11306D0FC000020C5050000854F0000C94F000044
S11306E080B582B000AF78600A1CFB1C1A707B686E
S11306F04D4A93423FD04C4A934206D84B4A9342C8
S11307000FD04B4A934221D089E04A4A934200D108
S11307105BE0494A934200D16CE0484A93423FD09F
S11307207DE0FB1C1B78012B0AD002DC002B05D0DA
S113073075E0022B06D0032B06D070E0404B6FE02F
S1130740404B6DE0404B6BE0404B69E0FB1C1B7879
S1130750012B0AD002DC002B05D060E0022B06D06E
S1130760032B06D05BE003235AE0394B58E0394BA6
S113077056E0394B54E0FB1C1B78012B0AD002DCF9
S1130780002B05D04BE0022B06D0032B06D046E00D
S1130790324B45E0324B43E0324B41E0324B3FE0D9
S11307A0FB1C1B78012B0AD002DC002B05D036E0A1
S11307B0022B06D0032B06D031E02C4B30E02C4B1F
S11307C02EE02C4B2CE02C4B2AE0FB1C1B78012B3D
S11307D00AD002DC002B05D021E0022B06D0032B2B
S11307E006D01CE0254B1BE0254B19E0254B17E0F8
S11307F0254B15E0FB1C1B78012B0AD002DC002BD7
S113080005D00CE0022B06D0032B06D007E01F4BCB
S113081006E01F4B04E01F4B02E01F4B00E00023E7
S1130820181CBD4602B080BD001000420008004202
S1130830000C004200180042001C00420014004258
S11308400300040003000500030006000300070082
S11308500300010003001E0003001F000300080042
S11308600300090003000A0003000B00030010004A
S113087003001100030012000300130003000C0026
S113088003000D0003000E0003000F000300160018
S113089003001700030018000300190090B58BB083
S11308A000AF78600C23FB180E4A13CA13C313CA93
S11308B013C300237B620DE07B680C22BA18796AAB
S11308C089008A58934202D17B6ADBB206E07B6AD4
S11308D001337B627B6A052BEED90023181CBD46CD
S11308E00BB090BD8C8F000080B582B000AF7860F3
S11308F07B6880221A707B6800225A707B68012210
S11309009A707B680022DA70BD4602B080BDC04692
S113091080B584B000AF021CFB1D1A700F23FB18B6
S1130920FA1D1278D2091A700E23FB18FA1D1278D8
S113093052091A700D4BBB600F23FB181B78002B58
S11309400FD10F23FB181B789B0010229446BC4444
S11309506344083B1A680E23FB181B78DB01D31889
S113096000E00023181CBD4604B080BD00440041D3
S113097080B586B000AF021CFB1D1A70FB1D1B78EE
S1130980181C194B9847031C7B61FB1D1B781F2205
S113099013403B617A6940213B69D3185B181B788B
S11309A0DBB21A1C0123134001D1802317E03B69F9
S11309B05B087A693021D3185B181B78DBB2FB60C3
S11309C03B690122134005D0FB68F02213401B0948
S11309D0DBB204E0FB68DBB20F221340DBB2181C6D
S11309E0BD4606B080BDC0461109000080B582B086
S11309F000AF021CFB1D1A70FB1D1B78181C034B57
S1130A009847031C181CBD4602B080BD11090000A4
S1130A1080B584B000AF021CFB1D1A70BB1D0A1CFC
S1130A201A70FB1D1B78181C0C4B9847031CFB60A9
S1130A30FB1D1B781F22134001229A40131CBB602C
S1130A40BB1D1B78002B03D0FB68BA689A6102E0D7
S1130A50FB68BA685A61BD4604B080BDED09000068
S1130A6080B582B000AF78607B6800221A70BD4602
S1130A7002B080BD80B582B000AF021C3960FB1D9E
S1130A801A70FB1D1B78012B0AD0022B0FD0002BF0
S1130A9014D10E4B0D4A91693A680A439A610FE0EA
S1130AA00A4B0A4AD1693A680A43DA6108E0074BFB
S1130AB0064A116A3A680A431A6201E0172300E001
S1130AC00023181CBD4602B080BDC046000400408F
S1130AD080B500AF054B9B78DBB21A1C0223134090
S1130AE05A1E9341DBB2181CBD4680BD0020004154
S1130AF080B584B000AF78607B681B68FB60FB68DE
S1130B001B7EDBB21A1C012313405A1E9341DBB235
S1130B10181CBD4604B080BD80B584B000AF7860B9
S1130B207B681B68FB60FB681B7EDBB21A1C04231A
S1130B3013405A1E9341DBB2181CBD4604B080BD5D
S1130B4080B584B000AF78600A1CBB1C1A807B6837
S1130B501B68FB607B68181C0A4B9847031C1A1C13
S1130B6001235340DBB2002B01D0052306E0BB1C5C
S1130B701B88DB05DA0DFB689A620023181CBD464E
S1130B8004B080BDF10A000080B584B000AF786085
S1130B9039607B681B68BB607B68181C1D4B9847D9
S1130BA0031C1A1C01235340DBB2002B01D0102379
S1130BB02CE00F23FB1800221A70BB685B8B9BB2DE
S1130BC01A1C042313400BD00F23FB181E221A7087
S1130BD0BB685B8B9BB2042213439AB2BB685A83F3
S1130BE07B689B79012B08D1BB689B6A9BB2DB05B0
S1130BF0DB0D9AB23B681A8005E0BB689B6ADBB2E6
S1130C009AB23B681A800F23FB181B78181CBD4648
S1130C1004B080BD190B000090B593B000AF7860AC
S1130C2039607B681B687B637B681B683B631C23A0
S1130C30FB18181C864B98471C23FB1800225A707B
S1130C403B681B78002B03D11C23FB1800229A70ED
S1130C503B689A6A0C23FB181A603B68DA6A0C2317
S1130C60FB185A603B681A6B0C23FB189A603B68AC
S1130C705A6B0C23FB18DA604723FB1800221A7006
S1130C802CE04723FB181A780C23FB189200D35846
S1130C903B643B6C002B09D13A6B4723FB181B7850
S1130CA0101C191C6B4B9847031C3B643B6C0133B1
S1130CB00DD03B6CDAB21C23FB181A703B6C1B0C76
S1130CC0DAB21C23FB18101C191C634B98474723EA
S1130CD0FB181A784723FB1801321A704723FB18B4
S1130CE01B78032BCDD93B681A787B685A713B6813
S1130CF01A7C7B689A713B689A7C7B68DA713B68E2
S1130D001A7D7B681A720A23FB1800221A800023BA
S1130D10FB630023BB633B681B78012B2BD17B68EF
S1130D201B68181C4D4B9847031CFB62FB6A143369
S1130D30BB62BB6ADBB2181C494B9847031C7B623D
S1130D403B6899692323FC187A6A0A23FB18081C58
S1130D50111C1A1C434B9847031C23702323FB18B4
S1130D601B78002B01D017236DE00A23FB181B8886
S1130D70DAB27B6B1A733B681B78002B1AD13B6881
S1130D809B69FB633B689B8BBB637B6B5B6A3A68C9
S1130D90927F111C3A68D27F12040A431A437B6B78
S1130DA05A623B6820229B5C002B03D0BB6B402221
S1130DB01343BB633B685B68FA6B1343FB633B6899
S1130DC09B68FA6B1343FB633B68DB68FA6B134362
S1130DD0FB633B681B7C1A1CBB6B1343BB633B6804
S1130DE05B7C002B03D1204B9847031E03D0FB6B85
S1130DF080221343FB633B689B7C002B04D0BB6BBA
S1130E00802292021343BB633B68DB7C002B04D03B
S1130E10BB6B802292001343BB633B681B7D002B9A
S1130E2004D0BB6B802292011343BB637B6B1A68B3
S1130E30FB6B1A437B6B1A607B6B5A68BB6B1A4360
S1130E407B6B5A600023181CBD4613B090BDC0468E
S1130E50E9080000E1060000715200009D0800004E
S1130E60A9500000D9050000D10A000090B591B046
S1130E7000AF786039607B681B68FB627B681B6825
S1130E80BB623B689A6A0C23FB181A603B68DA6AF7
S1130E900C23FB185A603B681A6B0C23FB189A60EE
S1130EA03B685A6B0C23FB18DA603F23FB180022C3
S1130EB01A7030E03F23FB181A780C23FB189200B9
S1130EC0D358BB63BB6B002B09D1BA6A3F23FB1811
S1130ED01B78101C191C6F4B9847031CBB63BB6B1E
S1130EE0013300D110E0BB6B1B041C0CBB6B1B0C4F
S1130EF0DBB2181C684B9847031C9C4204D07B68E7
S1130F0000221A601C23C0E03F23FB181A783F23F9
S1130F10FB1801321A703F23FB181B78032BC9D925
S1130F2013205E4B9847031C7B6200237B630023E2
S1130F303B6300233B623B681B78012B23D13B6856
S1130F4099691F23FC187A6A0A23FB18081C111CD0
S1130F501A1C534B9847031C23701F23FB181B7840
S1130F60002B01D0172390E0FB6A1B7BDAB20A2323
S1130F70FB181B88DBB29A4201D01C2385E07B6BF3
S1130F800C2213437B633B681B78002B29D13B68FD
S1130F909B697A6B13437B633B689B8B1A1C3B6B8B
S1130FA013433B633B689B7F1A1C3B68DB7F1B043A
S1130FB013431A1C3B6A13433B62FB6A1A683B6A7D
S1130FC09A4201D01C2360E03B6820229B5C002BEA
S1130FD003D03B6B402213433B637B6B08221343D8
S1130FE07B633B685B687A6B13437B633B689B68FA
S1130FF07A6B13437B633B68DB687A6B13437B63D5
S11310003B681B7C1A1C3B6B13433B633B685B7C58
S1131010002B03D07B6B802213437B633B689B7C58
S1131020002B04D03B6B8022920213433B633B684A
S1131030DB7C002B04D03B6B8022920013433B6388
S11310403B681B7D002B04D03B6B80229201134331
S11310503B637B6B022213437B63FB6A1A687B6BE3
S11310609A420ED1FB6A5A683B6B9A4209D13B689B
S11310701A787B685A713B681A7C7B689A710023E2
S113108003E07B6800221A601C23181CBD4611B0C3
S113109090BDC046E106000071090000A95000009F
S11310A0D905000080B58AB000AFF860B9607A60F5
S11310B0FB68BA681A60FB681B687B627B6A1B6802
S11310C00222134007D0FA687B68101C191C2F4BAE
S11310D09847031C55E07B6A1B680122134001D02A
S11310E005234EE0FB681B68181C294B9847031C1A
S11310F03B623B6A0233FB613B6A1433BB61FB69AD
S113110001229A40131C0220191C224B98471423D5
S1131110FB18181C204B98477B6824229A5C1423E4
S1131120FB181A70BB69DAB21423FB18101C191CC3
S11311301A4B9847BB69DBB2181C194B98477B685C
S113114024229B5C181C0021164B98477B681B7853
S1131150012B05D17B6A1B680C221A437B6A1A6037
S11311607B681B78002B05D17B6A1B6808221A4315
S11311707B6A1A60FA687B68101C191C0A4B984732
S1131180031C181CBD460AB080BDC0466D0E00008D
S11311909D080000750A0000610A0000854F0000E8
S11311A0C94F000055060000190C000090B587B027
S11311B000AFF8607A600A23FB180A1C1A80FB68E7
S11311C0DB7901225340DBB2002B01D01C237AE0EF
S11311D01523FB1800221A70FB685B79002B20D1C1
S11311E01623FB1800221A8015E0FB68181C384BE4
S11311F09847031E00D014E01623FB181B88354AB9
S1131200934201D112235EE01623FB181A88162399
S1131210FB1801321A801623FB181B882D4A9342AF
S1131220E3D9C046FB68181C294B9847031C1A1CB9
S113123001235340DBB2002BF4D1FA680A23FB18D4
S11312401B88101C191C244B9847FB685B79002BE6
S113125020D11623FB1800221A8015E0FB68181C05
S11312601E4B9847031E00D014E01623FB181B885E
S1131270184A934201D1122325E01623FB181A8839
S11312801623FB1801321A801623FB181B88114AF7
S11312909342E3D9C046FB68181C104B9847031CC3
S11312A01A1C01235340DBB2002BF4D11523FC1884
S11312B0FA687B68101C191C094B9847031C23709F
S11312C01523FB181B78181CBD4607B090BDC046FB
S11312D0F10A000010270000410B0000190B000068
S11312E0890B000080B586B000AFF860B960FB1DC3
S11312F01A70FB685B79012B01D015235CE0FB6855
S11313001B7A01225340DBB2002B54D0FB1D1B7807
S1131310002B4AD0BB685B78002B3FD0FB68181CBD
S1131320274B9847031C1A1C01235340DBB2002BA4
S113133007D0BB681B78181C0121224B9847052352
S11313403AE0BB681B78181C00211E4B9847BB6809
S11313509B789BB2FA68101C191C1B4B9847FB68BE
S1131360DB7901225340DBB2002B24D0C046FB685A
S1131370181C164B9847031C1A1C01235340DBB25C
S1131380002BF4D11623FB1800221A80FA681623C6
S1131390FB18101C191C0E4B98470CE0BB681B78FB
S11313A0181C0021074B984705E0BB681B78181CE4
S11313B00121044B98470023181CBD4606B080BD8C
S11313C0F10A0000110A0000410B0000190B000093
S11313D0890B000080B584B000AF021CFB1D1A709D
S11313E00F23FB18FA1D1278D2091A700E23FB186A
S11313F0FA1D127852091A700D4BBB600F23FB18AB
S11314001B78002B0FD10F23FB181B789B00102295
S11314109446BC446344083B1A680E23FB181B78AB
S1131420DB01D31800E00023181CBD4604B080BDC6
S11314300044004180B582B000AF021CFB1D1A704D
S1131440FB1D1B78181C034B9847031C181CBD4636
S113145002B080BDD513000080B582B000AF7860C3
S11314607B6800221A707B6801225A707B68002214
S11314709A70BD4602B080BD80B584B000AF021C36
S1131480FB1D1A70FB1D1B78181C0B4B9847031C83
S1131490FB60FB1D1B781F22134001229A40131C82
S11314A0BB60FB681B6ABA6813405A1E9341DBB2E7
S11314B0181CBD4604B080BD3514000080B584B04E
S11314C000AF021CFB1D1A70BB1D0A1C1A70FB1D09
S11314D01B78181C0C4B9847031CFB60FB1D1B78E6
S11314E01F22134001229A40131CBB60BB1D1B78B2
S11314F0002B03D0FB68BA689A6102E0FB68BA6803
S11315005A61BD4604B080BD3514000080B584B076
S113151000AF78607B68A02212011A807B680122E8
S11315209A707B680022DA707B6800221A710F239C
S1131530FB1800221A700EE00F23FB181A787B6840
S1131540023292000021D1500F23FB181A780F2386
S1131550FB1801321A700F23FB181B78012BEBD9EF
S1131560BD4604B080BDC04680B584B000AF78608D
S11315707B681B68FB60FB68DB695A1E9341DBB226
S1131580181CBD4604B080BD80B582B000AF786041
S11315907B6801221A707B6800225A607B680022F3
S11315A09A607B68C0229203DA607B6800221A7416
S11315B07B6800225A747B6801229A747B6801223A
S11315C0DA747B6800221A757B68242200219954FE
S11315D07B681833181C00210C220A4B98477B683F
S11315E0094A9A617B6800229A627B680022DA6267
S11315F07B6800221A637B6800225A63BD4602B0EE
S113160080BDC0467B8F0000A086010080B582B0FB
S113161000AF78607B680A221A707B6800225A70D7
S11316207B6800229A70BD4602B080BD80B584B04C
S113163000AF786039603B681A787B681A703B6841
S11316405A787B685A703B689A787B689A700C2346
S1131650FB18181C0B4B98470C23FB1801221A701B
S11316607B681A780C23FB18101C191C064B98472E
S11316707B681B78181C0121044B9847BD4604B0B5
S113168080BDC04659140000D5440000BD140000BC
S113169080B584B000AF78607B681B68FB60C0468F
S11316A07B68181C064B9847031EF9D1FB681B681E
S11316B002221A43FB681A60BD4604B080BDC046CE
S11316C06915000080B582B000AF3B1D181C064BA5
S11316D098473B1D00221A703B1D0320191C034B25
S11316E09847BD4602B080BD59140000D54400009F
S11316F080B584B000AF3B1D181C0B4B98473B1DB5
S113170003221A603B1D00225A603B1D01221A72FB
S11317103B1D0122DA723B1D0320191C034B984721
S1131720BD4604B080BDC0467D430000B143000007
S113173080B500AF054B181C03210022044B9847C9
S113174003200021034B9847BD4680BD8D22000035
S1131750853F0000E93F000080B590B000AF3B1D1D
S1131760181C224B98473B1D12221A70204A3B1D1D
S1131770101C191C1F4B98470823FB18181C1E4BE0
S113178098470823FB18C0229203DA600823FB1849
S11317901A4A9A620823FB18194ADA620823FB18CA
S11317A0012252421A630823FB18164A5A6308237B
S11317B0FB1800225A600823FB1800229A60124A80
S11317C012490823FB18101C1A1C114B98470E4B86
S11317D0181C104B98470C4A054B101C191C00226E
S11317E00D4B9847BD4610B080BDC0460D16000095
S11317F0E80200202D1600008915000002001000E8
S11318000200110002001300D8020020000C004264
S1131810A510000091160000E512000080B584B008
S113182000AF3B1C181C0F4B98473B1C00221A802E
S11318303B1C00229A703B1C01221A710A4A0B4974
S11318403B1C101C1A1C0A4B9847074B181C094BCD
S11318509847054B084A181C111C084B9847BD466D
S113186004B080BD0D1500003C02002000140040AF
S11318709D030000B1010000102700008105000055
S113188080B500AF054B181C0021054B9847034B4E
S1131890181C044B9847BD4680BDC0463C0200203E
S11318A02D040000B101000080B582B000AF002318
S11318B07B60054B181C054B9847031C7B607B68B9
S11318C0181CBD4602B080BD3C0200208D040000FF
S11318D090B585B000AF041C3960101C191CFB1DA9
S11318E0221C1A70BB1D021C1A707B1D0A1C1A7064
S11318F00120504B9847C04627204F4B9847031C64
S1131900DBB25BB2002BF7DA252000214B4B984762
S1131910BB1D1B783D2B02D9BB1D3D221A700E2323
S1131920FB1800221A702023FB181B78002B04D00C
S11319300E23FB1880221A7007E07B1D1B78002BF6
S113194003D00E23FB1840221A703D4B98473D4AA2
S11319503D4B101C80211A1C3C4B9847BB1D1B7827
S11319609BB203339AB23749374B081C111C1A1C1B
S1131970364B9847FB1D1B789AB23249324B081CF0
S1131980111C1A1C314B9847314B1B78DBB29AB2AD
S11319902C492D4B081C111C1A1C2C4B98470E2348
S11319A0FB181B78DBB29AB22649274B081C111C82
S11319B01A1C264B98470F23FB1800221A7014E0B8
S11319C00F23FB181B783A68D3181B789AB21D4969
S11319D01D4B081C111C1A1C1C4B98470F23FB1889
S11319E01A780F23FB1801321A700F23FA18BB1D43
S11319F012781B789A42E3D3164B984704200D4B78
S1131A009847154B9847C0460320144B9847031C2E
S1131A101A1C01235340DBB2002B05D0104B98470E
S1131A20021E104B9A42EFD90120024B9847BD4643
S1131A3005B090BD891E000089240000F524000033
S1131A4059250000D8020020FE000020AD1100003E
S1131A50460200207D250000811800007914000052
S1131A60A9180000E703000080B582B000AF021C93
S1131A70FB1D1A701A4BFA1D12781A70184B1B783A
S1131A80DBB2002B01D00F2300E01A231320191C12
S1131A90144B9847124B1B78DBB2002B12D0112049
S1131AA0114B9847031CDBB21A1C1F231340DBB2F3
S1131AB01A1C60231343DBB2DBB21120191C094B3F
S1131AC0984709E0094B1B78802252421343DBB24A
S1131AD01120191C034B9847BD4602B080BDC04677
S1131AE0D4020020F52400008924000044020020D0
S1131AF080B500AF064B01221A80064B00221A70F3
S1131B00054B1F221A70054B00221A70BD4680BD7A
S1131B10D20200204C02002044020020D402002003
S1131B2090B591B000AF041C081C111CFB1D221CB5
S1131B301A70BB1D021C1A707B1D0A1C1A70C24B42
S1131B4098471023FB1801221A701023FB18042253
S1131B505A701023FB1802229A701023FB180022DB
S1131B60DA701023FB1803221A711023FB180222C7
S1131B705A711023FB1804229A711023FB18402277
S1131B80DA711023FB1805221A721023FB180322A2
S1131B905A721023FB1806229A721023FB18332260
S1131BA0DA721023FB1807221A73FB1D1B781F2BF4
S1131BB00DD0FB1D1B782B2B07D0FB1D1B78562B40
S1131BC001D1D92304E0E42302E06C2300E04E2396
S1131BD01022BA1853731023FB1808229A73FB1DA2
S1131BE01B781F2B0DD0FB1D1B782B2B07D0FB1D47
S1131BF01B78562B01D1002304E0C02302E04023CC
S1131C0000E0C0231022BA18D3731023FB18092252
S1131C101A741023FB1800225A741023FB1819227B
S1131C209A741023FB184222DA741023FB1825221D
S1131C301A751023FB1840225A751023FB1826220C
S1131C409A751023FB180722DA751023FB18282233
S1131C501A761023FB1810225A761023FB18292217
S1131C609A761023FB18DC22DA761023FB182E2236
S1131C701A771023FB1888225A771023FB182F2277
S1131C809A771023FB182D22DA771023FB182022D1
S1131C90302199541023FB187A1D212112785A54AB
S1131CA01023FB182222372199541023FB182322D6
S1131CB0902199541023FB1824223821995410237D
S1131CC0FB182522422199541023FB1826223C217B
S1131CD099541023FB1827228F2199541023FB18A1
S1131CE028223D2199541023FB18292212219954AA
S1131CF01023FB182A226F2199541023FB182B223E
S1131D00302199541023FB182C22FF2199541023BD
S1131D10FB182D22002199544C4B98474C4B984763
S1131D204C4B98474C4B98474C4B98470F23FB1808
S1131D3032221A702F20AA21494B98472F20494B51
S1131D409847031EAA2B08D0474B9847021C0F2321
S1131D50FB181B78DBB29A42ECD3404B98472F20F8
S1131D6055213F4B98472F203E4B9847031E552B38
S1131D7008D03D4B9847021C0F23FB181B78DBB29D
S1131D809A42ECD33F23FB1800221A701AE03F2337
S1131D90FB181A781023FB185200D15C3F23FB1860
S1131DA01B781022BA185B00D31801331B78081C67
S1131DB0191C2B4B98473F23FB181A783F23FB1819
S1131DC001321A703F23FB181A781023FB185200B3
S1131DD0D35CFF2BDBD10020244B9847244B1B788A
S1131DE0DBB2181C234B98470120234B98471B4B0D
S1131DF09847C04627201B4B9847031CDBB25BB2B5
S1131E00002B08DB184B9847021C0F23FB181B7888
S1131E10DBB29A42EED3144B9847021C0F23FB18F3
S1131E201B78DBB29A4201D3002309E0134B002252
S1131E301A70134B9847134BBA1D12781A7001236A
S1131E40181CBD4611B090BDF11A000059170000CE
S1131E501D180000C5160000F116000081180000CE
S1131E60F524000089240000A9180000892300003B
S1131E70D4020020691A0000891E000045020020D7
S1131E80311700004602002080B582B000AF021C6A
S1131E90FB1D1A70FB1D1B789AB24C4B1B889BB21E
S1131EA09A4200D18EE0FB1D1B78042B00D988E0F8
S1131EB09A00474BD3181B689F460120454B98470F
S1131EC0031CDBB21A1C1C239A43131CDBB21A1C1E
S1131ED00C231343DBB2DBB20120191C3E4B9847A1
S1131EE03E4B1B78DBB2002B03D001203C4B9847C0
S1131EF053E052E00120374B9847031CDBB21A1C15
S1131F001C239A43131CDBB21A1C10231343DBB2A9
S1131F10DBB20120191C304B9847304B1B78DBB2E5
S1131F20002B03D000202E4B984736E035E00120EB
S1131F30284B9847031CDBB21A1C1C239A43131C1E
S1131F40DBB21A1C08231343DBB2DBB20120191CD9
S1131F50214B984721E001201E4B9847031CDBB21C
S1131F601A1C1C239A43131CDBB21A1C04231343AC
S1131F70DBB2DBB20120191C174B98470DE001209E
S1131F80144B9847031C1A1C1C239A43131CDBB2E2
S1131F900120191C104B9847C046C0460B4B1B88A8
S1131FA09BB2002B07D127200A4B9847031CDBB2B6
S1131FB05BB2002BF2DAFB1D1B789AB2034B1A803A
S1131FC000E0C046BD4602B080BDC046D20200203B
S1131FD0A48F000089240000F5240000D40200200E
S1131FE0A925000080B500AF0B4B1B889BB2032BC7
S1131FF00ED10A4B1B889BB2002B09D1084B984782
S1132000031C5A3304DA0120064B9847012300E0ED
S11320100023181CBD4680BDD2020020CC02002043
S113202045240000891E000090B585B002AF041C51
S11320303960101C191CFB1D221C1A70BB1D021CCC
S11320401A707B1D0A1C1A703D20174B9847031CFD
S11320501A1C04231343DBB23D20191C134B98476D
S1132060134B984701E0134B9847134B9847031CB5
S11320701A1C01235340DBB2002B05D00F4B9847A9
S1132080021E0F4B9A42EED9FB1D18783968BB1D0E
S11320901A787B1D1C7800230093231C094CA0474D
S11320A0BD4603B090BDC04689240000F52400005D
S11320B0811800003D230000E51F0000A91800005E
S11320C0E7030000D118000080B582B000AF5B4B7D
S11320D01B889BB2032B00D0A7E02820584B9847BD
S11320E0031C1A1C0423134000D19EE00120554B0D
S11320F09847554B9847554A554B101C00211A1CBC
S1132100544B9847514A544B101C00211A1C514BF4
S11321109847514B1B889BB2422B03D84E4B1B88CC
S11321209AB200E042224C4B1A80484A4B4B101C96
S113213000211A1C474B9847494B1B78DBB20122FC
S11321405340DBB2002B0DD0464B1B78DBB29AB266
S1132150424B1B889BB29A4204D0404B1B889BB2D3
S1132160FF2B04D13C4B1B889BB2022B07D83A4B64
S113217000221A803C4B98473C4B98475BE0364B17
S11321801B889BB2033B9AB2394B1A802F4A394BB6
S1132190101C00211A1C2F4B9847BB1D00221A70DB
S11321A02A4ABB1D101C00211A1C2A4B9847BB1D30
S11321B01B789BB2802213409AB22F4B1A80BB1D0E
S11321C01B789BB2402213409AB22C4B1A80FB1D01
S11321D000221A700FE0FB1D1B785A00284BD318FD
S11321E01A4A101C00211A1C1A4B9847FB1D1A7816
S11321F0FB1D01321A70FB1D1B789AB21C4B1B8805
S11322009BB29A42E7D31A4B1B889BB23C2B07D84C
S1132210174B1B889BB21A1C194B52000021D15238
S1132220114B98470320074B9847164B9847031CBC
S11322301A1C154B1A80BD4602B080BDD202002084
S113224089240000891E000059250000D8020020BE
S1132250FE000020AD110000CC020020D0020020BE
S11322604C020020460200207D250000AD22000023
S11322704A0200203A02002048020020CE02002038
S11322805002002045240000E402002080B500AF85
S1132290044B01221A70044B9847024B00221A7017
S11322A0BD4680BD45020020C920000080B500AFB6
S11322B0184B00221A80184B00221A80174B002258
S11322C01A80174B00221A80164B00221A80164BD4
S11322D000221A80154B00221A802820144B98479C
S11322E0031C1A1C042313400BD03D20104B9847A9
S11322F0031C1A1C04231343DBB23D20191C0D4B91
S11323009847252040210B4B984703200A4B9847B8
S1132310BD4680BD4A0200203A020020D0020020BF
S1132320CC020020CE02002048020020E40200205B
S113233089240000F5240000891E000080B500AF48
S11323400D4B1B889BB2032B09D10C4B1B889BB2F2
S1132350002B04D001200A4B9847012309E0064BC7
S11323601B889BB2032B01D1002302E0054B984745
S11323700023181CBD4680BDD2020020CC020020E0
S1132380891E0000AD22000080B584B000AF7860E3
S11323900120244B98477B68002B29D0224B984777
S11323A0224A234B101CBE211A1C224B98470F2390
S11323B0FB1800221A7014E00F23FB181B787A68AC
S11323C0D3181B789AB21949194B081C111C1A1CF2
S11323D0184B98470F23FB181A780F23FB18013268
S11323E01A700F23FB181B780F2BE5D9124B984753
S11323F03D20124B9847031CDBB21A1C01239A435D
S1132400131CDAB27B68591E8B41DBB2DBB2134377
S1132410DBB2DBB23D20191C094B9847BD4604B022
S113242080BDC046891E000059250000D802002046
S1132430FE000020AD1100007D250000892400006D
S1132440F524000080B582B000AFBB1D00221A80C5
S113245024200C4B9847031C9BB25B429BB29AB25C
S1132460BB1D1A80BB1D1B889BB21BB25B109AB2AA
S1132470BB1D1A80BB1D1B889BB21BB2181CBD461A
S113248002B080BD8924000080B584B000AF021C76
S1132490BB1D1A80124B9847BB1D1B889BB27F2221
S11324A013409AB20F49104B081C111C1A1C0F4BF5
S11324B098470E23FB1800221A800A4A0E23FB18A1
S11324C0101C00211A1C094B9847094B98470E23EE
S11324D0FB181B889BB2DBB2181CBD4604B080BD40
S11324E059250000D8020020FE000020AD11000094
S11324F07D25000080B582B000AF021CFB1D1A7060
S1132500BB1D0A1C1A700F4B9847FB1D1B788022B9
S113251052421343DBB29AB20B490C4B081C111CF8
S11325201A1C0B4B9847BB1D1B789AB20649074BE4
S1132530081C111C1A1C064B9847064B9847BD46AD
S113254002B080BD59250000D8020020FE00002002
S1132550AD1100007D25000080B500AF044A054B95
S1132560101C191C0122044B9847BD4680BDC0466F
S1132570D8020020E8020020E512000080B500AF78
S1132580054A064B101C191C0022054B9847054BA5
S11325909847BD4680BDC046D8020020E80200200E
S11325A0E5120000ED25000080B582B000AF021CEA
S11325B0FB1D1A70FB1D1B78002B01D05D2300E06E
S11325C055235A20191C084B9847FB1D1B78002BD8
S11325D001D07C2300E070235C20191C024B984737
S11325E0BD4602B080BDC046F524000080B500AFF2
S11325F0BD4680BD80B584B000AF021CFB1D1A70BF
S11326000F23FB18FA1D1278D2091A700E23FB1837
S1132610FA1D127852091A700D4BBB600F23FB1878
S11326201B78002B0FD10F23FB181B789B00102263
S11326309446BC446344083B1A680E23FB181B7879
S1132640DB01D31800E00023181CBD4604B080BD94
S11326500044004180B582B000AF021CFB1D1A701B
S1132660FB1D1B78181C034B9847031C181CBD4604
S113267002B080BDF525000080B584B000AF021C17
S1132680FB1D1A70BB1D0A1C1A70FB1D1B78181C3D
S11326900C4B9847031CFB60FB1D1B781F22134047
S11326A001229A40131CBB60BB1D1B78002B03D076
S11326B0FB68BA689A6102E0FB68BA685A61BD4671
S11326C004B080BD5526000080B500AF5B20022118
S11326D00022054B98470120044B9847044B181CD3
S11326E0044B9847BD4680BD211B0000691A0000B9
S11326F0B88F00008923000080B500AF11200121AC
S1132700024B9847024B9847BD4680BD792600008E
S1132710C926000080B500AF11200121014B984764
S1132720BD4680BD7926000080B500AF0F20002192
S1132730014B9847BD4680BDE93F000080B500AF1E
S11327400F200021014B9847BD4680BD3140000059
S113275080B500AF11200021014B9847BD4680BDD4
S113276079260000F0B5474680B48AB004AF021C55
S1132770BB1D1A80BB1D1A88B94B101CFA2291008C
S113278098470B1C9BB2002B03D111200021B54BA1
S11327909847BB1D1A88B24B101CFA229100984727
S11327A00B1C9AB2FA235B009A4203D11120012137
S11327B0AC4B9847AC4B1B780133DAB2AA4B1A7076
S11327C0A94B1B78042B00D8E2E1A74B00221A7016
S11327D0A64B9847031E00D1A7E1A54B1B889BB2CB
S11327E0012B00D01AE1A34B1A88A34B1A80A34BE8
S11327F01A88A34B1A80A34B00221A60A24B002212
S11328001A6000237B6172E0A04B7A695200D35AAC
S11328109BB29B099BB2012B1DD002DC002B05D07F
S113282062E0022B31D0032B44D05DE0954B1B6852
S11328309A1C944B1A60954B7A695200D35A9BB2F6
S11328401A1C3F231A40924B1A60914B1B689AB290
S1132850884B1A8048E08B4B1B68DA1C894B1A6042
S11328608A4B7A695200D35A9BB21A1C3F231A40EE
S1132870874B1A60864B1B689B019AB27D4B1B8861
S113288013439AB27B4B1A802EE07F4B1B689A1C31
S11328907D4B1A607D4B7A695200D35A9BB21A1C45
S11328A03F231A407A4B1A60794B1B689AB2734BD8
S11328B01A8019E0744B1B68DA1C734B1A60734B53
S11328C07A695200D35A9BB21A1C3F231A40704BA8
S11328D01A606F4B1B689B019AB2684B1B881343A9
S11328E09AB2664B1A80C0467B6901337B61694B9F
S11328F01B889BB21A1E7B699A4200DD84E7614BF8
S11329001B68052B03D1604B1B68052B08D05A4B61
S11329101A88584B1A805A4B1A88584B1A806FE001
S11329205D4B1A685D4B1B68D21A5B4B1A605C4B9B
S11329301A685C4B1B68D21A594B1A6000233B611E
S113294014E03B695A1C574B9200D158554B3A69D5
S11329509200D1503B695A1C504B9200D1584F4BB6
S11329603A699200D1503B6901333B613B69032BC7
S1132970E7DD404B1B881AB2474B1B68D218464B05
S11329801A603E4B1B881AB2454B1B68D218444B45
S11329901A603A4B1B881AB2424B1A61354B1B889A
S11329A01AB23E4B1A613C4B1A683F4B101C05216E
S11329B09847031C9AB22F4B1A80394B1A683A4B2A
S11329C0101C05219847031C9AB22C4B1A80294BE2
S11329D01B889BB21A1C131CDB189B181A1C1101B0
S11329E01A1C0B1CD3189BB29AB2224B1A80234B8D
S11329F01B889BB2442253439BB29AB21F4B1A804A
S1132A002A4B42221A702A4B1B68DBB2274A032046
S1132A10111C1A1C0023274CA04786E0144B1B886A
S1132A209BB2032B00D080E00023FB6075E0FB68C1
S1132A30012B0CD0022B43D0002B6BD1134BFA6823
S1132A405200D35A9BB21A1C1B4B1A6062E00F4B04
S1132A50FA685200D35A9BB21A1C184B1A6059E0F8
S1132A60E58C0000792600003E0100203D23000093
S1132A703A020020400100204201002044010020CD
S1132A8046010020480100204C0100205002002093
S1132A90500100204A020020540100205801002067
S1132AA06C01002070010020D98B0000000100207F
S1132AB0000000202920000084010020880100205B
S1132AC0364BFA685200D35A9BB2DAB2344B1A70BE
S1132AD0334B1B781A1C08231340DB105A1E9341F6
S1132AE0DAB2304B1A702E4B1B781A1C0223134097
S1132AF05B105A1E9341DAB22B4B1A70284B1B7889
S1132B001A1C042313409B105A1E9341DAB2274B1C
S1132B101A70C046FB680133FB60254B1B889BB2CF
S1132B201A1EFB689A4200DD81E7224B1B8898B28B
S1132B30214B1B889EB2214B1B689DB2204B1B6806
S1132B409CB2174B1B781A1C08231340DB105A1E27
S1132B509341D9B2124B1B781A1C022313405B1009
S1132B605A1E9341DBB298460D4B1B789C460423B6
S1132B7062461A40131C9B105A1E9341DBB200910B
S1132B80424601920293311C2A1C231C0D4CA0477F
S1132B90BD4606B004BC9046F0BDC04650020020BD
S1132BA08C0100208D0100208E0100208F01002067
S1132BB04A0200204001002044010020840100203A
S1132BC088010020E52C000080B582B000AFEFF34F
S1132BD010833B603B685A425341DBB27B6072B660
S1132BE0BFF35F8F034B00221A707B68181CBD462D
S1132BF002B080BDDC00002080B582B000AF7860F8
S1132C007B685A1E9341DBB2181CBD4602B080BDDE
S1132C1080B582B000AF78607B68181C064B98477B
S1132C20031E05D0054B01221A70BFF35F8F62B6F5
S1132C30BD4602B080BDC046F92B0000DC00002078
S1132C4080B500AF0B4B00221A700B4B00221A7098
S1132C500A4B00221A700A4B181C00210722094B48
S1132C609847094B00221A70084B9847031C181CFC
S1132C70BD4680BD90010020940100209F010020EA
S1132C80980100207B8F000095010020AD8B00008F
S1132C9080B500AF014B9847BD4680BDC58B000091
S1132CA098B500AF04480549054A064B064CA047B1
S1132CB0031C181CBD4698BD9001002094010020FF
S1132CC018000020D92C0000C52E000080B500AFEC
S1132CD00023181CBD4680BD80B500AF0023181C1E
S1132CE0BD4680BDB0B584B000AF051C0C1C101CE3
S1132CF0191CBB1D2A1C1A803B1D221C1A80BB1CDC
S1132D00021C1A803B1C0A1C1A803C4B9847031C6B
S1132D10FB60BB1D1B88DAB2394B5A70BB1D1A8885
S1132D20FE23DB0113401B12DAB2354B9A703B1DB4
S1132D301B88DAB2324BDA703B1D1A88FE23DB01A2
S1132D4013401B12DAB22E4B1A71BB1C1B88DAB269
S1132D502B4B5A71BB1C1A88FE23DB0113401B1238
S1132D60DAB2274B9A712023FB181B78002B07D06B
S1132D70234B1B7801221343DAB2214B1A7006E06D
S1132D801F4B1B7801229343DAB21D4B1A70282380
S1132D90FB181B78002B07D0194B1B780222134316
S1132DA0DAB2174B1A7006E0154B1B7802229343D4
S1132DB0DAB2134B1A702423FB181B78002B07D0AC
S1132DC00F4B1B7804221343DAB20D4B1A7006E042
S1132DD00B4B1B7804229343DAB2094B1A70094B4C
S1132DE001221A70084B9847FB68181C074B984738
S1132DF00123181CBD4604B0B0BDC046C92B000059
S1132E009801002095010020112E0000112C0000D3
S1132E1090B583B002AF144B1B78002B01D0002374
S1132E201EE0124B124A11681960918899809279B8
S1132E309A71104B181C002103220F4B98470F4B1B
S1132E4000221A70094A0E4B0093812000210723A7
S1132E500C4CA047031C1A1C034B1A70024B1B7822
S1132E60181CBD4601B090BD9F010020A0010020A8
S1132E7098010020990100207B8F0000950100201B
S1132E80892E00006D5E000080B582B000AF39600D
S1132E90111CFB1D021C1A70BB1D0A1C1A70064B68
S1132EA000221A70054B1B78002B01D0044B984765
S1132EB0BD4602B080BDC0469F01002095010020A0
S1132EC0112E000080B584B000AFF860B9607A605C
S1132ED03B60364B1B78DBB25BB2002B32DA334BF0
S1132EE01B781A1C6023134009D1304B5B78062BE6
S1132EF005D17B68181C2E4B9847031C52E02B4BC2
S1132F001B781A1C60231340202B1BD1274B5B78A2
S1132F10022B07D0032B0DD0012B13D13B6898470C
S1132F20031C3FE0214BFA689A60204B01229A81EE
S1132F30012337E01D4BBA689A601C4B01229A8129
S1132F4001232FE0194B1B78DBB25BB2002B28DB8B
S1132F50164B1B781A1C60231340202B21D1134BD2
S1132F605B780A2B07D00B2B0ED0092B19D13B68A9
S1132F709847031C16E00D4B5B881B0A9BB2DAB220
S1132F80FB681A7001230DE0084BDB88002B01D08D
S1132F90002307E0054B5B88DAB2BB681A70012393
S1132FA000E00023181CBD4604B080BDDC040020F2
S1132FB0B52F000080B584B000AF7860254B9847EA
S1132FC0031C0933FB60FB685B78212B01D00023D1
S1132FD03BE0214B5B881B0A9BB2DBB2212B13D154
S1132FE01D4BFA689A60FB681B789AB21A4BDB880F
S1132FF0181C111C8AB283B29A4200D9011C8AB2ED
S1133000154B9A81012320E0FB689A79124B5B8867
S11330101B0A9BB2DBB29A4216D10F4B7A689A60B4
S1133020FB68DA791B7A1B0213439AB20A4BDB88DA
S1133030181C111C8AB283B29A4200D9011C8AB2AC
S1133040054B9A81012300E00023181CBD4604B0FF
S113305080BDC0465D300000DC04002080B500AFB8
S1133060024B1B68181CBD4680BDC046B801002039
S113307080B500AF074B1B681A68064B1B681B68BA
S11330809978DB781B020B439BB2D318181CBD46FE
S113309080BDC046B401002080B584B000AF786024
S11330A00A1CFB1C1A70134B9847031CFB607B68BB
S11330B01B781A1C7B689B187B6012E07B685B782A
S11330C0042B00D111E07B685B78FA1C12789A42D9
S11330D001D17B680AE07B681B781A1C7B689B180B
S11330E07B60FA687B689A42E8D80023181CBD46C6
S11330F004B080BD7130000080B584B000AF021C04
S1133100FB1D1A70BB1D0A1C1A70204B1B78002B68
S113311001D1002336E01E4B1B681B681B79FA1D86
S113312012789A4201D300232CE0194B1B681A68C9
S1133130184B1A60184B9847031CFB601CE0154B96
S11331401B685B78042B0FD1124B1B689B78FA1D0C
S113315012789A4208D10F4B1B68DB78BA1D12789B
S11331609A4201D101230DE00A4B1A68094B1B68EE
S11331701B78D218074B1A60064B1B68FA689A42F0
S1133180DDD80023181CBD4604B080BDB00100206A
S1133190B4010020B80100207130000080B584B073
S11331A000AF021CFB1D1A70FB1D1B78181C0021AC
S11331B0224B9847031C1A1C01235340DBB2002BFB
S11331C001D0002335E01E4B1B685A68FB1D1B7899
S11331D09B00D3181B68BB60BB68DB689847031C63
S11331E01A1CFB1D1B78181C111C144B9847031C3C
S11331F01A1C01235340DBB2002B01D0002318E03A
S1133200104B1B68FB60FB68181C05210E4B98478C
S1133210031CFB60FB68002B05D1C046BB685B68E0
S11332209847012305E0FB689B78181C074B9847D7
S1133230E9E7181CBD4604B080BDC046F930000063
S1133240B4010020B801002099300000FD5A0000AC
S113325080B584B000AF021CFB1D1A70BB1D0A1C94
S11332601A70FB1D1A78BB1D1B78101C191C204BEF
S11332709847031C1A1C01235340DBB2002B01D0D6
S1133280002330E01B4B1B68FB60FB68181C052106
S1133290194B9847031CFB60FB68002B0CD1C046FC
S11332A0164B1B685A68FB1D1B789B00D3181B68C0
S11332B01B689847031C16E0FB689878FB68D9786C
S11332C0FB681A795B791B0213439BB21A1C0C4BE3
S11332D09847031C1A1C01235340DBB2002B01D076
S11332E0002300E0D1E7181CBD4604B080BDC046F1
S11332F0F9300000B801002099300000B40100202A
S11333008D5B000080B500AF014B9847BD4680BD82
S1133310956A000080B582B000AF164B1B78002B75
S113332015D0FB1D00221A7009E0FB1D1B78181C28
S1133330114B9847FB1D1A78FB1D01321A700F4B75
S11333401B681B681B79FA1D12789A42EDD3094B4E
S113335000221A700A4B1B88022213409BB2002BD6
S113336001D0084B9847064B00221A80BD4602B094
S113337080BDC046B00100209D310000B401002092
S1133380A80100206D8B000080B582B000AF164B01
S11333901B78002B25D0FB1D00221A7019E0134B5B
S11333A01B685A68FB1D1B789B00D3181B681B699C
S11333B0002B09D00D4B1B685A68FB1D1B789B0022
S11333C0D3181B681B699847FB1D1A78FB1D013233
S11333D01A70064B1B681B681B79FA1D12789A42F7
S11333E0DDD3BD4602B080BDB0010020B401002091
S11333F080B500AF074BDB88022B01D0002305E02A
S1133400054B181C0221054B98470123181CBD4687
S113341080BDC046DC040020A8010020A961000092
S113342080B500AF0C4BDB88022B01D000230FE0EA
S1133430094B9B88DBB2181C084B9847031C9AB2B3
S1133440074B1A80064B181C0221064B9847012390
S1133450181CBD4680BDC046DC0400203D5D000054
S1133460BC010020A961000080B500AF0C4BDB88D3
S1133470002B01D000230FE0094B5B88012B0AD1FC
S1133480084B1B88022293439AB2064B1A80064BC0
S11334909847012300E00023181CBD4680BDC046A8
S11334A0DC040020A80100206D8B000080B500AF73
S11334B00A4BDB88002B01D000230CE0074B5B8810
S11334C0002B07D1054B9B88DBB2181C044B984793
S11334D0031C00E00023181CBD4680BDDC04002052
S11334E0C15D000080B500AF0C4BDB88002B01D020
S11334F0002310E0094B5B88012B02D0C046002357
S113350009E0074B1B88022213439AB2044B1A802A
S1133510044B98470123181CBD4680BDDC040020E1
S1133520A80100205D8B000080B500AF0D4BDB8847
S1133530002B01D0002312E00A4B5B88002B0DD135
S1133540084B9B88DBB2181C074B9847054B9B889C
S1133550DBB2181C054B9847031C00E00023181C21
S1133560BD4680BDDC040020715A0000695D000086
S113357080B500AF054B5B88DBB27F221340DBB222
S1133580181C034B9847BD4680BDC046DC04002090
S11335906561000080B500AF064BDB88002B01D0CD
S11335A0002303E0034B044A1A610123181CBD469F
S11335B080BDC046DC0400207135000080B584B0B5
S11335C000AFFB1D00221A702C4B5B881A1CFF23D2
S11335D01340012B09D0022B0DD0002B11D1284B05
S11335E0181C0421274B98470DE0FB1D09221A7073
S11335F0254BBB6007E0FB1D09221A70234BBB60FF
S113360001E0002336E0FB1D1B78002B31D00F2393
S1133610FB1800221A7015E00F23FB181B780F22E9
S1133620BA181278B9688A18127891B2184A5B00ED
S1133630D3180A1C5A800F23FB181A780F23FB187F
S113364001321A700F23FA18FB1D12781B789A4264
S1133650E2D3FB1D1B780133DBB2DB18DAB20C4B6F
S11336601A700B4B1B789BB2094A101C191C054B92
S113367098470123181CBD4604B080BDDC0400201B
S1133680AC000020A9610000B0000020BC000020B4
S1133690C800002080B582B000AF3A4B5A88FB1DA9
S11336A01A70384B5B881B0A9BB2DBB2022B13D017
S11336B002DC012B05D054E0032B46D00F2B30D075
S11336C04FE0314B1A68304B1B681B789BB2101CBF
S11336D0191C2E4B984746E02B4B1B685B7CFA1D4C
S11336E012789A4201D3002348E0274B5A68FB1D05
S11336F01B78DB00D3181968234B5A68FB1D1B7811
S1133700DB00D3181B689A78DB781B0213439BB247
S1133710081C191C1D4B98471A4B9B6802225A70AF
S113372021E0194B9B68002B01D1002326E0164BA6
S11337309968154B9B689A78DB781B0213439BB2FC
S1133740081C191C114B98470DE0114B9847031C9A
S11337501A1C01235340DBB2002B01D000230DE0DF
S113376001E000230AE0074BDA88064B9B899A4262
S113377003D2044BDA88034B9A810123181CBD46FB
S113378002B080BDDC040020A0000020A96100007C
S1133790BD35000080B500AF074BDB88012B01D09D
S11337A0002305E0054B181C0121054B9847012314
S11337B0181CBD4680BDC046DC040020B0010020BA
S11337C0A961000080B582B000AF2A4BDB88002BD2
S11337D001D000234AE0284B9847031E01D100235F
S11337E044E0244B5B881A1CFF231A40234B1B68BC
S11337F05B7C9A4201DD002338E0214B98471D4B46
S11338005B88DAB21F4B1A701E4B1B78002B01D158
S113381001232BE0194B5A681A4B1B781A498C4622
S11338206344DB00D218194B1A60FB1D00221A7086
S113383013E0FB1D1B78181C0021154B9847031C33
S11338401A1C01235340DBB2002B01D000230DE0EE
S1133850FB1D1A78FB1D01321A700C4B1B681B6888
S11338601B79FA1D12789A42E3D30123181CBD4632
S113387002B080BDDC0400208D610000A0000020A7
S113388015330000B0010020FFFFFF1FB40100202A
S11338905132000080B582B000AF214BDB88012B90
S11338A001D0002338E01F4B1B78002B01D10023EB
S11338B032E01B4B9A88FB1D1A701B4B1B681B685C
S11338C01B79FA1D12789A4201D3002324E0FB1DD0
S11338D01B78181C0021154B9847031C1A1C012344
S11338E05340DBB2002B01D0002315E00E4B1B68C4
S11338F05A68FB1D1B789B00D3181B683B603B6810
S1133900DB689847031C1A1C094B1A70084B181CD7
S11339100121084B98470123181CBD4602B080BD05
S1133920DC040020B0010020B4010020F9300000C4
S1133930AC010020A961000080B582B000AF174B34
S1133940DB88002B01D0002324E0154B1B78002BCF
S113395001D100231EE0114B9A88FB1D1A700F4BF6
S11339605A88BB1D1A70FB1D1B78181C0D4B9847F9
S1133970031C1A1C01235340DBB2002B01D000238B
S113398008E0FB1D1A78BB1D1B78101C191C064B84
S11339909847031C181CBD4602B080BDDC040020FF
S11339A0B00100209D3100005132000080B500AF0D
S11339B0484B1B78DBB25BB2002B41DA454BDB880A
S11339C0002B01D1002382E0424B1B781A1C1F23D9
S11339D0134014D13F4B5B78062B08D0082B0AD038
S11339E0002B00D00BE03C4B9847031C6FE03B4B93
S11339F09847031C6BE03A4B9847031C67E0354B30
S1133A001B781A1C1F231340012B08D1314B5B7800
S1133A100A2B00D003E0334B9847031C57E02D4B8F
S1133A201B781A1C1F231340022B4FD1294B5B78A0
S1133A30002B01D0C04649E02B4B9847031C46E0BD
S1133A40244B1B781A1C1F23134019D1214B5B787C
S1133A50092B14D89A00254BD3181B689F46244B76
S1133A609847031C33E0234B9847031C2FE0224B59
S1133A709847031C2BE0214B9847031C27E0C046C2
S1133A80144B1B781A1C1F231340012B08D1114B14
S1133A905B780B2B00D003E0194B9847031C16E00E
S1133AA00C4B1B781A1C1F231340022B0ED1094BFD
S1133AB05B78012B02D0032B04D007E0114B98470D
S1133AC0031C04E0104B9847031C00E00023181C5F
S1133AD0BD4680BDDC040020F133000095360000B3
S1133AE0953700009538000021340000CC8F000089
S1133AF09535000069340000E5340000C537000046
S1133B0039390000AD3400002935000080B582B099
S1133B1000AF244B1B78002B01D100233DE0224B46
S1133B209A88FB1D1A70214B1B681B681B79FA1DB0
S1133B3012789A4201D300232FE0FB1D1B78181C36
S1133B4000211B4B9847031C1A1C01235340DBB272
S1133B50002B01D0002320E0144B1B685A68FB1D86
S1133B601B789B00D3181B683B603B68DB68984755
S1133B70031C1A1CFB1D1B78181C111C0C4B9847AA
S1133B80031C1A1C01235340DBB2002B01D0002379
S1133B9003E03B689B689847031C181CBD4602B0B1
S1133BA080BDC046B0010020DC040020B401002028
S1133BB0F930000080B582B000AF224B1B78002B97
S1133BC001D1002339E0204B9A88FB1D1A70FB1D9C
S1133BD000221A7028E01D4B1B685A68FB1D1B78D5
S1133BE09B00D3181B683B603B68DB689847031C49
S1133BF01A1CFB1D1B78181C111C154B9847031C21
S1133C001A1C01235340DBB2002B01D0002314E023
S1133C103B689B689847031E01D001230DE0FB1D00
S1133C201A78FB1D01321A70084B1B681B681B793C
S1133C30FA1D12789A42CED30023181CBD4602B056
S1133C4080BDC046B0010020DC040020B401002087
S1133C50F930000080B500AF1F4B00229A811E4B43
S1133C6000221A611C4B00225A611B4B1B78DBB2E9
S1133C705BB2002B05DA184BDB88002B01D1002343
S1133C8026E0154B1B781A1C6023134005D1134BF7
S1133C909847031E01D001231AE00F4B1B781A1C0E
S1133CA01F231340012B05D10D4B9847031E01D050
S1133CB001230DE0084B1B781A1C1F231340022B11
S1133CC005D1084B9847031E01D0012300E00023CF
S1133CD0181CBD4680BDC046DC040020AD39000080
S1133CE00D3B0000B53B000080B582B000AF0F4B28
S1133CF01B68002B12D1EFF310837B607B68002BD1
S1133D0009D172B6BFF35F8F094B00221A70094BB9
S1133D1001221A7002E0074B00221A70034B1B6841
S1133D205A1C024B1A60BD4602B080BDC00100207F
S1133D30DC000020C401002080B500AF0A4B1B68E2
S1133D405A1E094B1A60084B1B68002B0AD1074BFB
S1133D501B78DBB2002B05D0054B01221A70BFF390
S1133D605F8F62B6BD4680BDC0010020C401002043
S1133D70DC00002080B584B000AF021CFB1D1A706B
S1133D800F23FB18FA1D1278D2091A700E23FB18A0
S1133D90FA1D127852091A700D4BBB600F23FB18E1
S1133DA01B78002B0FD10F23FB181B789B001022CC
S1133DB09446BC446344083B1A680E23FB181B78E2
S1133DC0DB01D31800E00023181CBD4604B080BDFD
S1133DD00044004180B582B000AF021CFB1D1A7084
S1133DE0FB1D1B78181C034B9847031C181CBD466D
S1133DF002B080BD753D000080B582B000AF786030
S1133E007B6800221A707B6801225A707B6800224A
S1133E109A70BD4602B080BD80B584B000AF021C6C
S1133E20FB1D1A70BB1D0A1C1A70FB1D1B78181C85
S1133E300C4B9847031CFB60FB1D1B781F2213408F
S1133E4001229A40131CBB60BB1D1B78002B03D0BE
S1133E50FB68BA689A6102E0FB68BA685A61BD46B9
S1133E6004B080BDD53D000080B582B000AF3B1DDD
S1133E70181C0E4B98473B1D01221A703B1D112044
S1133E80191C0B4B9847112001210A4B98473B1DE5
S1133E9000221A703B1D01225A703B1D0F20191C71
S1133EA0034B9847BD4602B080BDC046F93D0000B3
S1133EB0D5440000193E000080B584B000AF021C58
S1133EC0FB1D1A700F23FB18FA1D127852091A7081
S1133ED00F23FB181B78002B0CD1094BBB600F235D
S1133EE0FB181B789B0010229446BC446344083B97
S1133EF01B6800E00023181CBD4604B080BDC0460A
S1133F000018004080B584B000AF021CFB1D1A707D
S1133F10FB1D1B78181C0B4B9847031CFB60FB1DF7
S1133F201B781F22134001229A40131CBB60FB68BC
S1133F301B69BA6813405A1E9341DBB2181CBD4674
S1133F4004B080BDB93E000080B584B000AF021C4F
S1133F50FB1D1A70FB1D1B78181C094B9847031C8A
S1133F60FB60FB1D1B781F22134001229A40131C87
S1133F70BB60FB68BA681A61BD4604B080BDC04628
S1133F80B93E000080B582B000AF7860081C111CF7
S1133F90FB1C021C1A70BB1C0A1C1A70BB1C1B786D
S1133FA0002B01D0172319E0FB1C1A780D4B92004B
S1133FB0D358002B07D1FB1C1A780A4B920079685E
S1133FC0D15000230AE0FB1C1A78064B9200D25809
S1133FD07B689A4201D1002300E01D23181CBD46D2
S1133FE002B080BDF402002080B584B000AF021C92
S1133FF0FB1D1A70BB1D0A1C1A70BB1D1B78002BFD
S11340000ED1FB1D1B78181C084B9847031CFB6042
S1134010FB1D1B7801229A40FB68DA60002300E054
S11340201723181CBD4604B080BDC046B93E00002D
S113403080B584B000AF021CFB1D1A70BB1D0A1CA6
S11340401A70BB1D1B78002B0ED1FB1D1B78181C8E
S1134050084B9847031CFB60FB1D1B7801229A4008
S1134060FB689A60002300E01723181CBD4604B0C7
S113407080BDC046B93E000080B500AF154B00229C
S11340801A7020E0134B1B78181C134B9847031E1F
S113409013D0104B1B78181C104B98470D4B1B78F2
S11340A01A1C0F4B9200D358002B06D0094B1B78D7
S11340B01A1C0B4B9200D3589847064B1B780133BC
S11340C0DAB2044B1A70034B1B780F2BDAD9BD46B6
S11340D080BDC046F1020020053F0000493F0000BA
S11340E0F402002080B582B000AF78607B680022C3
S11340F01A70BD4602B080BD80B582B000AF021C0C
S11341003960FB1D1A70FB1D1B78012B0AD0022B92
S11341100FD0002B14D10E4B0D4A91693A680A4313
S11341209A610FE00A4B0A4AD1693A680A43DA6194
S113413008E0074B064A116A3A680A431A6201E02A
S1134140172300E00023181CBD4602B080BDC04602
S11341500004004080B582B000AF78607B688022A4
S11341601A707B6800225A707B6801229A707B68FF
S11341700022DA70BD4602B080BDC04680B582B070
S113418000AF021CFB1D1A70064BFA1D1278111C9D
S11341901F220A40012191400A1C1A60BD4602B048
S11341A080BDC04600E100E080B584B000AF021CD1
S11341B0FB1D1A700F23FB18FA1D127852091A708E
S11341C00F23FB181B78002B0CD1094BBB600F236A
S11341D0FB181B789B0010229446BC446344083BA4
S11341E01B6800E00023181CBD4604B080BDC04617
S11341F00018004080B582B000AF104B3B60002334
S11342007B6012E07B689B0008229446BC446344B4
S1134210083B1B685B78DBB2DBB25BB2002B01DAD4
S1134220012306E07B6801337B607B68002BE9D0C7
S11342300023181CBD4602B080BDC04600180040D3
S113424080B584B000AF2C4B7B60002040212B4B09
S113425098473B1C181C2A4B98473B1C00221A7099
S11342603B1C0520191C274B98470520264B9847D3
S11342700023FB6018E0FB689B0010229446BC44BA
S113428063440C3B1A68FB689B0010218C46BC44B9
S113429063440C3B1B681B78DBB201210B43DBB28C
S11342A01370FB680133FB60FB68002BE3D0C0464E
S11342B0164B9847031EFBD10B23FB1800221A70E0
S11342C00DE00B23FB181A78114B92000021D150FA
S11342D00B23FB181A780B23FB1801321A700B23DB
S11342E0FB181B780F2BECD904200A4B98470A4B78
S11342F09847BD4604B080BD00180040F940000056
S1134300E5400000854F0000C94F0000F541000062
S1134310F40200207D4100001D43000080B582B0FE
S113432000AF144B3B6000237B6018E07B689B006C
S113433008229446BC446344083B1A687B689B008B
S113434008218C46BC446344083B1B681B78DBB2E1
S113435002210B43DBB213707B6801337B607B6803
S1134360002BE3D0C046044B9847031EFBD1BD4647
S113437002B080BD00180040F541000080B582B055
S113438000AF78607B6800221A607B6800225A6064
S11343907B6801221A727B6801225A727B680022B0
S11343A09A727B680222DA72BD4602B080BDC046B2
S11343B080B586B000AF021C3960FB1D1A7008235B
S11343C0FB18181C364B98473B685B68DAB2082325
S11343D0FB181A700823FB1800225A703B681A7ADB
S11343E00823FB189A703B681B68DAB20823FB1891
S11343F0101C191C2B4B9847FB1D1B78181C2A4BAF
S11344009847031C3B61FB1D1B78072213409B004C
S1134410FB603B68DB7A7B613B689B7A002B03D0B3
S11344207B69082213437B61FB1D1B78DB08DBB22D
S1134430181CFB1D1B78DB08DBB21A1C3B69063217
S11344409200D358FA680F2191400A1CD2431A40B3
S1134450FB68796999400B1C1A43111C3B69821D46
S11344609200D1503B685B7A002B0AD03B695A69B1
S1134470FB1D1B78012199400B1C1A433B695A61AF
S11344800AE03B695B69FA1D1278012191400A1C1C
S1134490D2431A403B695A61BD4606B080BDC0464E
S11344A05541000071520000A941000080B582B05E
S11344B000AF78607B6880221A707B6800225A7093
S11344C07B6801229A707B680022DA70BD4602B0D4
S11344D080BDC04680B584B000AF021C3960FB1DAE
S11344E01A700C23FB18181C0F4B98470C23FB184D
S11344F080221A703B681A780C23FB185A703B68A8
S11345005A780C23FB189A703B689A780C23FB1892
S1134510DA70FB1D1A780C23FB18101C191C034BB2
S11345209847BD4604B080BDAD4400007152000000
S113453080B582B000AF78607B6801225A607B68E6
S113454000225A707B6806221A707B6800221A7255
S11345507B6800225A72BD4602B080BD80B582B02D
S113456000AF78607B6803221A707B6800225A705F
S11345707B6801229A70BD4602B080BD80B582B0CE
S113458000AF78607B6800221A707B6800225A8032
S11345907B6800229A807B6800229A717B680022E3
S11345A0DA717B6801225A707B6807221A727B6871
S11345B03F225A817B6801221A737B680122DA81C7
S11345C07B6806221A82BD4602B080BD80B582B0E7
S11345D000AF021CFB1D1A70034AFB1D1B781372EB
S11345E0BD4602B080BDC0460004004080B582B024
S11345F000AF021CFB1D1A70BB1D0A1C1A70FB1DA8
S11346001B78012B08D0022B0BD0002B0ED10B4AA8
S1134610BB1D1B7853720BE0084ABB1D1B789372B9
S113462006E0064ABB1D1B78D37201E0172300E0A5
S11346300023181CBD4602B080BDC04600040040E3
S113464080B582B000AF021CFB1D1A70084BFA1D26
S113465012780F210A40D2B20F210A405200596841
S11346601E2081430A435A60BD4602B080BDC04645
S11346700040004180B500AFC046034BDB68102208
S11346801340FAD0BD4680BD0008004080B500AF9D
S11346900C4B02229A840C4B98470A4A0B4B9B689A
S11346A0D362084A094B5B689362064B00229A84E2
S11346B0054B9847034A054B1B689BB29384BD4640
S11346C080BDC0460008004075460000C8010020B7
S11346D080B582B000AF021CFB1D1A70FB1D1B7855
S11346E0082B49D89A00274BD3181B689F46264BA2
S11346F01B6942E0254B1B6A1B0A1A1C0323134047
S1134700DBB21A1C224BD34037E080231B0234E077
S113471080231B0231E01C4B5B692EE01A4B1B68A3
S11347200222134001D1002327E01A4B9847164B6D
S11347301B682022134001D0174B1EE0124B1B684C
S11347400422134009D00020144B9847021C0E4B3E
S11347509B681B041B0C53430FE00F4B0DE00B4AEB
S11347605023D35CDBB21A1C0423134001D1002371
S113477003E0054BDB6800E00023181CBD4602B0D3
S113478080BDC046F48F0000C8010020000800402E
S113479000127A0075460000006CDC02A95000008B
S11347A080B584B000AF78601A4B1B6AFB607B68ED
S11347B01B781A1C03231340DAB20D23FB180321C0
S11347C00A40101C1A7803218A43111C021C0A4354
S11347D01A707B689A780C23FB18D0011A787F2111
S11347E00A40111C021C0A431A707B685A780C2375
S11347F0FB1801210A4090011A7840218A43111CB8
S1134800021C0A431A70034BFA681A62BD4604B0CC
S113481080BDC0460008004080B582B000AF78601B
S11348207B681B7A9B021B041A0C7B685B899B05C3
S11348309B0D1A43294B5A607B689A797B68DB7914
S11348401343DBB21A1C7B685B8813437A68928833
S11348501A437B685B78DB011A43204B1A607B6840
S11348601B78042B16D17B681B7B9B061A1C7B6868
S1134870DB891B04191C1A4B0B4013437A68128AF8
S11348801A43164B9A60154B1B687A6812781A43C0
S1134890124B1A607B681B78202B1CD17B681B7B16
S11348A09B061A1C7B68DB891B04191C0C4B0B40F0
S11348B013437A68128A1A43084B9A60074B1B68A1
S11348C07A68127804210A43D2B213438022D200B8
S11348D01A43024B1A60BD4602B080BDC8010020D5
S11348E00000FF0380B582B000AF021CFB1D1A70EC
S11348F0FB1D1B78082B3BD89A00214BD3181B684F
S11349009F46204B1F4A126A02210A431A6200235F
S113491031E01C4B1B4A926902210A439A6129E047
S1134920184A184B1B8A9BB202210B439BB2138279
S113493020E0144A134B9B8A9BB202210B439BB287
S1134940938217E0104B1B6802221A430E4B1A6025
S11349500E4B98470EE00B4A0A494423CB5CDBB26A
S113496002210B43D9B24423D15403E0002302E0D3
S1134970172300E00023181CBD4602B080BDC046CA
S11349801890000000080040C80100208D46000077
S113499080B584B000AF021CFB1D1A700023FB60BD
S11349A0FB1D1B78082B21D89A00184BD3181B68C1
S11349B09F460823FB601BE00423FB6018E00123EF
S11349C0FB6015E00223FB6012E01023FB600FE0A4
S11349D00F4A5023D35CDBB21A1C03231340033B5E
S11349E05A425341DBB20CE001230AE0002308E001
S11349F0074BDB68FA681A40FB68D31A5A425341E2
S1134A00DBB2181CBD4604B080BDC0463C9000001B
S1134A100008004080B582B000AF3B1C02221A702F
S1134A2000237B6009E07B68DAB23B1C101C191C74
S1134A30054B98477B6801337B607B68242BF2D954
S1134A40BD4602B080BDC046854F000080B5A6B00B
S1134A5000AF6E4BC222D2009A6002206C4B984782
S1134A606C4B98478023FB18181C6B4B984780238A
S1134A70FB1820221A708023FB1800225A70674BFF
S1134A801B689B0E9422BA1813609423FB181B68AE
S1134A903F2B03D11F239422BA1813609423FB18CD
S1134AA01B68DAB28023FB181A728023FB180022D9
S1134AB05A808023FB180022DA718023FB1800221D
S1134AC09A718023FB1800229A808023FB18072206
S1134AD01A738023FB183F22DA818023FB180A22F1
S1134AE0DA818023FB184E4A5A818023FB18002266
S1134AF05A808023FB180022DA718023FB180022DD
S1134B009A718023FB18802252009A808023FB181C
S1134B10444A1A828023FB18181C434B98477C2371
S1134B20FB18181C414B98477C23FB1800221A7071
S1134B307C23FB1801229A707C23FB1800225A70F4
S1134B407C23FB18181C3A4B98470620394B98478E
S1134B50394B98476423FB18181C384B9847642337
S1134B60FB1805221A706423FB1801225A6064237F
S1134B70FB1800221A726423FB1800225A72642361
S1134B80FB180120191C2E4B984701202D4B9847E8
S1134B900720284B9847C04607202B4B9847031CF7
S1134BA01A1C01235340DBB2002BF5D1174B9A8C0E
S1134BB080210A439A840020244B98470020002136
S1134BC0234B984701200021214B984702200021C4
S1134BD01F4B98473B1C181C184B98473B1C07223B
S1134BE01A703B1C01225A603B1C01221A723B1CA6
S1134BF000225A723B1C0020191C114B98470020BC
S1134C00104B9847BD4626B080BDC0460008004002
S1134C1041460000154A00007D45000024608000E4
S1134C20FF01000080BBFFFF194800005D45000044
S1134C30A1470000E5480000F54C000031450000A4
S1134C40254D0000454E000091490000CD4500006F
S1134C50ED45000080B582B000AF021C3960FB1D39
S1134C601A70FB1D1B78012B0AD0022B0FD0002BCE
S1134C7014D10E4B0D4A91693A680A439A610FE0C8
S1134C800A4B0A4AD1693A680A43DA6108E0074BD9
S1134C90064A116A3A680A431A6201E0172300E0DF
S1134CA00023181CBD4602B080BDC046000400406D
S1134CB080B500AF014B9847BD4680BDE93C00007C
S1134CC080B500AF014B9847BD4680BD393D00001B
S1134CD080B500AF064B5B78DBB2DBB25BB2002B76
S1134CE001DA012300E00023181CBD4680BDC04644
S1134CF0000C004080B500AF00200821074B984706
S1134D00074B01221A70C046054B1B78DBB21A1CF4
S1134D1001231340F8D1BD4680BDC046554C000068
S1134D20000C004080B586B000AF021C3960FB1D4A
S1134D301A70FB1D1B787B61FB1D1B783B613B6874
S1134D401B781B021A1C7B6913437B613B685B78ED
S1134D50002B04D07B698022D20213437B613B6821
S1134D605B7A002B04D07B698022120313437B619E
S1134D703B685B68012B2CD93B685A683B685B68CD
S1134D80013B13401AD10023FB600223BB6005E002
S1134D90FB680133FB60BB685B00BB603B685A681F
S1134DA0BB689A42F4D8FB681B023A6913433B611F
S1134DB07B698022520313437B610AE03B685B6892
S1134DC01B023A6913433B617B69802292021343BD
S1134DD07B613B681B7A002B04D07B6980229203A1
S1134DE013437B61C046124B9847031EFBD1114B02
S1134DF09847114AFB1D1B781370C0460C4B98470B
S1134E00031EFBD10D4B3A699A60C046084B984784
S1134E10031EFBD1094B094A5168802252021140FA
S1134E207A690A435A60064B9847BD4606B080BD6E
S1134E30D14C0000B14C0000080C0040000C0040B4
S1134E40C14C000080B582B000AF021CFB1D1A707B
S1134E50C0460D4B9847031EFBD10C4B98470C4A98
S1134E60FB1D1B781370C046074B9847031EFBD1EC
S1134E70084B084A5268802149020A435A60064B8B
S1134E809847BD4602B080BDD14C0000B14C000033
S1134E90040C0040000C0040C14C000080B586B0FA
S1134EA000AF021CFB1D1A70C0462E4B9847031E10
S1134EB0FBD12D4B98472D4AFB1D1B781370C04620
S1134EC0284B9847031EFBD1294B5B681B0A1A1C0D
S1134ED01F231340DBB2181C264B9847031C7B612D
S1134EE0224AFB1D1B781370214B5B681B0D1A1C97
S1134EF001231340DAB21323FB181A701E4AFB1D58
S1134F001B781370C046174B9847031EFBD1184BF0
S1134F109B681B0A1A1C00239A43131C9BB2FB6058
S1134F20164B98471323FB181B78002B09D1FB68F9
S1134F30012B06D9124B7869F9689847031C7B61E9
S1134F400AE01323FB181B78002B05D0FB68013300
S1134F501A1C7B69D3407B617B69181CBD4606B073
S1134F6080BDC046D14C0000B14C0000040C004090
S1134F70000C0040D1460000080C0040C14C000069
S1134F80D98B000080B584B000AF021C3960FB1DD2
S1134F901A70FB1D1B78FB603B681B781B021A1CF4
S1134FA0FB681343FB60FB1D1B78181C044B9847DC
S1134FB0044BFA6892B25A80BD4604B080BDC04624
S1134FC00D500000000C004080B582B000AF021C00
S1134FD0FB1D1A70094B9847094AFB1D1B78137077
S1134FE00849084B5B889BB28022D20113439BB2D1
S1134FF04B80054B9847BD4602B080BDB14C0000C4
S1135000020C0040000C0040C14C000080B584B08C
S113501000AF021CFB1D1A701D4B98471D4AFB1D57
S11350201B7813701C4B5B889BB21B0A1A1C0F2342
S11350301340DBB2FB60184B5A8818490A405A8067
S1135040154A154B5B889BB215490B409BB25380A4
S1135050C046114B5B889BB21A1C8023DB011340B2
S1135060F7D10D4BFA68D2B2111C0F220A40D2B20A
S1135070111C0F220A4010025A8808490A40111CC8
S1135080021C0A435A80074B9847BD4604B080BDB2
S1135090B14C0000020C0040000C0040FFF0FFFF88
S11350A0FFBFFFFFC14C000080B584B000AF021CFD
S11350B0FB1D1A700E4B98470E4AFB1D1B7813708C
S11350C00D4B5B889BB21B0A1A1C0F231340DAB2E8
S11350D00F23FB181A70094B98470F23FB181B78F2
S11350E0181C074B9847031C181CBD4604B080BD10
S11350F0B14C0000020C0040000C0040C14C000008
S11351009D4E000080B584B000AF021CFB1D1A70D8
S11351100F23FB18FA1D1278D2091A700E23FB18FC
S1135120FA1D127852091A700D4BBB600F23FB183D
S11351301B78002B0FD10F23FB181B789B00102228
S11351409446BC446344083B1A680E23FB181B783E
S1135150DB01D31800E00023181CBD4604B080BD59
S11351600044004180B588B000AFF860B9607A604F
S11351700023FB617B68DB7801225340DBB2002B08
S113518035D07B681B78802B0BD0FB6980225202C0
S11351901343FB617B681B781B061A1CFB691343D2
S11351A0FB617B685B78002B03D07B685B78022B08
S11351B010D1FB69802292021343FB617B689B78C8
S11351C0002B04D0FB698022D2021343FB61FB68ED
S11351D0BA685A607B685B78012B03D07B685B7884
S11351E0022B07D1FB69214A1340FB6102E0FB68F3
S11351F0BA685A60BB681B041B0CBB61BB681B0C00
S11352007B61BA69FB691343A022D2051A43FB6888
S11352109A627A69FB691343D02212061A43FB6827
S11352209A627B68DB7801225340DBB2002B1AD0F0
S1135230FA698023DB0213400AD07B689B78012B38
S113524003D1FB68BA689A6102E0FB68BA685A61E4
S11352507B685B78012B03D07B685B78022B02D1DF
S1135260FB68BA689A60BD4608B080BDFFFFFBFFCB
S113527080B584B000AF021C3960FB1D1A70FB1DA1
S11352801B78181C0B4B9847031CFB60FB1D1B78F9
S11352901F22134001229A40131CBB60F968BA68AC
S11352A03B68081C111C1A1C034B9847BD4604B0EC
S11352B080BDC046055100006551000080B500AFB7
S11352C0C046BD4680BDC04680B500AF054B98477B
S11352D0054B9847054B9847054B9847054B98470E
S11352E0BD4680BD4D4A0000693E0000BD5200002D
S11352F041420000BD52000080B582B000AFEFF320
S113530010833B603B685A425341DBB27B6072B608
S1135310BFF35F8F034B00221A707B68181CBD46D5
S113532002B080BDDC00002080B582B000AF7860A0
S11353307B685A1E9341DBB2181CBD4602B080BD87
S113534080B582B000AF78607B68181C064B984724
S1135350031E05D0054B01221A70BFF35F8F62B69E
S1135360BD4602B080BDC04629530000DC000020C9
S113537080B584B000AF021CFB1D1A700F23FB180C
S1135380FA1D1278D2091A700E23FB18FA1D12782E
S113539052091A700D4BBB600F23FB181B78002BAE
S11353A00FD10F23FB181B789B0010229446BC449A
S11353B06344083B1A680E23FB181B78DB01D318DF
S11353C000E00023181CBD4604B080BD0044004129
S11353D080B582B000AF78607B681A687B681B6810
S11353E01B899BB201218B439BB21381BD4602B042
S11353F080BDC04680B582B000AF78607B681A6813
S11354007B681B681B899BB201210B439BB21381F0
S1135410BD4602B080BDC04680B582B000AF7860A2
S11354207B681B689B7A7F221340DBB2181CBD4645
S113543002B080BD80B582B000AF78600A1CFB1C4E
S11354401A707B681B68FA1C1278802149420A434F
S1135450D2B29A72BD4602B080BDC04680B582B059
S113546000AF78607B681B681B8A9BB2DB085B0516
S11354705B0D9BB2181CBD4602B080BD80B582B0E6
S113548000AF78600A1CFB1C1A707B681B68FA1C4E
S1135490127803210A40D2B2111C03220A4090025E
S11354A01A8904490A40111C021C0A431A81BD4688
S11354B002B080BDFFF3FFFF80B582B000AF021CD5
S11354C0FB1D1A70FB1D1B78181C034B9847031C0B
S11354D0181CBD4602B080BD7153000080B584B075
S11354E000AF021CFB1D1A70FB1D1B78181C0B4B14
S11354F09847031CFB60FB1D1B781F2213400122ED
S11355009A40131CBB60FB681B6ABA6813405A1E9E
S11355109341DBB2181CBD4604B080BDB9540000F1
S113552080B584B000AF021CFB1D1A70FB1D1B78F4
S11355300B4AD35CFF2B00D1FEE70A4B9847031CB0
S1135540FB60FB1D1B78064AD25C0132D1B2044ACF
S1135550D154FB68181C044B9847BD4604B080BD69
S1135560EC020020F95200004153000080B584B0E1
S113557000AF021CFB1D1A70FB1D1B780B4AD35C89
S1135580002B00D1FEE70A4B9847031CFB60FB1D70
S11355901B78064AD25C013AD1B2044AD154FB6862
S11355A0181C044B9847BD4604B080BDEC02002093
S11355B0F95200004153000080B500AF0B4B9B8CA7
S11355C09BB21A1C2023134007D1C046074BDB684B
S11355D0D0221340D02BF9D105E0C046034BDB6841
S11355E010221340FAD0BD4680BDC04600080040DA
S11355F080B584B000AF021CFB1D1A700C23FA188E
S1135600174B111C1A1C0423081C111C1A1C154BC3
S11356109847154B1B78FA1D12789A421CD0FB1D33
S11356201B78002B07D0FB1D1B780C22BA18D35C07
S1135630181C0E4B98470C4B1B78002B08D00A4BB8
S11356401B781A1C0C23FB189B5C181C084B9847EE
S1135650054BFA1D12781A70BD4604B080BDC046D1
S113566060900000698F00001002002021550000A6
S11356706D55000080B582B000AF021CFB1D1A708E
S1135680FB1D1B780F2213405B00FA1D1278D20910
S1135690D2B29B189A1E131C9B009B189B00034AB2
S11356A09B18181CBD4602B080BDC046E80100200E
S11356B090B589B000AF78607B68BB611723FB1895
S11356C0BA6992791A701723FB181B78181C574B68
S11356D09847031C3B610F23FB181722BA18127852
S11356E00F210A401A700C23FB183A69128A1A8097
S11356F00A23FB18BA6952881A803B69DA680A23BC
S1135700FB181B88D2183B69DA603B69DA683B698D
S11357109B689A4258D03B699B6899B23B69DB68A5
S11357209AB21E23FB188A1A1A801E23FB181B88A0
S11357303F4A93420ED90C23FB181A883C493D4B2F
S1135740081C111C98470B1C9AB21E23FB183849DD
S11357508A1A1A803B699B7C02221340DBB2002B1D
S11357600FD01E23FA180C23FB1811881A88324B09
S1135770081C111C98470B1C9BB2002B01D1012360
S113578000E00023DBB21A1C01231340DAB23B69A8
S113579001210A4090189A7C02218A43111C021CA0
S11357A00A439A743B695A683B69DB68D2181E2322
S11357B0FB181C8821490F23FB181B78081C191C93
S11357C0231C1F4CA0472EE03B699B7C0222134004
S11357D0DBB2002B13D03B699A7C02218A439A7472
S11357E03B695A683B69DB68D21814490F23FB18DC
S11357F01B78081C191C0023114CA04713E03B69BB
S11358009A7C01218A439A743B691B68002B0AD055
S11358103B691C683B69DA681723FB181B78002076
S1135820111C1A1CA047BD4609B090BD7556000056
S1135830FF1F0000C58E0000E58C000074030020EB
S11358404D7D0000B0B588B000AF78607B68BB6167
S11358501723FB18BA6992791A701723FB181B785F
S1135860181C6A4B9847031C3B610F23FB18172233
S1135870BA1812780F210A401A700C23FB183A69DF
S1135880128A1A800A23FB18BA6912881A803B69A3
S11358909B7C04221340DBB2002B1AD03B695A686C
S11358A03B69DB68D5180F23FB181B78013B9A0171
S11358B0574BD4183B6999680C23FB181A88554B2D
S11358C0081C111C98470B1C281C211C1A1C524B29
S11358D098473B69DA680A23FB181B88D2183B698E
S11358E0DA603B69DA683B699B689A4203D93B6991
S11358F09A683B69DA60BB699B880A22BA181288E5
S11359009A426BD13B69DA683B699B689A4265D0DD
S11359103B699B6899B23B69DB689AB21E23FB180A
S11359208A1A1A801E23FB181B883C4A93420FD9FB
S11359300C23FB181A883949394B081C111C984749
S11359400B1C9AB21E23FB1834498A1A1A8012E0DF
S11359501E23FA180C23FB1811881A882D4B081CD7
S1135960111C98470B1C9AB21E23FB181E21791890
S113597009888A1A1A801E23FA180C23FB18128825
S11359801B889A4218D23B699A7C04210A439A7470
S11359900F23FB181B78013B9A011D4BD2180C23D3
S11359A0FB181C881F490F23FB181B78081C191CA3
S11359B0231C1D4CA04725E03B695A683B69DB6802
S11359C0D2181E23FB181C8816490F23FB181B78BA
S11359D0081C191C231C144CA04713E03B699A7C37
S11359E001218A439A743B691B68002B0AD03B69E6
S11359F01C683B69DA681723FB181B780020111C0C
S1135A001A1CA047BD4608B0B0BDC046755600007C
S1135A1034030020E58C0000698F0000FF1F0000A4
S1135A20C58E000074030020057E000080B584B09C
S1135A3000AF786039603B68FB600B23FB18FA68A1
S1135A4092791A700B23FB181B785BB2002B04DAD3
S1135A503B68181C044B984703E03B68181C034B35
S1135A609847BD4604B080BDB156000045580000BB
S1135A7090B585B000AF021CFB1D1A70154AFB1DC2
S1135A801B78101C191C144B9847FB1D1B78181C01
S1135A90124B9847031CFB60FB689B7C012213405C
S1135AA0DBB2002B00D112E0FB689A7C01218A430F
S1135AB09A74FB681B68002B09D0FB681C68FB68A0
S1135AC0DA68FB1D1B780120111C1A1CA047BD4677
S1135AD005B090BD74030020ED7A000075560000F7
S1135AE080B500AF034B181C034B9847031C181CCC
S1135AF0BD4680BD740300205D54000080B584B0B1
S1135B0000AF021CFB1D1A700823FB18181C194B4C
S1135B1098470F23FB18FA1D12780F210A401A70B8
S1135B20FB1D1B78181C144B98470823FB18FA1DFF
S1135B3012781A700823FB180022DA700F4A08231F
S1135B40FB18101C191C0E4B98470C4A0F23FB180A
S1135B501B78101C191C00220A4B9847074AFB1D8E
S1135B601B78101C191C0022074B9847BD4604B033
S1135B7080BDC046E9750000715A0000740300201E
S1135B80117600002D7200004174000090B587B0BA
S1135B9000AF041C081C111CFB1D221C1A70BB1D29
S1135BA0021C1A703B1D0A1C1A800C23FB18181CBB
S1135BB05A4B98470C23FB18FA1D12781A703B1D98
S1135BC01B88082B04D80C23FB1800225A7045E0CC
S1135BD03B1D1B88102B04D80C23FB1801225A7080
S1135BE03CE03B1D1B88202B04D80C23FB1802220D
S1135BF05A7033E03B1D1B88402B04D80C23FB1840
S1135C0003225A702AE03B1D1B88802B04D80C23E6
S1135C10FB1804225A7021E03B1D1A8880235B0084
S1135C209A4204D80C23FB1805225A7016E03B1D37
S1135C301A8880239B009A4204D80C23FB1806225E
S1135C405A700BE03B1D1B88354A934204D80C2341
S1135C50FB1807225A7001E000235AE0FB1D1B7851
S1135C60181C304B9847031C7B617B693A1D1288D2
S1135C701A82BB1DBA1D127803210A401A70BB1D7B
S1135C801B78012B04D10C23FB180222DA7013E0D9
S1135C90BB1D1B78022B04D10C23FB180322DA70E2
S1135CA00AE0BB1D1B78032B04D10C23FB18042230
S1135CB0DA7001E000232CE01323FB18FA1D12789C
S1135CC00F210A401A70184A0C23FB18101C191CC7
S1135CD0164B9847031E01D000231AE012491323E0
S1135CE0FB181A78124B081C111C0022114CA047F7
